{
  "_format": "hh-sol-artifact-1",
  "contractName": "Vaultium",
  "sourceName": "contracts/Vaultium.sol",
  "abi": [
    {
      "inputs": [
        {
          "internalType": "uint256",
          "name": "_challengeTime",
          "type": "uint256"
        }
      ],
      "stateMutability": "nonpayable",
      "type": "constructor"
    },
    {
      "anonymous": false,
      "inputs": [
        {
          "indexed": false,
          "internalType": "bytes32",
          "name": "gameHash",
          "type": "bytes32"
        },
        {
          "indexed": false,
          "internalType": "string",
          "name": "newIpfsCid",
          "type": "string"
        },
        {
          "indexed": false,
          "internalType": "string",
          "name": "newImageCid",
          "type": "string"
        }
      ],
      "name": "ChallengeAddedToSystem",
      "type": "event"
    },
    {
      "anonymous": false,
      "inputs": [
        {
          "indexed": false,
          "internalType": "bytes32",
          "name": "gameHash",
          "type": "bytes32"
        },
        {
          "components": [
            {
              "internalType": "bytes32",
              "name": "gameHash",
              "type": "bytes32"
            },
            {
              "components": [
                {
                  "components": [
                    {
                      "internalType": "bytes32",
                      "name": "gameHash",
                      "type": "bytes32"
                    },
                    {
                      "internalType": "string",
                      "name": "ipfsCid",
                      "type": "string"
                    },
                    {
                      "internalType": "string",
                      "name": "imageCid",
                      "type": "string"
                    }
                  ],
                  "internalType": "struct Vaultium.GameVersion",
                  "name": "gameVersion",
                  "type": "tuple"
                },
                {
                  "components": [
                    {
                      "internalType": "uint32",
                      "name": "pointsCount",
                      "type": "uint32"
                    },
                    {
                      "internalType": "address",
                      "name": "voterAddress",
                      "type": "address"
                    }
                  ],
                  "internalType": "struct Vaultium.VoteInfo[]",
                  "name": "votes",
                  "type": "tuple[]"
                }
              ],
              "internalType": "struct Vaultium.ChallengeVersionResponse",
              "name": "currentChallengeVersion",
              "type": "tuple"
            },
            {
              "components": [
                {
                  "components": [
                    {
                      "internalType": "bytes32",
                      "name": "gameHash",
                      "type": "bytes32"
                    },
                    {
                      "internalType": "string",
                      "name": "ipfsCid",
                      "type": "string"
                    },
                    {
                      "internalType": "string",
                      "name": "imageCid",
                      "type": "string"
                    }
                  ],
                  "internalType": "struct Vaultium.GameVersion",
                  "name": "gameVersion",
                  "type": "tuple"
                },
                {
                  "components": [
                    {
                      "internalType": "uint32",
                      "name": "pointsCount",
                      "type": "uint32"
                    },
                    {
                      "internalType": "address",
                      "name": "voterAddress",
                      "type": "address"
                    }
                  ],
                  "internalType": "struct Vaultium.VoteInfo[]",
                  "name": "votes",
                  "type": "tuple[]"
                }
              ],
              "internalType": "struct Vaultium.ChallengeVersionResponse",
              "name": "newChallengeVersion",
              "type": "tuple"
            },
            {
              "internalType": "uint256",
              "name": "currentVersionPoints",
              "type": "uint256"
            },
            {
              "internalType": "uint256",
              "name": "newVersionPoints",
              "type": "uint256"
            },
            {
              "internalType": "uint256",
              "name": "creationDate",
              "type": "uint256"
            },
            {
              "internalType": "uint256",
              "name": "closingDate",
              "type": "uint256"
            }
          ],
          "indexed": false,
          "internalType": "struct Vaultium.ChallengeResponse",
          "name": "challenge",
          "type": "tuple"
        }
      ],
      "name": "ClosedChallenge",
      "type": "event"
    },
    {
      "anonymous": false,
      "inputs": [
        {
          "indexed": false,
          "internalType": "bytes32",
          "name": "gameHash",
          "type": "bytes32"
        },
        {
          "indexed": false,
          "internalType": "string",
          "name": "name",
          "type": "string"
        },
        {
          "indexed": false,
          "internalType": "string",
          "name": "publisher",
          "type": "string"
        },
        {
          "indexed": false,
          "internalType": "uint256",
          "name": "year",
          "type": "uint256"
        }
      ],
      "name": "GameAddedToSystem",
      "type": "event"
    },
    {
      "anonymous": false,
      "inputs": [
        {
          "indexed": false,
          "internalType": "bytes32",
          "name": "gameHash",
          "type": "bytes32"
        },
        {
          "components": [
            {
              "internalType": "bytes32",
              "name": "gameHash",
              "type": "bytes32"
            },
            {
              "components": [
                {
                  "components": [
                    {
                      "internalType": "bytes32",
                      "name": "gameHash",
                      "type": "bytes32"
                    },
                    {
                      "internalType": "string",
                      "name": "ipfsCid",
                      "type": "string"
                    },
                    {
                      "internalType": "string",
                      "name": "imageCid",
                      "type": "string"
                    }
                  ],
                  "internalType": "struct Vaultium.GameVersion",
                  "name": "gameVersion",
                  "type": "tuple"
                },
                {
                  "components": [
                    {
                      "internalType": "uint32",
                      "name": "pointsCount",
                      "type": "uint32"
                    },
                    {
                      "internalType": "address",
                      "name": "voterAddress",
                      "type": "address"
                    }
                  ],
                  "internalType": "struct Vaultium.VoteInfo[]",
                  "name": "votes",
                  "type": "tuple[]"
                }
              ],
              "internalType": "struct Vaultium.ChallengeVersionResponse",
              "name": "currentChallengeVersion",
              "type": "tuple"
            },
            {
              "components": [
                {
                  "components": [
                    {
                      "internalType": "bytes32",
                      "name": "gameHash",
                      "type": "bytes32"
                    },
                    {
                      "internalType": "string",
                      "name": "ipfsCid",
                      "type": "string"
                    },
                    {
                      "internalType": "string",
                      "name": "imageCid",
                      "type": "string"
                    }
                  ],
                  "internalType": "struct Vaultium.GameVersion",
                  "name": "gameVersion",
                  "type": "tuple"
                },
                {
                  "components": [
                    {
                      "internalType": "uint32",
                      "name": "pointsCount",
                      "type": "uint32"
                    },
                    {
                      "internalType": "address",
                      "name": "voterAddress",
                      "type": "address"
                    }
                  ],
                  "internalType": "struct Vaultium.VoteInfo[]",
                  "name": "votes",
                  "type": "tuple[]"
                }
              ],
              "internalType": "struct Vaultium.ChallengeVersionResponse",
              "name": "newChallengeVersion",
              "type": "tuple"
            },
            {
              "internalType": "uint256",
              "name": "currentVersionPoints",
              "type": "uint256"
            },
            {
              "internalType": "uint256",
              "name": "newVersionPoints",
              "type": "uint256"
            },
            {
              "internalType": "uint256",
              "name": "creationDate",
              "type": "uint256"
            },
            {
              "internalType": "uint256",
              "name": "closingDate",
              "type": "uint256"
            }
          ],
          "indexed": false,
          "internalType": "struct Vaultium.ChallengeResponse",
          "name": "challenge",
          "type": "tuple"
        }
      ],
      "name": "VotedChallenge",
      "type": "event"
    },
    {
      "inputs": [
        {
          "internalType": "bytes32",
          "name": "_gameHash",
          "type": "bytes32"
        },
        {
          "internalType": "string",
          "name": "_ipfsCid",
          "type": "string"
        },
        {
          "internalType": "string",
          "name": "_imageCid",
          "type": "string"
        }
      ],
      "name": "challengeAbandonwareVersion",
      "outputs": [
        {
          "components": [
            {
              "internalType": "bytes32",
              "name": "gameHash",
              "type": "bytes32"
            },
            {
              "components": [
                {
                  "components": [
                    {
                      "internalType": "bytes32",
                      "name": "gameHash",
                      "type": "bytes32"
                    },
                    {
                      "internalType": "string",
                      "name": "ipfsCid",
                      "type": "string"
                    },
                    {
                      "internalType": "string",
                      "name": "imageCid",
                      "type": "string"
                    }
                  ],
                  "internalType": "struct Vaultium.GameVersion",
                  "name": "gameVersion",
                  "type": "tuple"
                },
                {
                  "components": [
                    {
                      "internalType": "uint32",
                      "name": "pointsCount",
                      "type": "uint32"
                    },
                    {
                      "internalType": "address",
                      "name": "voterAddress",
                      "type": "address"
                    }
                  ],
                  "internalType": "struct Vaultium.VoteInfo[]",
                  "name": "votes",
                  "type": "tuple[]"
                }
              ],
              "internalType": "struct Vaultium.ChallengeVersionResponse",
              "name": "currentChallengeVersion",
              "type": "tuple"
            },
            {
              "components": [
                {
                  "components": [
                    {
                      "internalType": "bytes32",
                      "name": "gameHash",
                      "type": "bytes32"
                    },
                    {
                      "internalType": "string",
                      "name": "ipfsCid",
                      "type": "string"
                    },
                    {
                      "internalType": "string",
                      "name": "imageCid",
                      "type": "string"
                    }
                  ],
                  "internalType": "struct Vaultium.GameVersion",
                  "name": "gameVersion",
                  "type": "tuple"
                },
                {
                  "components": [
                    {
                      "internalType": "uint32",
                      "name": "pointsCount",
                      "type": "uint32"
                    },
                    {
                      "internalType": "address",
                      "name": "voterAddress",
                      "type": "address"
                    }
                  ],
                  "internalType": "struct Vaultium.VoteInfo[]",
                  "name": "votes",
                  "type": "tuple[]"
                }
              ],
              "internalType": "struct Vaultium.ChallengeVersionResponse",
              "name": "newChallengeVersion",
              "type": "tuple"
            },
            {
              "internalType": "uint256",
              "name": "currentVersionPoints",
              "type": "uint256"
            },
            {
              "internalType": "uint256",
              "name": "newVersionPoints",
              "type": "uint256"
            },
            {
              "internalType": "uint256",
              "name": "creationDate",
              "type": "uint256"
            },
            {
              "internalType": "uint256",
              "name": "closingDate",
              "type": "uint256"
            }
          ],
          "internalType": "struct Vaultium.ChallengeResponse",
          "name": "",
          "type": "tuple"
        }
      ],
      "stateMutability": "nonpayable",
      "type": "function"
    },
    {
      "inputs": [
        {
          "internalType": "bytes32",
          "name": "",
          "type": "bytes32"
        }
      ],
      "name": "game",
      "outputs": [
        {
          "internalType": "string",
          "name": "name",
          "type": "string"
        },
        {
          "internalType": "uint16",
          "name": "year",
          "type": "uint16"
        },
        {
          "internalType": "string",
          "name": "publisher",
          "type": "string"
        },
        {
          "internalType": "string",
          "name": "ipfsCid",
          "type": "string"
        },
        {
          "internalType": "string",
          "name": "imageCid",
          "type": "string"
        },
        {
          "internalType": "bool",
          "name": "isAbandonware",
          "type": "bool"
        },
        {
          "internalType": "string",
          "name": "description",
          "type": "string"
        },
        {
          "internalType": "bytes32",
          "name": "gameHash",
          "type": "bytes32"
        }
      ],
      "stateMutability": "view",
      "type": "function"
    },
    {
      "inputs": [
        {
          "internalType": "bytes32",
          "name": "",
          "type": "bytes32"
        }
      ],
      "name": "gameChallengeHistory",
      "outputs": [
        {
          "internalType": "uint256",
          "name": "challengesSize",
          "type": "uint256"
        }
      ],
      "stateMutability": "view",
      "type": "function"
    },
    {
      "inputs": [
        {
          "internalType": "bytes32",
          "name": "",
          "type": "bytes32"
        }
      ],
      "name": "gameVersionHistory",
      "outputs": [
        {
          "internalType": "uint256",
          "name": "versionsSize",
          "type": "uint256"
        }
      ],
      "stateMutability": "view",
      "type": "function"
    },
    {
      "inputs": [
        {
          "internalType": "bytes32",
          "name": "_gameHash",
          "type": "bytes32"
        }
      ],
      "name": "getGameChallengeHistory",
      "outputs": [
        {
          "components": [
            {
              "internalType": "bytes32",
              "name": "gameHash",
              "type": "bytes32"
            },
            {
              "components": [
                {
                  "components": [
                    {
                      "internalType": "bytes32",
                      "name": "gameHash",
                      "type": "bytes32"
                    },
                    {
                      "internalType": "string",
                      "name": "ipfsCid",
                      "type": "string"
                    },
                    {
                      "internalType": "string",
                      "name": "imageCid",
                      "type": "string"
                    }
                  ],
                  "internalType": "struct Vaultium.GameVersion",
                  "name": "gameVersion",
                  "type": "tuple"
                },
                {
                  "components": [
                    {
                      "internalType": "uint32",
                      "name": "pointsCount",
                      "type": "uint32"
                    },
                    {
                      "internalType": "address",
                      "name": "voterAddress",
                      "type": "address"
                    }
                  ],
                  "internalType": "struct Vaultium.VoteInfo[]",
                  "name": "votes",
                  "type": "tuple[]"
                }
              ],
              "internalType": "struct Vaultium.ChallengeVersionResponse",
              "name": "currentChallengeVersion",
              "type": "tuple"
            },
            {
              "components": [
                {
                  "components": [
                    {
                      "internalType": "bytes32",
                      "name": "gameHash",
                      "type": "bytes32"
                    },
                    {
                      "internalType": "string",
                      "name": "ipfsCid",
                      "type": "string"
                    },
                    {
                      "internalType": "string",
                      "name": "imageCid",
                      "type": "string"
                    }
                  ],
                  "internalType": "struct Vaultium.GameVersion",
                  "name": "gameVersion",
                  "type": "tuple"
                },
                {
                  "components": [
                    {
                      "internalType": "uint32",
                      "name": "pointsCount",
                      "type": "uint32"
                    },
                    {
                      "internalType": "address",
                      "name": "voterAddress",
                      "type": "address"
                    }
                  ],
                  "internalType": "struct Vaultium.VoteInfo[]",
                  "name": "votes",
                  "type": "tuple[]"
                }
              ],
              "internalType": "struct Vaultium.ChallengeVersionResponse",
              "name": "newChallengeVersion",
              "type": "tuple"
            },
            {
              "internalType": "uint256",
              "name": "currentVersionPoints",
              "type": "uint256"
            },
            {
              "internalType": "uint256",
              "name": "newVersionPoints",
              "type": "uint256"
            },
            {
              "internalType": "uint256",
              "name": "creationDate",
              "type": "uint256"
            },
            {
              "internalType": "uint256",
              "name": "closingDate",
              "type": "uint256"
            }
          ],
          "internalType": "struct Vaultium.ChallengeResponse[]",
          "name": "",
          "type": "tuple[]"
        }
      ],
      "stateMutability": "view",
      "type": "function"
    },
    {
      "inputs": [
        {
          "internalType": "bytes32",
          "name": "_gameHash",
          "type": "bytes32"
        }
      ],
      "name": "getGameVersionHistory",
      "outputs": [
        {
          "components": [
            {
              "internalType": "bytes32",
              "name": "gameHash",
              "type": "bytes32"
            },
            {
              "internalType": "string",
              "name": "ipfsCid",
              "type": "string"
            },
            {
              "internalType": "string",
              "name": "imageCid",
              "type": "string"
            }
          ],
          "internalType": "struct Vaultium.GameVersion[]",
          "name": "",
          "type": "tuple[]"
        }
      ],
      "stateMutability": "nonpayable",
      "type": "function"
    },
    {
      "inputs": [],
      "name": "owner",
      "outputs": [
        {
          "internalType": "address payable",
          "name": "",
          "type": "address"
        }
      ],
      "stateMutability": "view",
      "type": "function"
    },
    {
      "inputs": [
        {
          "internalType": "string",
          "name": "_name",
          "type": "string"
        },
        {
          "internalType": "string",
          "name": "_description",
          "type": "string"
        },
        {
          "internalType": "string",
          "name": "_publisher",
          "type": "string"
        },
        {
          "internalType": "uint16",
          "name": "_year",
          "type": "uint16"
        }
      ],
      "name": "searchAbandonware",
      "outputs": [
        {
          "components": [
            {
              "internalType": "string",
              "name": "name",
              "type": "string"
            },
            {
              "internalType": "uint16",
              "name": "year",
              "type": "uint16"
            },
            {
              "internalType": "string",
              "name": "publisher",
              "type": "string"
            },
            {
              "internalType": "string",
              "name": "ipfsCid",
              "type": "string"
            },
            {
              "internalType": "string",
              "name": "imageCid",
              "type": "string"
            },
            {
              "internalType": "bool",
              "name": "isAbandonware",
              "type": "bool"
            },
            {
              "internalType": "string",
              "name": "description",
              "type": "string"
            },
            {
              "internalType": "bytes32",
              "name": "gameHash",
              "type": "bytes32"
            }
          ],
          "internalType": "struct Vaultium.GameInfo",
          "name": "",
          "type": "tuple"
        }
      ],
      "stateMutability": "nonpayable",
      "type": "function"
    },
    {
      "inputs": [
        {
          "internalType": "bytes32",
          "name": "_gameHash",
          "type": "bytes32"
        },
        {
          "internalType": "bool",
          "name": "_voteNewVersion",
          "type": "bool"
        },
        {
          "internalType": "uint32",
          "name": "_tokenCount",
          "type": "uint32"
        }
      ],
      "name": "voteChallenge",
      "outputs": [
        {
          "components": [
            {
              "internalType": "bytes32",
              "name": "gameHash",
              "type": "bytes32"
            },
            {
              "components": [
                {
                  "components": [
                    {
                      "internalType": "bytes32",
                      "name": "gameHash",
                      "type": "bytes32"
                    },
                    {
                      "internalType": "string",
                      "name": "ipfsCid",
                      "type": "string"
                    },
                    {
                      "internalType": "string",
                      "name": "imageCid",
                      "type": "string"
                    }
                  ],
                  "internalType": "struct Vaultium.GameVersion",
                  "name": "gameVersion",
                  "type": "tuple"
                },
                {
                  "components": [
                    {
                      "internalType": "uint32",
                      "name": "pointsCount",
                      "type": "uint32"
                    },
                    {
                      "internalType": "address",
                      "name": "voterAddress",
                      "type": "address"
                    }
                  ],
                  "internalType": "struct Vaultium.VoteInfo[]",
                  "name": "votes",
                  "type": "tuple[]"
                }
              ],
              "internalType": "struct Vaultium.ChallengeVersionResponse",
              "name": "currentChallengeVersion",
              "type": "tuple"
            },
            {
              "components": [
                {
                  "components": [
                    {
                      "internalType": "bytes32",
                      "name": "gameHash",
                      "type": "bytes32"
                    },
                    {
                      "internalType": "string",
                      "name": "ipfsCid",
                      "type": "string"
                    },
                    {
                      "internalType": "string",
                      "name": "imageCid",
                      "type": "string"
                    }
                  ],
                  "internalType": "struct Vaultium.GameVersion",
                  "name": "gameVersion",
                  "type": "tuple"
                },
                {
                  "components": [
                    {
                      "internalType": "uint32",
                      "name": "pointsCount",
                      "type": "uint32"
                    },
                    {
                      "internalType": "address",
                      "name": "voterAddress",
                      "type": "address"
                    }
                  ],
                  "internalType": "struct Vaultium.VoteInfo[]",
                  "name": "votes",
                  "type": "tuple[]"
                }
              ],
              "internalType": "struct Vaultium.ChallengeVersionResponse",
              "name": "newChallengeVersion",
              "type": "tuple"
            },
            {
              "internalType": "uint256",
              "name": "currentVersionPoints",
              "type": "uint256"
            },
            {
              "internalType": "uint256",
              "name": "newVersionPoints",
              "type": "uint256"
            },
            {
              "internalType": "uint256",
              "name": "creationDate",
              "type": "uint256"
            },
            {
              "internalType": "uint256",
              "name": "closingDate",
              "type": "uint256"
            }
          ],
          "internalType": "struct Vaultium.ChallengeResponse",
          "name": "",
          "type": "tuple"
        }
      ],
      "stateMutability": "nonpayable",
      "type": "function"
    }
  ],
  "bytecode": "0x6080604052348015600f57600080fd5b506040516146133803806146138339818101604052810190602f919060b1565b336000806101000a81548173ffffffffffffffffffffffffffffffffffffffff021916908373ffffffffffffffffffffffffffffffffffffffff160217905550806004819055505060d9565b600080fd5b6000819050919050565b6091816080565b8114609b57600080fd5b50565b60008151905060ab81608a565b92915050565b60006020828403121560c45760c3607b565b5b600060d084828501609e565b91505092915050565b61452b806100e86000396000f3fe608060405234801561001057600080fd5b50600436106100935760003560e01c80638da5cb5b116100665780638da5cb5b1461015f578063c61d05761461017d578063cd64c942146101ad578063de53e35e146101dd578063fd3997021461020d57610093565b80632388f2cf146100985780636af6f24e146100c85780636d25d153146100f85780638c1cdb4a14610128575b600080fd5b6100b260048036038101906100ad9190612f27565b61023d565b6040516100bf9190612f6d565b60405180910390f35b6100e260048036038101906100dd9190612ffc565b61025b565b6040516100ef9190613369565b60405180910390f35b610112600480360381019061010d9190612f27565b6108e3565b60405161011f9190612f6d565b60405180910390f35b610142600480360381019061013d9190612f27565b610901565b604051610156989796959493929190613410565b60405180910390f35b610167610c0c565b60405161017491906134d2565b60405180910390f35b61019760048036038101906101929190613552565b610c30565b6040516101a49190613369565b60405180910390f35b6101c760048036038101906101c29190612f27565b611410565b6040516101d491906136a9565b60405180910390f35b6101f760048036038101906101f29190612f27565b61169a565b6040516102049190613830565b60405180910390f35b6102276004803603810190610222919061387e565b6117c5565b6040516102349190613a31565b60405180910390f35b60036020528060005260406000206000915090508060010154905081565b610263612dd3565b60006001600086815260200190815260200160002060010160009054906101000a900461ffff1661ffff16116102ce576040517f08c379a00000000000000000000000000000000000000000000000000000000081526004016102c590613a9f565b60405180910390fd5b60006102d985611bcb565b90508061031b576040517f08c379a000000000000000000000000000000000000000000000000000000000815260040161031290613b0b565b60405180910390fd5b60008363ffffffff1611801561033957506127108363ffffffff1611155b610378576040517f08c379a000000000000000000000000000000000000000000000000000000000815260040161036f90613b9d565b60405180910390fd5b61038183611c61565b6103c0576040517f08c379a00000000000000000000000000000000000000000000000000000000081526004016103b790613c2f565b60405180910390fd5b6103ca8533611c7b565b1561040a576040517f08c379a000000000000000000000000000000000000000000000000000000000815260040161040190613cc1565b60405180910390fd5b600061041584611ee6565b905084156106475760006002600088815260200190815260200160002060000160006001600260008b81526020019081526020016000206001015461045a9190613d10565b81526020019081526020016000206006016004015490506002600088815260200190815260200160002060000160006001600260008b8152602001908152602001600020600101546104ac9190613d10565b815260200190815260200160002060060160040160008154809291906104d190613d44565b919050555060405180604001604052808363ffffffff1681526020013373ffffffffffffffffffffffffffffffffffffffff168152506002600089815260200190815260200160002060000160006001600260008c8152602001908152602001600020600101546105429190613d10565b8152602001908152602001600020600601600301600083815260200190815260200160002060008201518160000160006101000a81548163ffffffff021916908363ffffffff16021790555060208201518160000160046101000a81548173ffffffffffffffffffffffffffffffffffffffff021916908373ffffffffffffffffffffffffffffffffffffffff1602179055509050508163ffffffff166002600089815260200190815260200160002060000160006001600260008c81526020019081526020016000206001015461061a9190613d10565b8152602001908152602001600020600c01600082825461063a9190613d8c565b925050819055505061086d565b60006002600088815260200190815260200160002060000160006001600260008b8152602001908152602001600020600101546106849190613d10565b81526020019081526020016000206001016004015490506002600088815260200190815260200160002060000160006001600260008b8152602001908152602001600020600101546106d69190613d10565b815260200190815260200160002060010160040160008154809291906106fb90613d44565b919050555060405180604001604052808363ffffffff1681526020013373ffffffffffffffffffffffffffffffffffffffff168152506002600089815260200190815260200160002060000160006001600260008c81526020019081526020016000206001015461076c9190613d10565b8152602001908152602001600020600101600301600083815260200190815260200160002060008201518160000160006101000a81548163ffffffff021916908363ffffffff16021790555060208201518160000160046101000a81548173ffffffffffffffffffffffffffffffffffffffff021916908373ffffffffffffffffffffffffffffffffffffffff1602179055509050508163ffffffff166002600089815260200190815260200160002060000160006001600260008c8152602001908152602001600020600101546108449190613d10565b8152602001908152602001600020600b0160008282546108649190613d8c565b92505081905550505b600061089b876001600260008b8152602001908152602001600020600101546108969190613d10565b611f51565b90507f7f80e2e84cb241d82c34b3897910e66e96fc5992305b1f81dedd50503fdc17ff87826040516108ce929190613dc0565b60405180910390a18093505050509392505050565b60026020528060005260406000206000915090508060010154905081565b600160205280600052604060002060009150905080600001805461092490613e1f565b80601f016020809104026020016040519081016040528092919081815260200182805461095090613e1f565b801561099d5780601f106109725761010080835404028352916020019161099d565b820191906000526020600020905b81548152906001019060200180831161098057829003601f168201915b5050505050908060010160009054906101000a900461ffff16908060020180546109c690613e1f565b80601f01602080910402602001604051908101604052809291908181526020018280546109f290613e1f565b8015610a3f5780601f10610a1457610100808354040283529160200191610a3f565b820191906000526020600020905b815481529060010190602001808311610a2257829003601f168201915b505050505090806003018054610a5490613e1f565b80601f0160208091040260200160405190810160405280929190818152602001828054610a8090613e1f565b8015610acd5780601f10610aa257610100808354040283529160200191610acd565b820191906000526020600020905b815481529060010190602001808311610ab057829003601f168201915b505050505090806004018054610ae290613e1f565b80601f0160208091040260200160405190810160405280929190818152602001828054610b0e90613e1f565b8015610b5b5780601f10610b3057610100808354040283529160200191610b5b565b820191906000526020600020905b815481529060010190602001808311610b3e57829003601f168201915b5050505050908060050160009054906101000a900460ff1690806006018054610b8390613e1f565b80601f0160208091040260200160405190810160405280929190818152602001828054610baf90613e1f565b8015610bfc5780601f10610bd157610100808354040283529160200191610bfc565b820191906000526020600020905b815481529060010190602001808311610bdf57829003601f168201915b5050505050908060070154905088565b60008054906101000a900473ffffffffffffffffffffffffffffffffffffffff1681565b610c38612dd3565b60006001600088815260200190815260200160002060010160009054906101000a900461ffff1661ffff1611610ca3576040517f08c379a0000000000000000000000000000000000000000000000000000000008152600401610c9a90613a9f565b60405180910390fd5b6000610cae87611bcb565b90508015610cf1576040517f08c379a0000000000000000000000000000000000000000000000000000000008152600401610ce890613e9c565b60405180910390fd5b610cfa87612650565b60006040518060e00160405280898152602001604051806040016040528060405180606001604052808d8152602001600160008f81526020019081526020016000206003018054610d4a90613e1f565b80601f0160208091040260200160405190810160405280929190818152602001828054610d7690613e1f565b8015610dc35780601f10610d9857610100808354040283529160200191610dc3565b820191906000526020600020905b815481529060010190602001808311610da657829003601f168201915b50505050508152602001600160008f81526020019081526020016000206004018054610dee90613e1f565b80601f0160208091040260200160405190810160405280929190818152602001828054610e1a90613e1f565b8015610e675780601f10610e3c57610100808354040283529160200191610e67565b820191906000526020600020905b815481529060010190602001808311610e4a57829003601f168201915b50505050508152508152602001600067ffffffffffffffff811115610e8f57610e8e613ebc565b5b604051908082528060200260200182016040528015610ec857816020015b610eb5612e1f565b815260200190600190039081610ead5790505b508152508152602001604051806040016040528060405180606001604052808d81526020018c8c8080601f016020809104026020016040519081016040528093929190818152602001838380828437600081840152601f19601f8201169050808301925050505050505081526020018a8a8080601f016020809104026020016040519081016040528093929190818152602001838380828437600081840152601f19601f820116905080830192505050505050508152508152602001600067ffffffffffffffff811115610f9f57610f9e613ebc565b5b604051908082528060200260200182016040528015610fd857816020015b610fc5612e1f565b815260200190600190039081610fbd5790505b5081525081526020016000815260200160008152602001428152602001600454426110039190613d8c565b81525090506000600260008a8152602001908152602001600020600101549050600260008a8152602001908152602001600020600101600081548092919061104a90613d44565b919050555088600260008b815260200190815260200160002060000160008381526020019081526020016000206000018190555060405180606001604052808a815260200189898080601f016020809104026020016040519081016040528093929190818152602001838380828437600081840152601f19601f82011690508083019250505050505050815260200187878080601f016020809104026020016040519081016040528093929190818152602001838380828437600081840152601f19601f82011690508083019250505050505050815250600260008b8152602001908152602001600020600001600083815260200190815260200160002060010160000160008201518160000155602082015181600101908161116d9190614097565b5060408201518160020190816111839190614097565b509050506000600260008b815260200190815260200160002060000160008381526020019081526020016000206001016004018190555060405180606001604052808a815260200189898080601f016020809104026020016040519081016040528093929190818152602001838380828437600081840152601f19601f82011690508083019250505050505050815260200187878080601f016020809104026020016040519081016040528093929190818152602001838380828437600081840152601f19601f82011690508083019250505050505050815250600260008b815260200190815260200160002060000160008381526020019081526020016000206006016000016000820151816000015560208201518160010190816112a99190614097565b5060408201518160020190816112bf9190614097565b509050506000600260008b81526020019081526020016000206000016000838152602001908152602001600020600601600401819055508160c00151600260008b81526020019081526020016000206000016000838152602001908152602001600020600e01819055508160a00151600260008b81526020019081526020016000206000016000838152602001908152602001600020600d01819055508160600151600260008b81526020019081526020016000206000016000838152602001908152602001600020600b01819055508160800151600260008b81526020019081526020016000206000016000838152602001908152602001600020600c01819055507f353f671708cd6413b2b74d3e106ef3692b2b8338e54d08716e7bff60a869485a89898989896040516113f99594939291906141a5565b60405180910390a181935050505095945050505050565b606060006001600084815260200190815260200160002060010160009054906101000a900461ffff1661ffff161161147d576040517f08c379a000000000000000000000000000000000000000000000000000000000815260040161147490613a9f565b60405180910390fd5b61148682612650565b60006003600084815260200190815260200160002060010154905060008167ffffffffffffffff8111156114bd576114bc613ebc565b5b6040519080825280602002602001820160405280156114f657816020015b6114e3612e55565b8152602001906001900390816114db5790505b50905060005b8281101561168f576003600086815260200190815260200160002060000160008281526020019081526020016000206040518060600160405290816000820154815260200160018201805461155090613e1f565b80601f016020809104026020016040519081016040528092919081815260200182805461157c90613e1f565b80156115c95780601f1061159e576101008083540402835291602001916115c9565b820191906000526020600020905b8154815290600101906020018083116115ac57829003601f168201915b505050505081526020016002820180546115e290613e1f565b80601f016020809104026020016040519081016040528092919081815260200182805461160e90613e1f565b801561165b5780601f106116305761010080835404028352916020019161165b565b820191906000526020600020905b81548152906001019060200180831161163e57829003601f168201915b505050505081525050828281518110611677576116766141ee565b5b602002602001018190525080806001019150506114fc565b508092505050919050565b606060006001600084815260200190815260200160002060010160009054906101000a900461ffff1661ffff1611611707576040517f08c379a00000000000000000000000000000000000000000000000000000000081526004016116fe90613a9f565b60405180910390fd5b60006002600084815260200190815260200160002060010154905060008167ffffffffffffffff81111561173e5761173d613ebc565b5b60405190808252806020026020018201604052801561177757816020015b611764612dd3565b81526020019060019003908161175c5790505b50905060005b828110156117ba5761178f8582611f51565b8282815181106117a2576117a16141ee565b5b6020026020010181905250808060010191505061177d565b508092505050919050565b6117cd612e79565b60008888905011611813576040517f08c379a000000000000000000000000000000000000000000000000000000000815260040161180a90614269565b60405180910390fd5b60008484905011611859576040517f08c379a0000000000000000000000000000000000000000000000000000000008152600401611850906142d5565b60405180910390fd5b60008261ffff16116118a0576040517f08c379a000000000000000000000000000000000000000000000000000000000815260040161189790614341565b60405180910390fd5b600061193589898080601f016020809104026020016040519081016040528093929190818152602001838380828437600081840152601f19601f820116905080830192505050505050508487878080601f016020809104026020016040519081016040528093929190818152602001838380828437600081840152601f19601f82011690508083019250505050505050612cbf565b905061194081612650565b60006040518061010001604052808b8b8080601f016020809104026020016040519081016040528093929190818152602001838380828437600081840152601f19601f8201169050808301925050505050505081526020018561ffff16815260200187878080601f016020809104026020016040519081016040528093929190818152602001838380828437600081840152601f19601f82011690508083019250505050505050815260200160405180602001604052806000815250815260200160405180602001604052806000815250815260200160011515815260200189898080601f016020809104026020016040519081016040528093929190818152602001838380828437600081840152601f19601f82011690508083019250505050505050815260200183815250905060006001600084815260200190815260200160002060010160009054906101000a900461ffff1661ffff1603611bbb5780600160008481526020019081526020016000206000820151816000019081611ac89190614097565b5060208201518160010160006101000a81548161ffff021916908361ffff1602179055506040820151816002019081611b019190614097565b506060820151816003019081611b179190614097565b506080820151816004019081611b2d9190614097565b5060a08201518160050160006101000a81548160ff02191690831515021790555060c0820151816006019081611b639190614097565b5060e082015181600701559050507fe221857cdf5c581b0f0ff25967667b13da78f93170ee70eed41682cd2195ad4682826000015183604001518460200151604051611bb29493929190614392565b60405180910390a15b8092505050979650505050505050565b600080600260008481526020019081526020016000206001015403611bf35760009050611c5c565b600060026000848152602001908152602001600020600001600060016002600087815260200190815260200160002060010154611c309190613d10565b8152602001908152602001600020600e0154905042811015611c56576000915050611c5c565b60019150505b919050565b600080611c6d83611ee6565b63ffffffff16119050919050565b60008060026000858152602001908152602001600020600001600060016002600088815260200190815260200160002060010154611cb99190613d10565b815260200190815260200160002060060160040154905060005b81811015611da9578373ffffffffffffffffffffffffffffffffffffffff166002600087815260200190815260200160002060000160006001600260008a815260200190815260200160002060010154611d2d9190613d10565b8152602001908152602001600020600601600301600083815260200190815260200160002060000160049054906101000a900473ffffffffffffffffffffffffffffffffffffffff1673ffffffffffffffffffffffffffffffffffffffff1603611d9c57600192505050611ee0565b8080600101915050611cd3565b50600060026000868152602001908152602001600020600001600060016002600089815260200190815260200160002060010154611de79190613d10565b815260200190815260200160002060010160040154905060005b81811015611ed8578473ffffffffffffffffffffffffffffffffffffffff166002600088815260200190815260200160002060000160006001600260008b815260200190815260200160002060010154611e5b9190613d10565b8152602001908152602001600020600101600301600083815260200190815260200160002060000160049054906101000a900473ffffffffffffffffffffffffffffffffffffffff1673ffffffffffffffffffffffffffffffffffffffff1603611ecb5760019350505050611ee0565b8080600101915050611e01565b506000925050505b92915050565b600080600190505b8263ffffffff168182611f0191906143e5565b63ffffffff1611611f46578263ffffffff168182611f1f91906143e5565b63ffffffff1603611f335780915050611f4c565b8080611f3e90614422565b915050611eee565b50600090505b919050565b611f59612dd3565b60006002600085815260200190815260200160002060000160008481526020019081526020016000206001016004015467ffffffffffffffff811115611fa257611fa1613ebc565b5b604051908082528060200260200182016040528015611fdb57816020015b611fc8612e1f565b815260200190600190039081611fc05790505b50905060005b81518110156120da5760026000868152602001908152602001600020600001600085815260200190815260200160002060010160030160008281526020019081526020016000206040518060400160405290816000820160009054906101000a900463ffffffff1663ffffffff1663ffffffff1681526020016000820160049054906101000a900473ffffffffffffffffffffffffffffffffffffffff1673ffffffffffffffffffffffffffffffffffffffff1673ffffffffffffffffffffffffffffffffffffffff16815250508282815181106120c2576120c16141ee565b5b60200260200101819052508080600101915050611fe1565b5060006002600086815260200190815260200160002060000160008581526020019081526020016000206006016004015467ffffffffffffffff81111561212457612123613ebc565b5b60405190808252806020026020018201604052801561215d57816020015b61214a612e1f565b8152602001906001900390816121425790505b50905060005b815181101561225c5760026000878152602001908152602001600020600001600086815260200190815260200160002060060160030160008281526020019081526020016000206040518060400160405290816000820160009054906101000a900463ffffffff1663ffffffff1663ffffffff1681526020016000820160049054906101000a900473ffffffffffffffffffffffffffffffffffffffff1673ffffffffffffffffffffffffffffffffffffffff1673ffffffffffffffffffffffffffffffffffffffff1681525050828281518110612244576122436141ee565b5b60200260200101819052508080600101915050612163565b5060006040518060e00160405280878152602001604051806040016040528060405180606001604052808b8152602001600160008d815260200190815260200160002060030180546122ad90613e1f565b80601f01602080910402602001604051908101604052809291908181526020018280546122d990613e1f565b80156123265780601f106122fb57610100808354040283529160200191612326565b820191906000526020600020905b81548152906001019060200180831161230957829003601f168201915b50505050508152602001600160008d8152602001908152602001600020600401805461235190613e1f565b80601f016020809104026020016040519081016040528092919081815260200182805461237d90613e1f565b80156123ca5780601f1061239f576101008083540402835291602001916123ca565b820191906000526020600020905b8154815290600101906020018083116123ad57829003601f168201915b50505050508152508152602001868152508152602001604051806040016040528060405180606001604052808b8152602001600260008d815260200190815260200160002060000160008c8152602001908152602001600020600601600001600101805461243790613e1f565b80601f016020809104026020016040519081016040528092919081815260200182805461246390613e1f565b80156124b05780601f10612485576101008083540402835291602001916124b0565b820191906000526020600020905b81548152906001019060200180831161249357829003601f168201915b50505050508152602001600260008d815260200190815260200160002060000160008c815260200190815260200160002060060160000160020180546124f590613e1f565b80601f016020809104026020016040519081016040528092919081815260200182805461252190613e1f565b801561256e5780601f106125435761010080835404028352916020019161256e565b820191906000526020600020905b81548152906001019060200180831161255157829003601f168201915b50505050508152508152602001858152508152602001600260008981526020019081526020016000206000016000888152602001908152602001600020600b01548152602001600260008981526020019081526020016000206000016000888152602001908152602001600020600c01548152602001600260008981526020019081526020016000206000016000888152602001908152602001600020600d01548152602001600260008981526020019081526020016000206000016000888152602001908152602001600020600e0154815250905080935050505092915050565b6000806002600084815260200190815260200160002060010154119050806126785750612cbc565b600042600260008581526020019081526020016000206000016000600160026000888152602001908152602001600020600101546126b69190613d10565b8152602001908152602001600020600e015411905080156126d8575050612cbc565b6000600260008581526020019081526020016000206000016000600160026000888152602001908152602001600020600101546127159190613d10565b8152602001908152602001600020600b0154600260008681526020019081526020016000206000016000600160026000898152602001908152602001600020600101546127629190613d10565b8152602001908152602001600020600c01541190508061278457505050612cbc565b6000600260008681526020019081526020016000206000016000600160026000898152602001908152602001600020600101546127c19190613d10565b815260200190815260200160002060060160000160010180546127e390613e1f565b80601f016020809104026020016040519081016040528092919081815260200182805461280f90613e1f565b801561285c5780601f106128315761010080835404028352916020019161285c565b820191906000526020600020905b81548152906001019060200180831161283f57829003601f168201915b5050505050905060006002600087815260200190815260200160002060000160006001600260008a8152602001908152602001600020600101546128a09190613d10565b815260200190815260200160002060060160000160020180546128c290613e1f565b80601f01602080910402602001604051908101604052809291908181526020018280546128ee90613e1f565b801561293b5780601f106129105761010080835404028352916020019161293b565b820191906000526020600020905b81548152906001019060200180831161291e57829003601f168201915b5050505050905060008060036000898152602001908152602001600020600101541115612b2957612a406003600089815260200190815260200160002060000160006001600360008c8152602001908152602001600020600101546129a09190613d10565b815260200190815260200160002060010180546129bc90613e1f565b80601f01602080910402602001604051908101604052809291908181526020018280546129e890613e1f565b8015612a355780601f10612a0a57610100808354040283529160200191612a35565b820191906000526020600020905b815481529060010190602001808311612a1857829003601f168201915b505050505084612cf5565b8015612b265750612b256003600089815260200190815260200160002060000160006001600360008c815260200190815260200160002060010154612a859190613d10565b81526020019081526020016000206002018054612aa190613e1f565b80601f0160208091040260200160405190810160405280929190818152602001828054612acd90613e1f565b8015612b1a5780601f10612aef57610100808354040283529160200191612b1a565b820191906000526020600020905b815481529060010190602001808311612afd57829003601f168201915b505050505083612cf5565b5b90505b8015612b3a57505050505050612cbc565b600360008881526020019081526020016000206001016000815480929190612b6190613d44565b91905055506040518060600160405280888152602001848152602001838152506003600089815260200190815260200160002060000160006001600360008c815260200190815260200160002060010154612bbc9190613d10565b8152602001908152602001600020600082015181600001556020820151816001019081612be99190614097565b506040820151816002019081612bff9190614097565b5090505082600160008981526020019081526020016000206003019081612c269190614097565b5081600160008981526020019081526020016000206004019081612c4a9190614097565b506000612c79886001600260008c815260200190815260200160002060010154612c749190613d10565b611f51565b90507f24ae00925eed453f35c045d978ccff15182afe2e0714dbeb51846c560020d4728882604051612cac929190613dc0565b60405180910390a1505050505050505b50565b6000838383604051602001612cd6939291906144c0565b6040516020818303038152906040528051906020012090509392505050565b600080839050600083905060008251905081518114612d1a5760009350505050612dcd565b60005b81811015612dc457828181518110612d3857612d376141ee565b5b602001015160f81c60f81b7effffffffffffffffffffffffffffffffffffffffffffffffffffffffffffff1916848281518110612d7857612d776141ee565b5b602001015160f81c60f81b7effffffffffffffffffffffffffffffffffffffffffffffffffffffffffffff191614612db7576000945050505050612dcd565b8080600101915050612d1d565b50600193505050505b92915050565b6040518060e0016040528060008019168152602001612df0612ec7565b8152602001612dfd612ec7565b8152602001600081526020016000815260200160008152602001600081525090565b6040518060400160405280600063ffffffff168152602001600073ffffffffffffffffffffffffffffffffffffffff1681525090565b60405180606001604052806000801916815260200160608152602001606081525090565b60405180610100016040528060608152602001600061ffff16815260200160608152602001606081526020016060815260200160001515815260200160608152602001600080191681525090565b6040518060400160405280612eda612e55565b8152602001606081525090565b600080fd5b600080fd5b6000819050919050565b612f0481612ef1565b8114612f0f57600080fd5b50565b600081359050612f2181612efb565b92915050565b600060208284031215612f3d57612f3c612ee7565b5b6000612f4b84828501612f12565b91505092915050565b6000819050919050565b612f6781612f54565b82525050565b6000602082019050612f826000830184612f5e565b92915050565b60008115159050919050565b612f9d81612f88565b8114612fa857600080fd5b50565b600081359050612fba81612f94565b92915050565b600063ffffffff82169050919050565b612fd981612fc0565b8114612fe457600080fd5b50565b600081359050612ff681612fd0565b92915050565b60008060006060848603121561301557613014612ee7565b5b600061302386828701612f12565b935050602061303486828701612fab565b925050604061304586828701612fe7565b9150509250925092565b61305881612ef1565b82525050565b600081519050919050565b600082825260208201905092915050565b60005b8381101561309857808201518184015260208101905061307d565b60008484015250505050565b6000601f19601f8301169050919050565b60006130c08261305e565b6130ca8185613069565b93506130da81856020860161307a565b6130e3816130a4565b840191505092915050565b6000606083016000830151613106600086018261304f565b506020830151848203602086015261311e82826130b5565b9150506040830151848203604086015261313882826130b5565b9150508091505092915050565b600081519050919050565b600082825260208201905092915050565b6000819050602082019050919050565b61317a81612fc0565b82525050565b600073ffffffffffffffffffffffffffffffffffffffff82169050919050565b60006131ab82613180565b9050919050565b6131bb816131a0565b82525050565b6040820160008201516131d76000850182613171565b5060208201516131ea60208501826131b2565b50505050565b60006131fc83836131c1565b60408301905092915050565b6000602082019050919050565b600061322082613145565b61322a8185613150565b935061323583613161565b8060005b8381101561326657815161324d88826131f0565b975061325883613208565b925050600181019050613239565b5085935050505092915050565b6000604083016000830151848203600086015261329082826130ee565b915050602083015184820360208601526132aa8282613215565b9150508091505092915050565b6132c081612f54565b82525050565b600060e0830160008301516132de600086018261304f565b50602083015184820360208601526132f68282613273565b915050604083015184820360408601526133108282613273565b915050606083015161332560608601826132b7565b50608083015161333860808601826132b7565b5060a083015161334b60a08601826132b7565b5060c083015161335e60c08601826132b7565b508091505092915050565b6000602082019050818103600083015261338381846132c6565b905092915050565b600082825260208201905092915050565b60006133a78261305e565b6133b1818561338b565b93506133c181856020860161307a565b6133ca816130a4565b840191505092915050565b600061ffff82169050919050565b6133ec816133d5565b82525050565b6133fb81612f88565b82525050565b61340a81612ef1565b82525050565b600061010082019050818103600083015261342b818b61339c565b905061343a602083018a6133e3565b818103604083015261344c818961339c565b90508181036060830152613460818861339c565b90508181036080830152613474818761339c565b905061348360a08301866133f2565b81810360c0830152613495818561339c565b90506134a460e0830184613401565b9998505050505050505050565b60006134bc82613180565b9050919050565b6134cc816134b1565b82525050565b60006020820190506134e760008301846134c3565b92915050565b600080fd5b600080fd5b600080fd5b60008083601f840112613512576135116134ed565b5b8235905067ffffffffffffffff81111561352f5761352e6134f2565b5b60208301915083600182028301111561354b5761354a6134f7565b5b9250929050565b60008060008060006060868803121561356e5761356d612ee7565b5b600061357c88828901612f12565b955050602086013567ffffffffffffffff81111561359d5761359c612eec565b5b6135a9888289016134fc565b9450945050604086013567ffffffffffffffff8111156135cc576135cb612eec565b5b6135d8888289016134fc565b92509250509295509295909350565b600081519050919050565b600082825260208201905092915050565b6000819050602082019050919050565b600061361f83836130ee565b905092915050565b6000602082019050919050565b600061363f826135e7565b61364981856135f2565b93508360208202850161365b85613603565b8060005b8581101561369757848403895281516136788582613613565b945061368383613627565b925060208a0199505060018101905061365f565b50829750879550505050505092915050565b600060208201905081810360008301526136c38184613634565b905092915050565b600081519050919050565b600082825260208201905092915050565b6000819050602082019050919050565b600060e08301600083015161370f600086018261304f565b50602083015184820360208601526137278282613273565b915050604083015184820360408601526137418282613273565b915050606083015161375660608601826132b7565b50608083015161376960808601826132b7565b5060a083015161377c60a08601826132b7565b5060c083015161378f60c08601826132b7565b508091505092915050565b60006137a683836136f7565b905092915050565b6000602082019050919050565b60006137c6826136cb565b6137d081856136d6565b9350836020820285016137e2856136e7565b8060005b8581101561381e57848403895281516137ff858261379a565b945061380a836137ae565b925060208a019950506001810190506137e6565b50829750879550505050505092915050565b6000602082019050818103600083015261384a81846137bb565b905092915050565b61385b816133d5565b811461386657600080fd5b50565b60008135905061387881613852565b92915050565b60008060008060008060006080888a03121561389d5761389c612ee7565b5b600088013567ffffffffffffffff8111156138bb576138ba612eec565b5b6138c78a828b016134fc565b9750975050602088013567ffffffffffffffff8111156138ea576138e9612eec565b5b6138f68a828b016134fc565b9550955050604088013567ffffffffffffffff81111561391957613918612eec565b5b6139258a828b016134fc565b935093505060606139388a828b01613869565b91505092959891949750929550565b613950816133d5565b82525050565b61395f81612f88565b82525050565b600061010083016000830151848203600086015261398382826130b5565b91505060208301516139986020860182613947565b50604083015184820360408601526139b082826130b5565b915050606083015184820360608601526139ca82826130b5565b915050608083015184820360808601526139e482826130b5565b91505060a08301516139f960a0860182613956565b5060c083015184820360c0860152613a1182826130b5565b91505060e0830151613a2660e086018261304f565b508091505092915050565b60006020820190508181036000830152613a4b8184613965565b905092915050565b7f47616d65206e6f7420666f756e64000000000000000000000000000000000000600082015250565b6000613a89600e8361338b565b9150613a9482613a53565b602082019050919050565b60006020820190508181036000830152613ab881613a7c565b9050919050565b7f4368616c6c656e6765206e6f7420666f756e6400000000000000000000000000600082015250565b6000613af560138361338b565b9150613b0082613abf565b602082019050919050565b60006020820190508181036000830152613b2481613ae8565b9050919050565b7f596f752063616e20757365206265747765656e203120616e642031303030302060008201527f746f6b656e730000000000000000000000000000000000000000000000000000602082015250565b6000613b8760268361338b565b9150613b9282613b2b565b604082019050919050565b60006020820190508181036000830152613bb681613b7a565b9050919050565b7f596f75206d75737420766f74652077697468206120737175617265206e756d6260008201527f6572206f6620746f6b656e730000000000000000000000000000000000000000602082015250565b6000613c19602c8361338b565b9150613c2482613bbd565b604082019050919050565b60006020820190508181036000830152613c4881613c0c565b9050919050565b7f557365722068617320616c726561647920766f74656420696e2074686973206360008201527f68616c6c656e6765000000000000000000000000000000000000000000000000602082015250565b6000613cab60288361338b565b9150613cb682613c4f565b604082019050919050565b60006020820190508181036000830152613cda81613c9e565b9050919050565b7f4e487b7100000000000000000000000000000000000000000000000000000000600052601160045260246000fd5b6000613d1b82612f54565b9150613d2683612f54565b9250828203905081811115613d3e57613d3d613ce1565b5b92915050565b6000613d4f82612f54565b91507fffffffffffffffffffffffffffffffffffffffffffffffffffffffffffffffff8203613d8157613d80613ce1565b5b600182019050919050565b6000613d9782612f54565b9150613da283612f54565b9250828201905080821115613dba57613db9613ce1565b5b92915050565b6000604082019050613dd56000830185613401565b8181036020830152613de781846132c6565b90509392505050565b7f4e487b7100000000000000000000000000000000000000000000000000000000600052602260045260246000fd5b60006002820490506001821680613e3757607f821691505b602082108103613e4a57613e49613df0565b5b50919050565b7f4368616c6c656e676520616c7265616479206578697374656400000000000000600082015250565b6000613e8660198361338b565b9150613e9182613e50565b602082019050919050565b60006020820190508181036000830152613eb581613e79565b9050919050565b7f4e487b7100000000000000000000000000000000000000000000000000000000600052604160045260246000fd5b60008190508160005260206000209050919050565b60006020601f8301049050919050565b600082821b905092915050565b600060088302613f4d7fffffffffffffffffffffffffffffffffffffffffffffffffffffffffffffffff82613f10565b613f578683613f10565b95508019841693508086168417925050509392505050565b6000819050919050565b6000613f94613f8f613f8a84612f54565b613f6f565b612f54565b9050919050565b6000819050919050565b613fae83613f79565b613fc2613fba82613f9b565b848454613f1d565b825550505050565b600090565b613fd7613fca565b613fe2818484613fa5565b505050565b5b8181101561400657613ffb600082613fcf565b600181019050613fe8565b5050565b601f82111561404b5761401c81613eeb565b61402584613f00565b81016020851015614034578190505b61404861404085613f00565b830182613fe7565b50505b505050565b600082821c905092915050565b600061406e60001984600802614050565b1980831691505092915050565b6000614087838361405d565b9150826002028217905092915050565b6140a08261305e565b67ffffffffffffffff8111156140b9576140b8613ebc565b5b6140c38254613e1f565b6140ce82828561400a565b600060209050601f83116001811461410157600084156140ef578287015190505b6140f9858261407b565b865550614161565b601f19841661410f86613eeb565b60005b8281101561413757848901518255600182019150602085019450602081019050614112565b868310156141545784890151614150601f89168261405d565b8355505b6001600288020188555050505b505050505050565b82818337600083830152505050565b6000614184838561338b565b9350614191838584614169565b61419a836130a4565b840190509392505050565b60006060820190506141ba6000830188613401565b81810360208301526141cd818688614178565b905081810360408301526141e2818486614178565b90509695505050505050565b7f4e487b7100000000000000000000000000000000000000000000000000000000600052603260045260246000fd5b7f496e76616c6964206e616d650000000000000000000000000000000000000000600082015250565b6000614253600c8361338b565b915061425e8261421d565b602082019050919050565b6000602082019050818103600083015261428281614246565b9050919050565b7f496e76616c6964207075626c6973686572000000000000000000000000000000600082015250565b60006142bf60118361338b565b91506142ca82614289565b602082019050919050565b600060208201905081810360008301526142ee816142b2565b9050919050565b7f496e76616c696420796561720000000000000000000000000000000000000000600082015250565b600061432b600c8361338b565b9150614336826142f5565b602082019050919050565b6000602082019050818103600083015261435a8161431e565b9050919050565b600061437c614377614372846133d5565b613f6f565b612f54565b9050919050565b61438c81614361565b82525050565b60006080820190506143a76000830187613401565b81810360208301526143b9818661339c565b905081810360408301526143cd818561339c565b90506143dc6060830184614383565b95945050505050565b60006143f082612fc0565b91506143fb83612fc0565b925082820261440981612fc0565b915080821461441b5761441a613ce1565b5b5092915050565b600061442d82612fc0565b915063ffffffff820361444357614442613ce1565b5b600182019050919050565b600081905092915050565b60006144648261305e565b61446e818561444e565b935061447e81856020860161307a565b80840191505092915050565b60008160f01b9050919050565b60006144a28261448a565b9050919050565b6144ba6144b5826133d5565b614497565b82525050565b60006144cc8286614459565b91506144d882856144a9565b6002820191506144e88284614459565b915081905094935050505056fea2646970667358221220d8477c67ce9846f9a5a75232f20c40dbc806dab1372e8a50a5db68b1fabd2f1864736f6c63430008190033",
  "linkReferences": {},
  "deployedLinkReferences": {}
}