{
  "contracts/Vaultium.sol": {
    "Vaultium": {
      "abi": [
        {
          "inputs": [
            {
              "internalType": "uint256",
              "name": "_challengeTime",
              "type": "uint256"
            }
          ],
          "stateMutability": "nonpayable",
          "type": "constructor"
        },
        {
          "anonymous": false,
          "inputs": [
            {
              "indexed": false,
              "internalType": "bytes32",
              "name": "gameHash",
              "type": "bytes32"
            },
            {
              "indexed": false,
              "internalType": "string",
              "name": "name",
              "type": "string"
            },
            {
              "indexed": false,
              "internalType": "string",
              "name": "publisher",
              "type": "string"
            },
            {
              "indexed": false,
              "internalType": "uint256",
              "name": "year",
              "type": "uint256"
            },
            {
              "indexed": false,
              "internalType": "string",
              "name": "country",
              "type": "string"
            },
            {
              "indexed": false,
              "internalType": "enum Vaultium.Genre[]",
              "name": "genres",
              "type": "uint8[]"
            }
          ],
          "name": "GameAddedToSystem",
          "type": "event"
        },
        {
          "inputs": [
            {
              "internalType": "bytes32",
              "name": "_gameHash",
              "type": "bytes32"
            },
            {
              "internalType": "string",
              "name": "_ipfsCid",
              "type": "string"
            },
            {
              "internalType": "string",
              "name": "_imageCid",
              "type": "string"
            }
          ],
          "name": "challengeAbandonwareVersion",
          "outputs": [
            {
              "components": [
                {
                  "internalType": "bytes32",
                  "name": "gameHash",
                  "type": "bytes32"
                },
                {
                  "components": [
                    {
                      "components": [
                        {
                          "internalType": "bytes32",
                          "name": "gameHash",
                          "type": "bytes32"
                        },
                        {
                          "internalType": "string",
                          "name": "ipfsCid",
                          "type": "string"
                        },
                        {
                          "internalType": "string",
                          "name": "imageCid",
                          "type": "string"
                        }
                      ],
                      "internalType": "struct Vaultium.GameVersion",
                      "name": "gameVersion",
                      "type": "tuple"
                    },
                    {
                      "components": [
                        {
                          "internalType": "uint32",
                          "name": "pointsCount",
                          "type": "uint32"
                        },
                        {
                          "internalType": "address",
                          "name": "voterAddress",
                          "type": "address"
                        }
                      ],
                      "internalType": "struct Vaultium.VoteInfo[]",
                      "name": "votes",
                      "type": "tuple[]"
                    }
                  ],
                  "internalType": "struct Vaultium.ChallengeVersionResponse",
                  "name": "currentChallengeVersion",
                  "type": "tuple"
                },
                {
                  "components": [
                    {
                      "components": [
                        {
                          "internalType": "bytes32",
                          "name": "gameHash",
                          "type": "bytes32"
                        },
                        {
                          "internalType": "string",
                          "name": "ipfsCid",
                          "type": "string"
                        },
                        {
                          "internalType": "string",
                          "name": "imageCid",
                          "type": "string"
                        }
                      ],
                      "internalType": "struct Vaultium.GameVersion",
                      "name": "gameVersion",
                      "type": "tuple"
                    },
                    {
                      "components": [
                        {
                          "internalType": "uint32",
                          "name": "pointsCount",
                          "type": "uint32"
                        },
                        {
                          "internalType": "address",
                          "name": "voterAddress",
                          "type": "address"
                        }
                      ],
                      "internalType": "struct Vaultium.VoteInfo[]",
                      "name": "votes",
                      "type": "tuple[]"
                    }
                  ],
                  "internalType": "struct Vaultium.ChallengeVersionResponse",
                  "name": "newChallengeVersion",
                  "type": "tuple"
                },
                {
                  "internalType": "uint256",
                  "name": "currentVersionPoints",
                  "type": "uint256"
                },
                {
                  "internalType": "uint256",
                  "name": "newVersionPoints",
                  "type": "uint256"
                },
                {
                  "internalType": "uint256",
                  "name": "creationDate",
                  "type": "uint256"
                },
                {
                  "internalType": "uint256",
                  "name": "closingDate",
                  "type": "uint256"
                }
              ],
              "internalType": "struct Vaultium.ChallengeResponse",
              "name": "",
              "type": "tuple"
            }
          ],
          "stateMutability": "nonpayable",
          "type": "function"
        },
        {
          "inputs": [
            {
              "internalType": "bytes32",
              "name": "_gameHash",
              "type": "bytes32"
            }
          ],
          "name": "closeChallengesIfNeeded",
          "outputs": [],
          "stateMutability": "nonpayable",
          "type": "function"
        },
        {
          "inputs": [
            {
              "internalType": "string",
              "name": "_name",
              "type": "string"
            },
            {
              "internalType": "string",
              "name": "_description",
              "type": "string"
            },
            {
              "internalType": "string",
              "name": "_publisher",
              "type": "string"
            },
            {
              "internalType": "uint16",
              "name": "_year",
              "type": "uint16"
            },
            {
              "internalType": "string",
              "name": "_country",
              "type": "string"
            },
            {
              "internalType": "enum Vaultium.Genre[]",
              "name": "_genres",
              "type": "uint8[]"
            }
          ],
          "name": "createAbandonware",
          "outputs": [
            {
              "components": [
                {
                  "internalType": "string",
                  "name": "name",
                  "type": "string"
                },
                {
                  "internalType": "uint16",
                  "name": "year",
                  "type": "uint16"
                },
                {
                  "internalType": "string",
                  "name": "publisher",
                  "type": "string"
                },
                {
                  "internalType": "string",
                  "name": "ipfsCid",
                  "type": "string"
                },
                {
                  "internalType": "string",
                  "name": "imageCid",
                  "type": "string"
                },
                {
                  "internalType": "bool",
                  "name": "isAbandonware",
                  "type": "bool"
                },
                {
                  "internalType": "string",
                  "name": "description",
                  "type": "string"
                },
                {
                  "internalType": "bytes32",
                  "name": "gameHash",
                  "type": "bytes32"
                },
                {
                  "internalType": "string",
                  "name": "country",
                  "type": "string"
                },
                {
                  "internalType": "enum Vaultium.Genre[]",
                  "name": "genres",
                  "type": "uint8[]"
                }
              ],
              "internalType": "struct Vaultium.GameInfo",
              "name": "",
              "type": "tuple"
            }
          ],
          "stateMutability": "nonpayable",
          "type": "function"
        },
        {
          "inputs": [
            {
              "internalType": "bytes32",
              "name": "_gameHash",
              "type": "bytes32"
            }
          ],
          "name": "getAbandonware",
          "outputs": [
            {
              "components": [
                {
                  "internalType": "string",
                  "name": "name",
                  "type": "string"
                },
                {
                  "internalType": "uint16",
                  "name": "year",
                  "type": "uint16"
                },
                {
                  "internalType": "string",
                  "name": "publisher",
                  "type": "string"
                },
                {
                  "internalType": "string",
                  "name": "ipfsCid",
                  "type": "string"
                },
                {
                  "internalType": "string",
                  "name": "imageCid",
                  "type": "string"
                },
                {
                  "internalType": "bool",
                  "name": "isAbandonware",
                  "type": "bool"
                },
                {
                  "internalType": "string",
                  "name": "description",
                  "type": "string"
                },
                {
                  "internalType": "bytes32",
                  "name": "gameHash",
                  "type": "bytes32"
                },
                {
                  "internalType": "string",
                  "name": "country",
                  "type": "string"
                },
                {
                  "internalType": "enum Vaultium.Genre[]",
                  "name": "genres",
                  "type": "uint8[]"
                }
              ],
              "internalType": "struct Vaultium.GameInfo",
              "name": "",
              "type": "tuple"
            }
          ],
          "stateMutability": "view",
          "type": "function"
        },
        {
          "inputs": [
            {
              "internalType": "bytes32",
              "name": "_gameHash",
              "type": "bytes32"
            }
          ],
          "name": "getGameChallengeHistory",
          "outputs": [
            {
              "components": [
                {
                  "internalType": "bytes32",
                  "name": "gameHash",
                  "type": "bytes32"
                },
                {
                  "components": [
                    {
                      "components": [
                        {
                          "internalType": "bytes32",
                          "name": "gameHash",
                          "type": "bytes32"
                        },
                        {
                          "internalType": "string",
                          "name": "ipfsCid",
                          "type": "string"
                        },
                        {
                          "internalType": "string",
                          "name": "imageCid",
                          "type": "string"
                        }
                      ],
                      "internalType": "struct Vaultium.GameVersion",
                      "name": "gameVersion",
                      "type": "tuple"
                    },
                    {
                      "components": [
                        {
                          "internalType": "uint32",
                          "name": "pointsCount",
                          "type": "uint32"
                        },
                        {
                          "internalType": "address",
                          "name": "voterAddress",
                          "type": "address"
                        }
                      ],
                      "internalType": "struct Vaultium.VoteInfo[]",
                      "name": "votes",
                      "type": "tuple[]"
                    }
                  ],
                  "internalType": "struct Vaultium.ChallengeVersionResponse",
                  "name": "currentChallengeVersion",
                  "type": "tuple"
                },
                {
                  "components": [
                    {
                      "components": [
                        {
                          "internalType": "bytes32",
                          "name": "gameHash",
                          "type": "bytes32"
                        },
                        {
                          "internalType": "string",
                          "name": "ipfsCid",
                          "type": "string"
                        },
                        {
                          "internalType": "string",
                          "name": "imageCid",
                          "type": "string"
                        }
                      ],
                      "internalType": "struct Vaultium.GameVersion",
                      "name": "gameVersion",
                      "type": "tuple"
                    },
                    {
                      "components": [
                        {
                          "internalType": "uint32",
                          "name": "pointsCount",
                          "type": "uint32"
                        },
                        {
                          "internalType": "address",
                          "name": "voterAddress",
                          "type": "address"
                        }
                      ],
                      "internalType": "struct Vaultium.VoteInfo[]",
                      "name": "votes",
                      "type": "tuple[]"
                    }
                  ],
                  "internalType": "struct Vaultium.ChallengeVersionResponse",
                  "name": "newChallengeVersion",
                  "type": "tuple"
                },
                {
                  "internalType": "uint256",
                  "name": "currentVersionPoints",
                  "type": "uint256"
                },
                {
                  "internalType": "uint256",
                  "name": "newVersionPoints",
                  "type": "uint256"
                },
                {
                  "internalType": "uint256",
                  "name": "creationDate",
                  "type": "uint256"
                },
                {
                  "internalType": "uint256",
                  "name": "closingDate",
                  "type": "uint256"
                }
              ],
              "internalType": "struct Vaultium.ChallengeResponse[]",
              "name": "",
              "type": "tuple[]"
            }
          ],
          "stateMutability": "view",
          "type": "function"
        },
        {
          "inputs": [
            {
              "internalType": "bytes32",
              "name": "_gameHash",
              "type": "bytes32"
            }
          ],
          "name": "getGameVersionHistory",
          "outputs": [
            {
              "components": [
                {
                  "internalType": "bytes32",
                  "name": "gameHash",
                  "type": "bytes32"
                },
                {
                  "internalType": "string",
                  "name": "ipfsCid",
                  "type": "string"
                },
                {
                  "internalType": "string",
                  "name": "imageCid",
                  "type": "string"
                }
              ],
              "internalType": "struct Vaultium.GameVersion[]",
              "name": "",
              "type": "tuple[]"
            }
          ],
          "stateMutability": "view",
          "type": "function"
        },
        {
          "inputs": [],
          "name": "owner",
          "outputs": [
            {
              "internalType": "address payable",
              "name": "",
              "type": "address"
            }
          ],
          "stateMutability": "view",
          "type": "function"
        },
        {
          "inputs": [
            {
              "internalType": "bytes32",
              "name": "_gameHash",
              "type": "bytes32"
            },
            {
              "internalType": "bool",
              "name": "_voteNewVersion",
              "type": "bool"
            },
            {
              "internalType": "uint32",
              "name": "_tokenCount",
              "type": "uint32"
            }
          ],
          "name": "voteChallenge",
          "outputs": [
            {
              "components": [
                {
                  "internalType": "bytes32",
                  "name": "gameHash",
                  "type": "bytes32"
                },
                {
                  "components": [
                    {
                      "components": [
                        {
                          "internalType": "bytes32",
                          "name": "gameHash",
                          "type": "bytes32"
                        },
                        {
                          "internalType": "string",
                          "name": "ipfsCid",
                          "type": "string"
                        },
                        {
                          "internalType": "string",
                          "name": "imageCid",
                          "type": "string"
                        }
                      ],
                      "internalType": "struct Vaultium.GameVersion",
                      "name": "gameVersion",
                      "type": "tuple"
                    },
                    {
                      "components": [
                        {
                          "internalType": "uint32",
                          "name": "pointsCount",
                          "type": "uint32"
                        },
                        {
                          "internalType": "address",
                          "name": "voterAddress",
                          "type": "address"
                        }
                      ],
                      "internalType": "struct Vaultium.VoteInfo[]",
                      "name": "votes",
                      "type": "tuple[]"
                    }
                  ],
                  "internalType": "struct Vaultium.ChallengeVersionResponse",
                  "name": "currentChallengeVersion",
                  "type": "tuple"
                },
                {
                  "components": [
                    {
                      "components": [
                        {
                          "internalType": "bytes32",
                          "name": "gameHash",
                          "type": "bytes32"
                        },
                        {
                          "internalType": "string",
                          "name": "ipfsCid",
                          "type": "string"
                        },
                        {
                          "internalType": "string",
                          "name": "imageCid",
                          "type": "string"
                        }
                      ],
                      "internalType": "struct Vaultium.GameVersion",
                      "name": "gameVersion",
                      "type": "tuple"
                    },
                    {
                      "components": [
                        {
                          "internalType": "uint32",
                          "name": "pointsCount",
                          "type": "uint32"
                        },
                        {
                          "internalType": "address",
                          "name": "voterAddress",
                          "type": "address"
                        }
                      ],
                      "internalType": "struct Vaultium.VoteInfo[]",
                      "name": "votes",
                      "type": "tuple[]"
                    }
                  ],
                  "internalType": "struct Vaultium.ChallengeVersionResponse",
                  "name": "newChallengeVersion",
                  "type": "tuple"
                },
                {
                  "internalType": "uint256",
                  "name": "currentVersionPoints",
                  "type": "uint256"
                },
                {
                  "internalType": "uint256",
                  "name": "newVersionPoints",
                  "type": "uint256"
                },
                {
                  "internalType": "uint256",
                  "name": "creationDate",
                  "type": "uint256"
                },
                {
                  "internalType": "uint256",
                  "name": "closingDate",
                  "type": "uint256"
                }
              ],
              "internalType": "struct Vaultium.ChallengeResponse",
              "name": "",
              "type": "tuple"
            }
          ],
          "stateMutability": "nonpayable",
          "type": "function"
        }
      ],
      "evm": {
        "bytecode": {
          "linkReferences": {},
          "object": "6080604052348015600f57600080fd5b50604051613faf380380613faf833981016040819052602c916045565b600080546001600160a01b03191633179055600455605d565b600060208284031215605657600080fd5b5051919050565b613f438061006c6000396000f3fe608060405234801561001057600080fd5b50600436106100885760003560e01c8063a06aed061161005b578063a06aed0614610116578063c61d057614610129578063cd64c9421461013c578063de53e35e1461015c57600080fd5b806323afd2b41461008d5780636af6f24e146100a25780637b0ea545146100cb5780638da5cb5b146100eb575b600080fd5b6100a061009b3660046135c9565b61017c565b005b6100b56100b03660046135e2565b610669565b6040516100c291906137ac565b60405180910390f35b6100de6100d93660046135c9565b610b3f565b6040516100c29190613836565b6000546100fe906001600160a01b031681565b6040516001600160a01b0390911681526020016100c2565b6100de6101243660046139e4565b61145a565b6100b5610137366004613ae8565b6118c5565b61014f61014a3660046135c9565b611e79565b6040516100c29190613b62565b61016f61016a3660046135c9565b612a9e565b6040516100c29190613bc6565b600081815260026020526040902060010154151580610199575050565b600082815260026020526040812060018082015442929184916101bc9190613c33565b8152602001908152602001600020600e015411905080156101dc57505050565b600083815260026020526040812060018082015483916101fb91613c33565b815260208082019290925260409081016000908120600b015487825260029093529081206001808201549192916102329190613c33565b8152602001908152602001600020600c0154119050806102525750505050565b6000848152600260205260408120600180820154839161027191613c33565b81526020810191909152604001600020600701805461028f90613c46565b80601f01602080910402602001604051908101604052809291908181526020018280546102bb90613c46565b80156103085780601f106102dd57610100808354040283529160200191610308565b820191906000526020600020905b8154815290600101906020018083116102eb57829003601f168201915b505050600088815260026020526040812060018082015495965091949093508492506103349190613c33565b81526020810191909152604001600020600801805461035290613c46565b80601f016020809104026020016040519081016040528092919081815260200182805461037e90613c46565b80156103cb5780601f106103a0576101008083540402835291602001916103cb565b820191906000526020600020905b8154815290600101906020018083116103ae57829003601f168201915b5050506000898152600360205260408120600101549394509215915061057b90505760008781526003602052604081206001808201546104af939161040f91613c33565b8152602001908152602001600020600101805461042b90613c46565b80601f016020809104026020016040519081016040528092919081815260200182805461045790613c46565b80156104a45780601f10610479576101008083540402835291602001916104a4565b820191906000526020600020905b81548152906001019060200180831161048757829003601f168201915b505050505084612b7e565b80156105785750600087815260036020526040812060018082015461057893916104d891613c33565b815260200190815260200160002060020180546104f490613c46565b80601f016020809104026020016040519081016040528092919081815260200182805461052090613c46565b801561056d5780601f106105425761010080835404028352916020019161056d565b820191906000526020600020905b81548152906001019060200180831161055057829003601f168201915b505050505083612b7e565b90505b801561058a5750505050505050565b60008781526003602052604081206001018054916105a783613c80565b909155505060408051606081018252888152602080820186905281830185905260008a81526003909152918220600180820154929391926105e89190613c33565b8152602080820192909252604001600020825181559082015160018201906106109082613d00565b50604082015160028201906106259082613d00565b50505060008781526001602052604090206003016106438482613d00565b50600087815260016020526040902060040161065f8382613d00565b5050505050505050565b610671613406565b6000848152600160208190526040909120015461ffff166106ad5760405162461bcd60e51b81526004016106a490613dc0565b60405180910390fd5b60006106b885612c18565b9050806106fd5760405162461bcd60e51b815260206004820152601360248201527210da185b1b195b99d9481b9bdd08199bdd5b99606a1b60448201526064016106a4565b60008363ffffffff1611801561071b57506127108363ffffffff1611155b6107765760405162461bcd60e51b815260206004820152602660248201527f596f752063616e20757365206265747765656e203120616e6420313030303020604482015265746f6b656e7360d01b60648201526084016106a4565b61077f83612c85565b6107e05760405162461bcd60e51b815260206004820152602c60248201527f596f75206d75737420766f74652077697468206120737175617265206e756d6260448201526b6572206f6620746f6b656e7360a01b60648201526084016106a4565b6107ea8533612c9e565b156108485760405162461bcd60e51b815260206004820152602860248201527f557365722068617320616c726561647920766f74656420696e2074686973206360448201526768616c6c656e676560c01b60648201526084016106a4565b600061085384612e18565b905084156109b6576000868152600260205260408120600180820154839161087a91613c33565b815260208082019290925260409081016000908120600a01548a8252600290935290812060018082015493945090926108b39190613c33565b815260208101919091526040016000908120600a018054916108d483613c80565b909155505060408051808201825263ffffffff841681523360208083019190915260008a81526002909152918220600180820154929391926109169190613c33565b815260208082019290925260409081016000908120858252600901835281812084518154958501516001600160a01b0316640100000000026001600160c01b031990961663ffffffff918216179590951790558a8152600290925281206001818101549386169391929161098a9190613c33565b8152602001908152602001600020600c0160008282546109aa9190613de8565b90915550610b0c915050565b600086815260026020526040812060018082015483916109d591613c33565b815260208082019290925260409081016000908120600501548a825260029093529081206001818101549394509092610a0e9190613c33565b815260208101919091526040016000908120600501805491610a2f83613c80565b909155505060408051808201825263ffffffff841681523360208083019190915260008a8152600290915291822060018082015492939192610a719190613c33565b815260208082019290925260409081016000908120858252600401835281812084518154958501516001600160a01b0316640100000000026001600160c01b031990961663ffffffff918216179590951790558a81526002909252812060018181015493861693919291610ae59190613c33565b8152602001908152602001600020600b016000828254610b059190613de8565b9091555050505b6000868152600260205260409020600190810154610b35918891610b309190613c33565b612e76565b9695505050505050565b610b476134a4565b60008281526001602081905260408220015461ffff169003610ba15760405162461bcd60e51b815260206004820152601360248201527211d85b5948191bd95cc81b9bdd08195e1a5cdd606a1b60448201526064016106a4565b6040805161014081018252600084815260016020529182208054829190610bc790613c46565b80601f0160208091040260200160405190810160405280929190818152602001828054610bf390613c46565b8015610c405780601f10610c1557610100808354040283529160200191610c40565b820191906000526020600020905b815481529060010190602001808311610c2357829003601f168201915b505050918352505060008581526001602081815260408084208084015461ffff16838701529389905291905260029091018054919092019190610c8290613c46565b80601f0160208091040260200160405190810160405280929190818152602001828054610cae90613c46565b8015610cfb5780601f10610cd057610100808354040283529160200191610cfb565b820191906000526020600020905b815481529060010190602001808311610cde57829003601f168201915b50505050508152602001600160008681526020019081526020016000206003018054610d2690613c46565b80601f0160208091040260200160405190810160405280929190818152602001828054610d5290613c46565b8015610d9f5780601f10610d7457610100808354040283529160200191610d9f565b820191906000526020600020905b815481529060010190602001808311610d8257829003601f168201915b50505050508152602001600160008681526020019081526020016000206004018054610dca90613c46565b80601f0160208091040260200160405190810160405280929190818152602001828054610df690613c46565b8015610e435780601f10610e1857610100808354040283529160200191610e43565b820191906000526020600020905b815481529060010190602001808311610e2657829003601f168201915b50505091835250506000858152600160208181526040808420600581015460ff161515838701529389905291905260069091018054919092019190610e8790613c46565b80601f0160208091040260200160405190810160405280929190818152602001828054610eb390613c46565b8015610f005780601f10610ed557610100808354040283529160200191610f00565b820191906000526020600020905b815481529060010190602001808311610ee357829003601f168201915b5050505050815260200160016000868152602001908152602001600020600701548152602001600160008681526020019081526020016000206008018054610f4790613c46565b80601f0160208091040260200160405190810160405280929190818152602001828054610f7390613c46565b8015610fc05780601f10610f9557610100808354040283529160200191610fc0565b820191906000526020600020905b815481529060010190602001808311610fa357829003601f168201915b505050505081526020016001600086815260200190815260200160002060090180548060200260200160405190810160405280929190818152602001828054801561105a57602002820191906000526020600020906000905b82829054906101000a900460ff16600b811115611038576110386137c6565b8152602060019283018181049485019490930390920291018084116110195790505b505050919092525050600084815260026020526040902060010154909150151580611086575092915050565b600084815260026020526040812060018082015442929184916110a99190613c33565b8152602001908152602001600020600e015411905080156110cd5750909392505050565b60008581526002602052604081206001808201549192916110ee9190613c33565b815260208082019290925260409081016000908120600c015488825260029093529081206001808201549192916111259190613c33565b8152602001908152602001600020600b015410156112c957600085815260026020526040812060018082015491929161115e9190613c33565b81526020810191909152604001600020600701805461117c90613c46565b80601f01602080910402602001604051908101604052809291908181526020018280546111a890613c46565b80156111f55780601f106111ca576101008083540402835291602001916111f5565b820191906000526020600020905b8154815290600101906020018083116111d857829003601f168201915b5050505050606084015260008581526002602052604081206001808201549192916112209190613c33565b81526020810191909152604001600020600801805461123e90613c46565b80601f016020809104026020016040519081016040528092919081815260200182805461126a90613c46565b80156112b75780601f1061128c576101008083540402835291602001916112b7565b820191906000526020600020905b81548152906001019060200180831161129a57829003601f168201915b50505050508360800181905250611451565b60008581526002602052604081206001808201549192916112ea9190613c33565b81526020810191909152604001600020600201805461130890613c46565b80601f016020809104026020016040519081016040528092919081815260200182805461133490613c46565b80156113815780601f1061135657610100808354040283529160200191611381565b820191906000526020600020905b81548152906001019060200180831161136457829003601f168201915b5050505050606084015260008581526002602052604081206001808201549192916113ac9190613c33565b8152602081019190915260400160002060030180546113ca90613c46565b80601f01602080910402602001604051908101604052809291908181526020018280546113f690613c46565b80156114435780601f1061141857610100808354040283529160200191611443565b820191906000526020600020905b81548152906001019060200180831161142657829003601f168201915b505050505083608001819052505b50909392505050565b6114626134a4565b8a61149e5760405162461bcd60e51b815260206004820152600c60248201526b496e76616c6964206e616d6560a01b60448201526064016106a4565b866114df5760405162461bcd60e51b815260206004820152601160248201527024b73b30b634b210383ab13634b9b432b960791b60448201526064016106a4565b60008661ffff16116115225760405162461bcd60e51b815260206004820152600c60248201526b24b73b30b634b2103cb2b0b960a11b60448201526064016106a4565b60006115998d8d8080601f01602080910402602001604051908101604052809392919081815260200183838082843760009201919091525050604080516020601f8f018190048102820181019092528d81528c935091508d908d90819084018382808284376000920191909152506133d092505050565b6000818152600160208190526040909120015490915061ffff16156115f65760405162461bcd60e51b815260206004820152601360248201527247616d6520616c72656164792065786973747360681b60448201526064016106a4565b60006040518061014001604052808f8f8080601f01602080910402602001604051908101604052809392919081815260200183838082843760009201919091525050509082525061ffff8a1660208083019190915260408051601f8e0183900483028101830182528d8152920191908d908d9081908401838280828437600081840152601f19601f8201169050808301925050505050505081526020016040518060200160405280600081525081526020016040518060200160405280600081525081526020016001151581526020018d8d8080601f016020809104026020016040519081016040528093929190818152602001838380828437600092019190915250505090825250602080820185905260408051601f8b0183900483028101830182528a8152920191908a908a9081908401838280828437600092019190915250505090825250604080516020888102828101820190935288825292830192909189918991829185019084908082843760009201829052509390945250508481526001602052604090208251929350839290915081906117979082613d00565b50602082015160018201805461ffff191661ffff909216919091179055604082015160028201906117c89082613d00565b50606082015160038201906117dd9082613d00565b50608082015160048201906117f29082613d00565b5060a082015160058201805460ff191691151591909117905560c0820151600682019061181f9082613d00565b5060e08201516007820155610100820151600882019061183f9082613d00565b50610120820151805161185c916009840191602090910190613500565b50508151604080840151602085015161010086015161012087015193517fa6a5ee5711850fc703bb4a85ed2459e2f986db752512bf039101dd6eb6d9bee996506118ac9589959094939291613dfb565b60405180910390a19d9c50505050505050505050505050565b6118cd613406565b6000868152600160208190526040909120015461ffff166119005760405162461bcd60e51b81526004016106a490613dc0565b600061190b87612c18565b9050801561195b5760405162461bcd60e51b815260206004820152601960248201527f4368616c6c656e676520616c726561647920657869737465640000000000000060448201526064016106a4565b6119648761017c565b60006040518060e00160405280898152602001604051806040016040528060405180606001604052808d8152602001600160008f815260200190815260200160002060030180546119b490613c46565b80601f01602080910402602001604051908101604052809291908181526020018280546119e090613c46565b8015611a2d5780601f10611a0257610100808354040283529160200191611a2d565b820191906000526020600020905b815481529060010190602001808311611a1057829003601f168201915b50505050508152602001600160008f81526020019081526020016000206004018054611a5890613c46565b80601f0160208091040260200160405190810160405280929190818152602001828054611a8490613c46565b8015611ad15780601f10611aa657610100808354040283529160200191611ad1565b820191906000526020600020905b815481529060010190602001808311611ab457829003601f168201915b50505091909252505081526020016000604051908082528060200260200182016040528015611b2657816020015b6040805180820190915260008082526020820152815260200190600190039081611aff5790505b508152508152602001604051806040016040528060405180606001604052808d81526020018c8c8080601f016020809104026020016040519081016040528093929190818152602001838380828437600092019190915250505090825250604080516020601f8d018190048102820181019092528b815291810191908c908c908190840183828082843760009201829052509390945250509183525060408051828152602081810190925292019190611c01565b6040805180820190915260008082526020820152815260200190600190039081611bda5790505b508152508152602001600081526020016000815260200142815260200160045442611c2c9190613de8565b9052600089815260026020526040812060010180549293508291611c4f83613c80565b909155505060008981526002602090815260408083208484528252918290208b905581516060810183528b81528251601f8b0183900483028101830190935289835291828201918b908b9081908401838280828437600092019190915250505090825250604080516020601f8a018190048102820181019092528881529181019190899089908190840183828082843760009201829052509390945250508b81526002602081815260408084208785528252909220845160018201908155928501519293500190611d209082613d00565b5060408201516002820190611d359082613d00565b505050600089815260026020908152604080832084845282528083206005019290925581516060810183528b81528251601f8b0183900483028101830190935289835291828201918b908b9081908401838280828437600092019190915250505090825250604080516020601f8a018190048102820181019092528881529181019190899089908190840183828082843760009201829052509390945250508b815260026020908152604080832086845282529091208351600682019081559184015191925060070190611e099082613d00565b5060408201516002820190611e1e9082613d00565b5050506000988952600260209081526040808b20928b529190528820600a81019890985560c0810151600e89015560a0810151600d8901556060810151600b8901556080810151600c90980197909755509495945050505050565b6000818152600160208190526040909120015460609061ffff16611eaf5760405162461bcd60e51b81526004016106a490613dc0565b6000828152600360209081526040808320600190810154600290935290832001549091901580159190611f12576000858152600260205260408120600180820154429391611efc91613c33565b8152602001908152602001600020600e01541190505b6000828015611f1f575081155b15612485576000868152600260205260408120600180820154919291611f459190613c33565b815260208082019290925260409081016000908120600c01548982526002909352908120600180820154919291611f7c9190613c33565b8152602001908152602001600020600b015410156122505760008681526003602052604081206001015415801591908290612131575060008881526003602052604081206001808201546121319391611fd491613c33565b81526020019081526020016000206001018054611ff090613c46565b80601f016020809104026020016040519081016040528092919081815260200182805461201c90613c46565b80156120695780601f1061203e57610100808354040283529160200191612069565b820191906000526020600020905b81548152906001019060200180831161204c57829003601f168201915b50505060008c81526002602052604081206001808201549194509192506120909190613c33565b8152602081019190915260400160002060070180546120ae90613c46565b80601f01602080910402602001604051908101604052809291908181526020018280546120da90613c46565b80156121275780601f106120fc57610100808354040283529160200191612127565b820191906000526020600020905b81548152906001019060200180831161210a57829003601f168201915b5050505050612b7e565b9050600082801561223957506000898152600360205260408120600180820154612239939161215f91613c33565b8152602001908152602001600020600201805461217b90613c46565b80601f01602080910402602001604051908101604052809291908181526020018280546121a790613c46565b80156121f45780601f106121c9576101008083540402835291602001916121f4565b820191906000526020600020905b8154815290600101906020018083116121d757829003601f168201915b50505060008d815260026020526040812060018082015491945091925061221b9190613c33565b8152602081019190915260400160002060080180546120ae90613c46565b90508180156122455750805b159350505050612485565b6000868152600360205260408120600101541580159190829061236a5750600088815260036020526040812060018082015461236a939161229091613c33565b815260200190815260200160002060010180546122ac90613c46565b80601f01602080910402602001604051908101604052809291908181526020018280546122d890613c46565b80156123255780601f106122fa57610100808354040283529160200191612325565b820191906000526020600020905b81548152906001019060200180831161230857829003601f168201915b50505060008c815260026020526040812060018082015491945091925061234c9190613c33565b8152602081019190915260400160002060020180546120ae90613c46565b9050600082801561247257506000898152600360205260408120600180820154612472939161239891613c33565b815260200190815260200160002060020180546123b490613c46565b80601f01602080910402602001604051908101604052809291908181526020018280546123e090613c46565b801561242d5780601f106124025761010080835404028352916020019161242d565b820191906000526020600020905b81548152906001019060200180831161241057829003601f168201915b50505060008d81526002602052604081206001808201549194509192506124549190613c33565b8152602081019190915260400160002060030180546120ae90613c46565b905081801561247e5750805b1593505050505b8015612499578361249581613c80565b9450505b60008467ffffffffffffffff8111156124b4576124b4613c99565b6040519080825280602002602001820160405280156124ff57816020015b60408051606080820183526000825260208083018290529282015282526000199092019101816124d25790505b50905060005b60008881526003602052604090206001015481101561269257600088815260036020908152604080832084845282529182902082516060810190935280548352600181018054919284019161255990613c46565b80601f016020809104026020016040519081016040528092919081815260200182805461258590613c46565b80156125d25780601f106125a7576101008083540402835291602001916125d2565b820191906000526020600020905b8154815290600101906020018083116125b557829003601f168201915b505050505081526020016002820180546125eb90613c46565b80601f016020809104026020016040519081016040528092919081815260200182805461261790613c46565b80156126645780601f1061263957610100808354040283529160200191612664565b820191906000526020600020905b81548152906001019060200180831161264757829003601f168201915b50505050508152505082828151811061267f5761267f613e65565b6020908102919091010152600101612505565b508115610b355760008781526002602052604081206001808201549192916126ba9190613c33565b815260208082019290925260409081016000908120600c01548a825260029093529081206001808201549192916126f19190613c33565b8152602001908152602001600020600b015410156128d15760408051606081018252888152600089815260026020908152928120600180820154939485019391929161273d9190613c33565b81526020810191909152604001600020600701805461275b90613c46565b80601f016020809104026020016040519081016040528092919081815260200182805461278790613c46565b80156127d45780601f106127a9576101008083540402835291602001916127d4565b820191906000526020600020905b8154815290600101906020018083116127b757829003601f168201915b50505091835250506000898152600260209081526040822060018082015492909401939092916128049190613c33565b81526020810191909152604001600020600801805461282290613c46565b80601f016020809104026020016040519081016040528092919081815260200182805461284e90613c46565b801561289b5780601f106128705761010080835404028352916020019161289b565b820191906000526020600020905b81548152906001019060200180831161287e57829003601f168201915b5050505050815250816001876128b19190613c33565b815181106128c1576128c1613e65565b6020026020010181905250610b35565b6040805160608101825288815260008981526002602090815292812060018082015493948501939192916129059190613c33565b81526020810191909152604001600020600201805461292390613c46565b80601f016020809104026020016040519081016040528092919081815260200182805461294f90613c46565b801561299c5780601f106129715761010080835404028352916020019161299c565b820191906000526020600020905b81548152906001019060200180831161297f57829003601f168201915b50505091835250506000898152600260209081526040822060018082015492909401939092916129cc9190613c33565b8152602081019190915260400160002060030180546129ea90613c46565b80601f0160208091040260200160405190810160405280929190818152602001828054612a1690613c46565b8015612a635780601f10612a3857610100808354040283529160200191612a63565b820191906000526020600020905b815481529060010190602001808311612a4657829003601f168201915b505050505081525081600187612a799190613c33565b81518110612a8957612a89613e65565b60200260200101819052509695505050505050565b6000818152600160208190526040909120015460609061ffff16612ad45760405162461bcd60e51b81526004016106a490613dc0565b600082815260026020526040812060010154908167ffffffffffffffff811115612b0057612b00613c99565b604051908082528060200260200182016040528015612b3957816020015b612b26613406565b815260200190600190039081612b1e5790505b50905060005b82811015612b7657612b518582612e76565b828281518110612b6357612b63613e65565b6020908102919091010152600101612b3f565b509392505050565b8151815160009184918491908114612b9c5760009350505050612c12565b60005b81811015612c0957828181518110612bb957612bb9613e65565b602001015160f81c60f81b6001600160f81b031916848281518110612be057612be0613e65565b01602001516001600160f81b03191614612c01576000945050505050612c12565b600101612b9f565b50600193505050505b92915050565b6000818152600260205260408120600101548103612c3857506000919050565b60008281526002602052604081206001808201548391612c5791613c33565b8152602001908152602001600020600e0154905042811015612c7c5750600092915050565b50600192915050565b600080612c9183612e18565b63ffffffff161192915050565b60008281526002602052604081206001808201548392918391612cc19190613c33565b815260200190815260200160002060060160040154905060005b81811015612d565760008581526002602052604081206001808201546001600160a01b0388169391612d0c91613c33565b81526020808201929092526040908101600090812085825260090190925290205464010000000090046001600160a01b031603612d4e57600192505050612c12565b600101612cdb565b5060008481526002602052604081206001808201548391612d7691613c33565b815260200190815260200160002060010160040154905060005b81811015612e0c5760008681526002602052604081206001808201546001600160a01b0389169391612dc191613c33565b81526020808201929092526040908101600090812085825260040190925290205464010000000090046001600160a01b031603612e045760019350505050612c12565b600101612d90565b50600095945050505050565b600060015b63ffffffff8316612e2e8280613e7b565b63ffffffff1611612e6d5763ffffffff8316612e4a8280613e7b565b63ffffffff1603612e5b5792915050565b80612e6581613ea3565b915050612e1d565b50600092915050565b612e7e613406565b600083815260026020908152604080832085845290915281206005015467ffffffffffffffff811115612eb357612eb3613c99565b604051908082528060200260200182016040528015612ef857816020015b6040805180820190915260008082526020820152815260200190600190039081612ed15790505b50905060005b8151811015612f7a576000858152600260209081526040808320878452825280832084845260040182529182902082518084019093525463ffffffff8116835264010000000090046001600160a01b0316908201528251839083908110612f6757612f67613e65565b6020908102919091010152600101612efe565b5060008481526002602090815260408083208684529091528120600a015467ffffffffffffffff811115612fb057612fb0613c99565b604051908082528060200260200182016040528015612ff557816020015b6040805180820190915260008082526020820152815260200190600190039081612fce5790505b50905060005b8151811015613077576000868152600260209081526040808320888452825280832084845260090182529182902082518084019093525463ffffffff8116835264010000000090046001600160a01b031690820152825183908390811061306457613064613e65565b6020908102919091010152600101612ffb565b5060006040518060e00160405280878152602001604051806040016040528060405180606001604052808b8152602001600160008d815260200190815260200160002060030180546130c890613c46565b80601f01602080910402602001604051908101604052809291908181526020018280546130f490613c46565b80156131415780601f1061311657610100808354040283529160200191613141565b820191906000526020600020905b81548152906001019060200180831161312457829003601f168201915b50505050508152602001600160008d8152602001908152602001600020600401805461316c90613c46565b80601f016020809104026020016040519081016040528092919081815260200182805461319890613c46565b80156131e55780601f106131ba576101008083540402835291602001916131e5565b820191906000526020600020905b8154815290600101906020018083116131c857829003601f168201915b505050919092525050815260209081018790529082526040805160a0810182528082018b815260008c8152600285528381208c825285529290922060070180549490930193909283929160608401919061323e90613c46565b80601f016020809104026020016040519081016040528092919081815260200182805461326a90613c46565b80156132b75780601f1061328c576101008083540402835291602001916132b7565b820191906000526020600020905b81548152906001019060200180831161329a57829003601f168201915b505050918352505060008c81526002602090815260408083208e8452825290912060080180549190920191906132ec90613c46565b80601f016020809104026020016040519081016040528092919081815260200182805461331890613c46565b80156133655780601f1061333a57610100808354040283529160200191613365565b820191906000526020600020905b81548152906001019060200180831161334857829003601f168201915b505050919092525050815260209081019590955281526000888152600285526040808220898352808752818320600b81015485890152600c81015492850192909252600d8201546060850152918990529452600e909301546080909301929092525091505092915050565b60008383836040516020016133e793929190613ec6565b6040516020818303038152906040528051906020012090509392505050565b6040805160e08101909152600081526020810161344b6040805160a0810182526000918101918252606080820181905260808201529081908152602001606081525090565b81526020016134826040805160a0810182526000918101918252606080820181905260808201529081908152602001606081525090565b8152602001600081526020016000815260200160008152602001600081525090565b60405180610140016040528060608152602001600061ffff168152602001606081526020016060815260200160608152602001600015158152602001606081526020016000801916815260200160608152602001606081525090565b82805482825590600052602060002090601f016020900481019282156135a45791602002820160005b8382111561357557835183826101000a81548160ff0219169083600b811115613554576135546137c6565b02179055509260200192600101602081600001049283019260010302613529565b80156135a25782816101000a81549060ff0219169055600101602081600001049283019260010302613575565b505b506135b09291506135b4565b5090565b5b808211156135b057600081556001016135b5565b6000602082840312156135db57600080fd5b5035919050565b6000806000606084860312156135f757600080fd5b833592506020840135801515811461360e57600080fd5b9150604084013563ffffffff8116811461362757600080fd5b809150509250925092565b60005b8381101561364d578181015183820152602001613635565b50506000910152565b6000815180845261366e816020860160208601613632565b601f01601f19169290920160200192915050565b8051825260006020820151606060208501526136a16060850182613656565b9050604083015184820360408601526136ba8282613656565b95945050505050565b600060408251604085526136da6040860182613682565b60208581015187830388830152805180845290820193509091600091908301905b80831015613733578451805163ffffffff1683528401516001600160a01b0316848301529383019360019290920191908501906136fb565b50979650505050505050565b805182526000602082015160e0602085015261375e60e08501826136c3565b90506040830151848203604086015261377782826136c3565b915050606083015160608501526080830151608085015260a083015160a085015260c083015160c08501528091505092915050565b6020815260006137bf602083018461373f565b9392505050565b634e487b7160e01b600052602160045260246000fd5b6000815180845260208085019450602084016000805b8481101561382a578251600c811061381857634e487b7160e01b83526021600452602483fd5b885296830196918301916001016137f2565b50959695505050505050565b6020815260008251610140806020850152613855610160850183613656565b9150602085015161386c604086018261ffff169052565b506040850151601f19808685030160608701526138898483613656565b935060608701519150808685030160808701526138a68483613656565b935060808701519150808685030160a08701526138c38483613656565b935060a087015191506138da60c087018315159052565b60c08701519150808685030160e08701526138f58483613656565b935060e087015191506101008281880152808801519250506101208187860301818801526139238584613656565b908801518782039092018488015293509050610b3583826137dc565b60008083601f84011261395157600080fd5b50813567ffffffffffffffff81111561396957600080fd5b60208301915083602082850101111561398157600080fd5b9250929050565b803561ffff8116811461399a57600080fd5b919050565b60008083601f8401126139b157600080fd5b50813567ffffffffffffffff8111156139c957600080fd5b6020830191508360208260051b850101111561398157600080fd5b600080600080600080600080600080600060c08c8e031215613a0557600080fd5b67ffffffffffffffff808d351115613a1c57600080fd5b613a298e8e358f0161393f565b909c509a5060208d0135811015613a3f57600080fd5b613a4f8e60208f01358f0161393f565b909a50985060408d0135811015613a6557600080fd5b613a758e60408f01358f0161393f565b9098509650613a8660608e01613988565b95508060808e01351115613a9957600080fd5b613aa98e60808f01358f0161393f565b909550935060a08d0135811015613abf57600080fd5b50613ad08d60a08e01358e0161399f565b81935080925050509295989b509295989b9093969950565b600080600080600060608688031215613b0057600080fd5b85359450602086013567ffffffffffffffff80821115613b1f57600080fd5b613b2b89838a0161393f565b90965094506040880135915080821115613b4457600080fd5b50613b518882890161393f565b969995985093965092949392505050565b600060208083016020845280855180835260408601915060408160051b87010192506020870160005b82811015613bb957603f19888603018452613ba7858351613682565b94509285019290850190600101613b8b565b5092979650505050505050565b600060208083016020845280855180835260408601915060408160051b87010192506020870160005b82811015613bb957603f19888603018452613c0b85835161373f565b94509285019290850190600101613bef565b634e487b7160e01b600052601160045260246000fd5b81810381811115612c1257612c12613c1d565b600181811c90821680613c5a57607f821691505b602082108103613c7a57634e487b7160e01b600052602260045260246000fd5b50919050565b600060018201613c9257613c92613c1d565b5060010190565b634e487b7160e01b600052604160045260246000fd5b601f821115613cfb576000816000526020600020601f850160051c81016020861015613cd85750805b601f850160051c820191505b81811015613cf757828155600101613ce4565b5050505b505050565b815167ffffffffffffffff811115613d1a57613d1a613c99565b613d2e81613d288454613c46565b84613caf565b602080601f831160018114613d635760008415613d4b5750858301515b600019600386901b1c1916600185901b178555613cf7565b600085815260208120601f198616915b82811015613d9257888601518255948401946001909101908401613d73565b5085821015613db05787850151600019600388901b60f8161c191681555b5050505050600190811b01905550565b6020808252600e908201526d11d85b59481b9bdd08199bdd5b9960921b604082015260600190565b80820180821115612c1257612c12613c1d565b86815260c060208201526000613e1460c0830188613656565b8281036040840152613e268188613656565b905061ffff861660608401528281036080840152613e448186613656565b905082810360a0840152613e5881856137dc565b9998505050505050505050565b634e487b7160e01b600052603260045260246000fd5b63ffffffff818116838216028082169190828114613e9b57613e9b613c1d565b505092915050565b600063ffffffff808316818103613ebc57613ebc613c1d565b6001019392505050565b60008451613ed8818460208901613632565b60f085901b6001600160f01b0319169083019081528351613f00816002840160208801613632565b016002019594505050505056fea264697066735822122079031ff6c29c22d1e134f2372803bc2dfa61722f65a8d666470fd35fa39ba8d464736f6c63430008190033",
          "opcodes": "PUSH1 0x80 PUSH1 0x40 MSTORE CALLVALUE DUP1 ISZERO PUSH1 0xF JUMPI PUSH1 0x0 DUP1 REVERT JUMPDEST POP PUSH1 0x40 MLOAD PUSH2 0x3FAF CODESIZE SUB DUP1 PUSH2 0x3FAF DUP4 CODECOPY DUP2 ADD PUSH1 0x40 DUP2 SWAP1 MSTORE PUSH1 0x2C SWAP2 PUSH1 0x45 JUMP JUMPDEST PUSH1 0x0 DUP1 SLOAD PUSH1 0x1 PUSH1 0x1 PUSH1 0xA0 SHL SUB NOT AND CALLER OR SWAP1 SSTORE PUSH1 0x4 SSTORE PUSH1 0x5D JUMP JUMPDEST PUSH1 0x0 PUSH1 0x20 DUP3 DUP5 SUB SLT ISZERO PUSH1 0x56 JUMPI PUSH1 0x0 DUP1 REVERT JUMPDEST POP MLOAD SWAP2 SWAP1 POP JUMP JUMPDEST PUSH2 0x3F43 DUP1 PUSH2 0x6C PUSH1 0x0 CODECOPY PUSH1 0x0 RETURN INVALID PUSH1 0x80 PUSH1 0x40 MSTORE CALLVALUE DUP1 ISZERO PUSH2 0x10 JUMPI PUSH1 0x0 DUP1 REVERT JUMPDEST POP PUSH1 0x4 CALLDATASIZE LT PUSH2 0x88 JUMPI PUSH1 0x0 CALLDATALOAD PUSH1 0xE0 SHR DUP1 PUSH4 0xA06AED06 GT PUSH2 0x5B JUMPI DUP1 PUSH4 0xA06AED06 EQ PUSH2 0x116 JUMPI DUP1 PUSH4 0xC61D0576 EQ PUSH2 0x129 JUMPI DUP1 PUSH4 0xCD64C942 EQ PUSH2 0x13C JUMPI DUP1 PUSH4 0xDE53E35E EQ PUSH2 0x15C JUMPI PUSH1 0x0 DUP1 REVERT JUMPDEST DUP1 PUSH4 0x23AFD2B4 EQ PUSH2 0x8D JUMPI DUP1 PUSH4 0x6AF6F24E EQ PUSH2 0xA2 JUMPI DUP1 PUSH4 0x7B0EA545 EQ PUSH2 0xCB JUMPI DUP1 PUSH4 0x8DA5CB5B EQ PUSH2 0xEB JUMPI JUMPDEST PUSH1 0x0 DUP1 REVERT JUMPDEST PUSH2 0xA0 PUSH2 0x9B CALLDATASIZE PUSH1 0x4 PUSH2 0x35C9 JUMP JUMPDEST PUSH2 0x17C JUMP JUMPDEST STOP JUMPDEST PUSH2 0xB5 PUSH2 0xB0 CALLDATASIZE PUSH1 0x4 PUSH2 0x35E2 JUMP JUMPDEST PUSH2 0x669 JUMP JUMPDEST PUSH1 0x40 MLOAD PUSH2 0xC2 SWAP2 SWAP1 PUSH2 0x37AC JUMP JUMPDEST PUSH1 0x40 MLOAD DUP1 SWAP2 SUB SWAP1 RETURN JUMPDEST PUSH2 0xDE PUSH2 0xD9 CALLDATASIZE PUSH1 0x4 PUSH2 0x35C9 JUMP JUMPDEST PUSH2 0xB3F JUMP JUMPDEST PUSH1 0x40 MLOAD PUSH2 0xC2 SWAP2 SWAP1 PUSH2 0x3836 JUMP JUMPDEST PUSH1 0x0 SLOAD PUSH2 0xFE SWAP1 PUSH1 0x1 PUSH1 0x1 PUSH1 0xA0 SHL SUB AND DUP2 JUMP JUMPDEST PUSH1 0x40 MLOAD PUSH1 0x1 PUSH1 0x1 PUSH1 0xA0 SHL SUB SWAP1 SWAP2 AND DUP2 MSTORE PUSH1 0x20 ADD PUSH2 0xC2 JUMP JUMPDEST PUSH2 0xDE PUSH2 0x124 CALLDATASIZE PUSH1 0x4 PUSH2 0x39E4 JUMP JUMPDEST PUSH2 0x145A JUMP JUMPDEST PUSH2 0xB5 PUSH2 0x137 CALLDATASIZE PUSH1 0x4 PUSH2 0x3AE8 JUMP JUMPDEST PUSH2 0x18C5 JUMP JUMPDEST PUSH2 0x14F PUSH2 0x14A CALLDATASIZE PUSH1 0x4 PUSH2 0x35C9 JUMP JUMPDEST PUSH2 0x1E79 JUMP JUMPDEST PUSH1 0x40 MLOAD PUSH2 0xC2 SWAP2 SWAP1 PUSH2 0x3B62 JUMP JUMPDEST PUSH2 0x16F PUSH2 0x16A CALLDATASIZE PUSH1 0x4 PUSH2 0x35C9 JUMP JUMPDEST PUSH2 0x2A9E JUMP JUMPDEST PUSH1 0x40 MLOAD PUSH2 0xC2 SWAP2 SWAP1 PUSH2 0x3BC6 JUMP JUMPDEST PUSH1 0x0 DUP2 DUP2 MSTORE PUSH1 0x2 PUSH1 0x20 MSTORE PUSH1 0x40 SWAP1 KECCAK256 PUSH1 0x1 ADD SLOAD ISZERO ISZERO DUP1 PUSH2 0x199 JUMPI POP POP JUMP JUMPDEST PUSH1 0x0 DUP3 DUP2 MSTORE PUSH1 0x2 PUSH1 0x20 MSTORE PUSH1 0x40 DUP2 KECCAK256 PUSH1 0x1 DUP1 DUP3 ADD SLOAD TIMESTAMP SWAP3 SWAP2 DUP5 SWAP2 PUSH2 0x1BC SWAP2 SWAP1 PUSH2 0x3C33 JUMP JUMPDEST DUP2 MSTORE PUSH1 0x20 ADD SWAP1 DUP2 MSTORE PUSH1 0x20 ADD PUSH1 0x0 KECCAK256 PUSH1 0xE ADD SLOAD GT SWAP1 POP DUP1 ISZERO PUSH2 0x1DC JUMPI POP POP POP JUMP JUMPDEST PUSH1 0x0 DUP4 DUP2 MSTORE PUSH1 0x2 PUSH1 0x20 MSTORE PUSH1 0x40 DUP2 KECCAK256 PUSH1 0x1 DUP1 DUP3 ADD SLOAD DUP4 SWAP2 PUSH2 0x1FB SWAP2 PUSH2 0x3C33 JUMP JUMPDEST DUP2 MSTORE PUSH1 0x20 DUP1 DUP3 ADD SWAP3 SWAP1 SWAP3 MSTORE PUSH1 0x40 SWAP1 DUP2 ADD PUSH1 0x0 SWAP1 DUP2 KECCAK256 PUSH1 0xB ADD SLOAD DUP8 DUP3 MSTORE PUSH1 0x2 SWAP1 SWAP4 MSTORE SWAP1 DUP2 KECCAK256 PUSH1 0x1 DUP1 DUP3 ADD SLOAD SWAP2 SWAP3 SWAP2 PUSH2 0x232 SWAP2 SWAP1 PUSH2 0x3C33 JUMP JUMPDEST DUP2 MSTORE PUSH1 0x20 ADD SWAP1 DUP2 MSTORE PUSH1 0x20 ADD PUSH1 0x0 KECCAK256 PUSH1 0xC ADD SLOAD GT SWAP1 POP DUP1 PUSH2 0x252 JUMPI POP POP POP POP JUMP JUMPDEST PUSH1 0x0 DUP5 DUP2 MSTORE PUSH1 0x2 PUSH1 0x20 MSTORE PUSH1 0x40 DUP2 KECCAK256 PUSH1 0x1 DUP1 DUP3 ADD SLOAD DUP4 SWAP2 PUSH2 0x271 SWAP2 PUSH2 0x3C33 JUMP JUMPDEST DUP2 MSTORE PUSH1 0x20 DUP2 ADD SWAP2 SWAP1 SWAP2 MSTORE PUSH1 0x40 ADD PUSH1 0x0 KECCAK256 PUSH1 0x7 ADD DUP1 SLOAD PUSH2 0x28F SWAP1 PUSH2 0x3C46 JUMP JUMPDEST DUP1 PUSH1 0x1F ADD PUSH1 0x20 DUP1 SWAP2 DIV MUL PUSH1 0x20 ADD PUSH1 0x40 MLOAD SWAP1 DUP2 ADD PUSH1 0x40 MSTORE DUP1 SWAP3 SWAP2 SWAP1 DUP2 DUP2 MSTORE PUSH1 0x20 ADD DUP3 DUP1 SLOAD PUSH2 0x2BB SWAP1 PUSH2 0x3C46 JUMP JUMPDEST DUP1 ISZERO PUSH2 0x308 JUMPI DUP1 PUSH1 0x1F LT PUSH2 0x2DD JUMPI PUSH2 0x100 DUP1 DUP4 SLOAD DIV MUL DUP4 MSTORE SWAP2 PUSH1 0x20 ADD SWAP2 PUSH2 0x308 JUMP JUMPDEST DUP3 ADD SWAP2 SWAP1 PUSH1 0x0 MSTORE PUSH1 0x20 PUSH1 0x0 KECCAK256 SWAP1 JUMPDEST DUP2 SLOAD DUP2 MSTORE SWAP1 PUSH1 0x1 ADD SWAP1 PUSH1 0x20 ADD DUP1 DUP4 GT PUSH2 0x2EB JUMPI DUP3 SWAP1 SUB PUSH1 0x1F AND DUP3 ADD SWAP2 JUMPDEST POP POP POP PUSH1 0x0 DUP9 DUP2 MSTORE PUSH1 0x2 PUSH1 0x20 MSTORE PUSH1 0x40 DUP2 KECCAK256 PUSH1 0x1 DUP1 DUP3 ADD SLOAD SWAP6 SWAP7 POP SWAP2 SWAP5 SWAP1 SWAP4 POP DUP5 SWAP3 POP PUSH2 0x334 SWAP2 SWAP1 PUSH2 0x3C33 JUMP JUMPDEST DUP2 MSTORE PUSH1 0x20 DUP2 ADD SWAP2 SWAP1 SWAP2 MSTORE PUSH1 0x40 ADD PUSH1 0x0 KECCAK256 PUSH1 0x8 ADD DUP1 SLOAD PUSH2 0x352 SWAP1 PUSH2 0x3C46 JUMP JUMPDEST DUP1 PUSH1 0x1F ADD PUSH1 0x20 DUP1 SWAP2 DIV MUL PUSH1 0x20 ADD PUSH1 0x40 MLOAD SWAP1 DUP2 ADD PUSH1 0x40 MSTORE DUP1 SWAP3 SWAP2 SWAP1 DUP2 DUP2 MSTORE PUSH1 0x20 ADD DUP3 DUP1 SLOAD PUSH2 0x37E SWAP1 PUSH2 0x3C46 JUMP JUMPDEST DUP1 ISZERO PUSH2 0x3CB JUMPI DUP1 PUSH1 0x1F LT PUSH2 0x3A0 JUMPI PUSH2 0x100 DUP1 DUP4 SLOAD DIV MUL DUP4 MSTORE SWAP2 PUSH1 0x20 ADD SWAP2 PUSH2 0x3CB JUMP JUMPDEST DUP3 ADD SWAP2 SWAP1 PUSH1 0x0 MSTORE PUSH1 0x20 PUSH1 0x0 KECCAK256 SWAP1 JUMPDEST DUP2 SLOAD DUP2 MSTORE SWAP1 PUSH1 0x1 ADD SWAP1 PUSH1 0x20 ADD DUP1 DUP4 GT PUSH2 0x3AE JUMPI DUP3 SWAP1 SUB PUSH1 0x1F AND DUP3 ADD SWAP2 JUMPDEST POP POP POP PUSH1 0x0 DUP10 DUP2 MSTORE PUSH1 0x3 PUSH1 0x20 MSTORE PUSH1 0x40 DUP2 KECCAK256 PUSH1 0x1 ADD SLOAD SWAP4 SWAP5 POP SWAP3 ISZERO SWAP2 POP PUSH2 0x57B SWAP1 POP JUMPI PUSH1 0x0 DUP8 DUP2 MSTORE PUSH1 0x3 PUSH1 0x20 MSTORE PUSH1 0x40 DUP2 KECCAK256 PUSH1 0x1 DUP1 DUP3 ADD SLOAD PUSH2 0x4AF SWAP4 SWAP2 PUSH2 0x40F SWAP2 PUSH2 0x3C33 JUMP JUMPDEST DUP2 MSTORE PUSH1 0x20 ADD SWAP1 DUP2 MSTORE PUSH1 0x20 ADD PUSH1 0x0 KECCAK256 PUSH1 0x1 ADD DUP1 SLOAD PUSH2 0x42B SWAP1 PUSH2 0x3C46 JUMP JUMPDEST DUP1 PUSH1 0x1F ADD PUSH1 0x20 DUP1 SWAP2 DIV MUL PUSH1 0x20 ADD PUSH1 0x40 MLOAD SWAP1 DUP2 ADD PUSH1 0x40 MSTORE DUP1 SWAP3 SWAP2 SWAP1 DUP2 DUP2 MSTORE PUSH1 0x20 ADD DUP3 DUP1 SLOAD PUSH2 0x457 SWAP1 PUSH2 0x3C46 JUMP JUMPDEST DUP1 ISZERO PUSH2 0x4A4 JUMPI DUP1 PUSH1 0x1F LT PUSH2 0x479 JUMPI PUSH2 0x100 DUP1 DUP4 SLOAD DIV MUL DUP4 MSTORE SWAP2 PUSH1 0x20 ADD SWAP2 PUSH2 0x4A4 JUMP JUMPDEST DUP3 ADD SWAP2 SWAP1 PUSH1 0x0 MSTORE PUSH1 0x20 PUSH1 0x0 KECCAK256 SWAP1 JUMPDEST DUP2 SLOAD DUP2 MSTORE SWAP1 PUSH1 0x1 ADD SWAP1 PUSH1 0x20 ADD DUP1 DUP4 GT PUSH2 0x487 JUMPI DUP3 SWAP1 SUB PUSH1 0x1F AND DUP3 ADD SWAP2 JUMPDEST POP POP POP POP POP DUP5 PUSH2 0x2B7E JUMP JUMPDEST DUP1 ISZERO PUSH2 0x578 JUMPI POP PUSH1 0x0 DUP8 DUP2 MSTORE PUSH1 0x3 PUSH1 0x20 MSTORE PUSH1 0x40 DUP2 KECCAK256 PUSH1 0x1 DUP1 DUP3 ADD SLOAD PUSH2 0x578 SWAP4 SWAP2 PUSH2 0x4D8 SWAP2 PUSH2 0x3C33 JUMP JUMPDEST DUP2 MSTORE PUSH1 0x20 ADD SWAP1 DUP2 MSTORE PUSH1 0x20 ADD PUSH1 0x0 KECCAK256 PUSH1 0x2 ADD DUP1 SLOAD PUSH2 0x4F4 SWAP1 PUSH2 0x3C46 JUMP JUMPDEST DUP1 PUSH1 0x1F ADD PUSH1 0x20 DUP1 SWAP2 DIV MUL PUSH1 0x20 ADD PUSH1 0x40 MLOAD SWAP1 DUP2 ADD PUSH1 0x40 MSTORE DUP1 SWAP3 SWAP2 SWAP1 DUP2 DUP2 MSTORE PUSH1 0x20 ADD DUP3 DUP1 SLOAD PUSH2 0x520 SWAP1 PUSH2 0x3C46 JUMP JUMPDEST DUP1 ISZERO PUSH2 0x56D JUMPI DUP1 PUSH1 0x1F LT PUSH2 0x542 JUMPI PUSH2 0x100 DUP1 DUP4 SLOAD DIV MUL DUP4 MSTORE SWAP2 PUSH1 0x20 ADD SWAP2 PUSH2 0x56D JUMP JUMPDEST DUP3 ADD SWAP2 SWAP1 PUSH1 0x0 MSTORE PUSH1 0x20 PUSH1 0x0 KECCAK256 SWAP1 JUMPDEST DUP2 SLOAD DUP2 MSTORE SWAP1 PUSH1 0x1 ADD SWAP1 PUSH1 0x20 ADD DUP1 DUP4 GT PUSH2 0x550 JUMPI DUP3 SWAP1 SUB PUSH1 0x1F AND DUP3 ADD SWAP2 JUMPDEST POP POP POP POP POP DUP4 PUSH2 0x2B7E JUMP JUMPDEST SWAP1 POP JUMPDEST DUP1 ISZERO PUSH2 0x58A JUMPI POP POP POP POP POP POP POP JUMP JUMPDEST PUSH1 0x0 DUP8 DUP2 MSTORE PUSH1 0x3 PUSH1 0x20 MSTORE PUSH1 0x40 DUP2 KECCAK256 PUSH1 0x1 ADD DUP1 SLOAD SWAP2 PUSH2 0x5A7 DUP4 PUSH2 0x3C80 JUMP JUMPDEST SWAP1 SWAP2 SSTORE POP POP PUSH1 0x40 DUP1 MLOAD PUSH1 0x60 DUP2 ADD DUP3 MSTORE DUP9 DUP2 MSTORE PUSH1 0x20 DUP1 DUP3 ADD DUP7 SWAP1 MSTORE DUP2 DUP4 ADD DUP6 SWAP1 MSTORE PUSH1 0x0 DUP11 DUP2 MSTORE PUSH1 0x3 SWAP1 SWAP2 MSTORE SWAP2 DUP3 KECCAK256 PUSH1 0x1 DUP1 DUP3 ADD SLOAD SWAP3 SWAP4 SWAP2 SWAP3 PUSH2 0x5E8 SWAP2 SWAP1 PUSH2 0x3C33 JUMP JUMPDEST DUP2 MSTORE PUSH1 0x20 DUP1 DUP3 ADD SWAP3 SWAP1 SWAP3 MSTORE PUSH1 0x40 ADD PUSH1 0x0 KECCAK256 DUP3 MLOAD DUP2 SSTORE SWAP1 DUP3 ADD MLOAD PUSH1 0x1 DUP3 ADD SWAP1 PUSH2 0x610 SWAP1 DUP3 PUSH2 0x3D00 JUMP JUMPDEST POP PUSH1 0x40 DUP3 ADD MLOAD PUSH1 0x2 DUP3 ADD SWAP1 PUSH2 0x625 SWAP1 DUP3 PUSH2 0x3D00 JUMP JUMPDEST POP POP POP PUSH1 0x0 DUP8 DUP2 MSTORE PUSH1 0x1 PUSH1 0x20 MSTORE PUSH1 0x40 SWAP1 KECCAK256 PUSH1 0x3 ADD PUSH2 0x643 DUP5 DUP3 PUSH2 0x3D00 JUMP JUMPDEST POP PUSH1 0x0 DUP8 DUP2 MSTORE PUSH1 0x1 PUSH1 0x20 MSTORE PUSH1 0x40 SWAP1 KECCAK256 PUSH1 0x4 ADD PUSH2 0x65F DUP4 DUP3 PUSH2 0x3D00 JUMP JUMPDEST POP POP POP POP POP POP POP POP JUMP JUMPDEST PUSH2 0x671 PUSH2 0x3406 JUMP JUMPDEST PUSH1 0x0 DUP5 DUP2 MSTORE PUSH1 0x1 PUSH1 0x20 DUP2 SWAP1 MSTORE PUSH1 0x40 SWAP1 SWAP2 KECCAK256 ADD SLOAD PUSH2 0xFFFF AND PUSH2 0x6AD JUMPI PUSH1 0x40 MLOAD PUSH3 0x461BCD PUSH1 0xE5 SHL DUP2 MSTORE PUSH1 0x4 ADD PUSH2 0x6A4 SWAP1 PUSH2 0x3DC0 JUMP JUMPDEST PUSH1 0x40 MLOAD DUP1 SWAP2 SUB SWAP1 REVERT JUMPDEST PUSH1 0x0 PUSH2 0x6B8 DUP6 PUSH2 0x2C18 JUMP JUMPDEST SWAP1 POP DUP1 PUSH2 0x6FD JUMPI PUSH1 0x40 MLOAD PUSH3 0x461BCD PUSH1 0xE5 SHL DUP2 MSTORE PUSH1 0x20 PUSH1 0x4 DUP3 ADD MSTORE PUSH1 0x13 PUSH1 0x24 DUP3 ADD MSTORE PUSH19 0x10DA185B1B195B99D9481B9BDD08199BDD5B99 PUSH1 0x6A SHL PUSH1 0x44 DUP3 ADD MSTORE PUSH1 0x64 ADD PUSH2 0x6A4 JUMP JUMPDEST PUSH1 0x0 DUP4 PUSH4 0xFFFFFFFF AND GT DUP1 ISZERO PUSH2 0x71B JUMPI POP PUSH2 0x2710 DUP4 PUSH4 0xFFFFFFFF AND GT ISZERO JUMPDEST PUSH2 0x776 JUMPI PUSH1 0x40 MLOAD PUSH3 0x461BCD PUSH1 0xE5 SHL DUP2 MSTORE PUSH1 0x20 PUSH1 0x4 DUP3 ADD MSTORE PUSH1 0x26 PUSH1 0x24 DUP3 ADD MSTORE PUSH32 0x596F752063616E20757365206265747765656E203120616E6420313030303020 PUSH1 0x44 DUP3 ADD MSTORE PUSH6 0x746F6B656E73 PUSH1 0xD0 SHL PUSH1 0x64 DUP3 ADD MSTORE PUSH1 0x84 ADD PUSH2 0x6A4 JUMP JUMPDEST PUSH2 0x77F DUP4 PUSH2 0x2C85 JUMP JUMPDEST PUSH2 0x7E0 JUMPI PUSH1 0x40 MLOAD PUSH3 0x461BCD PUSH1 0xE5 SHL DUP2 MSTORE PUSH1 0x20 PUSH1 0x4 DUP3 ADD MSTORE PUSH1 0x2C PUSH1 0x24 DUP3 ADD MSTORE PUSH32 0x596F75206D75737420766F74652077697468206120737175617265206E756D62 PUSH1 0x44 DUP3 ADD MSTORE PUSH12 0x6572206F6620746F6B656E73 PUSH1 0xA0 SHL PUSH1 0x64 DUP3 ADD MSTORE PUSH1 0x84 ADD PUSH2 0x6A4 JUMP JUMPDEST PUSH2 0x7EA DUP6 CALLER PUSH2 0x2C9E JUMP JUMPDEST ISZERO PUSH2 0x848 JUMPI PUSH1 0x40 MLOAD PUSH3 0x461BCD PUSH1 0xE5 SHL DUP2 MSTORE PUSH1 0x20 PUSH1 0x4 DUP3 ADD MSTORE PUSH1 0x28 PUSH1 0x24 DUP3 ADD MSTORE PUSH32 0x557365722068617320616C726561647920766F74656420696E20746869732063 PUSH1 0x44 DUP3 ADD MSTORE PUSH8 0x68616C6C656E6765 PUSH1 0xC0 SHL PUSH1 0x64 DUP3 ADD MSTORE PUSH1 0x84 ADD PUSH2 0x6A4 JUMP JUMPDEST PUSH1 0x0 PUSH2 0x853 DUP5 PUSH2 0x2E18 JUMP JUMPDEST SWAP1 POP DUP5 ISZERO PUSH2 0x9B6 JUMPI PUSH1 0x0 DUP7 DUP2 MSTORE PUSH1 0x2 PUSH1 0x20 MSTORE PUSH1 0x40 DUP2 KECCAK256 PUSH1 0x1 DUP1 DUP3 ADD SLOAD DUP4 SWAP2 PUSH2 0x87A SWAP2 PUSH2 0x3C33 JUMP JUMPDEST DUP2 MSTORE PUSH1 0x20 DUP1 DUP3 ADD SWAP3 SWAP1 SWAP3 MSTORE PUSH1 0x40 SWAP1 DUP2 ADD PUSH1 0x0 SWAP1 DUP2 KECCAK256 PUSH1 0xA ADD SLOAD DUP11 DUP3 MSTORE PUSH1 0x2 SWAP1 SWAP4 MSTORE SWAP1 DUP2 KECCAK256 PUSH1 0x1 DUP1 DUP3 ADD SLOAD SWAP4 SWAP5 POP SWAP1 SWAP3 PUSH2 0x8B3 SWAP2 SWAP1 PUSH2 0x3C33 JUMP JUMPDEST DUP2 MSTORE PUSH1 0x20 DUP2 ADD SWAP2 SWAP1 SWAP2 MSTORE PUSH1 0x40 ADD PUSH1 0x0 SWAP1 DUP2 KECCAK256 PUSH1 0xA ADD DUP1 SLOAD SWAP2 PUSH2 0x8D4 DUP4 PUSH2 0x3C80 JUMP JUMPDEST SWAP1 SWAP2 SSTORE POP POP PUSH1 0x40 DUP1 MLOAD DUP1 DUP3 ADD DUP3 MSTORE PUSH4 0xFFFFFFFF DUP5 AND DUP2 MSTORE CALLER PUSH1 0x20 DUP1 DUP4 ADD SWAP2 SWAP1 SWAP2 MSTORE PUSH1 0x0 DUP11 DUP2 MSTORE PUSH1 0x2 SWAP1 SWAP2 MSTORE SWAP2 DUP3 KECCAK256 PUSH1 0x1 DUP1 DUP3 ADD SLOAD SWAP3 SWAP4 SWAP2 SWAP3 PUSH2 0x916 SWAP2 SWAP1 PUSH2 0x3C33 JUMP JUMPDEST DUP2 MSTORE PUSH1 0x20 DUP1 DUP3 ADD SWAP3 SWAP1 SWAP3 MSTORE PUSH1 0x40 SWAP1 DUP2 ADD PUSH1 0x0 SWAP1 DUP2 KECCAK256 DUP6 DUP3 MSTORE PUSH1 0x9 ADD DUP4 MSTORE DUP2 DUP2 KECCAK256 DUP5 MLOAD DUP2 SLOAD SWAP6 DUP6 ADD MLOAD PUSH1 0x1 PUSH1 0x1 PUSH1 0xA0 SHL SUB AND PUSH5 0x100000000 MUL PUSH1 0x1 PUSH1 0x1 PUSH1 0xC0 SHL SUB NOT SWAP1 SWAP7 AND PUSH4 0xFFFFFFFF SWAP2 DUP3 AND OR SWAP6 SWAP1 SWAP6 OR SWAP1 SSTORE DUP11 DUP2 MSTORE PUSH1 0x2 SWAP1 SWAP3 MSTORE DUP2 KECCAK256 PUSH1 0x1 DUP2 DUP2 ADD SLOAD SWAP4 DUP7 AND SWAP4 SWAP2 SWAP3 SWAP2 PUSH2 0x98A SWAP2 SWAP1 PUSH2 0x3C33 JUMP JUMPDEST DUP2 MSTORE PUSH1 0x20 ADD SWAP1 DUP2 MSTORE PUSH1 0x20 ADD PUSH1 0x0 KECCAK256 PUSH1 0xC ADD PUSH1 0x0 DUP3 DUP3 SLOAD PUSH2 0x9AA SWAP2 SWAP1 PUSH2 0x3DE8 JUMP JUMPDEST SWAP1 SWAP2 SSTORE POP PUSH2 0xB0C SWAP2 POP POP JUMP JUMPDEST PUSH1 0x0 DUP7 DUP2 MSTORE PUSH1 0x2 PUSH1 0x20 MSTORE PUSH1 0x40 DUP2 KECCAK256 PUSH1 0x1 DUP1 DUP3 ADD SLOAD DUP4 SWAP2 PUSH2 0x9D5 SWAP2 PUSH2 0x3C33 JUMP JUMPDEST DUP2 MSTORE PUSH1 0x20 DUP1 DUP3 ADD SWAP3 SWAP1 SWAP3 MSTORE PUSH1 0x40 SWAP1 DUP2 ADD PUSH1 0x0 SWAP1 DUP2 KECCAK256 PUSH1 0x5 ADD SLOAD DUP11 DUP3 MSTORE PUSH1 0x2 SWAP1 SWAP4 MSTORE SWAP1 DUP2 KECCAK256 PUSH1 0x1 DUP2 DUP2 ADD SLOAD SWAP4 SWAP5 POP SWAP1 SWAP3 PUSH2 0xA0E SWAP2 SWAP1 PUSH2 0x3C33 JUMP JUMPDEST DUP2 MSTORE PUSH1 0x20 DUP2 ADD SWAP2 SWAP1 SWAP2 MSTORE PUSH1 0x40 ADD PUSH1 0x0 SWAP1 DUP2 KECCAK256 PUSH1 0x5 ADD DUP1 SLOAD SWAP2 PUSH2 0xA2F DUP4 PUSH2 0x3C80 JUMP JUMPDEST SWAP1 SWAP2 SSTORE POP POP PUSH1 0x40 DUP1 MLOAD DUP1 DUP3 ADD DUP3 MSTORE PUSH4 0xFFFFFFFF DUP5 AND DUP2 MSTORE CALLER PUSH1 0x20 DUP1 DUP4 ADD SWAP2 SWAP1 SWAP2 MSTORE PUSH1 0x0 DUP11 DUP2 MSTORE PUSH1 0x2 SWAP1 SWAP2 MSTORE SWAP2 DUP3 KECCAK256 PUSH1 0x1 DUP1 DUP3 ADD SLOAD SWAP3 SWAP4 SWAP2 SWAP3 PUSH2 0xA71 SWAP2 SWAP1 PUSH2 0x3C33 JUMP JUMPDEST DUP2 MSTORE PUSH1 0x20 DUP1 DUP3 ADD SWAP3 SWAP1 SWAP3 MSTORE PUSH1 0x40 SWAP1 DUP2 ADD PUSH1 0x0 SWAP1 DUP2 KECCAK256 DUP6 DUP3 MSTORE PUSH1 0x4 ADD DUP4 MSTORE DUP2 DUP2 KECCAK256 DUP5 MLOAD DUP2 SLOAD SWAP6 DUP6 ADD MLOAD PUSH1 0x1 PUSH1 0x1 PUSH1 0xA0 SHL SUB AND PUSH5 0x100000000 MUL PUSH1 0x1 PUSH1 0x1 PUSH1 0xC0 SHL SUB NOT SWAP1 SWAP7 AND PUSH4 0xFFFFFFFF SWAP2 DUP3 AND OR SWAP6 SWAP1 SWAP6 OR SWAP1 SSTORE DUP11 DUP2 MSTORE PUSH1 0x2 SWAP1 SWAP3 MSTORE DUP2 KECCAK256 PUSH1 0x1 DUP2 DUP2 ADD SLOAD SWAP4 DUP7 AND SWAP4 SWAP2 SWAP3 SWAP2 PUSH2 0xAE5 SWAP2 SWAP1 PUSH2 0x3C33 JUMP JUMPDEST DUP2 MSTORE PUSH1 0x20 ADD SWAP1 DUP2 MSTORE PUSH1 0x20 ADD PUSH1 0x0 KECCAK256 PUSH1 0xB ADD PUSH1 0x0 DUP3 DUP3 SLOAD PUSH2 0xB05 SWAP2 SWAP1 PUSH2 0x3DE8 JUMP JUMPDEST SWAP1 SWAP2 SSTORE POP POP POP JUMPDEST PUSH1 0x0 DUP7 DUP2 MSTORE PUSH1 0x2 PUSH1 0x20 MSTORE PUSH1 0x40 SWAP1 KECCAK256 PUSH1 0x1 SWAP1 DUP2 ADD SLOAD PUSH2 0xB35 SWAP2 DUP9 SWAP2 PUSH2 0xB30 SWAP2 SWAP1 PUSH2 0x3C33 JUMP JUMPDEST PUSH2 0x2E76 JUMP JUMPDEST SWAP7 SWAP6 POP POP POP POP POP POP JUMP JUMPDEST PUSH2 0xB47 PUSH2 0x34A4 JUMP JUMPDEST PUSH1 0x0 DUP3 DUP2 MSTORE PUSH1 0x1 PUSH1 0x20 DUP2 SWAP1 MSTORE PUSH1 0x40 DUP3 KECCAK256 ADD SLOAD PUSH2 0xFFFF AND SWAP1 SUB PUSH2 0xBA1 JUMPI PUSH1 0x40 MLOAD PUSH3 0x461BCD PUSH1 0xE5 SHL DUP2 MSTORE PUSH1 0x20 PUSH1 0x4 DUP3 ADD MSTORE PUSH1 0x13 PUSH1 0x24 DUP3 ADD MSTORE PUSH19 0x11D85B5948191BD95CC81B9BDD08195E1A5CDD PUSH1 0x6A SHL PUSH1 0x44 DUP3 ADD MSTORE PUSH1 0x64 ADD PUSH2 0x6A4 JUMP JUMPDEST PUSH1 0x40 DUP1 MLOAD PUSH2 0x140 DUP2 ADD DUP3 MSTORE PUSH1 0x0 DUP5 DUP2 MSTORE PUSH1 0x1 PUSH1 0x20 MSTORE SWAP2 DUP3 KECCAK256 DUP1 SLOAD DUP3 SWAP2 SWAP1 PUSH2 0xBC7 SWAP1 PUSH2 0x3C46 JUMP JUMPDEST DUP1 PUSH1 0x1F ADD PUSH1 0x20 DUP1 SWAP2 DIV MUL PUSH1 0x20 ADD PUSH1 0x40 MLOAD SWAP1 DUP2 ADD PUSH1 0x40 MSTORE DUP1 SWAP3 SWAP2 SWAP1 DUP2 DUP2 MSTORE PUSH1 0x20 ADD DUP3 DUP1 SLOAD PUSH2 0xBF3 SWAP1 PUSH2 0x3C46 JUMP JUMPDEST DUP1 ISZERO PUSH2 0xC40 JUMPI DUP1 PUSH1 0x1F LT PUSH2 0xC15 JUMPI PUSH2 0x100 DUP1 DUP4 SLOAD DIV MUL DUP4 MSTORE SWAP2 PUSH1 0x20 ADD SWAP2 PUSH2 0xC40 JUMP JUMPDEST DUP3 ADD SWAP2 SWAP1 PUSH1 0x0 MSTORE PUSH1 0x20 PUSH1 0x0 KECCAK256 SWAP1 JUMPDEST DUP2 SLOAD DUP2 MSTORE SWAP1 PUSH1 0x1 ADD SWAP1 PUSH1 0x20 ADD DUP1 DUP4 GT PUSH2 0xC23 JUMPI DUP3 SWAP1 SUB PUSH1 0x1F AND DUP3 ADD SWAP2 JUMPDEST POP POP POP SWAP2 DUP4 MSTORE POP POP PUSH1 0x0 DUP6 DUP2 MSTORE PUSH1 0x1 PUSH1 0x20 DUP2 DUP2 MSTORE PUSH1 0x40 DUP1 DUP5 KECCAK256 DUP1 DUP5 ADD SLOAD PUSH2 0xFFFF AND DUP4 DUP8 ADD MSTORE SWAP4 DUP10 SWAP1 MSTORE SWAP2 SWAP1 MSTORE PUSH1 0x2 SWAP1 SWAP2 ADD DUP1 SLOAD SWAP2 SWAP1 SWAP3 ADD SWAP2 SWAP1 PUSH2 0xC82 SWAP1 PUSH2 0x3C46 JUMP JUMPDEST DUP1 PUSH1 0x1F ADD PUSH1 0x20 DUP1 SWAP2 DIV MUL PUSH1 0x20 ADD PUSH1 0x40 MLOAD SWAP1 DUP2 ADD PUSH1 0x40 MSTORE DUP1 SWAP3 SWAP2 SWAP1 DUP2 DUP2 MSTORE PUSH1 0x20 ADD DUP3 DUP1 SLOAD PUSH2 0xCAE SWAP1 PUSH2 0x3C46 JUMP JUMPDEST DUP1 ISZERO PUSH2 0xCFB JUMPI DUP1 PUSH1 0x1F LT PUSH2 0xCD0 JUMPI PUSH2 0x100 DUP1 DUP4 SLOAD DIV MUL DUP4 MSTORE SWAP2 PUSH1 0x20 ADD SWAP2 PUSH2 0xCFB JUMP JUMPDEST DUP3 ADD SWAP2 SWAP1 PUSH1 0x0 MSTORE PUSH1 0x20 PUSH1 0x0 KECCAK256 SWAP1 JUMPDEST DUP2 SLOAD DUP2 MSTORE SWAP1 PUSH1 0x1 ADD SWAP1 PUSH1 0x20 ADD DUP1 DUP4 GT PUSH2 0xCDE JUMPI DUP3 SWAP1 SUB PUSH1 0x1F AND DUP3 ADD SWAP2 JUMPDEST POP POP POP POP POP DUP2 MSTORE PUSH1 0x20 ADD PUSH1 0x1 PUSH1 0x0 DUP7 DUP2 MSTORE PUSH1 0x20 ADD SWAP1 DUP2 MSTORE PUSH1 0x20 ADD PUSH1 0x0 KECCAK256 PUSH1 0x3 ADD DUP1 SLOAD PUSH2 0xD26 SWAP1 PUSH2 0x3C46 JUMP JUMPDEST DUP1 PUSH1 0x1F ADD PUSH1 0x20 DUP1 SWAP2 DIV MUL PUSH1 0x20 ADD PUSH1 0x40 MLOAD SWAP1 DUP2 ADD PUSH1 0x40 MSTORE DUP1 SWAP3 SWAP2 SWAP1 DUP2 DUP2 MSTORE PUSH1 0x20 ADD DUP3 DUP1 SLOAD PUSH2 0xD52 SWAP1 PUSH2 0x3C46 JUMP JUMPDEST DUP1 ISZERO PUSH2 0xD9F JUMPI DUP1 PUSH1 0x1F LT PUSH2 0xD74 JUMPI PUSH2 0x100 DUP1 DUP4 SLOAD DIV MUL DUP4 MSTORE SWAP2 PUSH1 0x20 ADD SWAP2 PUSH2 0xD9F JUMP JUMPDEST DUP3 ADD SWAP2 SWAP1 PUSH1 0x0 MSTORE PUSH1 0x20 PUSH1 0x0 KECCAK256 SWAP1 JUMPDEST DUP2 SLOAD DUP2 MSTORE SWAP1 PUSH1 0x1 ADD SWAP1 PUSH1 0x20 ADD DUP1 DUP4 GT PUSH2 0xD82 JUMPI DUP3 SWAP1 SUB PUSH1 0x1F AND DUP3 ADD SWAP2 JUMPDEST POP POP POP POP POP DUP2 MSTORE PUSH1 0x20 ADD PUSH1 0x1 PUSH1 0x0 DUP7 DUP2 MSTORE PUSH1 0x20 ADD SWAP1 DUP2 MSTORE PUSH1 0x20 ADD PUSH1 0x0 KECCAK256 PUSH1 0x4 ADD DUP1 SLOAD PUSH2 0xDCA SWAP1 PUSH2 0x3C46 JUMP JUMPDEST DUP1 PUSH1 0x1F ADD PUSH1 0x20 DUP1 SWAP2 DIV MUL PUSH1 0x20 ADD PUSH1 0x40 MLOAD SWAP1 DUP2 ADD PUSH1 0x40 MSTORE DUP1 SWAP3 SWAP2 SWAP1 DUP2 DUP2 MSTORE PUSH1 0x20 ADD DUP3 DUP1 SLOAD PUSH2 0xDF6 SWAP1 PUSH2 0x3C46 JUMP JUMPDEST DUP1 ISZERO PUSH2 0xE43 JUMPI DUP1 PUSH1 0x1F LT PUSH2 0xE18 JUMPI PUSH2 0x100 DUP1 DUP4 SLOAD DIV MUL DUP4 MSTORE SWAP2 PUSH1 0x20 ADD SWAP2 PUSH2 0xE43 JUMP JUMPDEST DUP3 ADD SWAP2 SWAP1 PUSH1 0x0 MSTORE PUSH1 0x20 PUSH1 0x0 KECCAK256 SWAP1 JUMPDEST DUP2 SLOAD DUP2 MSTORE SWAP1 PUSH1 0x1 ADD SWAP1 PUSH1 0x20 ADD DUP1 DUP4 GT PUSH2 0xE26 JUMPI DUP3 SWAP1 SUB PUSH1 0x1F AND DUP3 ADD SWAP2 JUMPDEST POP POP POP SWAP2 DUP4 MSTORE POP POP PUSH1 0x0 DUP6 DUP2 MSTORE PUSH1 0x1 PUSH1 0x20 DUP2 DUP2 MSTORE PUSH1 0x40 DUP1 DUP5 KECCAK256 PUSH1 0x5 DUP2 ADD SLOAD PUSH1 0xFF AND ISZERO ISZERO DUP4 DUP8 ADD MSTORE SWAP4 DUP10 SWAP1 MSTORE SWAP2 SWAP1 MSTORE PUSH1 0x6 SWAP1 SWAP2 ADD DUP1 SLOAD SWAP2 SWAP1 SWAP3 ADD SWAP2 SWAP1 PUSH2 0xE87 SWAP1 PUSH2 0x3C46 JUMP JUMPDEST DUP1 PUSH1 0x1F ADD PUSH1 0x20 DUP1 SWAP2 DIV MUL PUSH1 0x20 ADD PUSH1 0x40 MLOAD SWAP1 DUP2 ADD PUSH1 0x40 MSTORE DUP1 SWAP3 SWAP2 SWAP1 DUP2 DUP2 MSTORE PUSH1 0x20 ADD DUP3 DUP1 SLOAD PUSH2 0xEB3 SWAP1 PUSH2 0x3C46 JUMP JUMPDEST DUP1 ISZERO PUSH2 0xF00 JUMPI DUP1 PUSH1 0x1F LT PUSH2 0xED5 JUMPI PUSH2 0x100 DUP1 DUP4 SLOAD DIV MUL DUP4 MSTORE SWAP2 PUSH1 0x20 ADD SWAP2 PUSH2 0xF00 JUMP JUMPDEST DUP3 ADD SWAP2 SWAP1 PUSH1 0x0 MSTORE PUSH1 0x20 PUSH1 0x0 KECCAK256 SWAP1 JUMPDEST DUP2 SLOAD DUP2 MSTORE SWAP1 PUSH1 0x1 ADD SWAP1 PUSH1 0x20 ADD DUP1 DUP4 GT PUSH2 0xEE3 JUMPI DUP3 SWAP1 SUB PUSH1 0x1F AND DUP3 ADD SWAP2 JUMPDEST POP POP POP POP POP DUP2 MSTORE PUSH1 0x20 ADD PUSH1 0x1 PUSH1 0x0 DUP7 DUP2 MSTORE PUSH1 0x20 ADD SWAP1 DUP2 MSTORE PUSH1 0x20 ADD PUSH1 0x0 KECCAK256 PUSH1 0x7 ADD SLOAD DUP2 MSTORE PUSH1 0x20 ADD PUSH1 0x1 PUSH1 0x0 DUP7 DUP2 MSTORE PUSH1 0x20 ADD SWAP1 DUP2 MSTORE PUSH1 0x20 ADD PUSH1 0x0 KECCAK256 PUSH1 0x8 ADD DUP1 SLOAD PUSH2 0xF47 SWAP1 PUSH2 0x3C46 JUMP JUMPDEST DUP1 PUSH1 0x1F ADD PUSH1 0x20 DUP1 SWAP2 DIV MUL PUSH1 0x20 ADD PUSH1 0x40 MLOAD SWAP1 DUP2 ADD PUSH1 0x40 MSTORE DUP1 SWAP3 SWAP2 SWAP1 DUP2 DUP2 MSTORE PUSH1 0x20 ADD DUP3 DUP1 SLOAD PUSH2 0xF73 SWAP1 PUSH2 0x3C46 JUMP JUMPDEST DUP1 ISZERO PUSH2 0xFC0 JUMPI DUP1 PUSH1 0x1F LT PUSH2 0xF95 JUMPI PUSH2 0x100 DUP1 DUP4 SLOAD DIV MUL DUP4 MSTORE SWAP2 PUSH1 0x20 ADD SWAP2 PUSH2 0xFC0 JUMP JUMPDEST DUP3 ADD SWAP2 SWAP1 PUSH1 0x0 MSTORE PUSH1 0x20 PUSH1 0x0 KECCAK256 SWAP1 JUMPDEST DUP2 SLOAD DUP2 MSTORE SWAP1 PUSH1 0x1 ADD SWAP1 PUSH1 0x20 ADD DUP1 DUP4 GT PUSH2 0xFA3 JUMPI DUP3 SWAP1 SUB PUSH1 0x1F AND DUP3 ADD SWAP2 JUMPDEST POP POP POP POP POP DUP2 MSTORE PUSH1 0x20 ADD PUSH1 0x1 PUSH1 0x0 DUP7 DUP2 MSTORE PUSH1 0x20 ADD SWAP1 DUP2 MSTORE PUSH1 0x20 ADD PUSH1 0x0 KECCAK256 PUSH1 0x9 ADD DUP1 SLOAD DUP1 PUSH1 0x20 MUL PUSH1 0x20 ADD PUSH1 0x40 MLOAD SWAP1 DUP2 ADD PUSH1 0x40 MSTORE DUP1 SWAP3 SWAP2 SWAP1 DUP2 DUP2 MSTORE PUSH1 0x20 ADD DUP3 DUP1 SLOAD DUP1 ISZERO PUSH2 0x105A JUMPI PUSH1 0x20 MUL DUP3 ADD SWAP2 SWAP1 PUSH1 0x0 MSTORE PUSH1 0x20 PUSH1 0x0 KECCAK256 SWAP1 PUSH1 0x0 SWAP1 JUMPDEST DUP3 DUP3 SWAP1 SLOAD SWAP1 PUSH2 0x100 EXP SWAP1 DIV PUSH1 0xFF AND PUSH1 0xB DUP2 GT ISZERO PUSH2 0x1038 JUMPI PUSH2 0x1038 PUSH2 0x37C6 JUMP JUMPDEST DUP2 MSTORE PUSH1 0x20 PUSH1 0x1 SWAP3 DUP4 ADD DUP2 DUP2 DIV SWAP5 DUP6 ADD SWAP5 SWAP1 SWAP4 SUB SWAP1 SWAP3 MUL SWAP2 ADD DUP1 DUP5 GT PUSH2 0x1019 JUMPI SWAP1 POP JUMPDEST POP POP POP SWAP2 SWAP1 SWAP3 MSTORE POP POP PUSH1 0x0 DUP5 DUP2 MSTORE PUSH1 0x2 PUSH1 0x20 MSTORE PUSH1 0x40 SWAP1 KECCAK256 PUSH1 0x1 ADD SLOAD SWAP1 SWAP2 POP ISZERO ISZERO DUP1 PUSH2 0x1086 JUMPI POP SWAP3 SWAP2 POP POP JUMP JUMPDEST PUSH1 0x0 DUP5 DUP2 MSTORE PUSH1 0x2 PUSH1 0x20 MSTORE PUSH1 0x40 DUP2 KECCAK256 PUSH1 0x1 DUP1 DUP3 ADD SLOAD TIMESTAMP SWAP3 SWAP2 DUP5 SWAP2 PUSH2 0x10A9 SWAP2 SWAP1 PUSH2 0x3C33 JUMP JUMPDEST DUP2 MSTORE PUSH1 0x20 ADD SWAP1 DUP2 MSTORE PUSH1 0x20 ADD PUSH1 0x0 KECCAK256 PUSH1 0xE ADD SLOAD GT SWAP1 POP DUP1 ISZERO PUSH2 0x10CD JUMPI POP SWAP1 SWAP4 SWAP3 POP POP POP JUMP JUMPDEST PUSH1 0x0 DUP6 DUP2 MSTORE PUSH1 0x2 PUSH1 0x20 MSTORE PUSH1 0x40 DUP2 KECCAK256 PUSH1 0x1 DUP1 DUP3 ADD SLOAD SWAP2 SWAP3 SWAP2 PUSH2 0x10EE SWAP2 SWAP1 PUSH2 0x3C33 JUMP JUMPDEST DUP2 MSTORE PUSH1 0x20 DUP1 DUP3 ADD SWAP3 SWAP1 SWAP3 MSTORE PUSH1 0x40 SWAP1 DUP2 ADD PUSH1 0x0 SWAP1 DUP2 KECCAK256 PUSH1 0xC ADD SLOAD DUP9 DUP3 MSTORE PUSH1 0x2 SWAP1 SWAP4 MSTORE SWAP1 DUP2 KECCAK256 PUSH1 0x1 DUP1 DUP3 ADD SLOAD SWAP2 SWAP3 SWAP2 PUSH2 0x1125 SWAP2 SWAP1 PUSH2 0x3C33 JUMP JUMPDEST DUP2 MSTORE PUSH1 0x20 ADD SWAP1 DUP2 MSTORE PUSH1 0x20 ADD PUSH1 0x0 KECCAK256 PUSH1 0xB ADD SLOAD LT ISZERO PUSH2 0x12C9 JUMPI PUSH1 0x0 DUP6 DUP2 MSTORE PUSH1 0x2 PUSH1 0x20 MSTORE PUSH1 0x40 DUP2 KECCAK256 PUSH1 0x1 DUP1 DUP3 ADD SLOAD SWAP2 SWAP3 SWAP2 PUSH2 0x115E SWAP2 SWAP1 PUSH2 0x3C33 JUMP JUMPDEST DUP2 MSTORE PUSH1 0x20 DUP2 ADD SWAP2 SWAP1 SWAP2 MSTORE PUSH1 0x40 ADD PUSH1 0x0 KECCAK256 PUSH1 0x7 ADD DUP1 SLOAD PUSH2 0x117C SWAP1 PUSH2 0x3C46 JUMP JUMPDEST DUP1 PUSH1 0x1F ADD PUSH1 0x20 DUP1 SWAP2 DIV MUL PUSH1 0x20 ADD PUSH1 0x40 MLOAD SWAP1 DUP2 ADD PUSH1 0x40 MSTORE DUP1 SWAP3 SWAP2 SWAP1 DUP2 DUP2 MSTORE PUSH1 0x20 ADD DUP3 DUP1 SLOAD PUSH2 0x11A8 SWAP1 PUSH2 0x3C46 JUMP JUMPDEST DUP1 ISZERO PUSH2 0x11F5 JUMPI DUP1 PUSH1 0x1F LT PUSH2 0x11CA JUMPI PUSH2 0x100 DUP1 DUP4 SLOAD DIV MUL DUP4 MSTORE SWAP2 PUSH1 0x20 ADD SWAP2 PUSH2 0x11F5 JUMP JUMPDEST DUP3 ADD SWAP2 SWAP1 PUSH1 0x0 MSTORE PUSH1 0x20 PUSH1 0x0 KECCAK256 SWAP1 JUMPDEST DUP2 SLOAD DUP2 MSTORE SWAP1 PUSH1 0x1 ADD SWAP1 PUSH1 0x20 ADD DUP1 DUP4 GT PUSH2 0x11D8 JUMPI DUP3 SWAP1 SUB PUSH1 0x1F AND DUP3 ADD SWAP2 JUMPDEST POP POP POP POP POP PUSH1 0x60 DUP5 ADD MSTORE PUSH1 0x0 DUP6 DUP2 MSTORE PUSH1 0x2 PUSH1 0x20 MSTORE PUSH1 0x40 DUP2 KECCAK256 PUSH1 0x1 DUP1 DUP3 ADD SLOAD SWAP2 SWAP3 SWAP2 PUSH2 0x1220 SWAP2 SWAP1 PUSH2 0x3C33 JUMP JUMPDEST DUP2 MSTORE PUSH1 0x20 DUP2 ADD SWAP2 SWAP1 SWAP2 MSTORE PUSH1 0x40 ADD PUSH1 0x0 KECCAK256 PUSH1 0x8 ADD DUP1 SLOAD PUSH2 0x123E SWAP1 PUSH2 0x3C46 JUMP JUMPDEST DUP1 PUSH1 0x1F ADD PUSH1 0x20 DUP1 SWAP2 DIV MUL PUSH1 0x20 ADD PUSH1 0x40 MLOAD SWAP1 DUP2 ADD PUSH1 0x40 MSTORE DUP1 SWAP3 SWAP2 SWAP1 DUP2 DUP2 MSTORE PUSH1 0x20 ADD DUP3 DUP1 SLOAD PUSH2 0x126A SWAP1 PUSH2 0x3C46 JUMP JUMPDEST DUP1 ISZERO PUSH2 0x12B7 JUMPI DUP1 PUSH1 0x1F LT PUSH2 0x128C JUMPI PUSH2 0x100 DUP1 DUP4 SLOAD DIV MUL DUP4 MSTORE SWAP2 PUSH1 0x20 ADD SWAP2 PUSH2 0x12B7 JUMP JUMPDEST DUP3 ADD SWAP2 SWAP1 PUSH1 0x0 MSTORE PUSH1 0x20 PUSH1 0x0 KECCAK256 SWAP1 JUMPDEST DUP2 SLOAD DUP2 MSTORE SWAP1 PUSH1 0x1 ADD SWAP1 PUSH1 0x20 ADD DUP1 DUP4 GT PUSH2 0x129A JUMPI DUP3 SWAP1 SUB PUSH1 0x1F AND DUP3 ADD SWAP2 JUMPDEST POP POP POP POP POP DUP4 PUSH1 0x80 ADD DUP2 SWAP1 MSTORE POP PUSH2 0x1451 JUMP JUMPDEST PUSH1 0x0 DUP6 DUP2 MSTORE PUSH1 0x2 PUSH1 0x20 MSTORE PUSH1 0x40 DUP2 KECCAK256 PUSH1 0x1 DUP1 DUP3 ADD SLOAD SWAP2 SWAP3 SWAP2 PUSH2 0x12EA SWAP2 SWAP1 PUSH2 0x3C33 JUMP JUMPDEST DUP2 MSTORE PUSH1 0x20 DUP2 ADD SWAP2 SWAP1 SWAP2 MSTORE PUSH1 0x40 ADD PUSH1 0x0 KECCAK256 PUSH1 0x2 ADD DUP1 SLOAD PUSH2 0x1308 SWAP1 PUSH2 0x3C46 JUMP JUMPDEST DUP1 PUSH1 0x1F ADD PUSH1 0x20 DUP1 SWAP2 DIV MUL PUSH1 0x20 ADD PUSH1 0x40 MLOAD SWAP1 DUP2 ADD PUSH1 0x40 MSTORE DUP1 SWAP3 SWAP2 SWAP1 DUP2 DUP2 MSTORE PUSH1 0x20 ADD DUP3 DUP1 SLOAD PUSH2 0x1334 SWAP1 PUSH2 0x3C46 JUMP JUMPDEST DUP1 ISZERO PUSH2 0x1381 JUMPI DUP1 PUSH1 0x1F LT PUSH2 0x1356 JUMPI PUSH2 0x100 DUP1 DUP4 SLOAD DIV MUL DUP4 MSTORE SWAP2 PUSH1 0x20 ADD SWAP2 PUSH2 0x1381 JUMP JUMPDEST DUP3 ADD SWAP2 SWAP1 PUSH1 0x0 MSTORE PUSH1 0x20 PUSH1 0x0 KECCAK256 SWAP1 JUMPDEST DUP2 SLOAD DUP2 MSTORE SWAP1 PUSH1 0x1 ADD SWAP1 PUSH1 0x20 ADD DUP1 DUP4 GT PUSH2 0x1364 JUMPI DUP3 SWAP1 SUB PUSH1 0x1F AND DUP3 ADD SWAP2 JUMPDEST POP POP POP POP POP PUSH1 0x60 DUP5 ADD MSTORE PUSH1 0x0 DUP6 DUP2 MSTORE PUSH1 0x2 PUSH1 0x20 MSTORE PUSH1 0x40 DUP2 KECCAK256 PUSH1 0x1 DUP1 DUP3 ADD SLOAD SWAP2 SWAP3 SWAP2 PUSH2 0x13AC SWAP2 SWAP1 PUSH2 0x3C33 JUMP JUMPDEST DUP2 MSTORE PUSH1 0x20 DUP2 ADD SWAP2 SWAP1 SWAP2 MSTORE PUSH1 0x40 ADD PUSH1 0x0 KECCAK256 PUSH1 0x3 ADD DUP1 SLOAD PUSH2 0x13CA SWAP1 PUSH2 0x3C46 JUMP JUMPDEST DUP1 PUSH1 0x1F ADD PUSH1 0x20 DUP1 SWAP2 DIV MUL PUSH1 0x20 ADD PUSH1 0x40 MLOAD SWAP1 DUP2 ADD PUSH1 0x40 MSTORE DUP1 SWAP3 SWAP2 SWAP1 DUP2 DUP2 MSTORE PUSH1 0x20 ADD DUP3 DUP1 SLOAD PUSH2 0x13F6 SWAP1 PUSH2 0x3C46 JUMP JUMPDEST DUP1 ISZERO PUSH2 0x1443 JUMPI DUP1 PUSH1 0x1F LT PUSH2 0x1418 JUMPI PUSH2 0x100 DUP1 DUP4 SLOAD DIV MUL DUP4 MSTORE SWAP2 PUSH1 0x20 ADD SWAP2 PUSH2 0x1443 JUMP JUMPDEST DUP3 ADD SWAP2 SWAP1 PUSH1 0x0 MSTORE PUSH1 0x20 PUSH1 0x0 KECCAK256 SWAP1 JUMPDEST DUP2 SLOAD DUP2 MSTORE SWAP1 PUSH1 0x1 ADD SWAP1 PUSH1 0x20 ADD DUP1 DUP4 GT PUSH2 0x1426 JUMPI DUP3 SWAP1 SUB PUSH1 0x1F AND DUP3 ADD SWAP2 JUMPDEST POP POP POP POP POP DUP4 PUSH1 0x80 ADD DUP2 SWAP1 MSTORE POP JUMPDEST POP SWAP1 SWAP4 SWAP3 POP POP POP JUMP JUMPDEST PUSH2 0x1462 PUSH2 0x34A4 JUMP JUMPDEST DUP11 PUSH2 0x149E JUMPI PUSH1 0x40 MLOAD PUSH3 0x461BCD PUSH1 0xE5 SHL DUP2 MSTORE PUSH1 0x20 PUSH1 0x4 DUP3 ADD MSTORE PUSH1 0xC PUSH1 0x24 DUP3 ADD MSTORE PUSH12 0x496E76616C6964206E616D65 PUSH1 0xA0 SHL PUSH1 0x44 DUP3 ADD MSTORE PUSH1 0x64 ADD PUSH2 0x6A4 JUMP JUMPDEST DUP7 PUSH2 0x14DF JUMPI PUSH1 0x40 MLOAD PUSH3 0x461BCD PUSH1 0xE5 SHL DUP2 MSTORE PUSH1 0x20 PUSH1 0x4 DUP3 ADD MSTORE PUSH1 0x11 PUSH1 0x24 DUP3 ADD MSTORE PUSH17 0x24B73B30B634B210383AB13634B9B432B9 PUSH1 0x79 SHL PUSH1 0x44 DUP3 ADD MSTORE PUSH1 0x64 ADD PUSH2 0x6A4 JUMP JUMPDEST PUSH1 0x0 DUP7 PUSH2 0xFFFF AND GT PUSH2 0x1522 JUMPI PUSH1 0x40 MLOAD PUSH3 0x461BCD PUSH1 0xE5 SHL DUP2 MSTORE PUSH1 0x20 PUSH1 0x4 DUP3 ADD MSTORE PUSH1 0xC PUSH1 0x24 DUP3 ADD MSTORE PUSH12 0x24B73B30B634B2103CB2B0B9 PUSH1 0xA1 SHL PUSH1 0x44 DUP3 ADD MSTORE PUSH1 0x64 ADD PUSH2 0x6A4 JUMP JUMPDEST PUSH1 0x0 PUSH2 0x1599 DUP14 DUP14 DUP1 DUP1 PUSH1 0x1F ADD PUSH1 0x20 DUP1 SWAP2 DIV MUL PUSH1 0x20 ADD PUSH1 0x40 MLOAD SWAP1 DUP2 ADD PUSH1 0x40 MSTORE DUP1 SWAP4 SWAP3 SWAP2 SWAP1 DUP2 DUP2 MSTORE PUSH1 0x20 ADD DUP4 DUP4 DUP1 DUP3 DUP5 CALLDATACOPY PUSH1 0x0 SWAP3 ADD SWAP2 SWAP1 SWAP2 MSTORE POP POP PUSH1 0x40 DUP1 MLOAD PUSH1 0x20 PUSH1 0x1F DUP16 ADD DUP2 SWAP1 DIV DUP2 MUL DUP3 ADD DUP2 ADD SWAP1 SWAP3 MSTORE DUP14 DUP2 MSTORE DUP13 SWAP4 POP SWAP2 POP DUP14 SWAP1 DUP14 SWAP1 DUP2 SWAP1 DUP5 ADD DUP4 DUP3 DUP1 DUP3 DUP5 CALLDATACOPY PUSH1 0x0 SWAP3 ADD SWAP2 SWAP1 SWAP2 MSTORE POP PUSH2 0x33D0 SWAP3 POP POP POP JUMP JUMPDEST PUSH1 0x0 DUP2 DUP2 MSTORE PUSH1 0x1 PUSH1 0x20 DUP2 SWAP1 MSTORE PUSH1 0x40 SWAP1 SWAP2 KECCAK256 ADD SLOAD SWAP1 SWAP2 POP PUSH2 0xFFFF AND ISZERO PUSH2 0x15F6 JUMPI PUSH1 0x40 MLOAD PUSH3 0x461BCD PUSH1 0xE5 SHL DUP2 MSTORE PUSH1 0x20 PUSH1 0x4 DUP3 ADD MSTORE PUSH1 0x13 PUSH1 0x24 DUP3 ADD MSTORE PUSH19 0x47616D6520616C726561647920657869737473 PUSH1 0x68 SHL PUSH1 0x44 DUP3 ADD MSTORE PUSH1 0x64 ADD PUSH2 0x6A4 JUMP JUMPDEST PUSH1 0x0 PUSH1 0x40 MLOAD DUP1 PUSH2 0x140 ADD PUSH1 0x40 MSTORE DUP1 DUP16 DUP16 DUP1 DUP1 PUSH1 0x1F ADD PUSH1 0x20 DUP1 SWAP2 DIV MUL PUSH1 0x20 ADD PUSH1 0x40 MLOAD SWAP1 DUP2 ADD PUSH1 0x40 MSTORE DUP1 SWAP4 SWAP3 SWAP2 SWAP1 DUP2 DUP2 MSTORE PUSH1 0x20 ADD DUP4 DUP4 DUP1 DUP3 DUP5 CALLDATACOPY PUSH1 0x0 SWAP3 ADD SWAP2 SWAP1 SWAP2 MSTORE POP POP POP SWAP1 DUP3 MSTORE POP PUSH2 0xFFFF DUP11 AND PUSH1 0x20 DUP1 DUP4 ADD SWAP2 SWAP1 SWAP2 MSTORE PUSH1 0x40 DUP1 MLOAD PUSH1 0x1F DUP15 ADD DUP4 SWAP1 DIV DUP4 MUL DUP2 ADD DUP4 ADD DUP3 MSTORE DUP14 DUP2 MSTORE SWAP3 ADD SWAP2 SWAP1 DUP14 SWAP1 DUP14 SWAP1 DUP2 SWAP1 DUP5 ADD DUP4 DUP3 DUP1 DUP3 DUP5 CALLDATACOPY PUSH1 0x0 DUP2 DUP5 ADD MSTORE PUSH1 0x1F NOT PUSH1 0x1F DUP3 ADD AND SWAP1 POP DUP1 DUP4 ADD SWAP3 POP POP POP POP POP POP POP DUP2 MSTORE PUSH1 0x20 ADD PUSH1 0x40 MLOAD DUP1 PUSH1 0x20 ADD PUSH1 0x40 MSTORE DUP1 PUSH1 0x0 DUP2 MSTORE POP DUP2 MSTORE PUSH1 0x20 ADD PUSH1 0x40 MLOAD DUP1 PUSH1 0x20 ADD PUSH1 0x40 MSTORE DUP1 PUSH1 0x0 DUP2 MSTORE POP DUP2 MSTORE PUSH1 0x20 ADD PUSH1 0x1 ISZERO ISZERO DUP2 MSTORE PUSH1 0x20 ADD DUP14 DUP14 DUP1 DUP1 PUSH1 0x1F ADD PUSH1 0x20 DUP1 SWAP2 DIV MUL PUSH1 0x20 ADD PUSH1 0x40 MLOAD SWAP1 DUP2 ADD PUSH1 0x40 MSTORE DUP1 SWAP4 SWAP3 SWAP2 SWAP1 DUP2 DUP2 MSTORE PUSH1 0x20 ADD DUP4 DUP4 DUP1 DUP3 DUP5 CALLDATACOPY PUSH1 0x0 SWAP3 ADD SWAP2 SWAP1 SWAP2 MSTORE POP POP POP SWAP1 DUP3 MSTORE POP PUSH1 0x20 DUP1 DUP3 ADD DUP6 SWAP1 MSTORE PUSH1 0x40 DUP1 MLOAD PUSH1 0x1F DUP12 ADD DUP4 SWAP1 DIV DUP4 MUL DUP2 ADD DUP4 ADD DUP3 MSTORE DUP11 DUP2 MSTORE SWAP3 ADD SWAP2 SWAP1 DUP11 SWAP1 DUP11 SWAP1 DUP2 SWAP1 DUP5 ADD DUP4 DUP3 DUP1 DUP3 DUP5 CALLDATACOPY PUSH1 0x0 SWAP3 ADD SWAP2 SWAP1 SWAP2 MSTORE POP POP POP SWAP1 DUP3 MSTORE POP PUSH1 0x40 DUP1 MLOAD PUSH1 0x20 DUP9 DUP2 MUL DUP3 DUP2 ADD DUP3 ADD SWAP1 SWAP4 MSTORE DUP9 DUP3 MSTORE SWAP3 DUP4 ADD SWAP3 SWAP1 SWAP2 DUP10 SWAP2 DUP10 SWAP2 DUP3 SWAP2 DUP6 ADD SWAP1 DUP5 SWAP1 DUP1 DUP3 DUP5 CALLDATACOPY PUSH1 0x0 SWAP3 ADD DUP3 SWAP1 MSTORE POP SWAP4 SWAP1 SWAP5 MSTORE POP POP DUP5 DUP2 MSTORE PUSH1 0x1 PUSH1 0x20 MSTORE PUSH1 0x40 SWAP1 KECCAK256 DUP3 MLOAD SWAP3 SWAP4 POP DUP4 SWAP3 SWAP1 SWAP2 POP DUP2 SWAP1 PUSH2 0x1797 SWAP1 DUP3 PUSH2 0x3D00 JUMP JUMPDEST POP PUSH1 0x20 DUP3 ADD MLOAD PUSH1 0x1 DUP3 ADD DUP1 SLOAD PUSH2 0xFFFF NOT AND PUSH2 0xFFFF SWAP1 SWAP3 AND SWAP2 SWAP1 SWAP2 OR SWAP1 SSTORE PUSH1 0x40 DUP3 ADD MLOAD PUSH1 0x2 DUP3 ADD SWAP1 PUSH2 0x17C8 SWAP1 DUP3 PUSH2 0x3D00 JUMP JUMPDEST POP PUSH1 0x60 DUP3 ADD MLOAD PUSH1 0x3 DUP3 ADD SWAP1 PUSH2 0x17DD SWAP1 DUP3 PUSH2 0x3D00 JUMP JUMPDEST POP PUSH1 0x80 DUP3 ADD MLOAD PUSH1 0x4 DUP3 ADD SWAP1 PUSH2 0x17F2 SWAP1 DUP3 PUSH2 0x3D00 JUMP JUMPDEST POP PUSH1 0xA0 DUP3 ADD MLOAD PUSH1 0x5 DUP3 ADD DUP1 SLOAD PUSH1 0xFF NOT AND SWAP2 ISZERO ISZERO SWAP2 SWAP1 SWAP2 OR SWAP1 SSTORE PUSH1 0xC0 DUP3 ADD MLOAD PUSH1 0x6 DUP3 ADD SWAP1 PUSH2 0x181F SWAP1 DUP3 PUSH2 0x3D00 JUMP JUMPDEST POP PUSH1 0xE0 DUP3 ADD MLOAD PUSH1 0x7 DUP3 ADD SSTORE PUSH2 0x100 DUP3 ADD MLOAD PUSH1 0x8 DUP3 ADD SWAP1 PUSH2 0x183F SWAP1 DUP3 PUSH2 0x3D00 JUMP JUMPDEST POP PUSH2 0x120 DUP3 ADD MLOAD DUP1 MLOAD PUSH2 0x185C SWAP2 PUSH1 0x9 DUP5 ADD SWAP2 PUSH1 0x20 SWAP1 SWAP2 ADD SWAP1 PUSH2 0x3500 JUMP JUMPDEST POP POP DUP2 MLOAD PUSH1 0x40 DUP1 DUP5 ADD MLOAD PUSH1 0x20 DUP6 ADD MLOAD PUSH2 0x100 DUP7 ADD MLOAD PUSH2 0x120 DUP8 ADD MLOAD SWAP4 MLOAD PUSH32 0xA6A5EE5711850FC703BB4A85ED2459E2F986DB752512BF039101DD6EB6D9BEE9 SWAP7 POP PUSH2 0x18AC SWAP6 DUP10 SWAP6 SWAP1 SWAP5 SWAP4 SWAP3 SWAP2 PUSH2 0x3DFB JUMP JUMPDEST PUSH1 0x40 MLOAD DUP1 SWAP2 SUB SWAP1 LOG1 SWAP14 SWAP13 POP POP POP POP POP POP POP POP POP POP POP POP POP JUMP JUMPDEST PUSH2 0x18CD PUSH2 0x3406 JUMP JUMPDEST PUSH1 0x0 DUP7 DUP2 MSTORE PUSH1 0x1 PUSH1 0x20 DUP2 SWAP1 MSTORE PUSH1 0x40 SWAP1 SWAP2 KECCAK256 ADD SLOAD PUSH2 0xFFFF AND PUSH2 0x1900 JUMPI PUSH1 0x40 MLOAD PUSH3 0x461BCD PUSH1 0xE5 SHL DUP2 MSTORE PUSH1 0x4 ADD PUSH2 0x6A4 SWAP1 PUSH2 0x3DC0 JUMP JUMPDEST PUSH1 0x0 PUSH2 0x190B DUP8 PUSH2 0x2C18 JUMP JUMPDEST SWAP1 POP DUP1 ISZERO PUSH2 0x195B JUMPI PUSH1 0x40 MLOAD PUSH3 0x461BCD PUSH1 0xE5 SHL DUP2 MSTORE PUSH1 0x20 PUSH1 0x4 DUP3 ADD MSTORE PUSH1 0x19 PUSH1 0x24 DUP3 ADD MSTORE PUSH32 0x4368616C6C656E676520616C7265616479206578697374656400000000000000 PUSH1 0x44 DUP3 ADD MSTORE PUSH1 0x64 ADD PUSH2 0x6A4 JUMP JUMPDEST PUSH2 0x1964 DUP8 PUSH2 0x17C JUMP JUMPDEST PUSH1 0x0 PUSH1 0x40 MLOAD DUP1 PUSH1 0xE0 ADD PUSH1 0x40 MSTORE DUP1 DUP10 DUP2 MSTORE PUSH1 0x20 ADD PUSH1 0x40 MLOAD DUP1 PUSH1 0x40 ADD PUSH1 0x40 MSTORE DUP1 PUSH1 0x40 MLOAD DUP1 PUSH1 0x60 ADD PUSH1 0x40 MSTORE DUP1 DUP14 DUP2 MSTORE PUSH1 0x20 ADD PUSH1 0x1 PUSH1 0x0 DUP16 DUP2 MSTORE PUSH1 0x20 ADD SWAP1 DUP2 MSTORE PUSH1 0x20 ADD PUSH1 0x0 KECCAK256 PUSH1 0x3 ADD DUP1 SLOAD PUSH2 0x19B4 SWAP1 PUSH2 0x3C46 JUMP JUMPDEST DUP1 PUSH1 0x1F ADD PUSH1 0x20 DUP1 SWAP2 DIV MUL PUSH1 0x20 ADD PUSH1 0x40 MLOAD SWAP1 DUP2 ADD PUSH1 0x40 MSTORE DUP1 SWAP3 SWAP2 SWAP1 DUP2 DUP2 MSTORE PUSH1 0x20 ADD DUP3 DUP1 SLOAD PUSH2 0x19E0 SWAP1 PUSH2 0x3C46 JUMP JUMPDEST DUP1 ISZERO PUSH2 0x1A2D JUMPI DUP1 PUSH1 0x1F LT PUSH2 0x1A02 JUMPI PUSH2 0x100 DUP1 DUP4 SLOAD DIV MUL DUP4 MSTORE SWAP2 PUSH1 0x20 ADD SWAP2 PUSH2 0x1A2D JUMP JUMPDEST DUP3 ADD SWAP2 SWAP1 PUSH1 0x0 MSTORE PUSH1 0x20 PUSH1 0x0 KECCAK256 SWAP1 JUMPDEST DUP2 SLOAD DUP2 MSTORE SWAP1 PUSH1 0x1 ADD SWAP1 PUSH1 0x20 ADD DUP1 DUP4 GT PUSH2 0x1A10 JUMPI DUP3 SWAP1 SUB PUSH1 0x1F AND DUP3 ADD SWAP2 JUMPDEST POP POP POP POP POP DUP2 MSTORE PUSH1 0x20 ADD PUSH1 0x1 PUSH1 0x0 DUP16 DUP2 MSTORE PUSH1 0x20 ADD SWAP1 DUP2 MSTORE PUSH1 0x20 ADD PUSH1 0x0 KECCAK256 PUSH1 0x4 ADD DUP1 SLOAD PUSH2 0x1A58 SWAP1 PUSH2 0x3C46 JUMP JUMPDEST DUP1 PUSH1 0x1F ADD PUSH1 0x20 DUP1 SWAP2 DIV MUL PUSH1 0x20 ADD PUSH1 0x40 MLOAD SWAP1 DUP2 ADD PUSH1 0x40 MSTORE DUP1 SWAP3 SWAP2 SWAP1 DUP2 DUP2 MSTORE PUSH1 0x20 ADD DUP3 DUP1 SLOAD PUSH2 0x1A84 SWAP1 PUSH2 0x3C46 JUMP JUMPDEST DUP1 ISZERO PUSH2 0x1AD1 JUMPI DUP1 PUSH1 0x1F LT PUSH2 0x1AA6 JUMPI PUSH2 0x100 DUP1 DUP4 SLOAD DIV MUL DUP4 MSTORE SWAP2 PUSH1 0x20 ADD SWAP2 PUSH2 0x1AD1 JUMP JUMPDEST DUP3 ADD SWAP2 SWAP1 PUSH1 0x0 MSTORE PUSH1 0x20 PUSH1 0x0 KECCAK256 SWAP1 JUMPDEST DUP2 SLOAD DUP2 MSTORE SWAP1 PUSH1 0x1 ADD SWAP1 PUSH1 0x20 ADD DUP1 DUP4 GT PUSH2 0x1AB4 JUMPI DUP3 SWAP1 SUB PUSH1 0x1F AND DUP3 ADD SWAP2 JUMPDEST POP POP POP SWAP2 SWAP1 SWAP3 MSTORE POP POP DUP2 MSTORE PUSH1 0x20 ADD PUSH1 0x0 PUSH1 0x40 MLOAD SWAP1 DUP1 DUP3 MSTORE DUP1 PUSH1 0x20 MUL PUSH1 0x20 ADD DUP3 ADD PUSH1 0x40 MSTORE DUP1 ISZERO PUSH2 0x1B26 JUMPI DUP2 PUSH1 0x20 ADD JUMPDEST PUSH1 0x40 DUP1 MLOAD DUP1 DUP3 ADD SWAP1 SWAP2 MSTORE PUSH1 0x0 DUP1 DUP3 MSTORE PUSH1 0x20 DUP3 ADD MSTORE DUP2 MSTORE PUSH1 0x20 ADD SWAP1 PUSH1 0x1 SWAP1 SUB SWAP1 DUP2 PUSH2 0x1AFF JUMPI SWAP1 POP JUMPDEST POP DUP2 MSTORE POP DUP2 MSTORE PUSH1 0x20 ADD PUSH1 0x40 MLOAD DUP1 PUSH1 0x40 ADD PUSH1 0x40 MSTORE DUP1 PUSH1 0x40 MLOAD DUP1 PUSH1 0x60 ADD PUSH1 0x40 MSTORE DUP1 DUP14 DUP2 MSTORE PUSH1 0x20 ADD DUP13 DUP13 DUP1 DUP1 PUSH1 0x1F ADD PUSH1 0x20 DUP1 SWAP2 DIV MUL PUSH1 0x20 ADD PUSH1 0x40 MLOAD SWAP1 DUP2 ADD PUSH1 0x40 MSTORE DUP1 SWAP4 SWAP3 SWAP2 SWAP1 DUP2 DUP2 MSTORE PUSH1 0x20 ADD DUP4 DUP4 DUP1 DUP3 DUP5 CALLDATACOPY PUSH1 0x0 SWAP3 ADD SWAP2 SWAP1 SWAP2 MSTORE POP POP POP SWAP1 DUP3 MSTORE POP PUSH1 0x40 DUP1 MLOAD PUSH1 0x20 PUSH1 0x1F DUP14 ADD DUP2 SWAP1 DIV DUP2 MUL DUP3 ADD DUP2 ADD SWAP1 SWAP3 MSTORE DUP12 DUP2 MSTORE SWAP2 DUP2 ADD SWAP2 SWAP1 DUP13 SWAP1 DUP13 SWAP1 DUP2 SWAP1 DUP5 ADD DUP4 DUP3 DUP1 DUP3 DUP5 CALLDATACOPY PUSH1 0x0 SWAP3 ADD DUP3 SWAP1 MSTORE POP SWAP4 SWAP1 SWAP5 MSTORE POP POP SWAP2 DUP4 MSTORE POP PUSH1 0x40 DUP1 MLOAD DUP3 DUP2 MSTORE PUSH1 0x20 DUP2 DUP2 ADD SWAP1 SWAP3 MSTORE SWAP3 ADD SWAP2 SWAP1 PUSH2 0x1C01 JUMP JUMPDEST PUSH1 0x40 DUP1 MLOAD DUP1 DUP3 ADD SWAP1 SWAP2 MSTORE PUSH1 0x0 DUP1 DUP3 MSTORE PUSH1 0x20 DUP3 ADD MSTORE DUP2 MSTORE PUSH1 0x20 ADD SWAP1 PUSH1 0x1 SWAP1 SUB SWAP1 DUP2 PUSH2 0x1BDA JUMPI SWAP1 POP JUMPDEST POP DUP2 MSTORE POP DUP2 MSTORE PUSH1 0x20 ADD PUSH1 0x0 DUP2 MSTORE PUSH1 0x20 ADD PUSH1 0x0 DUP2 MSTORE PUSH1 0x20 ADD TIMESTAMP DUP2 MSTORE PUSH1 0x20 ADD PUSH1 0x4 SLOAD TIMESTAMP PUSH2 0x1C2C SWAP2 SWAP1 PUSH2 0x3DE8 JUMP JUMPDEST SWAP1 MSTORE PUSH1 0x0 DUP10 DUP2 MSTORE PUSH1 0x2 PUSH1 0x20 MSTORE PUSH1 0x40 DUP2 KECCAK256 PUSH1 0x1 ADD DUP1 SLOAD SWAP3 SWAP4 POP DUP3 SWAP2 PUSH2 0x1C4F DUP4 PUSH2 0x3C80 JUMP JUMPDEST SWAP1 SWAP2 SSTORE POP POP PUSH1 0x0 DUP10 DUP2 MSTORE PUSH1 0x2 PUSH1 0x20 SWAP1 DUP2 MSTORE PUSH1 0x40 DUP1 DUP4 KECCAK256 DUP5 DUP5 MSTORE DUP3 MSTORE SWAP2 DUP3 SWAP1 KECCAK256 DUP12 SWAP1 SSTORE DUP2 MLOAD PUSH1 0x60 DUP2 ADD DUP4 MSTORE DUP12 DUP2 MSTORE DUP3 MLOAD PUSH1 0x1F DUP12 ADD DUP4 SWAP1 DIV DUP4 MUL DUP2 ADD DUP4 ADD SWAP1 SWAP4 MSTORE DUP10 DUP4 MSTORE SWAP2 DUP3 DUP3 ADD SWAP2 DUP12 SWAP1 DUP12 SWAP1 DUP2 SWAP1 DUP5 ADD DUP4 DUP3 DUP1 DUP3 DUP5 CALLDATACOPY PUSH1 0x0 SWAP3 ADD SWAP2 SWAP1 SWAP2 MSTORE POP POP POP SWAP1 DUP3 MSTORE POP PUSH1 0x40 DUP1 MLOAD PUSH1 0x20 PUSH1 0x1F DUP11 ADD DUP2 SWAP1 DIV DUP2 MUL DUP3 ADD DUP2 ADD SWAP1 SWAP3 MSTORE DUP9 DUP2 MSTORE SWAP2 DUP2 ADD SWAP2 SWAP1 DUP10 SWAP1 DUP10 SWAP1 DUP2 SWAP1 DUP5 ADD DUP4 DUP3 DUP1 DUP3 DUP5 CALLDATACOPY PUSH1 0x0 SWAP3 ADD DUP3 SWAP1 MSTORE POP SWAP4 SWAP1 SWAP5 MSTORE POP POP DUP12 DUP2 MSTORE PUSH1 0x2 PUSH1 0x20 DUP2 DUP2 MSTORE PUSH1 0x40 DUP1 DUP5 KECCAK256 DUP8 DUP6 MSTORE DUP3 MSTORE SWAP1 SWAP3 KECCAK256 DUP5 MLOAD PUSH1 0x1 DUP3 ADD SWAP1 DUP2 SSTORE SWAP3 DUP6 ADD MLOAD SWAP3 SWAP4 POP ADD SWAP1 PUSH2 0x1D20 SWAP1 DUP3 PUSH2 0x3D00 JUMP JUMPDEST POP PUSH1 0x40 DUP3 ADD MLOAD PUSH1 0x2 DUP3 ADD SWAP1 PUSH2 0x1D35 SWAP1 DUP3 PUSH2 0x3D00 JUMP JUMPDEST POP POP POP PUSH1 0x0 DUP10 DUP2 MSTORE PUSH1 0x2 PUSH1 0x20 SWAP1 DUP2 MSTORE PUSH1 0x40 DUP1 DUP4 KECCAK256 DUP5 DUP5 MSTORE DUP3 MSTORE DUP1 DUP4 KECCAK256 PUSH1 0x5 ADD SWAP3 SWAP1 SWAP3 SSTORE DUP2 MLOAD PUSH1 0x60 DUP2 ADD DUP4 MSTORE DUP12 DUP2 MSTORE DUP3 MLOAD PUSH1 0x1F DUP12 ADD DUP4 SWAP1 DIV DUP4 MUL DUP2 ADD DUP4 ADD SWAP1 SWAP4 MSTORE DUP10 DUP4 MSTORE SWAP2 DUP3 DUP3 ADD SWAP2 DUP12 SWAP1 DUP12 SWAP1 DUP2 SWAP1 DUP5 ADD DUP4 DUP3 DUP1 DUP3 DUP5 CALLDATACOPY PUSH1 0x0 SWAP3 ADD SWAP2 SWAP1 SWAP2 MSTORE POP POP POP SWAP1 DUP3 MSTORE POP PUSH1 0x40 DUP1 MLOAD PUSH1 0x20 PUSH1 0x1F DUP11 ADD DUP2 SWAP1 DIV DUP2 MUL DUP3 ADD DUP2 ADD SWAP1 SWAP3 MSTORE DUP9 DUP2 MSTORE SWAP2 DUP2 ADD SWAP2 SWAP1 DUP10 SWAP1 DUP10 SWAP1 DUP2 SWAP1 DUP5 ADD DUP4 DUP3 DUP1 DUP3 DUP5 CALLDATACOPY PUSH1 0x0 SWAP3 ADD DUP3 SWAP1 MSTORE POP SWAP4 SWAP1 SWAP5 MSTORE POP POP DUP12 DUP2 MSTORE PUSH1 0x2 PUSH1 0x20 SWAP1 DUP2 MSTORE PUSH1 0x40 DUP1 DUP4 KECCAK256 DUP7 DUP5 MSTORE DUP3 MSTORE SWAP1 SWAP2 KECCAK256 DUP4 MLOAD PUSH1 0x6 DUP3 ADD SWAP1 DUP2 SSTORE SWAP2 DUP5 ADD MLOAD SWAP2 SWAP3 POP PUSH1 0x7 ADD SWAP1 PUSH2 0x1E09 SWAP1 DUP3 PUSH2 0x3D00 JUMP JUMPDEST POP PUSH1 0x40 DUP3 ADD MLOAD PUSH1 0x2 DUP3 ADD SWAP1 PUSH2 0x1E1E SWAP1 DUP3 PUSH2 0x3D00 JUMP JUMPDEST POP POP POP PUSH1 0x0 SWAP9 DUP10 MSTORE PUSH1 0x2 PUSH1 0x20 SWAP1 DUP2 MSTORE PUSH1 0x40 DUP1 DUP12 KECCAK256 SWAP3 DUP12 MSTORE SWAP2 SWAP1 MSTORE DUP9 KECCAK256 PUSH1 0xA DUP2 ADD SWAP9 SWAP1 SWAP9 SSTORE PUSH1 0xC0 DUP2 ADD MLOAD PUSH1 0xE DUP10 ADD SSTORE PUSH1 0xA0 DUP2 ADD MLOAD PUSH1 0xD DUP10 ADD SSTORE PUSH1 0x60 DUP2 ADD MLOAD PUSH1 0xB DUP10 ADD SSTORE PUSH1 0x80 DUP2 ADD MLOAD PUSH1 0xC SWAP1 SWAP9 ADD SWAP8 SWAP1 SWAP8 SSTORE POP SWAP5 SWAP6 SWAP5 POP POP POP POP POP JUMP JUMPDEST PUSH1 0x0 DUP2 DUP2 MSTORE PUSH1 0x1 PUSH1 0x20 DUP2 SWAP1 MSTORE PUSH1 0x40 SWAP1 SWAP2 KECCAK256 ADD SLOAD PUSH1 0x60 SWAP1 PUSH2 0xFFFF AND PUSH2 0x1EAF JUMPI PUSH1 0x40 MLOAD PUSH3 0x461BCD PUSH1 0xE5 SHL DUP2 MSTORE PUSH1 0x4 ADD PUSH2 0x6A4 SWAP1 PUSH2 0x3DC0 JUMP JUMPDEST PUSH1 0x0 DUP3 DUP2 MSTORE PUSH1 0x3 PUSH1 0x20 SWAP1 DUP2 MSTORE PUSH1 0x40 DUP1 DUP4 KECCAK256 PUSH1 0x1 SWAP1 DUP2 ADD SLOAD PUSH1 0x2 SWAP1 SWAP4 MSTORE SWAP1 DUP4 KECCAK256 ADD SLOAD SWAP1 SWAP2 SWAP1 ISZERO DUP1 ISZERO SWAP2 SWAP1 PUSH2 0x1F12 JUMPI PUSH1 0x0 DUP6 DUP2 MSTORE PUSH1 0x2 PUSH1 0x20 MSTORE PUSH1 0x40 DUP2 KECCAK256 PUSH1 0x1 DUP1 DUP3 ADD SLOAD TIMESTAMP SWAP4 SWAP2 PUSH2 0x1EFC SWAP2 PUSH2 0x3C33 JUMP JUMPDEST DUP2 MSTORE PUSH1 0x20 ADD SWAP1 DUP2 MSTORE PUSH1 0x20 ADD PUSH1 0x0 KECCAK256 PUSH1 0xE ADD SLOAD GT SWAP1 POP JUMPDEST PUSH1 0x0 DUP3 DUP1 ISZERO PUSH2 0x1F1F JUMPI POP DUP2 ISZERO JUMPDEST ISZERO PUSH2 0x2485 JUMPI PUSH1 0x0 DUP7 DUP2 MSTORE PUSH1 0x2 PUSH1 0x20 MSTORE PUSH1 0x40 DUP2 KECCAK256 PUSH1 0x1 DUP1 DUP3 ADD SLOAD SWAP2 SWAP3 SWAP2 PUSH2 0x1F45 SWAP2 SWAP1 PUSH2 0x3C33 JUMP JUMPDEST DUP2 MSTORE PUSH1 0x20 DUP1 DUP3 ADD SWAP3 SWAP1 SWAP3 MSTORE PUSH1 0x40 SWAP1 DUP2 ADD PUSH1 0x0 SWAP1 DUP2 KECCAK256 PUSH1 0xC ADD SLOAD DUP10 DUP3 MSTORE PUSH1 0x2 SWAP1 SWAP4 MSTORE SWAP1 DUP2 KECCAK256 PUSH1 0x1 DUP1 DUP3 ADD SLOAD SWAP2 SWAP3 SWAP2 PUSH2 0x1F7C SWAP2 SWAP1 PUSH2 0x3C33 JUMP JUMPDEST DUP2 MSTORE PUSH1 0x20 ADD SWAP1 DUP2 MSTORE PUSH1 0x20 ADD PUSH1 0x0 KECCAK256 PUSH1 0xB ADD SLOAD LT ISZERO PUSH2 0x2250 JUMPI PUSH1 0x0 DUP7 DUP2 MSTORE PUSH1 0x3 PUSH1 0x20 MSTORE PUSH1 0x40 DUP2 KECCAK256 PUSH1 0x1 ADD SLOAD ISZERO DUP1 ISZERO SWAP2 SWAP1 DUP3 SWAP1 PUSH2 0x2131 JUMPI POP PUSH1 0x0 DUP9 DUP2 MSTORE PUSH1 0x3 PUSH1 0x20 MSTORE PUSH1 0x40 DUP2 KECCAK256 PUSH1 0x1 DUP1 DUP3 ADD SLOAD PUSH2 0x2131 SWAP4 SWAP2 PUSH2 0x1FD4 SWAP2 PUSH2 0x3C33 JUMP JUMPDEST DUP2 MSTORE PUSH1 0x20 ADD SWAP1 DUP2 MSTORE PUSH1 0x20 ADD PUSH1 0x0 KECCAK256 PUSH1 0x1 ADD DUP1 SLOAD PUSH2 0x1FF0 SWAP1 PUSH2 0x3C46 JUMP JUMPDEST DUP1 PUSH1 0x1F ADD PUSH1 0x20 DUP1 SWAP2 DIV MUL PUSH1 0x20 ADD PUSH1 0x40 MLOAD SWAP1 DUP2 ADD PUSH1 0x40 MSTORE DUP1 SWAP3 SWAP2 SWAP1 DUP2 DUP2 MSTORE PUSH1 0x20 ADD DUP3 DUP1 SLOAD PUSH2 0x201C SWAP1 PUSH2 0x3C46 JUMP JUMPDEST DUP1 ISZERO PUSH2 0x2069 JUMPI DUP1 PUSH1 0x1F LT PUSH2 0x203E JUMPI PUSH2 0x100 DUP1 DUP4 SLOAD DIV MUL DUP4 MSTORE SWAP2 PUSH1 0x20 ADD SWAP2 PUSH2 0x2069 JUMP JUMPDEST DUP3 ADD SWAP2 SWAP1 PUSH1 0x0 MSTORE PUSH1 0x20 PUSH1 0x0 KECCAK256 SWAP1 JUMPDEST DUP2 SLOAD DUP2 MSTORE SWAP1 PUSH1 0x1 ADD SWAP1 PUSH1 0x20 ADD DUP1 DUP4 GT PUSH2 0x204C JUMPI DUP3 SWAP1 SUB PUSH1 0x1F AND DUP3 ADD SWAP2 JUMPDEST POP POP POP PUSH1 0x0 DUP13 DUP2 MSTORE PUSH1 0x2 PUSH1 0x20 MSTORE PUSH1 0x40 DUP2 KECCAK256 PUSH1 0x1 DUP1 DUP3 ADD SLOAD SWAP2 SWAP5 POP SWAP2 SWAP3 POP PUSH2 0x2090 SWAP2 SWAP1 PUSH2 0x3C33 JUMP JUMPDEST DUP2 MSTORE PUSH1 0x20 DUP2 ADD SWAP2 SWAP1 SWAP2 MSTORE PUSH1 0x40 ADD PUSH1 0x0 KECCAK256 PUSH1 0x7 ADD DUP1 SLOAD PUSH2 0x20AE SWAP1 PUSH2 0x3C46 JUMP JUMPDEST DUP1 PUSH1 0x1F ADD PUSH1 0x20 DUP1 SWAP2 DIV MUL PUSH1 0x20 ADD PUSH1 0x40 MLOAD SWAP1 DUP2 ADD PUSH1 0x40 MSTORE DUP1 SWAP3 SWAP2 SWAP1 DUP2 DUP2 MSTORE PUSH1 0x20 ADD DUP3 DUP1 SLOAD PUSH2 0x20DA SWAP1 PUSH2 0x3C46 JUMP JUMPDEST DUP1 ISZERO PUSH2 0x2127 JUMPI DUP1 PUSH1 0x1F LT PUSH2 0x20FC JUMPI PUSH2 0x100 DUP1 DUP4 SLOAD DIV MUL DUP4 MSTORE SWAP2 PUSH1 0x20 ADD SWAP2 PUSH2 0x2127 JUMP JUMPDEST DUP3 ADD SWAP2 SWAP1 PUSH1 0x0 MSTORE PUSH1 0x20 PUSH1 0x0 KECCAK256 SWAP1 JUMPDEST DUP2 SLOAD DUP2 MSTORE SWAP1 PUSH1 0x1 ADD SWAP1 PUSH1 0x20 ADD DUP1 DUP4 GT PUSH2 0x210A JUMPI DUP3 SWAP1 SUB PUSH1 0x1F AND DUP3 ADD SWAP2 JUMPDEST POP POP POP POP POP PUSH2 0x2B7E JUMP JUMPDEST SWAP1 POP PUSH1 0x0 DUP3 DUP1 ISZERO PUSH2 0x2239 JUMPI POP PUSH1 0x0 DUP10 DUP2 MSTORE PUSH1 0x3 PUSH1 0x20 MSTORE PUSH1 0x40 DUP2 KECCAK256 PUSH1 0x1 DUP1 DUP3 ADD SLOAD PUSH2 0x2239 SWAP4 SWAP2 PUSH2 0x215F SWAP2 PUSH2 0x3C33 JUMP JUMPDEST DUP2 MSTORE PUSH1 0x20 ADD SWAP1 DUP2 MSTORE PUSH1 0x20 ADD PUSH1 0x0 KECCAK256 PUSH1 0x2 ADD DUP1 SLOAD PUSH2 0x217B SWAP1 PUSH2 0x3C46 JUMP JUMPDEST DUP1 PUSH1 0x1F ADD PUSH1 0x20 DUP1 SWAP2 DIV MUL PUSH1 0x20 ADD PUSH1 0x40 MLOAD SWAP1 DUP2 ADD PUSH1 0x40 MSTORE DUP1 SWAP3 SWAP2 SWAP1 DUP2 DUP2 MSTORE PUSH1 0x20 ADD DUP3 DUP1 SLOAD PUSH2 0x21A7 SWAP1 PUSH2 0x3C46 JUMP JUMPDEST DUP1 ISZERO PUSH2 0x21F4 JUMPI DUP1 PUSH1 0x1F LT PUSH2 0x21C9 JUMPI PUSH2 0x100 DUP1 DUP4 SLOAD DIV MUL DUP4 MSTORE SWAP2 PUSH1 0x20 ADD SWAP2 PUSH2 0x21F4 JUMP JUMPDEST DUP3 ADD SWAP2 SWAP1 PUSH1 0x0 MSTORE PUSH1 0x20 PUSH1 0x0 KECCAK256 SWAP1 JUMPDEST DUP2 SLOAD DUP2 MSTORE SWAP1 PUSH1 0x1 ADD SWAP1 PUSH1 0x20 ADD DUP1 DUP4 GT PUSH2 0x21D7 JUMPI DUP3 SWAP1 SUB PUSH1 0x1F AND DUP3 ADD SWAP2 JUMPDEST POP POP POP PUSH1 0x0 DUP14 DUP2 MSTORE PUSH1 0x2 PUSH1 0x20 MSTORE PUSH1 0x40 DUP2 KECCAK256 PUSH1 0x1 DUP1 DUP3 ADD SLOAD SWAP2 SWAP5 POP SWAP2 SWAP3 POP PUSH2 0x221B SWAP2 SWAP1 PUSH2 0x3C33 JUMP JUMPDEST DUP2 MSTORE PUSH1 0x20 DUP2 ADD SWAP2 SWAP1 SWAP2 MSTORE PUSH1 0x40 ADD PUSH1 0x0 KECCAK256 PUSH1 0x8 ADD DUP1 SLOAD PUSH2 0x20AE SWAP1 PUSH2 0x3C46 JUMP JUMPDEST SWAP1 POP DUP2 DUP1 ISZERO PUSH2 0x2245 JUMPI POP DUP1 JUMPDEST ISZERO SWAP4 POP POP POP POP PUSH2 0x2485 JUMP JUMPDEST PUSH1 0x0 DUP7 DUP2 MSTORE PUSH1 0x3 PUSH1 0x20 MSTORE PUSH1 0x40 DUP2 KECCAK256 PUSH1 0x1 ADD SLOAD ISZERO DUP1 ISZERO SWAP2 SWAP1 DUP3 SWAP1 PUSH2 0x236A JUMPI POP PUSH1 0x0 DUP9 DUP2 MSTORE PUSH1 0x3 PUSH1 0x20 MSTORE PUSH1 0x40 DUP2 KECCAK256 PUSH1 0x1 DUP1 DUP3 ADD SLOAD PUSH2 0x236A SWAP4 SWAP2 PUSH2 0x2290 SWAP2 PUSH2 0x3C33 JUMP JUMPDEST DUP2 MSTORE PUSH1 0x20 ADD SWAP1 DUP2 MSTORE PUSH1 0x20 ADD PUSH1 0x0 KECCAK256 PUSH1 0x1 ADD DUP1 SLOAD PUSH2 0x22AC SWAP1 PUSH2 0x3C46 JUMP JUMPDEST DUP1 PUSH1 0x1F ADD PUSH1 0x20 DUP1 SWAP2 DIV MUL PUSH1 0x20 ADD PUSH1 0x40 MLOAD SWAP1 DUP2 ADD PUSH1 0x40 MSTORE DUP1 SWAP3 SWAP2 SWAP1 DUP2 DUP2 MSTORE PUSH1 0x20 ADD DUP3 DUP1 SLOAD PUSH2 0x22D8 SWAP1 PUSH2 0x3C46 JUMP JUMPDEST DUP1 ISZERO PUSH2 0x2325 JUMPI DUP1 PUSH1 0x1F LT PUSH2 0x22FA JUMPI PUSH2 0x100 DUP1 DUP4 SLOAD DIV MUL DUP4 MSTORE SWAP2 PUSH1 0x20 ADD SWAP2 PUSH2 0x2325 JUMP JUMPDEST DUP3 ADD SWAP2 SWAP1 PUSH1 0x0 MSTORE PUSH1 0x20 PUSH1 0x0 KECCAK256 SWAP1 JUMPDEST DUP2 SLOAD DUP2 MSTORE SWAP1 PUSH1 0x1 ADD SWAP1 PUSH1 0x20 ADD DUP1 DUP4 GT PUSH2 0x2308 JUMPI DUP3 SWAP1 SUB PUSH1 0x1F AND DUP3 ADD SWAP2 JUMPDEST POP POP POP PUSH1 0x0 DUP13 DUP2 MSTORE PUSH1 0x2 PUSH1 0x20 MSTORE PUSH1 0x40 DUP2 KECCAK256 PUSH1 0x1 DUP1 DUP3 ADD SLOAD SWAP2 SWAP5 POP SWAP2 SWAP3 POP PUSH2 0x234C SWAP2 SWAP1 PUSH2 0x3C33 JUMP JUMPDEST DUP2 MSTORE PUSH1 0x20 DUP2 ADD SWAP2 SWAP1 SWAP2 MSTORE PUSH1 0x40 ADD PUSH1 0x0 KECCAK256 PUSH1 0x2 ADD DUP1 SLOAD PUSH2 0x20AE SWAP1 PUSH2 0x3C46 JUMP JUMPDEST SWAP1 POP PUSH1 0x0 DUP3 DUP1 ISZERO PUSH2 0x2472 JUMPI POP PUSH1 0x0 DUP10 DUP2 MSTORE PUSH1 0x3 PUSH1 0x20 MSTORE PUSH1 0x40 DUP2 KECCAK256 PUSH1 0x1 DUP1 DUP3 ADD SLOAD PUSH2 0x2472 SWAP4 SWAP2 PUSH2 0x2398 SWAP2 PUSH2 0x3C33 JUMP JUMPDEST DUP2 MSTORE PUSH1 0x20 ADD SWAP1 DUP2 MSTORE PUSH1 0x20 ADD PUSH1 0x0 KECCAK256 PUSH1 0x2 ADD DUP1 SLOAD PUSH2 0x23B4 SWAP1 PUSH2 0x3C46 JUMP JUMPDEST DUP1 PUSH1 0x1F ADD PUSH1 0x20 DUP1 SWAP2 DIV MUL PUSH1 0x20 ADD PUSH1 0x40 MLOAD SWAP1 DUP2 ADD PUSH1 0x40 MSTORE DUP1 SWAP3 SWAP2 SWAP1 DUP2 DUP2 MSTORE PUSH1 0x20 ADD DUP3 DUP1 SLOAD PUSH2 0x23E0 SWAP1 PUSH2 0x3C46 JUMP JUMPDEST DUP1 ISZERO PUSH2 0x242D JUMPI DUP1 PUSH1 0x1F LT PUSH2 0x2402 JUMPI PUSH2 0x100 DUP1 DUP4 SLOAD DIV MUL DUP4 MSTORE SWAP2 PUSH1 0x20 ADD SWAP2 PUSH2 0x242D JUMP JUMPDEST DUP3 ADD SWAP2 SWAP1 PUSH1 0x0 MSTORE PUSH1 0x20 PUSH1 0x0 KECCAK256 SWAP1 JUMPDEST DUP2 SLOAD DUP2 MSTORE SWAP1 PUSH1 0x1 ADD SWAP1 PUSH1 0x20 ADD DUP1 DUP4 GT PUSH2 0x2410 JUMPI DUP3 SWAP1 SUB PUSH1 0x1F AND DUP3 ADD SWAP2 JUMPDEST POP POP POP PUSH1 0x0 DUP14 DUP2 MSTORE PUSH1 0x2 PUSH1 0x20 MSTORE PUSH1 0x40 DUP2 KECCAK256 PUSH1 0x1 DUP1 DUP3 ADD SLOAD SWAP2 SWAP5 POP SWAP2 SWAP3 POP PUSH2 0x2454 SWAP2 SWAP1 PUSH2 0x3C33 JUMP JUMPDEST DUP2 MSTORE PUSH1 0x20 DUP2 ADD SWAP2 SWAP1 SWAP2 MSTORE PUSH1 0x40 ADD PUSH1 0x0 KECCAK256 PUSH1 0x3 ADD DUP1 SLOAD PUSH2 0x20AE SWAP1 PUSH2 0x3C46 JUMP JUMPDEST SWAP1 POP DUP2 DUP1 ISZERO PUSH2 0x247E JUMPI POP DUP1 JUMPDEST ISZERO SWAP4 POP POP POP POP JUMPDEST DUP1 ISZERO PUSH2 0x2499 JUMPI DUP4 PUSH2 0x2495 DUP2 PUSH2 0x3C80 JUMP JUMPDEST SWAP5 POP POP JUMPDEST PUSH1 0x0 DUP5 PUSH8 0xFFFFFFFFFFFFFFFF DUP2 GT ISZERO PUSH2 0x24B4 JUMPI PUSH2 0x24B4 PUSH2 0x3C99 JUMP JUMPDEST PUSH1 0x40 MLOAD SWAP1 DUP1 DUP3 MSTORE DUP1 PUSH1 0x20 MUL PUSH1 0x20 ADD DUP3 ADD PUSH1 0x40 MSTORE DUP1 ISZERO PUSH2 0x24FF JUMPI DUP2 PUSH1 0x20 ADD JUMPDEST PUSH1 0x40 DUP1 MLOAD PUSH1 0x60 DUP1 DUP3 ADD DUP4 MSTORE PUSH1 0x0 DUP3 MSTORE PUSH1 0x20 DUP1 DUP4 ADD DUP3 SWAP1 MSTORE SWAP3 DUP3 ADD MSTORE DUP3 MSTORE PUSH1 0x0 NOT SWAP1 SWAP3 ADD SWAP2 ADD DUP2 PUSH2 0x24D2 JUMPI SWAP1 POP JUMPDEST POP SWAP1 POP PUSH1 0x0 JUMPDEST PUSH1 0x0 DUP9 DUP2 MSTORE PUSH1 0x3 PUSH1 0x20 MSTORE PUSH1 0x40 SWAP1 KECCAK256 PUSH1 0x1 ADD SLOAD DUP2 LT ISZERO PUSH2 0x2692 JUMPI PUSH1 0x0 DUP9 DUP2 MSTORE PUSH1 0x3 PUSH1 0x20 SWAP1 DUP2 MSTORE PUSH1 0x40 DUP1 DUP4 KECCAK256 DUP5 DUP5 MSTORE DUP3 MSTORE SWAP2 DUP3 SWAP1 KECCAK256 DUP3 MLOAD PUSH1 0x60 DUP2 ADD SWAP1 SWAP4 MSTORE DUP1 SLOAD DUP4 MSTORE PUSH1 0x1 DUP2 ADD DUP1 SLOAD SWAP2 SWAP3 DUP5 ADD SWAP2 PUSH2 0x2559 SWAP1 PUSH2 0x3C46 JUMP JUMPDEST DUP1 PUSH1 0x1F ADD PUSH1 0x20 DUP1 SWAP2 DIV MUL PUSH1 0x20 ADD PUSH1 0x40 MLOAD SWAP1 DUP2 ADD PUSH1 0x40 MSTORE DUP1 SWAP3 SWAP2 SWAP1 DUP2 DUP2 MSTORE PUSH1 0x20 ADD DUP3 DUP1 SLOAD PUSH2 0x2585 SWAP1 PUSH2 0x3C46 JUMP JUMPDEST DUP1 ISZERO PUSH2 0x25D2 JUMPI DUP1 PUSH1 0x1F LT PUSH2 0x25A7 JUMPI PUSH2 0x100 DUP1 DUP4 SLOAD DIV MUL DUP4 MSTORE SWAP2 PUSH1 0x20 ADD SWAP2 PUSH2 0x25D2 JUMP JUMPDEST DUP3 ADD SWAP2 SWAP1 PUSH1 0x0 MSTORE PUSH1 0x20 PUSH1 0x0 KECCAK256 SWAP1 JUMPDEST DUP2 SLOAD DUP2 MSTORE SWAP1 PUSH1 0x1 ADD SWAP1 PUSH1 0x20 ADD DUP1 DUP4 GT PUSH2 0x25B5 JUMPI DUP3 SWAP1 SUB PUSH1 0x1F AND DUP3 ADD SWAP2 JUMPDEST POP POP POP POP POP DUP2 MSTORE PUSH1 0x20 ADD PUSH1 0x2 DUP3 ADD DUP1 SLOAD PUSH2 0x25EB SWAP1 PUSH2 0x3C46 JUMP JUMPDEST DUP1 PUSH1 0x1F ADD PUSH1 0x20 DUP1 SWAP2 DIV MUL PUSH1 0x20 ADD PUSH1 0x40 MLOAD SWAP1 DUP2 ADD PUSH1 0x40 MSTORE DUP1 SWAP3 SWAP2 SWAP1 DUP2 DUP2 MSTORE PUSH1 0x20 ADD DUP3 DUP1 SLOAD PUSH2 0x2617 SWAP1 PUSH2 0x3C46 JUMP JUMPDEST DUP1 ISZERO PUSH2 0x2664 JUMPI DUP1 PUSH1 0x1F LT PUSH2 0x2639 JUMPI PUSH2 0x100 DUP1 DUP4 SLOAD DIV MUL DUP4 MSTORE SWAP2 PUSH1 0x20 ADD SWAP2 PUSH2 0x2664 JUMP JUMPDEST DUP3 ADD SWAP2 SWAP1 PUSH1 0x0 MSTORE PUSH1 0x20 PUSH1 0x0 KECCAK256 SWAP1 JUMPDEST DUP2 SLOAD DUP2 MSTORE SWAP1 PUSH1 0x1 ADD SWAP1 PUSH1 0x20 ADD DUP1 DUP4 GT PUSH2 0x2647 JUMPI DUP3 SWAP1 SUB PUSH1 0x1F AND DUP3 ADD SWAP2 JUMPDEST POP POP POP POP POP DUP2 MSTORE POP POP DUP3 DUP3 DUP2 MLOAD DUP2 LT PUSH2 0x267F JUMPI PUSH2 0x267F PUSH2 0x3E65 JUMP JUMPDEST PUSH1 0x20 SWAP1 DUP2 MUL SWAP2 SWAP1 SWAP2 ADD ADD MSTORE PUSH1 0x1 ADD PUSH2 0x2505 JUMP JUMPDEST POP DUP2 ISZERO PUSH2 0xB35 JUMPI PUSH1 0x0 DUP8 DUP2 MSTORE PUSH1 0x2 PUSH1 0x20 MSTORE PUSH1 0x40 DUP2 KECCAK256 PUSH1 0x1 DUP1 DUP3 ADD SLOAD SWAP2 SWAP3 SWAP2 PUSH2 0x26BA SWAP2 SWAP1 PUSH2 0x3C33 JUMP JUMPDEST DUP2 MSTORE PUSH1 0x20 DUP1 DUP3 ADD SWAP3 SWAP1 SWAP3 MSTORE PUSH1 0x40 SWAP1 DUP2 ADD PUSH1 0x0 SWAP1 DUP2 KECCAK256 PUSH1 0xC ADD SLOAD DUP11 DUP3 MSTORE PUSH1 0x2 SWAP1 SWAP4 MSTORE SWAP1 DUP2 KECCAK256 PUSH1 0x1 DUP1 DUP3 ADD SLOAD SWAP2 SWAP3 SWAP2 PUSH2 0x26F1 SWAP2 SWAP1 PUSH2 0x3C33 JUMP JUMPDEST DUP2 MSTORE PUSH1 0x20 ADD SWAP1 DUP2 MSTORE PUSH1 0x20 ADD PUSH1 0x0 KECCAK256 PUSH1 0xB ADD SLOAD LT ISZERO PUSH2 0x28D1 JUMPI PUSH1 0x40 DUP1 MLOAD PUSH1 0x60 DUP2 ADD DUP3 MSTORE DUP9 DUP2 MSTORE PUSH1 0x0 DUP10 DUP2 MSTORE PUSH1 0x2 PUSH1 0x20 SWAP1 DUP2 MSTORE SWAP3 DUP2 KECCAK256 PUSH1 0x1 DUP1 DUP3 ADD SLOAD SWAP4 SWAP5 DUP6 ADD SWAP4 SWAP2 SWAP3 SWAP2 PUSH2 0x273D SWAP2 SWAP1 PUSH2 0x3C33 JUMP JUMPDEST DUP2 MSTORE PUSH1 0x20 DUP2 ADD SWAP2 SWAP1 SWAP2 MSTORE PUSH1 0x40 ADD PUSH1 0x0 KECCAK256 PUSH1 0x7 ADD DUP1 SLOAD PUSH2 0x275B SWAP1 PUSH2 0x3C46 JUMP JUMPDEST DUP1 PUSH1 0x1F ADD PUSH1 0x20 DUP1 SWAP2 DIV MUL PUSH1 0x20 ADD PUSH1 0x40 MLOAD SWAP1 DUP2 ADD PUSH1 0x40 MSTORE DUP1 SWAP3 SWAP2 SWAP1 DUP2 DUP2 MSTORE PUSH1 0x20 ADD DUP3 DUP1 SLOAD PUSH2 0x2787 SWAP1 PUSH2 0x3C46 JUMP JUMPDEST DUP1 ISZERO PUSH2 0x27D4 JUMPI DUP1 PUSH1 0x1F LT PUSH2 0x27A9 JUMPI PUSH2 0x100 DUP1 DUP4 SLOAD DIV MUL DUP4 MSTORE SWAP2 PUSH1 0x20 ADD SWAP2 PUSH2 0x27D4 JUMP JUMPDEST DUP3 ADD SWAP2 SWAP1 PUSH1 0x0 MSTORE PUSH1 0x20 PUSH1 0x0 KECCAK256 SWAP1 JUMPDEST DUP2 SLOAD DUP2 MSTORE SWAP1 PUSH1 0x1 ADD SWAP1 PUSH1 0x20 ADD DUP1 DUP4 GT PUSH2 0x27B7 JUMPI DUP3 SWAP1 SUB PUSH1 0x1F AND DUP3 ADD SWAP2 JUMPDEST POP POP POP SWAP2 DUP4 MSTORE POP POP PUSH1 0x0 DUP10 DUP2 MSTORE PUSH1 0x2 PUSH1 0x20 SWAP1 DUP2 MSTORE PUSH1 0x40 DUP3 KECCAK256 PUSH1 0x1 DUP1 DUP3 ADD SLOAD SWAP3 SWAP1 SWAP5 ADD SWAP4 SWAP1 SWAP3 SWAP2 PUSH2 0x2804 SWAP2 SWAP1 PUSH2 0x3C33 JUMP JUMPDEST DUP2 MSTORE PUSH1 0x20 DUP2 ADD SWAP2 SWAP1 SWAP2 MSTORE PUSH1 0x40 ADD PUSH1 0x0 KECCAK256 PUSH1 0x8 ADD DUP1 SLOAD PUSH2 0x2822 SWAP1 PUSH2 0x3C46 JUMP JUMPDEST DUP1 PUSH1 0x1F ADD PUSH1 0x20 DUP1 SWAP2 DIV MUL PUSH1 0x20 ADD PUSH1 0x40 MLOAD SWAP1 DUP2 ADD PUSH1 0x40 MSTORE DUP1 SWAP3 SWAP2 SWAP1 DUP2 DUP2 MSTORE PUSH1 0x20 ADD DUP3 DUP1 SLOAD PUSH2 0x284E SWAP1 PUSH2 0x3C46 JUMP JUMPDEST DUP1 ISZERO PUSH2 0x289B JUMPI DUP1 PUSH1 0x1F LT PUSH2 0x2870 JUMPI PUSH2 0x100 DUP1 DUP4 SLOAD DIV MUL DUP4 MSTORE SWAP2 PUSH1 0x20 ADD SWAP2 PUSH2 0x289B JUMP JUMPDEST DUP3 ADD SWAP2 SWAP1 PUSH1 0x0 MSTORE PUSH1 0x20 PUSH1 0x0 KECCAK256 SWAP1 JUMPDEST DUP2 SLOAD DUP2 MSTORE SWAP1 PUSH1 0x1 ADD SWAP1 PUSH1 0x20 ADD DUP1 DUP4 GT PUSH2 0x287E JUMPI DUP3 SWAP1 SUB PUSH1 0x1F AND DUP3 ADD SWAP2 JUMPDEST POP POP POP POP POP DUP2 MSTORE POP DUP2 PUSH1 0x1 DUP8 PUSH2 0x28B1 SWAP2 SWAP1 PUSH2 0x3C33 JUMP JUMPDEST DUP2 MLOAD DUP2 LT PUSH2 0x28C1 JUMPI PUSH2 0x28C1 PUSH2 0x3E65 JUMP JUMPDEST PUSH1 0x20 MUL PUSH1 0x20 ADD ADD DUP2 SWAP1 MSTORE POP PUSH2 0xB35 JUMP JUMPDEST PUSH1 0x40 DUP1 MLOAD PUSH1 0x60 DUP2 ADD DUP3 MSTORE DUP9 DUP2 MSTORE PUSH1 0x0 DUP10 DUP2 MSTORE PUSH1 0x2 PUSH1 0x20 SWAP1 DUP2 MSTORE SWAP3 DUP2 KECCAK256 PUSH1 0x1 DUP1 DUP3 ADD SLOAD SWAP4 SWAP5 DUP6 ADD SWAP4 SWAP2 SWAP3 SWAP2 PUSH2 0x2905 SWAP2 SWAP1 PUSH2 0x3C33 JUMP JUMPDEST DUP2 MSTORE PUSH1 0x20 DUP2 ADD SWAP2 SWAP1 SWAP2 MSTORE PUSH1 0x40 ADD PUSH1 0x0 KECCAK256 PUSH1 0x2 ADD DUP1 SLOAD PUSH2 0x2923 SWAP1 PUSH2 0x3C46 JUMP JUMPDEST DUP1 PUSH1 0x1F ADD PUSH1 0x20 DUP1 SWAP2 DIV MUL PUSH1 0x20 ADD PUSH1 0x40 MLOAD SWAP1 DUP2 ADD PUSH1 0x40 MSTORE DUP1 SWAP3 SWAP2 SWAP1 DUP2 DUP2 MSTORE PUSH1 0x20 ADD DUP3 DUP1 SLOAD PUSH2 0x294F SWAP1 PUSH2 0x3C46 JUMP JUMPDEST DUP1 ISZERO PUSH2 0x299C JUMPI DUP1 PUSH1 0x1F LT PUSH2 0x2971 JUMPI PUSH2 0x100 DUP1 DUP4 SLOAD DIV MUL DUP4 MSTORE SWAP2 PUSH1 0x20 ADD SWAP2 PUSH2 0x299C JUMP JUMPDEST DUP3 ADD SWAP2 SWAP1 PUSH1 0x0 MSTORE PUSH1 0x20 PUSH1 0x0 KECCAK256 SWAP1 JUMPDEST DUP2 SLOAD DUP2 MSTORE SWAP1 PUSH1 0x1 ADD SWAP1 PUSH1 0x20 ADD DUP1 DUP4 GT PUSH2 0x297F JUMPI DUP3 SWAP1 SUB PUSH1 0x1F AND DUP3 ADD SWAP2 JUMPDEST POP POP POP SWAP2 DUP4 MSTORE POP POP PUSH1 0x0 DUP10 DUP2 MSTORE PUSH1 0x2 PUSH1 0x20 SWAP1 DUP2 MSTORE PUSH1 0x40 DUP3 KECCAK256 PUSH1 0x1 DUP1 DUP3 ADD SLOAD SWAP3 SWAP1 SWAP5 ADD SWAP4 SWAP1 SWAP3 SWAP2 PUSH2 0x29CC SWAP2 SWAP1 PUSH2 0x3C33 JUMP JUMPDEST DUP2 MSTORE PUSH1 0x20 DUP2 ADD SWAP2 SWAP1 SWAP2 MSTORE PUSH1 0x40 ADD PUSH1 0x0 KECCAK256 PUSH1 0x3 ADD DUP1 SLOAD PUSH2 0x29EA SWAP1 PUSH2 0x3C46 JUMP JUMPDEST DUP1 PUSH1 0x1F ADD PUSH1 0x20 DUP1 SWAP2 DIV MUL PUSH1 0x20 ADD PUSH1 0x40 MLOAD SWAP1 DUP2 ADD PUSH1 0x40 MSTORE DUP1 SWAP3 SWAP2 SWAP1 DUP2 DUP2 MSTORE PUSH1 0x20 ADD DUP3 DUP1 SLOAD PUSH2 0x2A16 SWAP1 PUSH2 0x3C46 JUMP JUMPDEST DUP1 ISZERO PUSH2 0x2A63 JUMPI DUP1 PUSH1 0x1F LT PUSH2 0x2A38 JUMPI PUSH2 0x100 DUP1 DUP4 SLOAD DIV MUL DUP4 MSTORE SWAP2 PUSH1 0x20 ADD SWAP2 PUSH2 0x2A63 JUMP JUMPDEST DUP3 ADD SWAP2 SWAP1 PUSH1 0x0 MSTORE PUSH1 0x20 PUSH1 0x0 KECCAK256 SWAP1 JUMPDEST DUP2 SLOAD DUP2 MSTORE SWAP1 PUSH1 0x1 ADD SWAP1 PUSH1 0x20 ADD DUP1 DUP4 GT PUSH2 0x2A46 JUMPI DUP3 SWAP1 SUB PUSH1 0x1F AND DUP3 ADD SWAP2 JUMPDEST POP POP POP POP POP DUP2 MSTORE POP DUP2 PUSH1 0x1 DUP8 PUSH2 0x2A79 SWAP2 SWAP1 PUSH2 0x3C33 JUMP JUMPDEST DUP2 MLOAD DUP2 LT PUSH2 0x2A89 JUMPI PUSH2 0x2A89 PUSH2 0x3E65 JUMP JUMPDEST PUSH1 0x20 MUL PUSH1 0x20 ADD ADD DUP2 SWAP1 MSTORE POP SWAP7 SWAP6 POP POP POP POP POP POP JUMP JUMPDEST PUSH1 0x0 DUP2 DUP2 MSTORE PUSH1 0x1 PUSH1 0x20 DUP2 SWAP1 MSTORE PUSH1 0x40 SWAP1 SWAP2 KECCAK256 ADD SLOAD PUSH1 0x60 SWAP1 PUSH2 0xFFFF AND PUSH2 0x2AD4 JUMPI PUSH1 0x40 MLOAD PUSH3 0x461BCD PUSH1 0xE5 SHL DUP2 MSTORE PUSH1 0x4 ADD PUSH2 0x6A4 SWAP1 PUSH2 0x3DC0 JUMP JUMPDEST PUSH1 0x0 DUP3 DUP2 MSTORE PUSH1 0x2 PUSH1 0x20 MSTORE PUSH1 0x40 DUP2 KECCAK256 PUSH1 0x1 ADD SLOAD SWAP1 DUP2 PUSH8 0xFFFFFFFFFFFFFFFF DUP2 GT ISZERO PUSH2 0x2B00 JUMPI PUSH2 0x2B00 PUSH2 0x3C99 JUMP JUMPDEST PUSH1 0x40 MLOAD SWAP1 DUP1 DUP3 MSTORE DUP1 PUSH1 0x20 MUL PUSH1 0x20 ADD DUP3 ADD PUSH1 0x40 MSTORE DUP1 ISZERO PUSH2 0x2B39 JUMPI DUP2 PUSH1 0x20 ADD JUMPDEST PUSH2 0x2B26 PUSH2 0x3406 JUMP JUMPDEST DUP2 MSTORE PUSH1 0x20 ADD SWAP1 PUSH1 0x1 SWAP1 SUB SWAP1 DUP2 PUSH2 0x2B1E JUMPI SWAP1 POP JUMPDEST POP SWAP1 POP PUSH1 0x0 JUMPDEST DUP3 DUP2 LT ISZERO PUSH2 0x2B76 JUMPI PUSH2 0x2B51 DUP6 DUP3 PUSH2 0x2E76 JUMP JUMPDEST DUP3 DUP3 DUP2 MLOAD DUP2 LT PUSH2 0x2B63 JUMPI PUSH2 0x2B63 PUSH2 0x3E65 JUMP JUMPDEST PUSH1 0x20 SWAP1 DUP2 MUL SWAP2 SWAP1 SWAP2 ADD ADD MSTORE PUSH1 0x1 ADD PUSH2 0x2B3F JUMP JUMPDEST POP SWAP4 SWAP3 POP POP POP JUMP JUMPDEST DUP2 MLOAD DUP2 MLOAD PUSH1 0x0 SWAP2 DUP5 SWAP2 DUP5 SWAP2 SWAP1 DUP2 EQ PUSH2 0x2B9C JUMPI PUSH1 0x0 SWAP4 POP POP POP POP PUSH2 0x2C12 JUMP JUMPDEST PUSH1 0x0 JUMPDEST DUP2 DUP2 LT ISZERO PUSH2 0x2C09 JUMPI DUP3 DUP2 DUP2 MLOAD DUP2 LT PUSH2 0x2BB9 JUMPI PUSH2 0x2BB9 PUSH2 0x3E65 JUMP JUMPDEST PUSH1 0x20 ADD ADD MLOAD PUSH1 0xF8 SHR PUSH1 0xF8 SHL PUSH1 0x1 PUSH1 0x1 PUSH1 0xF8 SHL SUB NOT AND DUP5 DUP3 DUP2 MLOAD DUP2 LT PUSH2 0x2BE0 JUMPI PUSH2 0x2BE0 PUSH2 0x3E65 JUMP JUMPDEST ADD PUSH1 0x20 ADD MLOAD PUSH1 0x1 PUSH1 0x1 PUSH1 0xF8 SHL SUB NOT AND EQ PUSH2 0x2C01 JUMPI PUSH1 0x0 SWAP5 POP POP POP POP POP PUSH2 0x2C12 JUMP JUMPDEST PUSH1 0x1 ADD PUSH2 0x2B9F JUMP JUMPDEST POP PUSH1 0x1 SWAP4 POP POP POP POP JUMPDEST SWAP3 SWAP2 POP POP JUMP JUMPDEST PUSH1 0x0 DUP2 DUP2 MSTORE PUSH1 0x2 PUSH1 0x20 MSTORE PUSH1 0x40 DUP2 KECCAK256 PUSH1 0x1 ADD SLOAD DUP2 SUB PUSH2 0x2C38 JUMPI POP PUSH1 0x0 SWAP2 SWAP1 POP JUMP JUMPDEST PUSH1 0x0 DUP3 DUP2 MSTORE PUSH1 0x2 PUSH1 0x20 MSTORE PUSH1 0x40 DUP2 KECCAK256 PUSH1 0x1 DUP1 DUP3 ADD SLOAD DUP4 SWAP2 PUSH2 0x2C57 SWAP2 PUSH2 0x3C33 JUMP JUMPDEST DUP2 MSTORE PUSH1 0x20 ADD SWAP1 DUP2 MSTORE PUSH1 0x20 ADD PUSH1 0x0 KECCAK256 PUSH1 0xE ADD SLOAD SWAP1 POP TIMESTAMP DUP2 LT ISZERO PUSH2 0x2C7C JUMPI POP PUSH1 0x0 SWAP3 SWAP2 POP POP JUMP JUMPDEST POP PUSH1 0x1 SWAP3 SWAP2 POP POP JUMP JUMPDEST PUSH1 0x0 DUP1 PUSH2 0x2C91 DUP4 PUSH2 0x2E18 JUMP JUMPDEST PUSH4 0xFFFFFFFF AND GT SWAP3 SWAP2 POP POP JUMP JUMPDEST PUSH1 0x0 DUP3 DUP2 MSTORE PUSH1 0x2 PUSH1 0x20 MSTORE PUSH1 0x40 DUP2 KECCAK256 PUSH1 0x1 DUP1 DUP3 ADD SLOAD DUP4 SWAP3 SWAP2 DUP4 SWAP2 PUSH2 0x2CC1 SWAP2 SWAP1 PUSH2 0x3C33 JUMP JUMPDEST DUP2 MSTORE PUSH1 0x20 ADD SWAP1 DUP2 MSTORE PUSH1 0x20 ADD PUSH1 0x0 KECCAK256 PUSH1 0x6 ADD PUSH1 0x4 ADD SLOAD SWAP1 POP PUSH1 0x0 JUMPDEST DUP2 DUP2 LT ISZERO PUSH2 0x2D56 JUMPI PUSH1 0x0 DUP6 DUP2 MSTORE PUSH1 0x2 PUSH1 0x20 MSTORE PUSH1 0x40 DUP2 KECCAK256 PUSH1 0x1 DUP1 DUP3 ADD SLOAD PUSH1 0x1 PUSH1 0x1 PUSH1 0xA0 SHL SUB DUP9 AND SWAP4 SWAP2 PUSH2 0x2D0C SWAP2 PUSH2 0x3C33 JUMP JUMPDEST DUP2 MSTORE PUSH1 0x20 DUP1 DUP3 ADD SWAP3 SWAP1 SWAP3 MSTORE PUSH1 0x40 SWAP1 DUP2 ADD PUSH1 0x0 SWAP1 DUP2 KECCAK256 DUP6 DUP3 MSTORE PUSH1 0x9 ADD SWAP1 SWAP3 MSTORE SWAP1 KECCAK256 SLOAD PUSH5 0x100000000 SWAP1 DIV PUSH1 0x1 PUSH1 0x1 PUSH1 0xA0 SHL SUB AND SUB PUSH2 0x2D4E JUMPI PUSH1 0x1 SWAP3 POP POP POP PUSH2 0x2C12 JUMP JUMPDEST PUSH1 0x1 ADD PUSH2 0x2CDB JUMP JUMPDEST POP PUSH1 0x0 DUP5 DUP2 MSTORE PUSH1 0x2 PUSH1 0x20 MSTORE PUSH1 0x40 DUP2 KECCAK256 PUSH1 0x1 DUP1 DUP3 ADD SLOAD DUP4 SWAP2 PUSH2 0x2D76 SWAP2 PUSH2 0x3C33 JUMP JUMPDEST DUP2 MSTORE PUSH1 0x20 ADD SWAP1 DUP2 MSTORE PUSH1 0x20 ADD PUSH1 0x0 KECCAK256 PUSH1 0x1 ADD PUSH1 0x4 ADD SLOAD SWAP1 POP PUSH1 0x0 JUMPDEST DUP2 DUP2 LT ISZERO PUSH2 0x2E0C JUMPI PUSH1 0x0 DUP7 DUP2 MSTORE PUSH1 0x2 PUSH1 0x20 MSTORE PUSH1 0x40 DUP2 KECCAK256 PUSH1 0x1 DUP1 DUP3 ADD SLOAD PUSH1 0x1 PUSH1 0x1 PUSH1 0xA0 SHL SUB DUP10 AND SWAP4 SWAP2 PUSH2 0x2DC1 SWAP2 PUSH2 0x3C33 JUMP JUMPDEST DUP2 MSTORE PUSH1 0x20 DUP1 DUP3 ADD SWAP3 SWAP1 SWAP3 MSTORE PUSH1 0x40 SWAP1 DUP2 ADD PUSH1 0x0 SWAP1 DUP2 KECCAK256 DUP6 DUP3 MSTORE PUSH1 0x4 ADD SWAP1 SWAP3 MSTORE SWAP1 KECCAK256 SLOAD PUSH5 0x100000000 SWAP1 DIV PUSH1 0x1 PUSH1 0x1 PUSH1 0xA0 SHL SUB AND SUB PUSH2 0x2E04 JUMPI PUSH1 0x1 SWAP4 POP POP POP POP PUSH2 0x2C12 JUMP JUMPDEST PUSH1 0x1 ADD PUSH2 0x2D90 JUMP JUMPDEST POP PUSH1 0x0 SWAP6 SWAP5 POP POP POP POP POP JUMP JUMPDEST PUSH1 0x0 PUSH1 0x1 JUMPDEST PUSH4 0xFFFFFFFF DUP4 AND PUSH2 0x2E2E DUP3 DUP1 PUSH2 0x3E7B JUMP JUMPDEST PUSH4 0xFFFFFFFF AND GT PUSH2 0x2E6D JUMPI PUSH4 0xFFFFFFFF DUP4 AND PUSH2 0x2E4A DUP3 DUP1 PUSH2 0x3E7B JUMP JUMPDEST PUSH4 0xFFFFFFFF AND SUB PUSH2 0x2E5B JUMPI SWAP3 SWAP2 POP POP JUMP JUMPDEST DUP1 PUSH2 0x2E65 DUP2 PUSH2 0x3EA3 JUMP JUMPDEST SWAP2 POP POP PUSH2 0x2E1D JUMP JUMPDEST POP PUSH1 0x0 SWAP3 SWAP2 POP POP JUMP JUMPDEST PUSH2 0x2E7E PUSH2 0x3406 JUMP JUMPDEST PUSH1 0x0 DUP4 DUP2 MSTORE PUSH1 0x2 PUSH1 0x20 SWAP1 DUP2 MSTORE PUSH1 0x40 DUP1 DUP4 KECCAK256 DUP6 DUP5 MSTORE SWAP1 SWAP2 MSTORE DUP2 KECCAK256 PUSH1 0x5 ADD SLOAD PUSH8 0xFFFFFFFFFFFFFFFF DUP2 GT ISZERO PUSH2 0x2EB3 JUMPI PUSH2 0x2EB3 PUSH2 0x3C99 JUMP JUMPDEST PUSH1 0x40 MLOAD SWAP1 DUP1 DUP3 MSTORE DUP1 PUSH1 0x20 MUL PUSH1 0x20 ADD DUP3 ADD PUSH1 0x40 MSTORE DUP1 ISZERO PUSH2 0x2EF8 JUMPI DUP2 PUSH1 0x20 ADD JUMPDEST PUSH1 0x40 DUP1 MLOAD DUP1 DUP3 ADD SWAP1 SWAP2 MSTORE PUSH1 0x0 DUP1 DUP3 MSTORE PUSH1 0x20 DUP3 ADD MSTORE DUP2 MSTORE PUSH1 0x20 ADD SWAP1 PUSH1 0x1 SWAP1 SUB SWAP1 DUP2 PUSH2 0x2ED1 JUMPI SWAP1 POP JUMPDEST POP SWAP1 POP PUSH1 0x0 JUMPDEST DUP2 MLOAD DUP2 LT ISZERO PUSH2 0x2F7A JUMPI PUSH1 0x0 DUP6 DUP2 MSTORE PUSH1 0x2 PUSH1 0x20 SWAP1 DUP2 MSTORE PUSH1 0x40 DUP1 DUP4 KECCAK256 DUP8 DUP5 MSTORE DUP3 MSTORE DUP1 DUP4 KECCAK256 DUP5 DUP5 MSTORE PUSH1 0x4 ADD DUP3 MSTORE SWAP2 DUP3 SWAP1 KECCAK256 DUP3 MLOAD DUP1 DUP5 ADD SWAP1 SWAP4 MSTORE SLOAD PUSH4 0xFFFFFFFF DUP2 AND DUP4 MSTORE PUSH5 0x100000000 SWAP1 DIV PUSH1 0x1 PUSH1 0x1 PUSH1 0xA0 SHL SUB AND SWAP1 DUP3 ADD MSTORE DUP3 MLOAD DUP4 SWAP1 DUP4 SWAP1 DUP2 LT PUSH2 0x2F67 JUMPI PUSH2 0x2F67 PUSH2 0x3E65 JUMP JUMPDEST PUSH1 0x20 SWAP1 DUP2 MUL SWAP2 SWAP1 SWAP2 ADD ADD MSTORE PUSH1 0x1 ADD PUSH2 0x2EFE JUMP JUMPDEST POP PUSH1 0x0 DUP5 DUP2 MSTORE PUSH1 0x2 PUSH1 0x20 SWAP1 DUP2 MSTORE PUSH1 0x40 DUP1 DUP4 KECCAK256 DUP7 DUP5 MSTORE SWAP1 SWAP2 MSTORE DUP2 KECCAK256 PUSH1 0xA ADD SLOAD PUSH8 0xFFFFFFFFFFFFFFFF DUP2 GT ISZERO PUSH2 0x2FB0 JUMPI PUSH2 0x2FB0 PUSH2 0x3C99 JUMP JUMPDEST PUSH1 0x40 MLOAD SWAP1 DUP1 DUP3 MSTORE DUP1 PUSH1 0x20 MUL PUSH1 0x20 ADD DUP3 ADD PUSH1 0x40 MSTORE DUP1 ISZERO PUSH2 0x2FF5 JUMPI DUP2 PUSH1 0x20 ADD JUMPDEST PUSH1 0x40 DUP1 MLOAD DUP1 DUP3 ADD SWAP1 SWAP2 MSTORE PUSH1 0x0 DUP1 DUP3 MSTORE PUSH1 0x20 DUP3 ADD MSTORE DUP2 MSTORE PUSH1 0x20 ADD SWAP1 PUSH1 0x1 SWAP1 SUB SWAP1 DUP2 PUSH2 0x2FCE JUMPI SWAP1 POP JUMPDEST POP SWAP1 POP PUSH1 0x0 JUMPDEST DUP2 MLOAD DUP2 LT ISZERO PUSH2 0x3077 JUMPI PUSH1 0x0 DUP7 DUP2 MSTORE PUSH1 0x2 PUSH1 0x20 SWAP1 DUP2 MSTORE PUSH1 0x40 DUP1 DUP4 KECCAK256 DUP9 DUP5 MSTORE DUP3 MSTORE DUP1 DUP4 KECCAK256 DUP5 DUP5 MSTORE PUSH1 0x9 ADD DUP3 MSTORE SWAP2 DUP3 SWAP1 KECCAK256 DUP3 MLOAD DUP1 DUP5 ADD SWAP1 SWAP4 MSTORE SLOAD PUSH4 0xFFFFFFFF DUP2 AND DUP4 MSTORE PUSH5 0x100000000 SWAP1 DIV PUSH1 0x1 PUSH1 0x1 PUSH1 0xA0 SHL SUB AND SWAP1 DUP3 ADD MSTORE DUP3 MLOAD DUP4 SWAP1 DUP4 SWAP1 DUP2 LT PUSH2 0x3064 JUMPI PUSH2 0x3064 PUSH2 0x3E65 JUMP JUMPDEST PUSH1 0x20 SWAP1 DUP2 MUL SWAP2 SWAP1 SWAP2 ADD ADD MSTORE PUSH1 0x1 ADD PUSH2 0x2FFB JUMP JUMPDEST POP PUSH1 0x0 PUSH1 0x40 MLOAD DUP1 PUSH1 0xE0 ADD PUSH1 0x40 MSTORE DUP1 DUP8 DUP2 MSTORE PUSH1 0x20 ADD PUSH1 0x40 MLOAD DUP1 PUSH1 0x40 ADD PUSH1 0x40 MSTORE DUP1 PUSH1 0x40 MLOAD DUP1 PUSH1 0x60 ADD PUSH1 0x40 MSTORE DUP1 DUP12 DUP2 MSTORE PUSH1 0x20 ADD PUSH1 0x1 PUSH1 0x0 DUP14 DUP2 MSTORE PUSH1 0x20 ADD SWAP1 DUP2 MSTORE PUSH1 0x20 ADD PUSH1 0x0 KECCAK256 PUSH1 0x3 ADD DUP1 SLOAD PUSH2 0x30C8 SWAP1 PUSH2 0x3C46 JUMP JUMPDEST DUP1 PUSH1 0x1F ADD PUSH1 0x20 DUP1 SWAP2 DIV MUL PUSH1 0x20 ADD PUSH1 0x40 MLOAD SWAP1 DUP2 ADD PUSH1 0x40 MSTORE DUP1 SWAP3 SWAP2 SWAP1 DUP2 DUP2 MSTORE PUSH1 0x20 ADD DUP3 DUP1 SLOAD PUSH2 0x30F4 SWAP1 PUSH2 0x3C46 JUMP JUMPDEST DUP1 ISZERO PUSH2 0x3141 JUMPI DUP1 PUSH1 0x1F LT PUSH2 0x3116 JUMPI PUSH2 0x100 DUP1 DUP4 SLOAD DIV MUL DUP4 MSTORE SWAP2 PUSH1 0x20 ADD SWAP2 PUSH2 0x3141 JUMP JUMPDEST DUP3 ADD SWAP2 SWAP1 PUSH1 0x0 MSTORE PUSH1 0x20 PUSH1 0x0 KECCAK256 SWAP1 JUMPDEST DUP2 SLOAD DUP2 MSTORE SWAP1 PUSH1 0x1 ADD SWAP1 PUSH1 0x20 ADD DUP1 DUP4 GT PUSH2 0x3124 JUMPI DUP3 SWAP1 SUB PUSH1 0x1F AND DUP3 ADD SWAP2 JUMPDEST POP POP POP POP POP DUP2 MSTORE PUSH1 0x20 ADD PUSH1 0x1 PUSH1 0x0 DUP14 DUP2 MSTORE PUSH1 0x20 ADD SWAP1 DUP2 MSTORE PUSH1 0x20 ADD PUSH1 0x0 KECCAK256 PUSH1 0x4 ADD DUP1 SLOAD PUSH2 0x316C SWAP1 PUSH2 0x3C46 JUMP JUMPDEST DUP1 PUSH1 0x1F ADD PUSH1 0x20 DUP1 SWAP2 DIV MUL PUSH1 0x20 ADD PUSH1 0x40 MLOAD SWAP1 DUP2 ADD PUSH1 0x40 MSTORE DUP1 SWAP3 SWAP2 SWAP1 DUP2 DUP2 MSTORE PUSH1 0x20 ADD DUP3 DUP1 SLOAD PUSH2 0x3198 SWAP1 PUSH2 0x3C46 JUMP JUMPDEST DUP1 ISZERO PUSH2 0x31E5 JUMPI DUP1 PUSH1 0x1F LT PUSH2 0x31BA JUMPI PUSH2 0x100 DUP1 DUP4 SLOAD DIV MUL DUP4 MSTORE SWAP2 PUSH1 0x20 ADD SWAP2 PUSH2 0x31E5 JUMP JUMPDEST DUP3 ADD SWAP2 SWAP1 PUSH1 0x0 MSTORE PUSH1 0x20 PUSH1 0x0 KECCAK256 SWAP1 JUMPDEST DUP2 SLOAD DUP2 MSTORE SWAP1 PUSH1 0x1 ADD SWAP1 PUSH1 0x20 ADD DUP1 DUP4 GT PUSH2 0x31C8 JUMPI DUP3 SWAP1 SUB PUSH1 0x1F AND DUP3 ADD SWAP2 JUMPDEST POP POP POP SWAP2 SWAP1 SWAP3 MSTORE POP POP DUP2 MSTORE PUSH1 0x20 SWAP1 DUP2 ADD DUP8 SWAP1 MSTORE SWAP1 DUP3 MSTORE PUSH1 0x40 DUP1 MLOAD PUSH1 0xA0 DUP2 ADD DUP3 MSTORE DUP1 DUP3 ADD DUP12 DUP2 MSTORE PUSH1 0x0 DUP13 DUP2 MSTORE PUSH1 0x2 DUP6 MSTORE DUP4 DUP2 KECCAK256 DUP13 DUP3 MSTORE DUP6 MSTORE SWAP3 SWAP1 SWAP3 KECCAK256 PUSH1 0x7 ADD DUP1 SLOAD SWAP5 SWAP1 SWAP4 ADD SWAP4 SWAP1 SWAP3 DUP4 SWAP3 SWAP2 PUSH1 0x60 DUP5 ADD SWAP2 SWAP1 PUSH2 0x323E SWAP1 PUSH2 0x3C46 JUMP JUMPDEST DUP1 PUSH1 0x1F ADD PUSH1 0x20 DUP1 SWAP2 DIV MUL PUSH1 0x20 ADD PUSH1 0x40 MLOAD SWAP1 DUP2 ADD PUSH1 0x40 MSTORE DUP1 SWAP3 SWAP2 SWAP1 DUP2 DUP2 MSTORE PUSH1 0x20 ADD DUP3 DUP1 SLOAD PUSH2 0x326A SWAP1 PUSH2 0x3C46 JUMP JUMPDEST DUP1 ISZERO PUSH2 0x32B7 JUMPI DUP1 PUSH1 0x1F LT PUSH2 0x328C JUMPI PUSH2 0x100 DUP1 DUP4 SLOAD DIV MUL DUP4 MSTORE SWAP2 PUSH1 0x20 ADD SWAP2 PUSH2 0x32B7 JUMP JUMPDEST DUP3 ADD SWAP2 SWAP1 PUSH1 0x0 MSTORE PUSH1 0x20 PUSH1 0x0 KECCAK256 SWAP1 JUMPDEST DUP2 SLOAD DUP2 MSTORE SWAP1 PUSH1 0x1 ADD SWAP1 PUSH1 0x20 ADD DUP1 DUP4 GT PUSH2 0x329A JUMPI DUP3 SWAP1 SUB PUSH1 0x1F AND DUP3 ADD SWAP2 JUMPDEST POP POP POP SWAP2 DUP4 MSTORE POP POP PUSH1 0x0 DUP13 DUP2 MSTORE PUSH1 0x2 PUSH1 0x20 SWAP1 DUP2 MSTORE PUSH1 0x40 DUP1 DUP4 KECCAK256 DUP15 DUP5 MSTORE DUP3 MSTORE SWAP1 SWAP2 KECCAK256 PUSH1 0x8 ADD DUP1 SLOAD SWAP2 SWAP1 SWAP3 ADD SWAP2 SWAP1 PUSH2 0x32EC SWAP1 PUSH2 0x3C46 JUMP JUMPDEST DUP1 PUSH1 0x1F ADD PUSH1 0x20 DUP1 SWAP2 DIV MUL PUSH1 0x20 ADD PUSH1 0x40 MLOAD SWAP1 DUP2 ADD PUSH1 0x40 MSTORE DUP1 SWAP3 SWAP2 SWAP1 DUP2 DUP2 MSTORE PUSH1 0x20 ADD DUP3 DUP1 SLOAD PUSH2 0x3318 SWAP1 PUSH2 0x3C46 JUMP JUMPDEST DUP1 ISZERO PUSH2 0x3365 JUMPI DUP1 PUSH1 0x1F LT PUSH2 0x333A JUMPI PUSH2 0x100 DUP1 DUP4 SLOAD DIV MUL DUP4 MSTORE SWAP2 PUSH1 0x20 ADD SWAP2 PUSH2 0x3365 JUMP JUMPDEST DUP3 ADD SWAP2 SWAP1 PUSH1 0x0 MSTORE PUSH1 0x20 PUSH1 0x0 KECCAK256 SWAP1 JUMPDEST DUP2 SLOAD DUP2 MSTORE SWAP1 PUSH1 0x1 ADD SWAP1 PUSH1 0x20 ADD DUP1 DUP4 GT PUSH2 0x3348 JUMPI DUP3 SWAP1 SUB PUSH1 0x1F AND DUP3 ADD SWAP2 JUMPDEST POP POP POP SWAP2 SWAP1 SWAP3 MSTORE POP POP DUP2 MSTORE PUSH1 0x20 SWAP1 DUP2 ADD SWAP6 SWAP1 SWAP6 MSTORE DUP2 MSTORE PUSH1 0x0 DUP9 DUP2 MSTORE PUSH1 0x2 DUP6 MSTORE PUSH1 0x40 DUP1 DUP3 KECCAK256 DUP10 DUP4 MSTORE DUP1 DUP8 MSTORE DUP2 DUP4 KECCAK256 PUSH1 0xB DUP2 ADD SLOAD DUP6 DUP10 ADD MSTORE PUSH1 0xC DUP2 ADD SLOAD SWAP3 DUP6 ADD SWAP3 SWAP1 SWAP3 MSTORE PUSH1 0xD DUP3 ADD SLOAD PUSH1 0x60 DUP6 ADD MSTORE SWAP2 DUP10 SWAP1 MSTORE SWAP5 MSTORE PUSH1 0xE SWAP1 SWAP4 ADD SLOAD PUSH1 0x80 SWAP1 SWAP4 ADD SWAP3 SWAP1 SWAP3 MSTORE POP SWAP2 POP POP SWAP3 SWAP2 POP POP JUMP JUMPDEST PUSH1 0x0 DUP4 DUP4 DUP4 PUSH1 0x40 MLOAD PUSH1 0x20 ADD PUSH2 0x33E7 SWAP4 SWAP3 SWAP2 SWAP1 PUSH2 0x3EC6 JUMP JUMPDEST PUSH1 0x40 MLOAD PUSH1 0x20 DUP2 DUP4 SUB SUB DUP2 MSTORE SWAP1 PUSH1 0x40 MSTORE DUP1 MLOAD SWAP1 PUSH1 0x20 ADD KECCAK256 SWAP1 POP SWAP4 SWAP3 POP POP POP JUMP JUMPDEST PUSH1 0x40 DUP1 MLOAD PUSH1 0xE0 DUP2 ADD SWAP1 SWAP2 MSTORE PUSH1 0x0 DUP2 MSTORE PUSH1 0x20 DUP2 ADD PUSH2 0x344B PUSH1 0x40 DUP1 MLOAD PUSH1 0xA0 DUP2 ADD DUP3 MSTORE PUSH1 0x0 SWAP2 DUP2 ADD SWAP2 DUP3 MSTORE PUSH1 0x60 DUP1 DUP3 ADD DUP2 SWAP1 MSTORE PUSH1 0x80 DUP3 ADD MSTORE SWAP1 DUP2 SWAP1 DUP2 MSTORE PUSH1 0x20 ADD PUSH1 0x60 DUP2 MSTORE POP SWAP1 JUMP JUMPDEST DUP2 MSTORE PUSH1 0x20 ADD PUSH2 0x3482 PUSH1 0x40 DUP1 MLOAD PUSH1 0xA0 DUP2 ADD DUP3 MSTORE PUSH1 0x0 SWAP2 DUP2 ADD SWAP2 DUP3 MSTORE PUSH1 0x60 DUP1 DUP3 ADD DUP2 SWAP1 MSTORE PUSH1 0x80 DUP3 ADD MSTORE SWAP1 DUP2 SWAP1 DUP2 MSTORE PUSH1 0x20 ADD PUSH1 0x60 DUP2 MSTORE POP SWAP1 JUMP JUMPDEST DUP2 MSTORE PUSH1 0x20 ADD PUSH1 0x0 DUP2 MSTORE PUSH1 0x20 ADD PUSH1 0x0 DUP2 MSTORE PUSH1 0x20 ADD PUSH1 0x0 DUP2 MSTORE PUSH1 0x20 ADD PUSH1 0x0 DUP2 MSTORE POP SWAP1 JUMP JUMPDEST PUSH1 0x40 MLOAD DUP1 PUSH2 0x140 ADD PUSH1 0x40 MSTORE DUP1 PUSH1 0x60 DUP2 MSTORE PUSH1 0x20 ADD PUSH1 0x0 PUSH2 0xFFFF AND DUP2 MSTORE PUSH1 0x20 ADD PUSH1 0x60 DUP2 MSTORE PUSH1 0x20 ADD PUSH1 0x60 DUP2 MSTORE PUSH1 0x20 ADD PUSH1 0x60 DUP2 MSTORE PUSH1 0x20 ADD PUSH1 0x0 ISZERO ISZERO DUP2 MSTORE PUSH1 0x20 ADD PUSH1 0x60 DUP2 MSTORE PUSH1 0x20 ADD PUSH1 0x0 DUP1 NOT AND DUP2 MSTORE PUSH1 0x20 ADD PUSH1 0x60 DUP2 MSTORE PUSH1 0x20 ADD PUSH1 0x60 DUP2 MSTORE POP SWAP1 JUMP JUMPDEST DUP3 DUP1 SLOAD DUP3 DUP3 SSTORE SWAP1 PUSH1 0x0 MSTORE PUSH1 0x20 PUSH1 0x0 KECCAK256 SWAP1 PUSH1 0x1F ADD PUSH1 0x20 SWAP1 DIV DUP2 ADD SWAP3 DUP3 ISZERO PUSH2 0x35A4 JUMPI SWAP2 PUSH1 0x20 MUL DUP3 ADD PUSH1 0x0 JUMPDEST DUP4 DUP3 GT ISZERO PUSH2 0x3575 JUMPI DUP4 MLOAD DUP4 DUP3 PUSH2 0x100 EXP DUP2 SLOAD DUP2 PUSH1 0xFF MUL NOT AND SWAP1 DUP4 PUSH1 0xB DUP2 GT ISZERO PUSH2 0x3554 JUMPI PUSH2 0x3554 PUSH2 0x37C6 JUMP JUMPDEST MUL OR SWAP1 SSTORE POP SWAP3 PUSH1 0x20 ADD SWAP3 PUSH1 0x1 ADD PUSH1 0x20 DUP2 PUSH1 0x0 ADD DIV SWAP3 DUP4 ADD SWAP3 PUSH1 0x1 SUB MUL PUSH2 0x3529 JUMP JUMPDEST DUP1 ISZERO PUSH2 0x35A2 JUMPI DUP3 DUP2 PUSH2 0x100 EXP DUP2 SLOAD SWAP1 PUSH1 0xFF MUL NOT AND SWAP1 SSTORE PUSH1 0x1 ADD PUSH1 0x20 DUP2 PUSH1 0x0 ADD DIV SWAP3 DUP4 ADD SWAP3 PUSH1 0x1 SUB MUL PUSH2 0x3575 JUMP JUMPDEST POP JUMPDEST POP PUSH2 0x35B0 SWAP3 SWAP2 POP PUSH2 0x35B4 JUMP JUMPDEST POP SWAP1 JUMP JUMPDEST JUMPDEST DUP1 DUP3 GT ISZERO PUSH2 0x35B0 JUMPI PUSH1 0x0 DUP2 SSTORE PUSH1 0x1 ADD PUSH2 0x35B5 JUMP JUMPDEST PUSH1 0x0 PUSH1 0x20 DUP3 DUP5 SUB SLT ISZERO PUSH2 0x35DB JUMPI PUSH1 0x0 DUP1 REVERT JUMPDEST POP CALLDATALOAD SWAP2 SWAP1 POP JUMP JUMPDEST PUSH1 0x0 DUP1 PUSH1 0x0 PUSH1 0x60 DUP5 DUP7 SUB SLT ISZERO PUSH2 0x35F7 JUMPI PUSH1 0x0 DUP1 REVERT JUMPDEST DUP4 CALLDATALOAD SWAP3 POP PUSH1 0x20 DUP5 ADD CALLDATALOAD DUP1 ISZERO ISZERO DUP2 EQ PUSH2 0x360E JUMPI PUSH1 0x0 DUP1 REVERT JUMPDEST SWAP2 POP PUSH1 0x40 DUP5 ADD CALLDATALOAD PUSH4 0xFFFFFFFF DUP2 AND DUP2 EQ PUSH2 0x3627 JUMPI PUSH1 0x0 DUP1 REVERT JUMPDEST DUP1 SWAP2 POP POP SWAP3 POP SWAP3 POP SWAP3 JUMP JUMPDEST PUSH1 0x0 JUMPDEST DUP4 DUP2 LT ISZERO PUSH2 0x364D JUMPI DUP2 DUP2 ADD MLOAD DUP4 DUP3 ADD MSTORE PUSH1 0x20 ADD PUSH2 0x3635 JUMP JUMPDEST POP POP PUSH1 0x0 SWAP2 ADD MSTORE JUMP JUMPDEST PUSH1 0x0 DUP2 MLOAD DUP1 DUP5 MSTORE PUSH2 0x366E DUP2 PUSH1 0x20 DUP7 ADD PUSH1 0x20 DUP7 ADD PUSH2 0x3632 JUMP JUMPDEST PUSH1 0x1F ADD PUSH1 0x1F NOT AND SWAP3 SWAP1 SWAP3 ADD PUSH1 0x20 ADD SWAP3 SWAP2 POP POP JUMP JUMPDEST DUP1 MLOAD DUP3 MSTORE PUSH1 0x0 PUSH1 0x20 DUP3 ADD MLOAD PUSH1 0x60 PUSH1 0x20 DUP6 ADD MSTORE PUSH2 0x36A1 PUSH1 0x60 DUP6 ADD DUP3 PUSH2 0x3656 JUMP JUMPDEST SWAP1 POP PUSH1 0x40 DUP4 ADD MLOAD DUP5 DUP3 SUB PUSH1 0x40 DUP7 ADD MSTORE PUSH2 0x36BA DUP3 DUP3 PUSH2 0x3656 JUMP JUMPDEST SWAP6 SWAP5 POP POP POP POP POP JUMP JUMPDEST PUSH1 0x0 PUSH1 0x40 DUP3 MLOAD PUSH1 0x40 DUP6 MSTORE PUSH2 0x36DA PUSH1 0x40 DUP7 ADD DUP3 PUSH2 0x3682 JUMP JUMPDEST PUSH1 0x20 DUP6 DUP2 ADD MLOAD DUP8 DUP4 SUB DUP9 DUP4 ADD MSTORE DUP1 MLOAD DUP1 DUP5 MSTORE SWAP1 DUP3 ADD SWAP4 POP SWAP1 SWAP2 PUSH1 0x0 SWAP2 SWAP1 DUP4 ADD SWAP1 JUMPDEST DUP1 DUP4 LT ISZERO PUSH2 0x3733 JUMPI DUP5 MLOAD DUP1 MLOAD PUSH4 0xFFFFFFFF AND DUP4 MSTORE DUP5 ADD MLOAD PUSH1 0x1 PUSH1 0x1 PUSH1 0xA0 SHL SUB AND DUP5 DUP4 ADD MSTORE SWAP4 DUP4 ADD SWAP4 PUSH1 0x1 SWAP3 SWAP1 SWAP3 ADD SWAP2 SWAP1 DUP6 ADD SWAP1 PUSH2 0x36FB JUMP JUMPDEST POP SWAP8 SWAP7 POP POP POP POP POP POP POP JUMP JUMPDEST DUP1 MLOAD DUP3 MSTORE PUSH1 0x0 PUSH1 0x20 DUP3 ADD MLOAD PUSH1 0xE0 PUSH1 0x20 DUP6 ADD MSTORE PUSH2 0x375E PUSH1 0xE0 DUP6 ADD DUP3 PUSH2 0x36C3 JUMP JUMPDEST SWAP1 POP PUSH1 0x40 DUP4 ADD MLOAD DUP5 DUP3 SUB PUSH1 0x40 DUP7 ADD MSTORE PUSH2 0x3777 DUP3 DUP3 PUSH2 0x36C3 JUMP JUMPDEST SWAP2 POP POP PUSH1 0x60 DUP4 ADD MLOAD PUSH1 0x60 DUP6 ADD MSTORE PUSH1 0x80 DUP4 ADD MLOAD PUSH1 0x80 DUP6 ADD MSTORE PUSH1 0xA0 DUP4 ADD MLOAD PUSH1 0xA0 DUP6 ADD MSTORE PUSH1 0xC0 DUP4 ADD MLOAD PUSH1 0xC0 DUP6 ADD MSTORE DUP1 SWAP2 POP POP SWAP3 SWAP2 POP POP JUMP JUMPDEST PUSH1 0x20 DUP2 MSTORE PUSH1 0x0 PUSH2 0x37BF PUSH1 0x20 DUP4 ADD DUP5 PUSH2 0x373F JUMP JUMPDEST SWAP4 SWAP3 POP POP POP JUMP JUMPDEST PUSH4 0x4E487B71 PUSH1 0xE0 SHL PUSH1 0x0 MSTORE PUSH1 0x21 PUSH1 0x4 MSTORE PUSH1 0x24 PUSH1 0x0 REVERT JUMPDEST PUSH1 0x0 DUP2 MLOAD DUP1 DUP5 MSTORE PUSH1 0x20 DUP1 DUP6 ADD SWAP5 POP PUSH1 0x20 DUP5 ADD PUSH1 0x0 DUP1 JUMPDEST DUP5 DUP2 LT ISZERO PUSH2 0x382A JUMPI DUP3 MLOAD PUSH1 0xC DUP2 LT PUSH2 0x3818 JUMPI PUSH4 0x4E487B71 PUSH1 0xE0 SHL DUP4 MSTORE PUSH1 0x21 PUSH1 0x4 MSTORE PUSH1 0x24 DUP4 REVERT JUMPDEST DUP9 MSTORE SWAP7 DUP4 ADD SWAP7 SWAP2 DUP4 ADD SWAP2 PUSH1 0x1 ADD PUSH2 0x37F2 JUMP JUMPDEST POP SWAP6 SWAP7 SWAP6 POP POP POP POP POP POP JUMP JUMPDEST PUSH1 0x20 DUP2 MSTORE PUSH1 0x0 DUP3 MLOAD PUSH2 0x140 DUP1 PUSH1 0x20 DUP6 ADD MSTORE PUSH2 0x3855 PUSH2 0x160 DUP6 ADD DUP4 PUSH2 0x3656 JUMP JUMPDEST SWAP2 POP PUSH1 0x20 DUP6 ADD MLOAD PUSH2 0x386C PUSH1 0x40 DUP7 ADD DUP3 PUSH2 0xFFFF AND SWAP1 MSTORE JUMP JUMPDEST POP PUSH1 0x40 DUP6 ADD MLOAD PUSH1 0x1F NOT DUP1 DUP7 DUP6 SUB ADD PUSH1 0x60 DUP8 ADD MSTORE PUSH2 0x3889 DUP5 DUP4 PUSH2 0x3656 JUMP JUMPDEST SWAP4 POP PUSH1 0x60 DUP8 ADD MLOAD SWAP2 POP DUP1 DUP7 DUP6 SUB ADD PUSH1 0x80 DUP8 ADD MSTORE PUSH2 0x38A6 DUP5 DUP4 PUSH2 0x3656 JUMP JUMPDEST SWAP4 POP PUSH1 0x80 DUP8 ADD MLOAD SWAP2 POP DUP1 DUP7 DUP6 SUB ADD PUSH1 0xA0 DUP8 ADD MSTORE PUSH2 0x38C3 DUP5 DUP4 PUSH2 0x3656 JUMP JUMPDEST SWAP4 POP PUSH1 0xA0 DUP8 ADD MLOAD SWAP2 POP PUSH2 0x38DA PUSH1 0xC0 DUP8 ADD DUP4 ISZERO ISZERO SWAP1 MSTORE JUMP JUMPDEST PUSH1 0xC0 DUP8 ADD MLOAD SWAP2 POP DUP1 DUP7 DUP6 SUB ADD PUSH1 0xE0 DUP8 ADD MSTORE PUSH2 0x38F5 DUP5 DUP4 PUSH2 0x3656 JUMP JUMPDEST SWAP4 POP PUSH1 0xE0 DUP8 ADD MLOAD SWAP2 POP PUSH2 0x100 DUP3 DUP2 DUP9 ADD MSTORE DUP1 DUP9 ADD MLOAD SWAP3 POP POP PUSH2 0x120 DUP2 DUP8 DUP7 SUB ADD DUP2 DUP9 ADD MSTORE PUSH2 0x3923 DUP6 DUP5 PUSH2 0x3656 JUMP JUMPDEST SWAP1 DUP9 ADD MLOAD DUP8 DUP3 SUB SWAP1 SWAP3 ADD DUP5 DUP9 ADD MSTORE SWAP4 POP SWAP1 POP PUSH2 0xB35 DUP4 DUP3 PUSH2 0x37DC JUMP JUMPDEST PUSH1 0x0 DUP1 DUP4 PUSH1 0x1F DUP5 ADD SLT PUSH2 0x3951 JUMPI PUSH1 0x0 DUP1 REVERT JUMPDEST POP DUP2 CALLDATALOAD PUSH8 0xFFFFFFFFFFFFFFFF DUP2 GT ISZERO PUSH2 0x3969 JUMPI PUSH1 0x0 DUP1 REVERT JUMPDEST PUSH1 0x20 DUP4 ADD SWAP2 POP DUP4 PUSH1 0x20 DUP3 DUP6 ADD ADD GT ISZERO PUSH2 0x3981 JUMPI PUSH1 0x0 DUP1 REVERT JUMPDEST SWAP3 POP SWAP3 SWAP1 POP JUMP JUMPDEST DUP1 CALLDATALOAD PUSH2 0xFFFF DUP2 AND DUP2 EQ PUSH2 0x399A JUMPI PUSH1 0x0 DUP1 REVERT JUMPDEST SWAP2 SWAP1 POP JUMP JUMPDEST PUSH1 0x0 DUP1 DUP4 PUSH1 0x1F DUP5 ADD SLT PUSH2 0x39B1 JUMPI PUSH1 0x0 DUP1 REVERT JUMPDEST POP DUP2 CALLDATALOAD PUSH8 0xFFFFFFFFFFFFFFFF DUP2 GT ISZERO PUSH2 0x39C9 JUMPI PUSH1 0x0 DUP1 REVERT JUMPDEST PUSH1 0x20 DUP4 ADD SWAP2 POP DUP4 PUSH1 0x20 DUP3 PUSH1 0x5 SHL DUP6 ADD ADD GT ISZERO PUSH2 0x3981 JUMPI PUSH1 0x0 DUP1 REVERT JUMPDEST PUSH1 0x0 DUP1 PUSH1 0x0 DUP1 PUSH1 0x0 DUP1 PUSH1 0x0 DUP1 PUSH1 0x0 DUP1 PUSH1 0x0 PUSH1 0xC0 DUP13 DUP15 SUB SLT ISZERO PUSH2 0x3A05 JUMPI PUSH1 0x0 DUP1 REVERT JUMPDEST PUSH8 0xFFFFFFFFFFFFFFFF DUP1 DUP14 CALLDATALOAD GT ISZERO PUSH2 0x3A1C JUMPI PUSH1 0x0 DUP1 REVERT JUMPDEST PUSH2 0x3A29 DUP15 DUP15 CALLDATALOAD DUP16 ADD PUSH2 0x393F JUMP JUMPDEST SWAP1 SWAP13 POP SWAP11 POP PUSH1 0x20 DUP14 ADD CALLDATALOAD DUP2 LT ISZERO PUSH2 0x3A3F JUMPI PUSH1 0x0 DUP1 REVERT JUMPDEST PUSH2 0x3A4F DUP15 PUSH1 0x20 DUP16 ADD CALLDATALOAD DUP16 ADD PUSH2 0x393F JUMP JUMPDEST SWAP1 SWAP11 POP SWAP9 POP PUSH1 0x40 DUP14 ADD CALLDATALOAD DUP2 LT ISZERO PUSH2 0x3A65 JUMPI PUSH1 0x0 DUP1 REVERT JUMPDEST PUSH2 0x3A75 DUP15 PUSH1 0x40 DUP16 ADD CALLDATALOAD DUP16 ADD PUSH2 0x393F JUMP JUMPDEST SWAP1 SWAP9 POP SWAP7 POP PUSH2 0x3A86 PUSH1 0x60 DUP15 ADD PUSH2 0x3988 JUMP JUMPDEST SWAP6 POP DUP1 PUSH1 0x80 DUP15 ADD CALLDATALOAD GT ISZERO PUSH2 0x3A99 JUMPI PUSH1 0x0 DUP1 REVERT JUMPDEST PUSH2 0x3AA9 DUP15 PUSH1 0x80 DUP16 ADD CALLDATALOAD DUP16 ADD PUSH2 0x393F JUMP JUMPDEST SWAP1 SWAP6 POP SWAP4 POP PUSH1 0xA0 DUP14 ADD CALLDATALOAD DUP2 LT ISZERO PUSH2 0x3ABF JUMPI PUSH1 0x0 DUP1 REVERT JUMPDEST POP PUSH2 0x3AD0 DUP14 PUSH1 0xA0 DUP15 ADD CALLDATALOAD DUP15 ADD PUSH2 0x399F JUMP JUMPDEST DUP2 SWAP4 POP DUP1 SWAP3 POP POP POP SWAP3 SWAP6 SWAP9 SWAP12 POP SWAP3 SWAP6 SWAP9 SWAP12 SWAP1 SWAP4 SWAP7 SWAP10 POP JUMP JUMPDEST PUSH1 0x0 DUP1 PUSH1 0x0 DUP1 PUSH1 0x0 PUSH1 0x60 DUP7 DUP9 SUB SLT ISZERO PUSH2 0x3B00 JUMPI PUSH1 0x0 DUP1 REVERT JUMPDEST DUP6 CALLDATALOAD SWAP5 POP PUSH1 0x20 DUP7 ADD CALLDATALOAD PUSH8 0xFFFFFFFFFFFFFFFF DUP1 DUP3 GT ISZERO PUSH2 0x3B1F JUMPI PUSH1 0x0 DUP1 REVERT JUMPDEST PUSH2 0x3B2B DUP10 DUP4 DUP11 ADD PUSH2 0x393F JUMP JUMPDEST SWAP1 SWAP7 POP SWAP5 POP PUSH1 0x40 DUP9 ADD CALLDATALOAD SWAP2 POP DUP1 DUP3 GT ISZERO PUSH2 0x3B44 JUMPI PUSH1 0x0 DUP1 REVERT JUMPDEST POP PUSH2 0x3B51 DUP9 DUP3 DUP10 ADD PUSH2 0x393F JUMP JUMPDEST SWAP7 SWAP10 SWAP6 SWAP9 POP SWAP4 SWAP7 POP SWAP3 SWAP5 SWAP4 SWAP3 POP POP POP JUMP JUMPDEST PUSH1 0x0 PUSH1 0x20 DUP1 DUP4 ADD PUSH1 0x20 DUP5 MSTORE DUP1 DUP6 MLOAD DUP1 DUP4 MSTORE PUSH1 0x40 DUP7 ADD SWAP2 POP PUSH1 0x40 DUP2 PUSH1 0x5 SHL DUP8 ADD ADD SWAP3 POP PUSH1 0x20 DUP8 ADD PUSH1 0x0 JUMPDEST DUP3 DUP2 LT ISZERO PUSH2 0x3BB9 JUMPI PUSH1 0x3F NOT DUP9 DUP7 SUB ADD DUP5 MSTORE PUSH2 0x3BA7 DUP6 DUP4 MLOAD PUSH2 0x3682 JUMP JUMPDEST SWAP5 POP SWAP3 DUP6 ADD SWAP3 SWAP1 DUP6 ADD SWAP1 PUSH1 0x1 ADD PUSH2 0x3B8B JUMP JUMPDEST POP SWAP3 SWAP8 SWAP7 POP POP POP POP POP POP POP JUMP JUMPDEST PUSH1 0x0 PUSH1 0x20 DUP1 DUP4 ADD PUSH1 0x20 DUP5 MSTORE DUP1 DUP6 MLOAD DUP1 DUP4 MSTORE PUSH1 0x40 DUP7 ADD SWAP2 POP PUSH1 0x40 DUP2 PUSH1 0x5 SHL DUP8 ADD ADD SWAP3 POP PUSH1 0x20 DUP8 ADD PUSH1 0x0 JUMPDEST DUP3 DUP2 LT ISZERO PUSH2 0x3BB9 JUMPI PUSH1 0x3F NOT DUP9 DUP7 SUB ADD DUP5 MSTORE PUSH2 0x3C0B DUP6 DUP4 MLOAD PUSH2 0x373F JUMP JUMPDEST SWAP5 POP SWAP3 DUP6 ADD SWAP3 SWAP1 DUP6 ADD SWAP1 PUSH1 0x1 ADD PUSH2 0x3BEF JUMP JUMPDEST PUSH4 0x4E487B71 PUSH1 0xE0 SHL PUSH1 0x0 MSTORE PUSH1 0x11 PUSH1 0x4 MSTORE PUSH1 0x24 PUSH1 0x0 REVERT JUMPDEST DUP2 DUP2 SUB DUP2 DUP2 GT ISZERO PUSH2 0x2C12 JUMPI PUSH2 0x2C12 PUSH2 0x3C1D JUMP JUMPDEST PUSH1 0x1 DUP2 DUP2 SHR SWAP1 DUP3 AND DUP1 PUSH2 0x3C5A JUMPI PUSH1 0x7F DUP3 AND SWAP2 POP JUMPDEST PUSH1 0x20 DUP3 LT DUP2 SUB PUSH2 0x3C7A JUMPI PUSH4 0x4E487B71 PUSH1 0xE0 SHL PUSH1 0x0 MSTORE PUSH1 0x22 PUSH1 0x4 MSTORE PUSH1 0x24 PUSH1 0x0 REVERT JUMPDEST POP SWAP2 SWAP1 POP JUMP JUMPDEST PUSH1 0x0 PUSH1 0x1 DUP3 ADD PUSH2 0x3C92 JUMPI PUSH2 0x3C92 PUSH2 0x3C1D JUMP JUMPDEST POP PUSH1 0x1 ADD SWAP1 JUMP JUMPDEST PUSH4 0x4E487B71 PUSH1 0xE0 SHL PUSH1 0x0 MSTORE PUSH1 0x41 PUSH1 0x4 MSTORE PUSH1 0x24 PUSH1 0x0 REVERT JUMPDEST PUSH1 0x1F DUP3 GT ISZERO PUSH2 0x3CFB JUMPI PUSH1 0x0 DUP2 PUSH1 0x0 MSTORE PUSH1 0x20 PUSH1 0x0 KECCAK256 PUSH1 0x1F DUP6 ADD PUSH1 0x5 SHR DUP2 ADD PUSH1 0x20 DUP7 LT ISZERO PUSH2 0x3CD8 JUMPI POP DUP1 JUMPDEST PUSH1 0x1F DUP6 ADD PUSH1 0x5 SHR DUP3 ADD SWAP2 POP JUMPDEST DUP2 DUP2 LT ISZERO PUSH2 0x3CF7 JUMPI DUP3 DUP2 SSTORE PUSH1 0x1 ADD PUSH2 0x3CE4 JUMP JUMPDEST POP POP POP JUMPDEST POP POP POP JUMP JUMPDEST DUP2 MLOAD PUSH8 0xFFFFFFFFFFFFFFFF DUP2 GT ISZERO PUSH2 0x3D1A JUMPI PUSH2 0x3D1A PUSH2 0x3C99 JUMP JUMPDEST PUSH2 0x3D2E DUP2 PUSH2 0x3D28 DUP5 SLOAD PUSH2 0x3C46 JUMP JUMPDEST DUP5 PUSH2 0x3CAF JUMP JUMPDEST PUSH1 0x20 DUP1 PUSH1 0x1F DUP4 GT PUSH1 0x1 DUP2 EQ PUSH2 0x3D63 JUMPI PUSH1 0x0 DUP5 ISZERO PUSH2 0x3D4B JUMPI POP DUP6 DUP4 ADD MLOAD JUMPDEST PUSH1 0x0 NOT PUSH1 0x3 DUP7 SWAP1 SHL SHR NOT AND PUSH1 0x1 DUP6 SWAP1 SHL OR DUP6 SSTORE PUSH2 0x3CF7 JUMP JUMPDEST PUSH1 0x0 DUP6 DUP2 MSTORE PUSH1 0x20 DUP2 KECCAK256 PUSH1 0x1F NOT DUP7 AND SWAP2 JUMPDEST DUP3 DUP2 LT ISZERO PUSH2 0x3D92 JUMPI DUP9 DUP7 ADD MLOAD DUP3 SSTORE SWAP5 DUP5 ADD SWAP5 PUSH1 0x1 SWAP1 SWAP2 ADD SWAP1 DUP5 ADD PUSH2 0x3D73 JUMP JUMPDEST POP DUP6 DUP3 LT ISZERO PUSH2 0x3DB0 JUMPI DUP8 DUP6 ADD MLOAD PUSH1 0x0 NOT PUSH1 0x3 DUP9 SWAP1 SHL PUSH1 0xF8 AND SHR NOT AND DUP2 SSTORE JUMPDEST POP POP POP POP POP PUSH1 0x1 SWAP1 DUP2 SHL ADD SWAP1 SSTORE POP JUMP JUMPDEST PUSH1 0x20 DUP1 DUP3 MSTORE PUSH1 0xE SWAP1 DUP3 ADD MSTORE PUSH14 0x11D85B59481B9BDD08199BDD5B99 PUSH1 0x92 SHL PUSH1 0x40 DUP3 ADD MSTORE PUSH1 0x60 ADD SWAP1 JUMP JUMPDEST DUP1 DUP3 ADD DUP1 DUP3 GT ISZERO PUSH2 0x2C12 JUMPI PUSH2 0x2C12 PUSH2 0x3C1D JUMP JUMPDEST DUP7 DUP2 MSTORE PUSH1 0xC0 PUSH1 0x20 DUP3 ADD MSTORE PUSH1 0x0 PUSH2 0x3E14 PUSH1 0xC0 DUP4 ADD DUP9 PUSH2 0x3656 JUMP JUMPDEST DUP3 DUP2 SUB PUSH1 0x40 DUP5 ADD MSTORE PUSH2 0x3E26 DUP2 DUP9 PUSH2 0x3656 JUMP JUMPDEST SWAP1 POP PUSH2 0xFFFF DUP7 AND PUSH1 0x60 DUP5 ADD MSTORE DUP3 DUP2 SUB PUSH1 0x80 DUP5 ADD MSTORE PUSH2 0x3E44 DUP2 DUP7 PUSH2 0x3656 JUMP JUMPDEST SWAP1 POP DUP3 DUP2 SUB PUSH1 0xA0 DUP5 ADD MSTORE PUSH2 0x3E58 DUP2 DUP6 PUSH2 0x37DC JUMP JUMPDEST SWAP10 SWAP9 POP POP POP POP POP POP POP POP POP JUMP JUMPDEST PUSH4 0x4E487B71 PUSH1 0xE0 SHL PUSH1 0x0 MSTORE PUSH1 0x32 PUSH1 0x4 MSTORE PUSH1 0x24 PUSH1 0x0 REVERT JUMPDEST PUSH4 0xFFFFFFFF DUP2 DUP2 AND DUP4 DUP3 AND MUL DUP1 DUP3 AND SWAP2 SWAP1 DUP3 DUP2 EQ PUSH2 0x3E9B JUMPI PUSH2 0x3E9B PUSH2 0x3C1D JUMP JUMPDEST POP POP SWAP3 SWAP2 POP POP JUMP JUMPDEST PUSH1 0x0 PUSH4 0xFFFFFFFF DUP1 DUP4 AND DUP2 DUP2 SUB PUSH2 0x3EBC JUMPI PUSH2 0x3EBC PUSH2 0x3C1D JUMP JUMPDEST PUSH1 0x1 ADD SWAP4 SWAP3 POP POP POP JUMP JUMPDEST PUSH1 0x0 DUP5 MLOAD PUSH2 0x3ED8 DUP2 DUP5 PUSH1 0x20 DUP10 ADD PUSH2 0x3632 JUMP JUMPDEST PUSH1 0xF0 DUP6 SWAP1 SHL PUSH1 0x1 PUSH1 0x1 PUSH1 0xF0 SHL SUB NOT AND SWAP1 DUP4 ADD SWAP1 DUP2 MSTORE DUP4 MLOAD PUSH2 0x3F00 DUP2 PUSH1 0x2 DUP5 ADD PUSH1 0x20 DUP9 ADD PUSH2 0x3632 JUMP JUMPDEST ADD PUSH1 0x2 ADD SWAP6 SWAP5 POP POP POP POP POP JUMP INVALID LOG2 PUSH5 0x6970667358 0x22 SLT KECCAK256 PUSH26 0x31FF6C29C22D1E134F2372803BC2DFA61722F65A8D666470FD3 PUSH0 LOG3 SWAP12 0xA8 0xD4 PUSH5 0x736F6C6343 STOP ADDMOD NOT STOP CALLER "
        },
        "methodIdentifiers": {
          "challengeAbandonwareVersion(bytes32,string,string)": "c61d0576",
          "closeChallengesIfNeeded(bytes32)": "23afd2b4",
          "createAbandonware(string,string,string,uint16,string,uint8[])": "a06aed06",
          "getAbandonware(bytes32)": "7b0ea545",
          "getGameChallengeHistory(bytes32)": "de53e35e",
          "getGameVersionHistory(bytes32)": "cd64c942",
          "owner()": "8da5cb5b",
          "voteChallenge(bytes32,bool,uint32)": "6af6f24e"
        }
      }
    }
  }
}