{
  "contracts/Vaultium.sol": {
    "Vaultium": {
      "abi": [
        {
          "inputs": [
            {
              "internalType": "uint256",
              "name": "_challengeTime",
              "type": "uint256"
            }
          ],
          "stateMutability": "nonpayable",
          "type": "constructor"
        },
        {
          "anonymous": false,
          "inputs": [
            {
              "indexed": false,
              "internalType": "bytes32",
              "name": "gameHash",
              "type": "bytes32"
            },
            {
              "indexed": false,
              "internalType": "string",
              "name": "newIpfsCid",
              "type": "string"
            },
            {
              "indexed": false,
              "internalType": "string",
              "name": "newImageCid",
              "type": "string"
            }
          ],
          "name": "ChallengeAddedToSystem",
          "type": "event"
        },
        {
          "anonymous": false,
          "inputs": [
            {
              "indexed": false,
              "internalType": "bytes32",
              "name": "gameHash",
              "type": "bytes32"
            },
            {
              "components": [
                {
                  "internalType": "bytes32",
                  "name": "gameHash",
                  "type": "bytes32"
                },
                {
                  "components": [
                    {
                      "components": [
                        {
                          "internalType": "bytes32",
                          "name": "gameHash",
                          "type": "bytes32"
                        },
                        {
                          "internalType": "string",
                          "name": "ipfsCid",
                          "type": "string"
                        },
                        {
                          "internalType": "string",
                          "name": "imageCid",
                          "type": "string"
                        }
                      ],
                      "internalType": "struct Vaultium.GameVersion",
                      "name": "gameVersion",
                      "type": "tuple"
                    },
                    {
                      "components": [
                        {
                          "internalType": "uint32",
                          "name": "pointsCount",
                          "type": "uint32"
                        },
                        {
                          "internalType": "address",
                          "name": "voterAddress",
                          "type": "address"
                        }
                      ],
                      "internalType": "struct Vaultium.VoteInfo[]",
                      "name": "votes",
                      "type": "tuple[]"
                    }
                  ],
                  "internalType": "struct Vaultium.ChallengeVersionResponse",
                  "name": "currentChallengeVersion",
                  "type": "tuple"
                },
                {
                  "components": [
                    {
                      "components": [
                        {
                          "internalType": "bytes32",
                          "name": "gameHash",
                          "type": "bytes32"
                        },
                        {
                          "internalType": "string",
                          "name": "ipfsCid",
                          "type": "string"
                        },
                        {
                          "internalType": "string",
                          "name": "imageCid",
                          "type": "string"
                        }
                      ],
                      "internalType": "struct Vaultium.GameVersion",
                      "name": "gameVersion",
                      "type": "tuple"
                    },
                    {
                      "components": [
                        {
                          "internalType": "uint32",
                          "name": "pointsCount",
                          "type": "uint32"
                        },
                        {
                          "internalType": "address",
                          "name": "voterAddress",
                          "type": "address"
                        }
                      ],
                      "internalType": "struct Vaultium.VoteInfo[]",
                      "name": "votes",
                      "type": "tuple[]"
                    }
                  ],
                  "internalType": "struct Vaultium.ChallengeVersionResponse",
                  "name": "newChallengeVersion",
                  "type": "tuple"
                },
                {
                  "internalType": "uint256",
                  "name": "currentVersionPoints",
                  "type": "uint256"
                },
                {
                  "internalType": "uint256",
                  "name": "newVersionPoints",
                  "type": "uint256"
                },
                {
                  "internalType": "uint256",
                  "name": "creationDate",
                  "type": "uint256"
                },
                {
                  "internalType": "uint256",
                  "name": "closingDate",
                  "type": "uint256"
                }
              ],
              "indexed": false,
              "internalType": "struct Vaultium.ChallengeResponse",
              "name": "challenge",
              "type": "tuple"
            }
          ],
          "name": "ClosedChallenge",
          "type": "event"
        },
        {
          "anonymous": false,
          "inputs": [
            {
              "indexed": false,
              "internalType": "bytes32",
              "name": "gameHash",
              "type": "bytes32"
            },
            {
              "indexed": false,
              "internalType": "string",
              "name": "name",
              "type": "string"
            },
            {
              "indexed": false,
              "internalType": "string",
              "name": "publisher",
              "type": "string"
            },
            {
              "indexed": false,
              "internalType": "uint256",
              "name": "year",
              "type": "uint256"
            }
          ],
          "name": "GameAddedToSystem",
          "type": "event"
        },
        {
          "anonymous": false,
          "inputs": [
            {
              "indexed": false,
              "internalType": "bytes32",
              "name": "gameHash",
              "type": "bytes32"
            },
            {
              "components": [
                {
                  "internalType": "bytes32",
                  "name": "gameHash",
                  "type": "bytes32"
                },
                {
                  "components": [
                    {
                      "components": [
                        {
                          "internalType": "bytes32",
                          "name": "gameHash",
                          "type": "bytes32"
                        },
                        {
                          "internalType": "string",
                          "name": "ipfsCid",
                          "type": "string"
                        },
                        {
                          "internalType": "string",
                          "name": "imageCid",
                          "type": "string"
                        }
                      ],
                      "internalType": "struct Vaultium.GameVersion",
                      "name": "gameVersion",
                      "type": "tuple"
                    },
                    {
                      "components": [
                        {
                          "internalType": "uint32",
                          "name": "pointsCount",
                          "type": "uint32"
                        },
                        {
                          "internalType": "address",
                          "name": "voterAddress",
                          "type": "address"
                        }
                      ],
                      "internalType": "struct Vaultium.VoteInfo[]",
                      "name": "votes",
                      "type": "tuple[]"
                    }
                  ],
                  "internalType": "struct Vaultium.ChallengeVersionResponse",
                  "name": "currentChallengeVersion",
                  "type": "tuple"
                },
                {
                  "components": [
                    {
                      "components": [
                        {
                          "internalType": "bytes32",
                          "name": "gameHash",
                          "type": "bytes32"
                        },
                        {
                          "internalType": "string",
                          "name": "ipfsCid",
                          "type": "string"
                        },
                        {
                          "internalType": "string",
                          "name": "imageCid",
                          "type": "string"
                        }
                      ],
                      "internalType": "struct Vaultium.GameVersion",
                      "name": "gameVersion",
                      "type": "tuple"
                    },
                    {
                      "components": [
                        {
                          "internalType": "uint32",
                          "name": "pointsCount",
                          "type": "uint32"
                        },
                        {
                          "internalType": "address",
                          "name": "voterAddress",
                          "type": "address"
                        }
                      ],
                      "internalType": "struct Vaultium.VoteInfo[]",
                      "name": "votes",
                      "type": "tuple[]"
                    }
                  ],
                  "internalType": "struct Vaultium.ChallengeVersionResponse",
                  "name": "newChallengeVersion",
                  "type": "tuple"
                },
                {
                  "internalType": "uint256",
                  "name": "currentVersionPoints",
                  "type": "uint256"
                },
                {
                  "internalType": "uint256",
                  "name": "newVersionPoints",
                  "type": "uint256"
                },
                {
                  "internalType": "uint256",
                  "name": "creationDate",
                  "type": "uint256"
                },
                {
                  "internalType": "uint256",
                  "name": "closingDate",
                  "type": "uint256"
                }
              ],
              "indexed": false,
              "internalType": "struct Vaultium.ChallengeResponse",
              "name": "challenge",
              "type": "tuple"
            }
          ],
          "name": "VotedChallenge",
          "type": "event"
        },
        {
          "inputs": [
            {
              "internalType": "bytes32",
              "name": "_gameHash",
              "type": "bytes32"
            },
            {
              "internalType": "string",
              "name": "_ipfsCid",
              "type": "string"
            },
            {
              "internalType": "string",
              "name": "_imageCid",
              "type": "string"
            }
          ],
          "name": "challengeAbandonwareVersion",
          "outputs": [
            {
              "components": [
                {
                  "internalType": "bytes32",
                  "name": "gameHash",
                  "type": "bytes32"
                },
                {
                  "components": [
                    {
                      "components": [
                        {
                          "internalType": "bytes32",
                          "name": "gameHash",
                          "type": "bytes32"
                        },
                        {
                          "internalType": "string",
                          "name": "ipfsCid",
                          "type": "string"
                        },
                        {
                          "internalType": "string",
                          "name": "imageCid",
                          "type": "string"
                        }
                      ],
                      "internalType": "struct Vaultium.GameVersion",
                      "name": "gameVersion",
                      "type": "tuple"
                    },
                    {
                      "components": [
                        {
                          "internalType": "uint32",
                          "name": "pointsCount",
                          "type": "uint32"
                        },
                        {
                          "internalType": "address",
                          "name": "voterAddress",
                          "type": "address"
                        }
                      ],
                      "internalType": "struct Vaultium.VoteInfo[]",
                      "name": "votes",
                      "type": "tuple[]"
                    }
                  ],
                  "internalType": "struct Vaultium.ChallengeVersionResponse",
                  "name": "currentChallengeVersion",
                  "type": "tuple"
                },
                {
                  "components": [
                    {
                      "components": [
                        {
                          "internalType": "bytes32",
                          "name": "gameHash",
                          "type": "bytes32"
                        },
                        {
                          "internalType": "string",
                          "name": "ipfsCid",
                          "type": "string"
                        },
                        {
                          "internalType": "string",
                          "name": "imageCid",
                          "type": "string"
                        }
                      ],
                      "internalType": "struct Vaultium.GameVersion",
                      "name": "gameVersion",
                      "type": "tuple"
                    },
                    {
                      "components": [
                        {
                          "internalType": "uint32",
                          "name": "pointsCount",
                          "type": "uint32"
                        },
                        {
                          "internalType": "address",
                          "name": "voterAddress",
                          "type": "address"
                        }
                      ],
                      "internalType": "struct Vaultium.VoteInfo[]",
                      "name": "votes",
                      "type": "tuple[]"
                    }
                  ],
                  "internalType": "struct Vaultium.ChallengeVersionResponse",
                  "name": "newChallengeVersion",
                  "type": "tuple"
                },
                {
                  "internalType": "uint256",
                  "name": "currentVersionPoints",
                  "type": "uint256"
                },
                {
                  "internalType": "uint256",
                  "name": "newVersionPoints",
                  "type": "uint256"
                },
                {
                  "internalType": "uint256",
                  "name": "creationDate",
                  "type": "uint256"
                },
                {
                  "internalType": "uint256",
                  "name": "closingDate",
                  "type": "uint256"
                }
              ],
              "internalType": "struct Vaultium.ChallengeResponse",
              "name": "",
              "type": "tuple"
            }
          ],
          "stateMutability": "nonpayable",
          "type": "function"
        },
        {
          "inputs": [
            {
              "internalType": "bytes32",
              "name": "",
              "type": "bytes32"
            }
          ],
          "name": "game",
          "outputs": [
            {
              "internalType": "string",
              "name": "name",
              "type": "string"
            },
            {
              "internalType": "uint16",
              "name": "year",
              "type": "uint16"
            },
            {
              "internalType": "string",
              "name": "publisher",
              "type": "string"
            },
            {
              "internalType": "string",
              "name": "ipfsCid",
              "type": "string"
            },
            {
              "internalType": "string",
              "name": "imageCid",
              "type": "string"
            },
            {
              "internalType": "bool",
              "name": "isAbandonware",
              "type": "bool"
            },
            {
              "internalType": "string",
              "name": "description",
              "type": "string"
            },
            {
              "internalType": "bytes32",
              "name": "gameHash",
              "type": "bytes32"
            }
          ],
          "stateMutability": "view",
          "type": "function"
        },
        {
          "inputs": [
            {
              "internalType": "bytes32",
              "name": "",
              "type": "bytes32"
            }
          ],
          "name": "gameChallengeHistory",
          "outputs": [
            {
              "internalType": "uint256",
              "name": "challengesSize",
              "type": "uint256"
            }
          ],
          "stateMutability": "view",
          "type": "function"
        },
        {
          "inputs": [
            {
              "internalType": "bytes32",
              "name": "",
              "type": "bytes32"
            }
          ],
          "name": "gameVersionHistory",
          "outputs": [
            {
              "internalType": "uint256",
              "name": "versionsSize",
              "type": "uint256"
            }
          ],
          "stateMutability": "view",
          "type": "function"
        },
        {
          "inputs": [
            {
              "internalType": "bytes32",
              "name": "_gameHash",
              "type": "bytes32"
            }
          ],
          "name": "getGameChallengeHistory",
          "outputs": [
            {
              "components": [
                {
                  "internalType": "bytes32",
                  "name": "gameHash",
                  "type": "bytes32"
                },
                {
                  "components": [
                    {
                      "components": [
                        {
                          "internalType": "bytes32",
                          "name": "gameHash",
                          "type": "bytes32"
                        },
                        {
                          "internalType": "string",
                          "name": "ipfsCid",
                          "type": "string"
                        },
                        {
                          "internalType": "string",
                          "name": "imageCid",
                          "type": "string"
                        }
                      ],
                      "internalType": "struct Vaultium.GameVersion",
                      "name": "gameVersion",
                      "type": "tuple"
                    },
                    {
                      "components": [
                        {
                          "internalType": "uint32",
                          "name": "pointsCount",
                          "type": "uint32"
                        },
                        {
                          "internalType": "address",
                          "name": "voterAddress",
                          "type": "address"
                        }
                      ],
                      "internalType": "struct Vaultium.VoteInfo[]",
                      "name": "votes",
                      "type": "tuple[]"
                    }
                  ],
                  "internalType": "struct Vaultium.ChallengeVersionResponse",
                  "name": "currentChallengeVersion",
                  "type": "tuple"
                },
                {
                  "components": [
                    {
                      "components": [
                        {
                          "internalType": "bytes32",
                          "name": "gameHash",
                          "type": "bytes32"
                        },
                        {
                          "internalType": "string",
                          "name": "ipfsCid",
                          "type": "string"
                        },
                        {
                          "internalType": "string",
                          "name": "imageCid",
                          "type": "string"
                        }
                      ],
                      "internalType": "struct Vaultium.GameVersion",
                      "name": "gameVersion",
                      "type": "tuple"
                    },
                    {
                      "components": [
                        {
                          "internalType": "uint32",
                          "name": "pointsCount",
                          "type": "uint32"
                        },
                        {
                          "internalType": "address",
                          "name": "voterAddress",
                          "type": "address"
                        }
                      ],
                      "internalType": "struct Vaultium.VoteInfo[]",
                      "name": "votes",
                      "type": "tuple[]"
                    }
                  ],
                  "internalType": "struct Vaultium.ChallengeVersionResponse",
                  "name": "newChallengeVersion",
                  "type": "tuple"
                },
                {
                  "internalType": "uint256",
                  "name": "currentVersionPoints",
                  "type": "uint256"
                },
                {
                  "internalType": "uint256",
                  "name": "newVersionPoints",
                  "type": "uint256"
                },
                {
                  "internalType": "uint256",
                  "name": "creationDate",
                  "type": "uint256"
                },
                {
                  "internalType": "uint256",
                  "name": "closingDate",
                  "type": "uint256"
                }
              ],
              "internalType": "struct Vaultium.ChallengeResponse[]",
              "name": "",
              "type": "tuple[]"
            }
          ],
          "stateMutability": "view",
          "type": "function"
        },
        {
          "inputs": [
            {
              "internalType": "bytes32",
              "name": "_gameHash",
              "type": "bytes32"
            }
          ],
          "name": "getGameVersionHistory",
          "outputs": [
            {
              "components": [
                {
                  "internalType": "bytes32",
                  "name": "gameHash",
                  "type": "bytes32"
                },
                {
                  "internalType": "string",
                  "name": "ipfsCid",
                  "type": "string"
                },
                {
                  "internalType": "string",
                  "name": "imageCid",
                  "type": "string"
                }
              ],
              "internalType": "struct Vaultium.GameVersion[]",
              "name": "",
              "type": "tuple[]"
            }
          ],
          "stateMutability": "nonpayable",
          "type": "function"
        },
        {
          "inputs": [],
          "name": "owner",
          "outputs": [
            {
              "internalType": "address payable",
              "name": "",
              "type": "address"
            }
          ],
          "stateMutability": "view",
          "type": "function"
        },
        {
          "inputs": [
            {
              "internalType": "string",
              "name": "_name",
              "type": "string"
            },
            {
              "internalType": "string",
              "name": "_description",
              "type": "string"
            },
            {
              "internalType": "string",
              "name": "_publisher",
              "type": "string"
            },
            {
              "internalType": "uint16",
              "name": "_year",
              "type": "uint16"
            }
          ],
          "name": "searchAbandonware",
          "outputs": [
            {
              "components": [
                {
                  "internalType": "string",
                  "name": "name",
                  "type": "string"
                },
                {
                  "internalType": "uint16",
                  "name": "year",
                  "type": "uint16"
                },
                {
                  "internalType": "string",
                  "name": "publisher",
                  "type": "string"
                },
                {
                  "internalType": "string",
                  "name": "ipfsCid",
                  "type": "string"
                },
                {
                  "internalType": "string",
                  "name": "imageCid",
                  "type": "string"
                },
                {
                  "internalType": "bool",
                  "name": "isAbandonware",
                  "type": "bool"
                },
                {
                  "internalType": "string",
                  "name": "description",
                  "type": "string"
                },
                {
                  "internalType": "bytes32",
                  "name": "gameHash",
                  "type": "bytes32"
                }
              ],
              "internalType": "struct Vaultium.GameInfo",
              "name": "",
              "type": "tuple"
            }
          ],
          "stateMutability": "nonpayable",
          "type": "function"
        },
        {
          "inputs": [
            {
              "internalType": "bytes32",
              "name": "_gameHash",
              "type": "bytes32"
            },
            {
              "internalType": "bool",
              "name": "_voteNewVersion",
              "type": "bool"
            },
            {
              "internalType": "uint32",
              "name": "_tokenCount",
              "type": "uint32"
            }
          ],
          "name": "voteChallenge",
          "outputs": [
            {
              "components": [
                {
                  "internalType": "bytes32",
                  "name": "gameHash",
                  "type": "bytes32"
                },
                {
                  "components": [
                    {
                      "components": [
                        {
                          "internalType": "bytes32",
                          "name": "gameHash",
                          "type": "bytes32"
                        },
                        {
                          "internalType": "string",
                          "name": "ipfsCid",
                          "type": "string"
                        },
                        {
                          "internalType": "string",
                          "name": "imageCid",
                          "type": "string"
                        }
                      ],
                      "internalType": "struct Vaultium.GameVersion",
                      "name": "gameVersion",
                      "type": "tuple"
                    },
                    {
                      "components": [
                        {
                          "internalType": "uint32",
                          "name": "pointsCount",
                          "type": "uint32"
                        },
                        {
                          "internalType": "address",
                          "name": "voterAddress",
                          "type": "address"
                        }
                      ],
                      "internalType": "struct Vaultium.VoteInfo[]",
                      "name": "votes",
                      "type": "tuple[]"
                    }
                  ],
                  "internalType": "struct Vaultium.ChallengeVersionResponse",
                  "name": "currentChallengeVersion",
                  "type": "tuple"
                },
                {
                  "components": [
                    {
                      "components": [
                        {
                          "internalType": "bytes32",
                          "name": "gameHash",
                          "type": "bytes32"
                        },
                        {
                          "internalType": "string",
                          "name": "ipfsCid",
                          "type": "string"
                        },
                        {
                          "internalType": "string",
                          "name": "imageCid",
                          "type": "string"
                        }
                      ],
                      "internalType": "struct Vaultium.GameVersion",
                      "name": "gameVersion",
                      "type": "tuple"
                    },
                    {
                      "components": [
                        {
                          "internalType": "uint32",
                          "name": "pointsCount",
                          "type": "uint32"
                        },
                        {
                          "internalType": "address",
                          "name": "voterAddress",
                          "type": "address"
                        }
                      ],
                      "internalType": "struct Vaultium.VoteInfo[]",
                      "name": "votes",
                      "type": "tuple[]"
                    }
                  ],
                  "internalType": "struct Vaultium.ChallengeVersionResponse",
                  "name": "newChallengeVersion",
                  "type": "tuple"
                },
                {
                  "internalType": "uint256",
                  "name": "currentVersionPoints",
                  "type": "uint256"
                },
                {
                  "internalType": "uint256",
                  "name": "newVersionPoints",
                  "type": "uint256"
                },
                {
                  "internalType": "uint256",
                  "name": "creationDate",
                  "type": "uint256"
                },
                {
                  "internalType": "uint256",
                  "name": "closingDate",
                  "type": "uint256"
                }
              ],
              "internalType": "struct Vaultium.ChallengeResponse",
              "name": "",
              "type": "tuple"
            }
          ],
          "stateMutability": "nonpayable",
          "type": "function"
        }
      ],
      "evm": {
        "bytecode": {
          "linkReferences": {},
          "object": "6080604052348015600f57600080fd5b506040516146133803806146138339818101604052810190602f919060b1565b336000806101000a81548173ffffffffffffffffffffffffffffffffffffffff021916908373ffffffffffffffffffffffffffffffffffffffff160217905550806004819055505060d9565b600080fd5b6000819050919050565b6091816080565b8114609b57600080fd5b50565b60008151905060ab81608a565b92915050565b60006020828403121560c45760c3607b565b5b600060d084828501609e565b91505092915050565b61452b806100e86000396000f3fe608060405234801561001057600080fd5b50600436106100935760003560e01c80638da5cb5b116100665780638da5cb5b1461015f578063c61d05761461017d578063cd64c942146101ad578063de53e35e146101dd578063fd3997021461020d57610093565b80632388f2cf146100985780636af6f24e146100c85780636d25d153146100f85780638c1cdb4a14610128575b600080fd5b6100b260048036038101906100ad9190612f27565b61023d565b6040516100bf9190612f6d565b60405180910390f35b6100e260048036038101906100dd9190612ffc565b61025b565b6040516100ef9190613369565b60405180910390f35b610112600480360381019061010d9190612f27565b6108e3565b60405161011f9190612f6d565b60405180910390f35b610142600480360381019061013d9190612f27565b610901565b604051610156989796959493929190613410565b60405180910390f35b610167610c0c565b60405161017491906134d2565b60405180910390f35b61019760048036038101906101929190613552565b610c30565b6040516101a49190613369565b60405180910390f35b6101c760048036038101906101c29190612f27565b611410565b6040516101d491906136a9565b60405180910390f35b6101f760048036038101906101f29190612f27565b61169a565b6040516102049190613830565b60405180910390f35b6102276004803603810190610222919061387e565b6117c5565b6040516102349190613a31565b60405180910390f35b60036020528060005260406000206000915090508060010154905081565b610263612dd3565b60006001600086815260200190815260200160002060010160009054906101000a900461ffff1661ffff16116102ce576040517f08c379a00000000000000000000000000000000000000000000000000000000081526004016102c590613a9f565b60405180910390fd5b60006102d985611bcb565b90508061031b576040517f08c379a000000000000000000000000000000000000000000000000000000000815260040161031290613b0b565b60405180910390fd5b60008363ffffffff1611801561033957506127108363ffffffff1611155b610378576040517f08c379a000000000000000000000000000000000000000000000000000000000815260040161036f90613b9d565b60405180910390fd5b61038183611c61565b6103c0576040517f08c379a00000000000000000000000000000000000000000000000000000000081526004016103b790613c2f565b60405180910390fd5b6103ca8533611c7b565b1561040a576040517f08c379a000000000000000000000000000000000000000000000000000000000815260040161040190613cc1565b60405180910390fd5b600061041584611ee6565b905084156106475760006002600088815260200190815260200160002060000160006001600260008b81526020019081526020016000206001015461045a9190613d10565b81526020019081526020016000206006016004015490506002600088815260200190815260200160002060000160006001600260008b8152602001908152602001600020600101546104ac9190613d10565b815260200190815260200160002060060160040160008154809291906104d190613d44565b919050555060405180604001604052808363ffffffff1681526020013373ffffffffffffffffffffffffffffffffffffffff168152506002600089815260200190815260200160002060000160006001600260008c8152602001908152602001600020600101546105429190613d10565b8152602001908152602001600020600601600301600083815260200190815260200160002060008201518160000160006101000a81548163ffffffff021916908363ffffffff16021790555060208201518160000160046101000a81548173ffffffffffffffffffffffffffffffffffffffff021916908373ffffffffffffffffffffffffffffffffffffffff1602179055509050508163ffffffff166002600089815260200190815260200160002060000160006001600260008c81526020019081526020016000206001015461061a9190613d10565b8152602001908152602001600020600c01600082825461063a9190613d8c565b925050819055505061086d565b60006002600088815260200190815260200160002060000160006001600260008b8152602001908152602001600020600101546106849190613d10565b81526020019081526020016000206001016004015490506002600088815260200190815260200160002060000160006001600260008b8152602001908152602001600020600101546106d69190613d10565b815260200190815260200160002060010160040160008154809291906106fb90613d44565b919050555060405180604001604052808363ffffffff1681526020013373ffffffffffffffffffffffffffffffffffffffff168152506002600089815260200190815260200160002060000160006001600260008c81526020019081526020016000206001015461076c9190613d10565b8152602001908152602001600020600101600301600083815260200190815260200160002060008201518160000160006101000a81548163ffffffff021916908363ffffffff16021790555060208201518160000160046101000a81548173ffffffffffffffffffffffffffffffffffffffff021916908373ffffffffffffffffffffffffffffffffffffffff1602179055509050508163ffffffff166002600089815260200190815260200160002060000160006001600260008c8152602001908152602001600020600101546108449190613d10565b8152602001908152602001600020600b0160008282546108649190613d8c565b92505081905550505b600061089b876001600260008b8152602001908152602001600020600101546108969190613d10565b611f51565b90507f7f80e2e84cb241d82c34b3897910e66e96fc5992305b1f81dedd50503fdc17ff87826040516108ce929190613dc0565b60405180910390a18093505050509392505050565b60026020528060005260406000206000915090508060010154905081565b600160205280600052604060002060009150905080600001805461092490613e1f565b80601f016020809104026020016040519081016040528092919081815260200182805461095090613e1f565b801561099d5780601f106109725761010080835404028352916020019161099d565b820191906000526020600020905b81548152906001019060200180831161098057829003601f168201915b5050505050908060010160009054906101000a900461ffff16908060020180546109c690613e1f565b80601f01602080910402602001604051908101604052809291908181526020018280546109f290613e1f565b8015610a3f5780601f10610a1457610100808354040283529160200191610a3f565b820191906000526020600020905b815481529060010190602001808311610a2257829003601f168201915b505050505090806003018054610a5490613e1f565b80601f0160208091040260200160405190810160405280929190818152602001828054610a8090613e1f565b8015610acd5780601f10610aa257610100808354040283529160200191610acd565b820191906000526020600020905b815481529060010190602001808311610ab057829003601f168201915b505050505090806004018054610ae290613e1f565b80601f0160208091040260200160405190810160405280929190818152602001828054610b0e90613e1f565b8015610b5b5780601f10610b3057610100808354040283529160200191610b5b565b820191906000526020600020905b815481529060010190602001808311610b3e57829003601f168201915b5050505050908060050160009054906101000a900460ff1690806006018054610b8390613e1f565b80601f0160208091040260200160405190810160405280929190818152602001828054610baf90613e1f565b8015610bfc5780601f10610bd157610100808354040283529160200191610bfc565b820191906000526020600020905b815481529060010190602001808311610bdf57829003601f168201915b5050505050908060070154905088565b60008054906101000a900473ffffffffffffffffffffffffffffffffffffffff1681565b610c38612dd3565b60006001600088815260200190815260200160002060010160009054906101000a900461ffff1661ffff1611610ca3576040517f08c379a0000000000000000000000000000000000000000000000000000000008152600401610c9a90613a9f565b60405180910390fd5b6000610cae87611bcb565b90508015610cf1576040517f08c379a0000000000000000000000000000000000000000000000000000000008152600401610ce890613e9c565b60405180910390fd5b610cfa87612650565b60006040518060e00160405280898152602001604051806040016040528060405180606001604052808d8152602001600160008f81526020019081526020016000206003018054610d4a90613e1f565b80601f0160208091040260200160405190810160405280929190818152602001828054610d7690613e1f565b8015610dc35780601f10610d9857610100808354040283529160200191610dc3565b820191906000526020600020905b815481529060010190602001808311610da657829003601f168201915b50505050508152602001600160008f81526020019081526020016000206004018054610dee90613e1f565b80601f0160208091040260200160405190810160405280929190818152602001828054610e1a90613e1f565b8015610e675780601f10610e3c57610100808354040283529160200191610e67565b820191906000526020600020905b815481529060010190602001808311610e4a57829003601f168201915b50505050508152508152602001600067ffffffffffffffff811115610e8f57610e8e613ebc565b5b604051908082528060200260200182016040528015610ec857816020015b610eb5612e1f565b815260200190600190039081610ead5790505b508152508152602001604051806040016040528060405180606001604052808d81526020018c8c8080601f016020809104026020016040519081016040528093929190818152602001838380828437600081840152601f19601f8201169050808301925050505050505081526020018a8a8080601f016020809104026020016040519081016040528093929190818152602001838380828437600081840152601f19601f820116905080830192505050505050508152508152602001600067ffffffffffffffff811115610f9f57610f9e613ebc565b5b604051908082528060200260200182016040528015610fd857816020015b610fc5612e1f565b815260200190600190039081610fbd5790505b5081525081526020016000815260200160008152602001428152602001600454426110039190613d8c565b81525090506000600260008a8152602001908152602001600020600101549050600260008a8152602001908152602001600020600101600081548092919061104a90613d44565b919050555088600260008b815260200190815260200160002060000160008381526020019081526020016000206000018190555060405180606001604052808a815260200189898080601f016020809104026020016040519081016040528093929190818152602001838380828437600081840152601f19601f82011690508083019250505050505050815260200187878080601f016020809104026020016040519081016040528093929190818152602001838380828437600081840152601f19601f82011690508083019250505050505050815250600260008b8152602001908152602001600020600001600083815260200190815260200160002060010160000160008201518160000155602082015181600101908161116d9190614097565b5060408201518160020190816111839190614097565b509050506000600260008b815260200190815260200160002060000160008381526020019081526020016000206001016004018190555060405180606001604052808a815260200189898080601f016020809104026020016040519081016040528093929190818152602001838380828437600081840152601f19601f82011690508083019250505050505050815260200187878080601f016020809104026020016040519081016040528093929190818152602001838380828437600081840152601f19601f82011690508083019250505050505050815250600260008b815260200190815260200160002060000160008381526020019081526020016000206006016000016000820151816000015560208201518160010190816112a99190614097565b5060408201518160020190816112bf9190614097565b509050506000600260008b81526020019081526020016000206000016000838152602001908152602001600020600601600401819055508160c00151600260008b81526020019081526020016000206000016000838152602001908152602001600020600e01819055508160a00151600260008b81526020019081526020016000206000016000838152602001908152602001600020600d01819055508160600151600260008b81526020019081526020016000206000016000838152602001908152602001600020600b01819055508160800151600260008b81526020019081526020016000206000016000838152602001908152602001600020600c01819055507f353f671708cd6413b2b74d3e106ef3692b2b8338e54d08716e7bff60a869485a89898989896040516113f99594939291906141a5565b60405180910390a181935050505095945050505050565b606060006001600084815260200190815260200160002060010160009054906101000a900461ffff1661ffff161161147d576040517f08c379a000000000000000000000000000000000000000000000000000000000815260040161147490613a9f565b60405180910390fd5b61148682612650565b60006003600084815260200190815260200160002060010154905060008167ffffffffffffffff8111156114bd576114bc613ebc565b5b6040519080825280602002602001820160405280156114f657816020015b6114e3612e55565b8152602001906001900390816114db5790505b50905060005b8281101561168f576003600086815260200190815260200160002060000160008281526020019081526020016000206040518060600160405290816000820154815260200160018201805461155090613e1f565b80601f016020809104026020016040519081016040528092919081815260200182805461157c90613e1f565b80156115c95780601f1061159e576101008083540402835291602001916115c9565b820191906000526020600020905b8154815290600101906020018083116115ac57829003601f168201915b505050505081526020016002820180546115e290613e1f565b80601f016020809104026020016040519081016040528092919081815260200182805461160e90613e1f565b801561165b5780601f106116305761010080835404028352916020019161165b565b820191906000526020600020905b81548152906001019060200180831161163e57829003601f168201915b505050505081525050828281518110611677576116766141ee565b5b602002602001018190525080806001019150506114fc565b508092505050919050565b606060006001600084815260200190815260200160002060010160009054906101000a900461ffff1661ffff1611611707576040517f08c379a00000000000000000000000000000000000000000000000000000000081526004016116fe90613a9f565b60405180910390fd5b60006002600084815260200190815260200160002060010154905060008167ffffffffffffffff81111561173e5761173d613ebc565b5b60405190808252806020026020018201604052801561177757816020015b611764612dd3565b81526020019060019003908161175c5790505b50905060005b828110156117ba5761178f8582611f51565b8282815181106117a2576117a16141ee565b5b6020026020010181905250808060010191505061177d565b508092505050919050565b6117cd612e79565b60008888905011611813576040517f08c379a000000000000000000000000000000000000000000000000000000000815260040161180a90614269565b60405180910390fd5b60008484905011611859576040517f08c379a0000000000000000000000000000000000000000000000000000000008152600401611850906142d5565b60405180910390fd5b60008261ffff16116118a0576040517f08c379a000000000000000000000000000000000000000000000000000000000815260040161189790614341565b60405180910390fd5b600061193589898080601f016020809104026020016040519081016040528093929190818152602001838380828437600081840152601f19601f820116905080830192505050505050508487878080601f016020809104026020016040519081016040528093929190818152602001838380828437600081840152601f19601f82011690508083019250505050505050612cbf565b905061194081612650565b60006040518061010001604052808b8b8080601f016020809104026020016040519081016040528093929190818152602001838380828437600081840152601f19601f8201169050808301925050505050505081526020018561ffff16815260200187878080601f016020809104026020016040519081016040528093929190818152602001838380828437600081840152601f19601f82011690508083019250505050505050815260200160405180602001604052806000815250815260200160405180602001604052806000815250815260200160011515815260200189898080601f016020809104026020016040519081016040528093929190818152602001838380828437600081840152601f19601f82011690508083019250505050505050815260200183815250905060006001600084815260200190815260200160002060010160009054906101000a900461ffff1661ffff1603611bbb5780600160008481526020019081526020016000206000820151816000019081611ac89190614097565b5060208201518160010160006101000a81548161ffff021916908361ffff1602179055506040820151816002019081611b019190614097565b506060820151816003019081611b179190614097565b506080820151816004019081611b2d9190614097565b5060a08201518160050160006101000a81548160ff02191690831515021790555060c0820151816006019081611b639190614097565b5060e082015181600701559050507fe221857cdf5c581b0f0ff25967667b13da78f93170ee70eed41682cd2195ad4682826000015183604001518460200151604051611bb29493929190614392565b60405180910390a15b8092505050979650505050505050565b600080600260008481526020019081526020016000206001015403611bf35760009050611c5c565b600060026000848152602001908152602001600020600001600060016002600087815260200190815260200160002060010154611c309190613d10565b8152602001908152602001600020600e0154905042811015611c56576000915050611c5c565b60019150505b919050565b600080611c6d83611ee6565b63ffffffff16119050919050565b60008060026000858152602001908152602001600020600001600060016002600088815260200190815260200160002060010154611cb99190613d10565b815260200190815260200160002060060160040154905060005b81811015611da9578373ffffffffffffffffffffffffffffffffffffffff166002600087815260200190815260200160002060000160006001600260008a815260200190815260200160002060010154611d2d9190613d10565b8152602001908152602001600020600601600301600083815260200190815260200160002060000160049054906101000a900473ffffffffffffffffffffffffffffffffffffffff1673ffffffffffffffffffffffffffffffffffffffff1603611d9c57600192505050611ee0565b8080600101915050611cd3565b50600060026000868152602001908152602001600020600001600060016002600089815260200190815260200160002060010154611de79190613d10565b815260200190815260200160002060010160040154905060005b81811015611ed8578473ffffffffffffffffffffffffffffffffffffffff166002600088815260200190815260200160002060000160006001600260008b815260200190815260200160002060010154611e5b9190613d10565b8152602001908152602001600020600101600301600083815260200190815260200160002060000160049054906101000a900473ffffffffffffffffffffffffffffffffffffffff1673ffffffffffffffffffffffffffffffffffffffff1603611ecb5760019350505050611ee0565b8080600101915050611e01565b506000925050505b92915050565b600080600190505b8263ffffffff168182611f0191906143e5565b63ffffffff1611611f46578263ffffffff168182611f1f91906143e5565b63ffffffff1603611f335780915050611f4c565b8080611f3e90614422565b915050611eee565b50600090505b919050565b611f59612dd3565b60006002600085815260200190815260200160002060000160008481526020019081526020016000206001016004015467ffffffffffffffff811115611fa257611fa1613ebc565b5b604051908082528060200260200182016040528015611fdb57816020015b611fc8612e1f565b815260200190600190039081611fc05790505b50905060005b81518110156120da5760026000868152602001908152602001600020600001600085815260200190815260200160002060010160030160008281526020019081526020016000206040518060400160405290816000820160009054906101000a900463ffffffff1663ffffffff1663ffffffff1681526020016000820160049054906101000a900473ffffffffffffffffffffffffffffffffffffffff1673ffffffffffffffffffffffffffffffffffffffff1673ffffffffffffffffffffffffffffffffffffffff16815250508282815181106120c2576120c16141ee565b5b60200260200101819052508080600101915050611fe1565b5060006002600086815260200190815260200160002060000160008581526020019081526020016000206006016004015467ffffffffffffffff81111561212457612123613ebc565b5b60405190808252806020026020018201604052801561215d57816020015b61214a612e1f565b8152602001906001900390816121425790505b50905060005b815181101561225c5760026000878152602001908152602001600020600001600086815260200190815260200160002060060160030160008281526020019081526020016000206040518060400160405290816000820160009054906101000a900463ffffffff1663ffffffff1663ffffffff1681526020016000820160049054906101000a900473ffffffffffffffffffffffffffffffffffffffff1673ffffffffffffffffffffffffffffffffffffffff1673ffffffffffffffffffffffffffffffffffffffff1681525050828281518110612244576122436141ee565b5b60200260200101819052508080600101915050612163565b5060006040518060e00160405280878152602001604051806040016040528060405180606001604052808b8152602001600160008d815260200190815260200160002060030180546122ad90613e1f565b80601f01602080910402602001604051908101604052809291908181526020018280546122d990613e1f565b80156123265780601f106122fb57610100808354040283529160200191612326565b820191906000526020600020905b81548152906001019060200180831161230957829003601f168201915b50505050508152602001600160008d8152602001908152602001600020600401805461235190613e1f565b80601f016020809104026020016040519081016040528092919081815260200182805461237d90613e1f565b80156123ca5780601f1061239f576101008083540402835291602001916123ca565b820191906000526020600020905b8154815290600101906020018083116123ad57829003601f168201915b50505050508152508152602001868152508152602001604051806040016040528060405180606001604052808b8152602001600260008d815260200190815260200160002060000160008c8152602001908152602001600020600601600001600101805461243790613e1f565b80601f016020809104026020016040519081016040528092919081815260200182805461246390613e1f565b80156124b05780601f10612485576101008083540402835291602001916124b0565b820191906000526020600020905b81548152906001019060200180831161249357829003601f168201915b50505050508152602001600260008d815260200190815260200160002060000160008c815260200190815260200160002060060160000160020180546124f590613e1f565b80601f016020809104026020016040519081016040528092919081815260200182805461252190613e1f565b801561256e5780601f106125435761010080835404028352916020019161256e565b820191906000526020600020905b81548152906001019060200180831161255157829003601f168201915b50505050508152508152602001858152508152602001600260008981526020019081526020016000206000016000888152602001908152602001600020600b01548152602001600260008981526020019081526020016000206000016000888152602001908152602001600020600c01548152602001600260008981526020019081526020016000206000016000888152602001908152602001600020600d01548152602001600260008981526020019081526020016000206000016000888152602001908152602001600020600e0154815250905080935050505092915050565b6000806002600084815260200190815260200160002060010154119050806126785750612cbc565b600042600260008581526020019081526020016000206000016000600160026000888152602001908152602001600020600101546126b69190613d10565b8152602001908152602001600020600e015411905080156126d8575050612cbc565b6000600260008581526020019081526020016000206000016000600160026000888152602001908152602001600020600101546127159190613d10565b8152602001908152602001600020600b0154600260008681526020019081526020016000206000016000600160026000898152602001908152602001600020600101546127629190613d10565b8152602001908152602001600020600c01541190508061278457505050612cbc565b6000600260008681526020019081526020016000206000016000600160026000898152602001908152602001600020600101546127c19190613d10565b815260200190815260200160002060060160000160010180546127e390613e1f565b80601f016020809104026020016040519081016040528092919081815260200182805461280f90613e1f565b801561285c5780601f106128315761010080835404028352916020019161285c565b820191906000526020600020905b81548152906001019060200180831161283f57829003601f168201915b5050505050905060006002600087815260200190815260200160002060000160006001600260008a8152602001908152602001600020600101546128a09190613d10565b815260200190815260200160002060060160000160020180546128c290613e1f565b80601f01602080910402602001604051908101604052809291908181526020018280546128ee90613e1f565b801561293b5780601f106129105761010080835404028352916020019161293b565b820191906000526020600020905b81548152906001019060200180831161291e57829003601f168201915b5050505050905060008060036000898152602001908152602001600020600101541115612b2957612a406003600089815260200190815260200160002060000160006001600360008c8152602001908152602001600020600101546129a09190613d10565b815260200190815260200160002060010180546129bc90613e1f565b80601f01602080910402602001604051908101604052809291908181526020018280546129e890613e1f565b8015612a355780601f10612a0a57610100808354040283529160200191612a35565b820191906000526020600020905b815481529060010190602001808311612a1857829003601f168201915b505050505084612cf5565b8015612b265750612b256003600089815260200190815260200160002060000160006001600360008c815260200190815260200160002060010154612a859190613d10565b81526020019081526020016000206002018054612aa190613e1f565b80601f0160208091040260200160405190810160405280929190818152602001828054612acd90613e1f565b8015612b1a5780601f10612aef57610100808354040283529160200191612b1a565b820191906000526020600020905b815481529060010190602001808311612afd57829003601f168201915b505050505083612cf5565b5b90505b8015612b3a57505050505050612cbc565b600360008881526020019081526020016000206001016000815480929190612b6190613d44565b91905055506040518060600160405280888152602001848152602001838152506003600089815260200190815260200160002060000160006001600360008c815260200190815260200160002060010154612bbc9190613d10565b8152602001908152602001600020600082015181600001556020820151816001019081612be99190614097565b506040820151816002019081612bff9190614097565b5090505082600160008981526020019081526020016000206003019081612c269190614097565b5081600160008981526020019081526020016000206004019081612c4a9190614097565b506000612c79886001600260008c815260200190815260200160002060010154612c749190613d10565b611f51565b90507f24ae00925eed453f35c045d978ccff15182afe2e0714dbeb51846c560020d4728882604051612cac929190613dc0565b60405180910390a1505050505050505b50565b6000838383604051602001612cd6939291906144c0565b6040516020818303038152906040528051906020012090509392505050565b600080839050600083905060008251905081518114612d1a5760009350505050612dcd565b60005b81811015612dc457828181518110612d3857612d376141ee565b5b602001015160f81c60f81b7effffffffffffffffffffffffffffffffffffffffffffffffffffffffffffff1916848281518110612d7857612d776141ee565b5b602001015160f81c60f81b7effffffffffffffffffffffffffffffffffffffffffffffffffffffffffffff191614612db7576000945050505050612dcd565b8080600101915050612d1d565b50600193505050505b92915050565b6040518060e0016040528060008019168152602001612df0612ec7565b8152602001612dfd612ec7565b8152602001600081526020016000815260200160008152602001600081525090565b6040518060400160405280600063ffffffff168152602001600073ffffffffffffffffffffffffffffffffffffffff1681525090565b60405180606001604052806000801916815260200160608152602001606081525090565b60405180610100016040528060608152602001600061ffff16815260200160608152602001606081526020016060815260200160001515815260200160608152602001600080191681525090565b6040518060400160405280612eda612e55565b8152602001606081525090565b600080fd5b600080fd5b6000819050919050565b612f0481612ef1565b8114612f0f57600080fd5b50565b600081359050612f2181612efb565b92915050565b600060208284031215612f3d57612f3c612ee7565b5b6000612f4b84828501612f12565b91505092915050565b6000819050919050565b612f6781612f54565b82525050565b6000602082019050612f826000830184612f5e565b92915050565b60008115159050919050565b612f9d81612f88565b8114612fa857600080fd5b50565b600081359050612fba81612f94565b92915050565b600063ffffffff82169050919050565b612fd981612fc0565b8114612fe457600080fd5b50565b600081359050612ff681612fd0565b92915050565b60008060006060848603121561301557613014612ee7565b5b600061302386828701612f12565b935050602061303486828701612fab565b925050604061304586828701612fe7565b9150509250925092565b61305881612ef1565b82525050565b600081519050919050565b600082825260208201905092915050565b60005b8381101561309857808201518184015260208101905061307d565b60008484015250505050565b6000601f19601f8301169050919050565b60006130c08261305e565b6130ca8185613069565b93506130da81856020860161307a565b6130e3816130a4565b840191505092915050565b6000606083016000830151613106600086018261304f565b506020830151848203602086015261311e82826130b5565b9150506040830151848203604086015261313882826130b5565b9150508091505092915050565b600081519050919050565b600082825260208201905092915050565b6000819050602082019050919050565b61317a81612fc0565b82525050565b600073ffffffffffffffffffffffffffffffffffffffff82169050919050565b60006131ab82613180565b9050919050565b6131bb816131a0565b82525050565b6040820160008201516131d76000850182613171565b5060208201516131ea60208501826131b2565b50505050565b60006131fc83836131c1565b60408301905092915050565b6000602082019050919050565b600061322082613145565b61322a8185613150565b935061323583613161565b8060005b8381101561326657815161324d88826131f0565b975061325883613208565b925050600181019050613239565b5085935050505092915050565b6000604083016000830151848203600086015261329082826130ee565b915050602083015184820360208601526132aa8282613215565b9150508091505092915050565b6132c081612f54565b82525050565b600060e0830160008301516132de600086018261304f565b50602083015184820360208601526132f68282613273565b915050604083015184820360408601526133108282613273565b915050606083015161332560608601826132b7565b50608083015161333860808601826132b7565b5060a083015161334b60a08601826132b7565b5060c083015161335e60c08601826132b7565b508091505092915050565b6000602082019050818103600083015261338381846132c6565b905092915050565b600082825260208201905092915050565b60006133a78261305e565b6133b1818561338b565b93506133c181856020860161307a565b6133ca816130a4565b840191505092915050565b600061ffff82169050919050565b6133ec816133d5565b82525050565b6133fb81612f88565b82525050565b61340a81612ef1565b82525050565b600061010082019050818103600083015261342b818b61339c565b905061343a602083018a6133e3565b818103604083015261344c818961339c565b90508181036060830152613460818861339c565b90508181036080830152613474818761339c565b905061348360a08301866133f2565b81810360c0830152613495818561339c565b90506134a460e0830184613401565b9998505050505050505050565b60006134bc82613180565b9050919050565b6134cc816134b1565b82525050565b60006020820190506134e760008301846134c3565b92915050565b600080fd5b600080fd5b600080fd5b60008083601f840112613512576135116134ed565b5b8235905067ffffffffffffffff81111561352f5761352e6134f2565b5b60208301915083600182028301111561354b5761354a6134f7565b5b9250929050565b60008060008060006060868803121561356e5761356d612ee7565b5b600061357c88828901612f12565b955050602086013567ffffffffffffffff81111561359d5761359c612eec565b5b6135a9888289016134fc565b9450945050604086013567ffffffffffffffff8111156135cc576135cb612eec565b5b6135d8888289016134fc565b92509250509295509295909350565b600081519050919050565b600082825260208201905092915050565b6000819050602082019050919050565b600061361f83836130ee565b905092915050565b6000602082019050919050565b600061363f826135e7565b61364981856135f2565b93508360208202850161365b85613603565b8060005b8581101561369757848403895281516136788582613613565b945061368383613627565b925060208a0199505060018101905061365f565b50829750879550505050505092915050565b600060208201905081810360008301526136c38184613634565b905092915050565b600081519050919050565b600082825260208201905092915050565b6000819050602082019050919050565b600060e08301600083015161370f600086018261304f565b50602083015184820360208601526137278282613273565b915050604083015184820360408601526137418282613273565b915050606083015161375660608601826132b7565b50608083015161376960808601826132b7565b5060a083015161377c60a08601826132b7565b5060c083015161378f60c08601826132b7565b508091505092915050565b60006137a683836136f7565b905092915050565b6000602082019050919050565b60006137c6826136cb565b6137d081856136d6565b9350836020820285016137e2856136e7565b8060005b8581101561381e57848403895281516137ff858261379a565b945061380a836137ae565b925060208a019950506001810190506137e6565b50829750879550505050505092915050565b6000602082019050818103600083015261384a81846137bb565b905092915050565b61385b816133d5565b811461386657600080fd5b50565b60008135905061387881613852565b92915050565b60008060008060008060006080888a03121561389d5761389c612ee7565b5b600088013567ffffffffffffffff8111156138bb576138ba612eec565b5b6138c78a828b016134fc565b9750975050602088013567ffffffffffffffff8111156138ea576138e9612eec565b5b6138f68a828b016134fc565b9550955050604088013567ffffffffffffffff81111561391957613918612eec565b5b6139258a828b016134fc565b935093505060606139388a828b01613869565b91505092959891949750929550565b613950816133d5565b82525050565b61395f81612f88565b82525050565b600061010083016000830151848203600086015261398382826130b5565b91505060208301516139986020860182613947565b50604083015184820360408601526139b082826130b5565b915050606083015184820360608601526139ca82826130b5565b915050608083015184820360808601526139e482826130b5565b91505060a08301516139f960a0860182613956565b5060c083015184820360c0860152613a1182826130b5565b91505060e0830151613a2660e086018261304f565b508091505092915050565b60006020820190508181036000830152613a4b8184613965565b905092915050565b7f47616d65206e6f7420666f756e64000000000000000000000000000000000000600082015250565b6000613a89600e8361338b565b9150613a9482613a53565b602082019050919050565b60006020820190508181036000830152613ab881613a7c565b9050919050565b7f4368616c6c656e6765206e6f7420666f756e6400000000000000000000000000600082015250565b6000613af560138361338b565b9150613b0082613abf565b602082019050919050565b60006020820190508181036000830152613b2481613ae8565b9050919050565b7f596f752063616e20757365206265747765656e203120616e642031303030302060008201527f746f6b656e730000000000000000000000000000000000000000000000000000602082015250565b6000613b8760268361338b565b9150613b9282613b2b565b604082019050919050565b60006020820190508181036000830152613bb681613b7a565b9050919050565b7f596f75206d75737420766f74652077697468206120737175617265206e756d6260008201527f6572206f6620746f6b656e730000000000000000000000000000000000000000602082015250565b6000613c19602c8361338b565b9150613c2482613bbd565b604082019050919050565b60006020820190508181036000830152613c4881613c0c565b9050919050565b7f557365722068617320616c726561647920766f74656420696e2074686973206360008201527f68616c6c656e6765000000000000000000000000000000000000000000000000602082015250565b6000613cab60288361338b565b9150613cb682613c4f565b604082019050919050565b60006020820190508181036000830152613cda81613c9e565b9050919050565b7f4e487b7100000000000000000000000000000000000000000000000000000000600052601160045260246000fd5b6000613d1b82612f54565b9150613d2683612f54565b9250828203905081811115613d3e57613d3d613ce1565b5b92915050565b6000613d4f82612f54565b91507fffffffffffffffffffffffffffffffffffffffffffffffffffffffffffffffff8203613d8157613d80613ce1565b5b600182019050919050565b6000613d9782612f54565b9150613da283612f54565b9250828201905080821115613dba57613db9613ce1565b5b92915050565b6000604082019050613dd56000830185613401565b8181036020830152613de781846132c6565b90509392505050565b7f4e487b7100000000000000000000000000000000000000000000000000000000600052602260045260246000fd5b60006002820490506001821680613e3757607f821691505b602082108103613e4a57613e49613df0565b5b50919050565b7f4368616c6c656e676520616c7265616479206578697374656400000000000000600082015250565b6000613e8660198361338b565b9150613e9182613e50565b602082019050919050565b60006020820190508181036000830152613eb581613e79565b9050919050565b7f4e487b7100000000000000000000000000000000000000000000000000000000600052604160045260246000fd5b60008190508160005260206000209050919050565b60006020601f8301049050919050565b600082821b905092915050565b600060088302613f4d7fffffffffffffffffffffffffffffffffffffffffffffffffffffffffffffffff82613f10565b613f578683613f10565b95508019841693508086168417925050509392505050565b6000819050919050565b6000613f94613f8f613f8a84612f54565b613f6f565b612f54565b9050919050565b6000819050919050565b613fae83613f79565b613fc2613fba82613f9b565b848454613f1d565b825550505050565b600090565b613fd7613fca565b613fe2818484613fa5565b505050565b5b8181101561400657613ffb600082613fcf565b600181019050613fe8565b5050565b601f82111561404b5761401c81613eeb565b61402584613f00565b81016020851015614034578190505b61404861404085613f00565b830182613fe7565b50505b505050565b600082821c905092915050565b600061406e60001984600802614050565b1980831691505092915050565b6000614087838361405d565b9150826002028217905092915050565b6140a08261305e565b67ffffffffffffffff8111156140b9576140b8613ebc565b5b6140c38254613e1f565b6140ce82828561400a565b600060209050601f83116001811461410157600084156140ef578287015190505b6140f9858261407b565b865550614161565b601f19841661410f86613eeb565b60005b8281101561413757848901518255600182019150602085019450602081019050614112565b868310156141545784890151614150601f89168261405d565b8355505b6001600288020188555050505b505050505050565b82818337600083830152505050565b6000614184838561338b565b9350614191838584614169565b61419a836130a4565b840190509392505050565b60006060820190506141ba6000830188613401565b81810360208301526141cd818688614178565b905081810360408301526141e2818486614178565b90509695505050505050565b7f4e487b7100000000000000000000000000000000000000000000000000000000600052603260045260246000fd5b7f496e76616c6964206e616d650000000000000000000000000000000000000000600082015250565b6000614253600c8361338b565b915061425e8261421d565b602082019050919050565b6000602082019050818103600083015261428281614246565b9050919050565b7f496e76616c6964207075626c6973686572000000000000000000000000000000600082015250565b60006142bf60118361338b565b91506142ca82614289565b602082019050919050565b600060208201905081810360008301526142ee816142b2565b9050919050565b7f496e76616c696420796561720000000000000000000000000000000000000000600082015250565b600061432b600c8361338b565b9150614336826142f5565b602082019050919050565b6000602082019050818103600083015261435a8161431e565b9050919050565b600061437c614377614372846133d5565b613f6f565b612f54565b9050919050565b61438c81614361565b82525050565b60006080820190506143a76000830187613401565b81810360208301526143b9818661339c565b905081810360408301526143cd818561339c565b90506143dc6060830184614383565b95945050505050565b60006143f082612fc0565b91506143fb83612fc0565b925082820261440981612fc0565b915080821461441b5761441a613ce1565b5b5092915050565b600061442d82612fc0565b915063ffffffff820361444357614442613ce1565b5b600182019050919050565b600081905092915050565b60006144648261305e565b61446e818561444e565b935061447e81856020860161307a565b80840191505092915050565b60008160f01b9050919050565b60006144a28261448a565b9050919050565b6144ba6144b5826133d5565b614497565b82525050565b60006144cc8286614459565b91506144d882856144a9565b6002820191506144e88284614459565b915081905094935050505056fea2646970667358221220d8477c67ce9846f9a5a75232f20c40dbc806dab1372e8a50a5db68b1fabd2f1864736f6c63430008190033",
          "opcodes": "PUSH1 0x80 PUSH1 0x40 MSTORE CALLVALUE DUP1 ISZERO PUSH1 0xF JUMPI PUSH1 0x0 DUP1 REVERT JUMPDEST POP PUSH1 0x40 MLOAD PUSH2 0x4613 CODESIZE SUB DUP1 PUSH2 0x4613 DUP4 CODECOPY DUP2 DUP2 ADD PUSH1 0x40 MSTORE DUP2 ADD SWAP1 PUSH1 0x2F SWAP2 SWAP1 PUSH1 0xB1 JUMP JUMPDEST CALLER PUSH1 0x0 DUP1 PUSH2 0x100 EXP DUP2 SLOAD DUP2 PUSH20 0xFFFFFFFFFFFFFFFFFFFFFFFFFFFFFFFFFFFFFFFF MUL NOT AND SWAP1 DUP4 PUSH20 0xFFFFFFFFFFFFFFFFFFFFFFFFFFFFFFFFFFFFFFFF AND MUL OR SWAP1 SSTORE POP DUP1 PUSH1 0x4 DUP2 SWAP1 SSTORE POP POP PUSH1 0xD9 JUMP JUMPDEST PUSH1 0x0 DUP1 REVERT JUMPDEST PUSH1 0x0 DUP2 SWAP1 POP SWAP2 SWAP1 POP JUMP JUMPDEST PUSH1 0x91 DUP2 PUSH1 0x80 JUMP JUMPDEST DUP2 EQ PUSH1 0x9B JUMPI PUSH1 0x0 DUP1 REVERT JUMPDEST POP JUMP JUMPDEST PUSH1 0x0 DUP2 MLOAD SWAP1 POP PUSH1 0xAB DUP2 PUSH1 0x8A JUMP JUMPDEST SWAP3 SWAP2 POP POP JUMP JUMPDEST PUSH1 0x0 PUSH1 0x20 DUP3 DUP5 SUB SLT ISZERO PUSH1 0xC4 JUMPI PUSH1 0xC3 PUSH1 0x7B JUMP JUMPDEST JUMPDEST PUSH1 0x0 PUSH1 0xD0 DUP5 DUP3 DUP6 ADD PUSH1 0x9E JUMP JUMPDEST SWAP2 POP POP SWAP3 SWAP2 POP POP JUMP JUMPDEST PUSH2 0x452B DUP1 PUSH2 0xE8 PUSH1 0x0 CODECOPY PUSH1 0x0 RETURN INVALID PUSH1 0x80 PUSH1 0x40 MSTORE CALLVALUE DUP1 ISZERO PUSH2 0x10 JUMPI PUSH1 0x0 DUP1 REVERT JUMPDEST POP PUSH1 0x4 CALLDATASIZE LT PUSH2 0x93 JUMPI PUSH1 0x0 CALLDATALOAD PUSH1 0xE0 SHR DUP1 PUSH4 0x8DA5CB5B GT PUSH2 0x66 JUMPI DUP1 PUSH4 0x8DA5CB5B EQ PUSH2 0x15F JUMPI DUP1 PUSH4 0xC61D0576 EQ PUSH2 0x17D JUMPI DUP1 PUSH4 0xCD64C942 EQ PUSH2 0x1AD JUMPI DUP1 PUSH4 0xDE53E35E EQ PUSH2 0x1DD JUMPI DUP1 PUSH4 0xFD399702 EQ PUSH2 0x20D JUMPI PUSH2 0x93 JUMP JUMPDEST DUP1 PUSH4 0x2388F2CF EQ PUSH2 0x98 JUMPI DUP1 PUSH4 0x6AF6F24E EQ PUSH2 0xC8 JUMPI DUP1 PUSH4 0x6D25D153 EQ PUSH2 0xF8 JUMPI DUP1 PUSH4 0x8C1CDB4A EQ PUSH2 0x128 JUMPI JUMPDEST PUSH1 0x0 DUP1 REVERT JUMPDEST PUSH2 0xB2 PUSH1 0x4 DUP1 CALLDATASIZE SUB DUP2 ADD SWAP1 PUSH2 0xAD SWAP2 SWAP1 PUSH2 0x2F27 JUMP JUMPDEST PUSH2 0x23D JUMP JUMPDEST PUSH1 0x40 MLOAD PUSH2 0xBF SWAP2 SWAP1 PUSH2 0x2F6D JUMP JUMPDEST PUSH1 0x40 MLOAD DUP1 SWAP2 SUB SWAP1 RETURN JUMPDEST PUSH2 0xE2 PUSH1 0x4 DUP1 CALLDATASIZE SUB DUP2 ADD SWAP1 PUSH2 0xDD SWAP2 SWAP1 PUSH2 0x2FFC JUMP JUMPDEST PUSH2 0x25B JUMP JUMPDEST PUSH1 0x40 MLOAD PUSH2 0xEF SWAP2 SWAP1 PUSH2 0x3369 JUMP JUMPDEST PUSH1 0x40 MLOAD DUP1 SWAP2 SUB SWAP1 RETURN JUMPDEST PUSH2 0x112 PUSH1 0x4 DUP1 CALLDATASIZE SUB DUP2 ADD SWAP1 PUSH2 0x10D SWAP2 SWAP1 PUSH2 0x2F27 JUMP JUMPDEST PUSH2 0x8E3 JUMP JUMPDEST PUSH1 0x40 MLOAD PUSH2 0x11F SWAP2 SWAP1 PUSH2 0x2F6D JUMP JUMPDEST PUSH1 0x40 MLOAD DUP1 SWAP2 SUB SWAP1 RETURN JUMPDEST PUSH2 0x142 PUSH1 0x4 DUP1 CALLDATASIZE SUB DUP2 ADD SWAP1 PUSH2 0x13D SWAP2 SWAP1 PUSH2 0x2F27 JUMP JUMPDEST PUSH2 0x901 JUMP JUMPDEST PUSH1 0x40 MLOAD PUSH2 0x156 SWAP9 SWAP8 SWAP7 SWAP6 SWAP5 SWAP4 SWAP3 SWAP2 SWAP1 PUSH2 0x3410 JUMP JUMPDEST PUSH1 0x40 MLOAD DUP1 SWAP2 SUB SWAP1 RETURN JUMPDEST PUSH2 0x167 PUSH2 0xC0C JUMP JUMPDEST PUSH1 0x40 MLOAD PUSH2 0x174 SWAP2 SWAP1 PUSH2 0x34D2 JUMP JUMPDEST PUSH1 0x40 MLOAD DUP1 SWAP2 SUB SWAP1 RETURN JUMPDEST PUSH2 0x197 PUSH1 0x4 DUP1 CALLDATASIZE SUB DUP2 ADD SWAP1 PUSH2 0x192 SWAP2 SWAP1 PUSH2 0x3552 JUMP JUMPDEST PUSH2 0xC30 JUMP JUMPDEST PUSH1 0x40 MLOAD PUSH2 0x1A4 SWAP2 SWAP1 PUSH2 0x3369 JUMP JUMPDEST PUSH1 0x40 MLOAD DUP1 SWAP2 SUB SWAP1 RETURN JUMPDEST PUSH2 0x1C7 PUSH1 0x4 DUP1 CALLDATASIZE SUB DUP2 ADD SWAP1 PUSH2 0x1C2 SWAP2 SWAP1 PUSH2 0x2F27 JUMP JUMPDEST PUSH2 0x1410 JUMP JUMPDEST PUSH1 0x40 MLOAD PUSH2 0x1D4 SWAP2 SWAP1 PUSH2 0x36A9 JUMP JUMPDEST PUSH1 0x40 MLOAD DUP1 SWAP2 SUB SWAP1 RETURN JUMPDEST PUSH2 0x1F7 PUSH1 0x4 DUP1 CALLDATASIZE SUB DUP2 ADD SWAP1 PUSH2 0x1F2 SWAP2 SWAP1 PUSH2 0x2F27 JUMP JUMPDEST PUSH2 0x169A JUMP JUMPDEST PUSH1 0x40 MLOAD PUSH2 0x204 SWAP2 SWAP1 PUSH2 0x3830 JUMP JUMPDEST PUSH1 0x40 MLOAD DUP1 SWAP2 SUB SWAP1 RETURN JUMPDEST PUSH2 0x227 PUSH1 0x4 DUP1 CALLDATASIZE SUB DUP2 ADD SWAP1 PUSH2 0x222 SWAP2 SWAP1 PUSH2 0x387E JUMP JUMPDEST PUSH2 0x17C5 JUMP JUMPDEST PUSH1 0x40 MLOAD PUSH2 0x234 SWAP2 SWAP1 PUSH2 0x3A31 JUMP JUMPDEST PUSH1 0x40 MLOAD DUP1 SWAP2 SUB SWAP1 RETURN JUMPDEST PUSH1 0x3 PUSH1 0x20 MSTORE DUP1 PUSH1 0x0 MSTORE PUSH1 0x40 PUSH1 0x0 KECCAK256 PUSH1 0x0 SWAP2 POP SWAP1 POP DUP1 PUSH1 0x1 ADD SLOAD SWAP1 POP DUP2 JUMP JUMPDEST PUSH2 0x263 PUSH2 0x2DD3 JUMP JUMPDEST PUSH1 0x0 PUSH1 0x1 PUSH1 0x0 DUP7 DUP2 MSTORE PUSH1 0x20 ADD SWAP1 DUP2 MSTORE PUSH1 0x20 ADD PUSH1 0x0 KECCAK256 PUSH1 0x1 ADD PUSH1 0x0 SWAP1 SLOAD SWAP1 PUSH2 0x100 EXP SWAP1 DIV PUSH2 0xFFFF AND PUSH2 0xFFFF AND GT PUSH2 0x2CE JUMPI PUSH1 0x40 MLOAD PUSH32 0x8C379A000000000000000000000000000000000000000000000000000000000 DUP2 MSTORE PUSH1 0x4 ADD PUSH2 0x2C5 SWAP1 PUSH2 0x3A9F JUMP JUMPDEST PUSH1 0x40 MLOAD DUP1 SWAP2 SUB SWAP1 REVERT JUMPDEST PUSH1 0x0 PUSH2 0x2D9 DUP6 PUSH2 0x1BCB JUMP JUMPDEST SWAP1 POP DUP1 PUSH2 0x31B JUMPI PUSH1 0x40 MLOAD PUSH32 0x8C379A000000000000000000000000000000000000000000000000000000000 DUP2 MSTORE PUSH1 0x4 ADD PUSH2 0x312 SWAP1 PUSH2 0x3B0B JUMP JUMPDEST PUSH1 0x40 MLOAD DUP1 SWAP2 SUB SWAP1 REVERT JUMPDEST PUSH1 0x0 DUP4 PUSH4 0xFFFFFFFF AND GT DUP1 ISZERO PUSH2 0x339 JUMPI POP PUSH2 0x2710 DUP4 PUSH4 0xFFFFFFFF AND GT ISZERO JUMPDEST PUSH2 0x378 JUMPI PUSH1 0x40 MLOAD PUSH32 0x8C379A000000000000000000000000000000000000000000000000000000000 DUP2 MSTORE PUSH1 0x4 ADD PUSH2 0x36F SWAP1 PUSH2 0x3B9D JUMP JUMPDEST PUSH1 0x40 MLOAD DUP1 SWAP2 SUB SWAP1 REVERT JUMPDEST PUSH2 0x381 DUP4 PUSH2 0x1C61 JUMP JUMPDEST PUSH2 0x3C0 JUMPI PUSH1 0x40 MLOAD PUSH32 0x8C379A000000000000000000000000000000000000000000000000000000000 DUP2 MSTORE PUSH1 0x4 ADD PUSH2 0x3B7 SWAP1 PUSH2 0x3C2F JUMP JUMPDEST PUSH1 0x40 MLOAD DUP1 SWAP2 SUB SWAP1 REVERT JUMPDEST PUSH2 0x3CA DUP6 CALLER PUSH2 0x1C7B JUMP JUMPDEST ISZERO PUSH2 0x40A JUMPI PUSH1 0x40 MLOAD PUSH32 0x8C379A000000000000000000000000000000000000000000000000000000000 DUP2 MSTORE PUSH1 0x4 ADD PUSH2 0x401 SWAP1 PUSH2 0x3CC1 JUMP JUMPDEST PUSH1 0x40 MLOAD DUP1 SWAP2 SUB SWAP1 REVERT JUMPDEST PUSH1 0x0 PUSH2 0x415 DUP5 PUSH2 0x1EE6 JUMP JUMPDEST SWAP1 POP DUP5 ISZERO PUSH2 0x647 JUMPI PUSH1 0x0 PUSH1 0x2 PUSH1 0x0 DUP9 DUP2 MSTORE PUSH1 0x20 ADD SWAP1 DUP2 MSTORE PUSH1 0x20 ADD PUSH1 0x0 KECCAK256 PUSH1 0x0 ADD PUSH1 0x0 PUSH1 0x1 PUSH1 0x2 PUSH1 0x0 DUP12 DUP2 MSTORE PUSH1 0x20 ADD SWAP1 DUP2 MSTORE PUSH1 0x20 ADD PUSH1 0x0 KECCAK256 PUSH1 0x1 ADD SLOAD PUSH2 0x45A SWAP2 SWAP1 PUSH2 0x3D10 JUMP JUMPDEST DUP2 MSTORE PUSH1 0x20 ADD SWAP1 DUP2 MSTORE PUSH1 0x20 ADD PUSH1 0x0 KECCAK256 PUSH1 0x6 ADD PUSH1 0x4 ADD SLOAD SWAP1 POP PUSH1 0x2 PUSH1 0x0 DUP9 DUP2 MSTORE PUSH1 0x20 ADD SWAP1 DUP2 MSTORE PUSH1 0x20 ADD PUSH1 0x0 KECCAK256 PUSH1 0x0 ADD PUSH1 0x0 PUSH1 0x1 PUSH1 0x2 PUSH1 0x0 DUP12 DUP2 MSTORE PUSH1 0x20 ADD SWAP1 DUP2 MSTORE PUSH1 0x20 ADD PUSH1 0x0 KECCAK256 PUSH1 0x1 ADD SLOAD PUSH2 0x4AC SWAP2 SWAP1 PUSH2 0x3D10 JUMP JUMPDEST DUP2 MSTORE PUSH1 0x20 ADD SWAP1 DUP2 MSTORE PUSH1 0x20 ADD PUSH1 0x0 KECCAK256 PUSH1 0x6 ADD PUSH1 0x4 ADD PUSH1 0x0 DUP2 SLOAD DUP1 SWAP3 SWAP2 SWAP1 PUSH2 0x4D1 SWAP1 PUSH2 0x3D44 JUMP JUMPDEST SWAP2 SWAP1 POP SSTORE POP PUSH1 0x40 MLOAD DUP1 PUSH1 0x40 ADD PUSH1 0x40 MSTORE DUP1 DUP4 PUSH4 0xFFFFFFFF AND DUP2 MSTORE PUSH1 0x20 ADD CALLER PUSH20 0xFFFFFFFFFFFFFFFFFFFFFFFFFFFFFFFFFFFFFFFF AND DUP2 MSTORE POP PUSH1 0x2 PUSH1 0x0 DUP10 DUP2 MSTORE PUSH1 0x20 ADD SWAP1 DUP2 MSTORE PUSH1 0x20 ADD PUSH1 0x0 KECCAK256 PUSH1 0x0 ADD PUSH1 0x0 PUSH1 0x1 PUSH1 0x2 PUSH1 0x0 DUP13 DUP2 MSTORE PUSH1 0x20 ADD SWAP1 DUP2 MSTORE PUSH1 0x20 ADD PUSH1 0x0 KECCAK256 PUSH1 0x1 ADD SLOAD PUSH2 0x542 SWAP2 SWAP1 PUSH2 0x3D10 JUMP JUMPDEST DUP2 MSTORE PUSH1 0x20 ADD SWAP1 DUP2 MSTORE PUSH1 0x20 ADD PUSH1 0x0 KECCAK256 PUSH1 0x6 ADD PUSH1 0x3 ADD PUSH1 0x0 DUP4 DUP2 MSTORE PUSH1 0x20 ADD SWAP1 DUP2 MSTORE PUSH1 0x20 ADD PUSH1 0x0 KECCAK256 PUSH1 0x0 DUP3 ADD MLOAD DUP2 PUSH1 0x0 ADD PUSH1 0x0 PUSH2 0x100 EXP DUP2 SLOAD DUP2 PUSH4 0xFFFFFFFF MUL NOT AND SWAP1 DUP4 PUSH4 0xFFFFFFFF AND MUL OR SWAP1 SSTORE POP PUSH1 0x20 DUP3 ADD MLOAD DUP2 PUSH1 0x0 ADD PUSH1 0x4 PUSH2 0x100 EXP DUP2 SLOAD DUP2 PUSH20 0xFFFFFFFFFFFFFFFFFFFFFFFFFFFFFFFFFFFFFFFF MUL NOT AND SWAP1 DUP4 PUSH20 0xFFFFFFFFFFFFFFFFFFFFFFFFFFFFFFFFFFFFFFFF AND MUL OR SWAP1 SSTORE POP SWAP1 POP POP DUP2 PUSH4 0xFFFFFFFF AND PUSH1 0x2 PUSH1 0x0 DUP10 DUP2 MSTORE PUSH1 0x20 ADD SWAP1 DUP2 MSTORE PUSH1 0x20 ADD PUSH1 0x0 KECCAK256 PUSH1 0x0 ADD PUSH1 0x0 PUSH1 0x1 PUSH1 0x2 PUSH1 0x0 DUP13 DUP2 MSTORE PUSH1 0x20 ADD SWAP1 DUP2 MSTORE PUSH1 0x20 ADD PUSH1 0x0 KECCAK256 PUSH1 0x1 ADD SLOAD PUSH2 0x61A SWAP2 SWAP1 PUSH2 0x3D10 JUMP JUMPDEST DUP2 MSTORE PUSH1 0x20 ADD SWAP1 DUP2 MSTORE PUSH1 0x20 ADD PUSH1 0x0 KECCAK256 PUSH1 0xC ADD PUSH1 0x0 DUP3 DUP3 SLOAD PUSH2 0x63A SWAP2 SWAP1 PUSH2 0x3D8C JUMP JUMPDEST SWAP3 POP POP DUP2 SWAP1 SSTORE POP POP PUSH2 0x86D JUMP JUMPDEST PUSH1 0x0 PUSH1 0x2 PUSH1 0x0 DUP9 DUP2 MSTORE PUSH1 0x20 ADD SWAP1 DUP2 MSTORE PUSH1 0x20 ADD PUSH1 0x0 KECCAK256 PUSH1 0x0 ADD PUSH1 0x0 PUSH1 0x1 PUSH1 0x2 PUSH1 0x0 DUP12 DUP2 MSTORE PUSH1 0x20 ADD SWAP1 DUP2 MSTORE PUSH1 0x20 ADD PUSH1 0x0 KECCAK256 PUSH1 0x1 ADD SLOAD PUSH2 0x684 SWAP2 SWAP1 PUSH2 0x3D10 JUMP JUMPDEST DUP2 MSTORE PUSH1 0x20 ADD SWAP1 DUP2 MSTORE PUSH1 0x20 ADD PUSH1 0x0 KECCAK256 PUSH1 0x1 ADD PUSH1 0x4 ADD SLOAD SWAP1 POP PUSH1 0x2 PUSH1 0x0 DUP9 DUP2 MSTORE PUSH1 0x20 ADD SWAP1 DUP2 MSTORE PUSH1 0x20 ADD PUSH1 0x0 KECCAK256 PUSH1 0x0 ADD PUSH1 0x0 PUSH1 0x1 PUSH1 0x2 PUSH1 0x0 DUP12 DUP2 MSTORE PUSH1 0x20 ADD SWAP1 DUP2 MSTORE PUSH1 0x20 ADD PUSH1 0x0 KECCAK256 PUSH1 0x1 ADD SLOAD PUSH2 0x6D6 SWAP2 SWAP1 PUSH2 0x3D10 JUMP JUMPDEST DUP2 MSTORE PUSH1 0x20 ADD SWAP1 DUP2 MSTORE PUSH1 0x20 ADD PUSH1 0x0 KECCAK256 PUSH1 0x1 ADD PUSH1 0x4 ADD PUSH1 0x0 DUP2 SLOAD DUP1 SWAP3 SWAP2 SWAP1 PUSH2 0x6FB SWAP1 PUSH2 0x3D44 JUMP JUMPDEST SWAP2 SWAP1 POP SSTORE POP PUSH1 0x40 MLOAD DUP1 PUSH1 0x40 ADD PUSH1 0x40 MSTORE DUP1 DUP4 PUSH4 0xFFFFFFFF AND DUP2 MSTORE PUSH1 0x20 ADD CALLER PUSH20 0xFFFFFFFFFFFFFFFFFFFFFFFFFFFFFFFFFFFFFFFF AND DUP2 MSTORE POP PUSH1 0x2 PUSH1 0x0 DUP10 DUP2 MSTORE PUSH1 0x20 ADD SWAP1 DUP2 MSTORE PUSH1 0x20 ADD PUSH1 0x0 KECCAK256 PUSH1 0x0 ADD PUSH1 0x0 PUSH1 0x1 PUSH1 0x2 PUSH1 0x0 DUP13 DUP2 MSTORE PUSH1 0x20 ADD SWAP1 DUP2 MSTORE PUSH1 0x20 ADD PUSH1 0x0 KECCAK256 PUSH1 0x1 ADD SLOAD PUSH2 0x76C SWAP2 SWAP1 PUSH2 0x3D10 JUMP JUMPDEST DUP2 MSTORE PUSH1 0x20 ADD SWAP1 DUP2 MSTORE PUSH1 0x20 ADD PUSH1 0x0 KECCAK256 PUSH1 0x1 ADD PUSH1 0x3 ADD PUSH1 0x0 DUP4 DUP2 MSTORE PUSH1 0x20 ADD SWAP1 DUP2 MSTORE PUSH1 0x20 ADD PUSH1 0x0 KECCAK256 PUSH1 0x0 DUP3 ADD MLOAD DUP2 PUSH1 0x0 ADD PUSH1 0x0 PUSH2 0x100 EXP DUP2 SLOAD DUP2 PUSH4 0xFFFFFFFF MUL NOT AND SWAP1 DUP4 PUSH4 0xFFFFFFFF AND MUL OR SWAP1 SSTORE POP PUSH1 0x20 DUP3 ADD MLOAD DUP2 PUSH1 0x0 ADD PUSH1 0x4 PUSH2 0x100 EXP DUP2 SLOAD DUP2 PUSH20 0xFFFFFFFFFFFFFFFFFFFFFFFFFFFFFFFFFFFFFFFF MUL NOT AND SWAP1 DUP4 PUSH20 0xFFFFFFFFFFFFFFFFFFFFFFFFFFFFFFFFFFFFFFFF AND MUL OR SWAP1 SSTORE POP SWAP1 POP POP DUP2 PUSH4 0xFFFFFFFF AND PUSH1 0x2 PUSH1 0x0 DUP10 DUP2 MSTORE PUSH1 0x20 ADD SWAP1 DUP2 MSTORE PUSH1 0x20 ADD PUSH1 0x0 KECCAK256 PUSH1 0x0 ADD PUSH1 0x0 PUSH1 0x1 PUSH1 0x2 PUSH1 0x0 DUP13 DUP2 MSTORE PUSH1 0x20 ADD SWAP1 DUP2 MSTORE PUSH1 0x20 ADD PUSH1 0x0 KECCAK256 PUSH1 0x1 ADD SLOAD PUSH2 0x844 SWAP2 SWAP1 PUSH2 0x3D10 JUMP JUMPDEST DUP2 MSTORE PUSH1 0x20 ADD SWAP1 DUP2 MSTORE PUSH1 0x20 ADD PUSH1 0x0 KECCAK256 PUSH1 0xB ADD PUSH1 0x0 DUP3 DUP3 SLOAD PUSH2 0x864 SWAP2 SWAP1 PUSH2 0x3D8C JUMP JUMPDEST SWAP3 POP POP DUP2 SWAP1 SSTORE POP POP JUMPDEST PUSH1 0x0 PUSH2 0x89B DUP8 PUSH1 0x1 PUSH1 0x2 PUSH1 0x0 DUP12 DUP2 MSTORE PUSH1 0x20 ADD SWAP1 DUP2 MSTORE PUSH1 0x20 ADD PUSH1 0x0 KECCAK256 PUSH1 0x1 ADD SLOAD PUSH2 0x896 SWAP2 SWAP1 PUSH2 0x3D10 JUMP JUMPDEST PUSH2 0x1F51 JUMP JUMPDEST SWAP1 POP PUSH32 0x7F80E2E84CB241D82C34B3897910E66E96FC5992305B1F81DEDD50503FDC17FF DUP8 DUP3 PUSH1 0x40 MLOAD PUSH2 0x8CE SWAP3 SWAP2 SWAP1 PUSH2 0x3DC0 JUMP JUMPDEST PUSH1 0x40 MLOAD DUP1 SWAP2 SUB SWAP1 LOG1 DUP1 SWAP4 POP POP POP POP SWAP4 SWAP3 POP POP POP JUMP JUMPDEST PUSH1 0x2 PUSH1 0x20 MSTORE DUP1 PUSH1 0x0 MSTORE PUSH1 0x40 PUSH1 0x0 KECCAK256 PUSH1 0x0 SWAP2 POP SWAP1 POP DUP1 PUSH1 0x1 ADD SLOAD SWAP1 POP DUP2 JUMP JUMPDEST PUSH1 0x1 PUSH1 0x20 MSTORE DUP1 PUSH1 0x0 MSTORE PUSH1 0x40 PUSH1 0x0 KECCAK256 PUSH1 0x0 SWAP2 POP SWAP1 POP DUP1 PUSH1 0x0 ADD DUP1 SLOAD PUSH2 0x924 SWAP1 PUSH2 0x3E1F JUMP JUMPDEST DUP1 PUSH1 0x1F ADD PUSH1 0x20 DUP1 SWAP2 DIV MUL PUSH1 0x20 ADD PUSH1 0x40 MLOAD SWAP1 DUP2 ADD PUSH1 0x40 MSTORE DUP1 SWAP3 SWAP2 SWAP1 DUP2 DUP2 MSTORE PUSH1 0x20 ADD DUP3 DUP1 SLOAD PUSH2 0x950 SWAP1 PUSH2 0x3E1F JUMP JUMPDEST DUP1 ISZERO PUSH2 0x99D JUMPI DUP1 PUSH1 0x1F LT PUSH2 0x972 JUMPI PUSH2 0x100 DUP1 DUP4 SLOAD DIV MUL DUP4 MSTORE SWAP2 PUSH1 0x20 ADD SWAP2 PUSH2 0x99D JUMP JUMPDEST DUP3 ADD SWAP2 SWAP1 PUSH1 0x0 MSTORE PUSH1 0x20 PUSH1 0x0 KECCAK256 SWAP1 JUMPDEST DUP2 SLOAD DUP2 MSTORE SWAP1 PUSH1 0x1 ADD SWAP1 PUSH1 0x20 ADD DUP1 DUP4 GT PUSH2 0x980 JUMPI DUP3 SWAP1 SUB PUSH1 0x1F AND DUP3 ADD SWAP2 JUMPDEST POP POP POP POP POP SWAP1 DUP1 PUSH1 0x1 ADD PUSH1 0x0 SWAP1 SLOAD SWAP1 PUSH2 0x100 EXP SWAP1 DIV PUSH2 0xFFFF AND SWAP1 DUP1 PUSH1 0x2 ADD DUP1 SLOAD PUSH2 0x9C6 SWAP1 PUSH2 0x3E1F JUMP JUMPDEST DUP1 PUSH1 0x1F ADD PUSH1 0x20 DUP1 SWAP2 DIV MUL PUSH1 0x20 ADD PUSH1 0x40 MLOAD SWAP1 DUP2 ADD PUSH1 0x40 MSTORE DUP1 SWAP3 SWAP2 SWAP1 DUP2 DUP2 MSTORE PUSH1 0x20 ADD DUP3 DUP1 SLOAD PUSH2 0x9F2 SWAP1 PUSH2 0x3E1F JUMP JUMPDEST DUP1 ISZERO PUSH2 0xA3F JUMPI DUP1 PUSH1 0x1F LT PUSH2 0xA14 JUMPI PUSH2 0x100 DUP1 DUP4 SLOAD DIV MUL DUP4 MSTORE SWAP2 PUSH1 0x20 ADD SWAP2 PUSH2 0xA3F JUMP JUMPDEST DUP3 ADD SWAP2 SWAP1 PUSH1 0x0 MSTORE PUSH1 0x20 PUSH1 0x0 KECCAK256 SWAP1 JUMPDEST DUP2 SLOAD DUP2 MSTORE SWAP1 PUSH1 0x1 ADD SWAP1 PUSH1 0x20 ADD DUP1 DUP4 GT PUSH2 0xA22 JUMPI DUP3 SWAP1 SUB PUSH1 0x1F AND DUP3 ADD SWAP2 JUMPDEST POP POP POP POP POP SWAP1 DUP1 PUSH1 0x3 ADD DUP1 SLOAD PUSH2 0xA54 SWAP1 PUSH2 0x3E1F JUMP JUMPDEST DUP1 PUSH1 0x1F ADD PUSH1 0x20 DUP1 SWAP2 DIV MUL PUSH1 0x20 ADD PUSH1 0x40 MLOAD SWAP1 DUP2 ADD PUSH1 0x40 MSTORE DUP1 SWAP3 SWAP2 SWAP1 DUP2 DUP2 MSTORE PUSH1 0x20 ADD DUP3 DUP1 SLOAD PUSH2 0xA80 SWAP1 PUSH2 0x3E1F JUMP JUMPDEST DUP1 ISZERO PUSH2 0xACD JUMPI DUP1 PUSH1 0x1F LT PUSH2 0xAA2 JUMPI PUSH2 0x100 DUP1 DUP4 SLOAD DIV MUL DUP4 MSTORE SWAP2 PUSH1 0x20 ADD SWAP2 PUSH2 0xACD JUMP JUMPDEST DUP3 ADD SWAP2 SWAP1 PUSH1 0x0 MSTORE PUSH1 0x20 PUSH1 0x0 KECCAK256 SWAP1 JUMPDEST DUP2 SLOAD DUP2 MSTORE SWAP1 PUSH1 0x1 ADD SWAP1 PUSH1 0x20 ADD DUP1 DUP4 GT PUSH2 0xAB0 JUMPI DUP3 SWAP1 SUB PUSH1 0x1F AND DUP3 ADD SWAP2 JUMPDEST POP POP POP POP POP SWAP1 DUP1 PUSH1 0x4 ADD DUP1 SLOAD PUSH2 0xAE2 SWAP1 PUSH2 0x3E1F JUMP JUMPDEST DUP1 PUSH1 0x1F ADD PUSH1 0x20 DUP1 SWAP2 DIV MUL PUSH1 0x20 ADD PUSH1 0x40 MLOAD SWAP1 DUP2 ADD PUSH1 0x40 MSTORE DUP1 SWAP3 SWAP2 SWAP1 DUP2 DUP2 MSTORE PUSH1 0x20 ADD DUP3 DUP1 SLOAD PUSH2 0xB0E SWAP1 PUSH2 0x3E1F JUMP JUMPDEST DUP1 ISZERO PUSH2 0xB5B JUMPI DUP1 PUSH1 0x1F LT PUSH2 0xB30 JUMPI PUSH2 0x100 DUP1 DUP4 SLOAD DIV MUL DUP4 MSTORE SWAP2 PUSH1 0x20 ADD SWAP2 PUSH2 0xB5B JUMP JUMPDEST DUP3 ADD SWAP2 SWAP1 PUSH1 0x0 MSTORE PUSH1 0x20 PUSH1 0x0 KECCAK256 SWAP1 JUMPDEST DUP2 SLOAD DUP2 MSTORE SWAP1 PUSH1 0x1 ADD SWAP1 PUSH1 0x20 ADD DUP1 DUP4 GT PUSH2 0xB3E JUMPI DUP3 SWAP1 SUB PUSH1 0x1F AND DUP3 ADD SWAP2 JUMPDEST POP POP POP POP POP SWAP1 DUP1 PUSH1 0x5 ADD PUSH1 0x0 SWAP1 SLOAD SWAP1 PUSH2 0x100 EXP SWAP1 DIV PUSH1 0xFF AND SWAP1 DUP1 PUSH1 0x6 ADD DUP1 SLOAD PUSH2 0xB83 SWAP1 PUSH2 0x3E1F JUMP JUMPDEST DUP1 PUSH1 0x1F ADD PUSH1 0x20 DUP1 SWAP2 DIV MUL PUSH1 0x20 ADD PUSH1 0x40 MLOAD SWAP1 DUP2 ADD PUSH1 0x40 MSTORE DUP1 SWAP3 SWAP2 SWAP1 DUP2 DUP2 MSTORE PUSH1 0x20 ADD DUP3 DUP1 SLOAD PUSH2 0xBAF SWAP1 PUSH2 0x3E1F JUMP JUMPDEST DUP1 ISZERO PUSH2 0xBFC JUMPI DUP1 PUSH1 0x1F LT PUSH2 0xBD1 JUMPI PUSH2 0x100 DUP1 DUP4 SLOAD DIV MUL DUP4 MSTORE SWAP2 PUSH1 0x20 ADD SWAP2 PUSH2 0xBFC JUMP JUMPDEST DUP3 ADD SWAP2 SWAP1 PUSH1 0x0 MSTORE PUSH1 0x20 PUSH1 0x0 KECCAK256 SWAP1 JUMPDEST DUP2 SLOAD DUP2 MSTORE SWAP1 PUSH1 0x1 ADD SWAP1 PUSH1 0x20 ADD DUP1 DUP4 GT PUSH2 0xBDF JUMPI DUP3 SWAP1 SUB PUSH1 0x1F AND DUP3 ADD SWAP2 JUMPDEST POP POP POP POP POP SWAP1 DUP1 PUSH1 0x7 ADD SLOAD SWAP1 POP DUP9 JUMP JUMPDEST PUSH1 0x0 DUP1 SLOAD SWAP1 PUSH2 0x100 EXP SWAP1 DIV PUSH20 0xFFFFFFFFFFFFFFFFFFFFFFFFFFFFFFFFFFFFFFFF AND DUP2 JUMP JUMPDEST PUSH2 0xC38 PUSH2 0x2DD3 JUMP JUMPDEST PUSH1 0x0 PUSH1 0x1 PUSH1 0x0 DUP9 DUP2 MSTORE PUSH1 0x20 ADD SWAP1 DUP2 MSTORE PUSH1 0x20 ADD PUSH1 0x0 KECCAK256 PUSH1 0x1 ADD PUSH1 0x0 SWAP1 SLOAD SWAP1 PUSH2 0x100 EXP SWAP1 DIV PUSH2 0xFFFF AND PUSH2 0xFFFF AND GT PUSH2 0xCA3 JUMPI PUSH1 0x40 MLOAD PUSH32 0x8C379A000000000000000000000000000000000000000000000000000000000 DUP2 MSTORE PUSH1 0x4 ADD PUSH2 0xC9A SWAP1 PUSH2 0x3A9F JUMP JUMPDEST PUSH1 0x40 MLOAD DUP1 SWAP2 SUB SWAP1 REVERT JUMPDEST PUSH1 0x0 PUSH2 0xCAE DUP8 PUSH2 0x1BCB JUMP JUMPDEST SWAP1 POP DUP1 ISZERO PUSH2 0xCF1 JUMPI PUSH1 0x40 MLOAD PUSH32 0x8C379A000000000000000000000000000000000000000000000000000000000 DUP2 MSTORE PUSH1 0x4 ADD PUSH2 0xCE8 SWAP1 PUSH2 0x3E9C JUMP JUMPDEST PUSH1 0x40 MLOAD DUP1 SWAP2 SUB SWAP1 REVERT JUMPDEST PUSH2 0xCFA DUP8 PUSH2 0x2650 JUMP JUMPDEST PUSH1 0x0 PUSH1 0x40 MLOAD DUP1 PUSH1 0xE0 ADD PUSH1 0x40 MSTORE DUP1 DUP10 DUP2 MSTORE PUSH1 0x20 ADD PUSH1 0x40 MLOAD DUP1 PUSH1 0x40 ADD PUSH1 0x40 MSTORE DUP1 PUSH1 0x40 MLOAD DUP1 PUSH1 0x60 ADD PUSH1 0x40 MSTORE DUP1 DUP14 DUP2 MSTORE PUSH1 0x20 ADD PUSH1 0x1 PUSH1 0x0 DUP16 DUP2 MSTORE PUSH1 0x20 ADD SWAP1 DUP2 MSTORE PUSH1 0x20 ADD PUSH1 0x0 KECCAK256 PUSH1 0x3 ADD DUP1 SLOAD PUSH2 0xD4A SWAP1 PUSH2 0x3E1F JUMP JUMPDEST DUP1 PUSH1 0x1F ADD PUSH1 0x20 DUP1 SWAP2 DIV MUL PUSH1 0x20 ADD PUSH1 0x40 MLOAD SWAP1 DUP2 ADD PUSH1 0x40 MSTORE DUP1 SWAP3 SWAP2 SWAP1 DUP2 DUP2 MSTORE PUSH1 0x20 ADD DUP3 DUP1 SLOAD PUSH2 0xD76 SWAP1 PUSH2 0x3E1F JUMP JUMPDEST DUP1 ISZERO PUSH2 0xDC3 JUMPI DUP1 PUSH1 0x1F LT PUSH2 0xD98 JUMPI PUSH2 0x100 DUP1 DUP4 SLOAD DIV MUL DUP4 MSTORE SWAP2 PUSH1 0x20 ADD SWAP2 PUSH2 0xDC3 JUMP JUMPDEST DUP3 ADD SWAP2 SWAP1 PUSH1 0x0 MSTORE PUSH1 0x20 PUSH1 0x0 KECCAK256 SWAP1 JUMPDEST DUP2 SLOAD DUP2 MSTORE SWAP1 PUSH1 0x1 ADD SWAP1 PUSH1 0x20 ADD DUP1 DUP4 GT PUSH2 0xDA6 JUMPI DUP3 SWAP1 SUB PUSH1 0x1F AND DUP3 ADD SWAP2 JUMPDEST POP POP POP POP POP DUP2 MSTORE PUSH1 0x20 ADD PUSH1 0x1 PUSH1 0x0 DUP16 DUP2 MSTORE PUSH1 0x20 ADD SWAP1 DUP2 MSTORE PUSH1 0x20 ADD PUSH1 0x0 KECCAK256 PUSH1 0x4 ADD DUP1 SLOAD PUSH2 0xDEE SWAP1 PUSH2 0x3E1F JUMP JUMPDEST DUP1 PUSH1 0x1F ADD PUSH1 0x20 DUP1 SWAP2 DIV MUL PUSH1 0x20 ADD PUSH1 0x40 MLOAD SWAP1 DUP2 ADD PUSH1 0x40 MSTORE DUP1 SWAP3 SWAP2 SWAP1 DUP2 DUP2 MSTORE PUSH1 0x20 ADD DUP3 DUP1 SLOAD PUSH2 0xE1A SWAP1 PUSH2 0x3E1F JUMP JUMPDEST DUP1 ISZERO PUSH2 0xE67 JUMPI DUP1 PUSH1 0x1F LT PUSH2 0xE3C JUMPI PUSH2 0x100 DUP1 DUP4 SLOAD DIV MUL DUP4 MSTORE SWAP2 PUSH1 0x20 ADD SWAP2 PUSH2 0xE67 JUMP JUMPDEST DUP3 ADD SWAP2 SWAP1 PUSH1 0x0 MSTORE PUSH1 0x20 PUSH1 0x0 KECCAK256 SWAP1 JUMPDEST DUP2 SLOAD DUP2 MSTORE SWAP1 PUSH1 0x1 ADD SWAP1 PUSH1 0x20 ADD DUP1 DUP4 GT PUSH2 0xE4A JUMPI DUP3 SWAP1 SUB PUSH1 0x1F AND DUP3 ADD SWAP2 JUMPDEST POP POP POP POP POP DUP2 MSTORE POP DUP2 MSTORE PUSH1 0x20 ADD PUSH1 0x0 PUSH8 0xFFFFFFFFFFFFFFFF DUP2 GT ISZERO PUSH2 0xE8F JUMPI PUSH2 0xE8E PUSH2 0x3EBC JUMP JUMPDEST JUMPDEST PUSH1 0x40 MLOAD SWAP1 DUP1 DUP3 MSTORE DUP1 PUSH1 0x20 MUL PUSH1 0x20 ADD DUP3 ADD PUSH1 0x40 MSTORE DUP1 ISZERO PUSH2 0xEC8 JUMPI DUP2 PUSH1 0x20 ADD JUMPDEST PUSH2 0xEB5 PUSH2 0x2E1F JUMP JUMPDEST DUP2 MSTORE PUSH1 0x20 ADD SWAP1 PUSH1 0x1 SWAP1 SUB SWAP1 DUP2 PUSH2 0xEAD JUMPI SWAP1 POP JUMPDEST POP DUP2 MSTORE POP DUP2 MSTORE PUSH1 0x20 ADD PUSH1 0x40 MLOAD DUP1 PUSH1 0x40 ADD PUSH1 0x40 MSTORE DUP1 PUSH1 0x40 MLOAD DUP1 PUSH1 0x60 ADD PUSH1 0x40 MSTORE DUP1 DUP14 DUP2 MSTORE PUSH1 0x20 ADD DUP13 DUP13 DUP1 DUP1 PUSH1 0x1F ADD PUSH1 0x20 DUP1 SWAP2 DIV MUL PUSH1 0x20 ADD PUSH1 0x40 MLOAD SWAP1 DUP2 ADD PUSH1 0x40 MSTORE DUP1 SWAP4 SWAP3 SWAP2 SWAP1 DUP2 DUP2 MSTORE PUSH1 0x20 ADD DUP4 DUP4 DUP1 DUP3 DUP5 CALLDATACOPY PUSH1 0x0 DUP2 DUP5 ADD MSTORE PUSH1 0x1F NOT PUSH1 0x1F DUP3 ADD AND SWAP1 POP DUP1 DUP4 ADD SWAP3 POP POP POP POP POP POP POP DUP2 MSTORE PUSH1 0x20 ADD DUP11 DUP11 DUP1 DUP1 PUSH1 0x1F ADD PUSH1 0x20 DUP1 SWAP2 DIV MUL PUSH1 0x20 ADD PUSH1 0x40 MLOAD SWAP1 DUP2 ADD PUSH1 0x40 MSTORE DUP1 SWAP4 SWAP3 SWAP2 SWAP1 DUP2 DUP2 MSTORE PUSH1 0x20 ADD DUP4 DUP4 DUP1 DUP3 DUP5 CALLDATACOPY PUSH1 0x0 DUP2 DUP5 ADD MSTORE PUSH1 0x1F NOT PUSH1 0x1F DUP3 ADD AND SWAP1 POP DUP1 DUP4 ADD SWAP3 POP POP POP POP POP POP POP DUP2 MSTORE POP DUP2 MSTORE PUSH1 0x20 ADD PUSH1 0x0 PUSH8 0xFFFFFFFFFFFFFFFF DUP2 GT ISZERO PUSH2 0xF9F JUMPI PUSH2 0xF9E PUSH2 0x3EBC JUMP JUMPDEST JUMPDEST PUSH1 0x40 MLOAD SWAP1 DUP1 DUP3 MSTORE DUP1 PUSH1 0x20 MUL PUSH1 0x20 ADD DUP3 ADD PUSH1 0x40 MSTORE DUP1 ISZERO PUSH2 0xFD8 JUMPI DUP2 PUSH1 0x20 ADD JUMPDEST PUSH2 0xFC5 PUSH2 0x2E1F JUMP JUMPDEST DUP2 MSTORE PUSH1 0x20 ADD SWAP1 PUSH1 0x1 SWAP1 SUB SWAP1 DUP2 PUSH2 0xFBD JUMPI SWAP1 POP JUMPDEST POP DUP2 MSTORE POP DUP2 MSTORE PUSH1 0x20 ADD PUSH1 0x0 DUP2 MSTORE PUSH1 0x20 ADD PUSH1 0x0 DUP2 MSTORE PUSH1 0x20 ADD TIMESTAMP DUP2 MSTORE PUSH1 0x20 ADD PUSH1 0x4 SLOAD TIMESTAMP PUSH2 0x1003 SWAP2 SWAP1 PUSH2 0x3D8C JUMP JUMPDEST DUP2 MSTORE POP SWAP1 POP PUSH1 0x0 PUSH1 0x2 PUSH1 0x0 DUP11 DUP2 MSTORE PUSH1 0x20 ADD SWAP1 DUP2 MSTORE PUSH1 0x20 ADD PUSH1 0x0 KECCAK256 PUSH1 0x1 ADD SLOAD SWAP1 POP PUSH1 0x2 PUSH1 0x0 DUP11 DUP2 MSTORE PUSH1 0x20 ADD SWAP1 DUP2 MSTORE PUSH1 0x20 ADD PUSH1 0x0 KECCAK256 PUSH1 0x1 ADD PUSH1 0x0 DUP2 SLOAD DUP1 SWAP3 SWAP2 SWAP1 PUSH2 0x104A SWAP1 PUSH2 0x3D44 JUMP JUMPDEST SWAP2 SWAP1 POP SSTORE POP DUP9 PUSH1 0x2 PUSH1 0x0 DUP12 DUP2 MSTORE PUSH1 0x20 ADD SWAP1 DUP2 MSTORE PUSH1 0x20 ADD PUSH1 0x0 KECCAK256 PUSH1 0x0 ADD PUSH1 0x0 DUP4 DUP2 MSTORE PUSH1 0x20 ADD SWAP1 DUP2 MSTORE PUSH1 0x20 ADD PUSH1 0x0 KECCAK256 PUSH1 0x0 ADD DUP2 SWAP1 SSTORE POP PUSH1 0x40 MLOAD DUP1 PUSH1 0x60 ADD PUSH1 0x40 MSTORE DUP1 DUP11 DUP2 MSTORE PUSH1 0x20 ADD DUP10 DUP10 DUP1 DUP1 PUSH1 0x1F ADD PUSH1 0x20 DUP1 SWAP2 DIV MUL PUSH1 0x20 ADD PUSH1 0x40 MLOAD SWAP1 DUP2 ADD PUSH1 0x40 MSTORE DUP1 SWAP4 SWAP3 SWAP2 SWAP1 DUP2 DUP2 MSTORE PUSH1 0x20 ADD DUP4 DUP4 DUP1 DUP3 DUP5 CALLDATACOPY PUSH1 0x0 DUP2 DUP5 ADD MSTORE PUSH1 0x1F NOT PUSH1 0x1F DUP3 ADD AND SWAP1 POP DUP1 DUP4 ADD SWAP3 POP POP POP POP POP POP POP DUP2 MSTORE PUSH1 0x20 ADD DUP8 DUP8 DUP1 DUP1 PUSH1 0x1F ADD PUSH1 0x20 DUP1 SWAP2 DIV MUL PUSH1 0x20 ADD PUSH1 0x40 MLOAD SWAP1 DUP2 ADD PUSH1 0x40 MSTORE DUP1 SWAP4 SWAP3 SWAP2 SWAP1 DUP2 DUP2 MSTORE PUSH1 0x20 ADD DUP4 DUP4 DUP1 DUP3 DUP5 CALLDATACOPY PUSH1 0x0 DUP2 DUP5 ADD MSTORE PUSH1 0x1F NOT PUSH1 0x1F DUP3 ADD AND SWAP1 POP DUP1 DUP4 ADD SWAP3 POP POP POP POP POP POP POP DUP2 MSTORE POP PUSH1 0x2 PUSH1 0x0 DUP12 DUP2 MSTORE PUSH1 0x20 ADD SWAP1 DUP2 MSTORE PUSH1 0x20 ADD PUSH1 0x0 KECCAK256 PUSH1 0x0 ADD PUSH1 0x0 DUP4 DUP2 MSTORE PUSH1 0x20 ADD SWAP1 DUP2 MSTORE PUSH1 0x20 ADD PUSH1 0x0 KECCAK256 PUSH1 0x1 ADD PUSH1 0x0 ADD PUSH1 0x0 DUP3 ADD MLOAD DUP2 PUSH1 0x0 ADD SSTORE PUSH1 0x20 DUP3 ADD MLOAD DUP2 PUSH1 0x1 ADD SWAP1 DUP2 PUSH2 0x116D SWAP2 SWAP1 PUSH2 0x4097 JUMP JUMPDEST POP PUSH1 0x40 DUP3 ADD MLOAD DUP2 PUSH1 0x2 ADD SWAP1 DUP2 PUSH2 0x1183 SWAP2 SWAP1 PUSH2 0x4097 JUMP JUMPDEST POP SWAP1 POP POP PUSH1 0x0 PUSH1 0x2 PUSH1 0x0 DUP12 DUP2 MSTORE PUSH1 0x20 ADD SWAP1 DUP2 MSTORE PUSH1 0x20 ADD PUSH1 0x0 KECCAK256 PUSH1 0x0 ADD PUSH1 0x0 DUP4 DUP2 MSTORE PUSH1 0x20 ADD SWAP1 DUP2 MSTORE PUSH1 0x20 ADD PUSH1 0x0 KECCAK256 PUSH1 0x1 ADD PUSH1 0x4 ADD DUP2 SWAP1 SSTORE POP PUSH1 0x40 MLOAD DUP1 PUSH1 0x60 ADD PUSH1 0x40 MSTORE DUP1 DUP11 DUP2 MSTORE PUSH1 0x20 ADD DUP10 DUP10 DUP1 DUP1 PUSH1 0x1F ADD PUSH1 0x20 DUP1 SWAP2 DIV MUL PUSH1 0x20 ADD PUSH1 0x40 MLOAD SWAP1 DUP2 ADD PUSH1 0x40 MSTORE DUP1 SWAP4 SWAP3 SWAP2 SWAP1 DUP2 DUP2 MSTORE PUSH1 0x20 ADD DUP4 DUP4 DUP1 DUP3 DUP5 CALLDATACOPY PUSH1 0x0 DUP2 DUP5 ADD MSTORE PUSH1 0x1F NOT PUSH1 0x1F DUP3 ADD AND SWAP1 POP DUP1 DUP4 ADD SWAP3 POP POP POP POP POP POP POP DUP2 MSTORE PUSH1 0x20 ADD DUP8 DUP8 DUP1 DUP1 PUSH1 0x1F ADD PUSH1 0x20 DUP1 SWAP2 DIV MUL PUSH1 0x20 ADD PUSH1 0x40 MLOAD SWAP1 DUP2 ADD PUSH1 0x40 MSTORE DUP1 SWAP4 SWAP3 SWAP2 SWAP1 DUP2 DUP2 MSTORE PUSH1 0x20 ADD DUP4 DUP4 DUP1 DUP3 DUP5 CALLDATACOPY PUSH1 0x0 DUP2 DUP5 ADD MSTORE PUSH1 0x1F NOT PUSH1 0x1F DUP3 ADD AND SWAP1 POP DUP1 DUP4 ADD SWAP3 POP POP POP POP POP POP POP DUP2 MSTORE POP PUSH1 0x2 PUSH1 0x0 DUP12 DUP2 MSTORE PUSH1 0x20 ADD SWAP1 DUP2 MSTORE PUSH1 0x20 ADD PUSH1 0x0 KECCAK256 PUSH1 0x0 ADD PUSH1 0x0 DUP4 DUP2 MSTORE PUSH1 0x20 ADD SWAP1 DUP2 MSTORE PUSH1 0x20 ADD PUSH1 0x0 KECCAK256 PUSH1 0x6 ADD PUSH1 0x0 ADD PUSH1 0x0 DUP3 ADD MLOAD DUP2 PUSH1 0x0 ADD SSTORE PUSH1 0x20 DUP3 ADD MLOAD DUP2 PUSH1 0x1 ADD SWAP1 DUP2 PUSH2 0x12A9 SWAP2 SWAP1 PUSH2 0x4097 JUMP JUMPDEST POP PUSH1 0x40 DUP3 ADD MLOAD DUP2 PUSH1 0x2 ADD SWAP1 DUP2 PUSH2 0x12BF SWAP2 SWAP1 PUSH2 0x4097 JUMP JUMPDEST POP SWAP1 POP POP PUSH1 0x0 PUSH1 0x2 PUSH1 0x0 DUP12 DUP2 MSTORE PUSH1 0x20 ADD SWAP1 DUP2 MSTORE PUSH1 0x20 ADD PUSH1 0x0 KECCAK256 PUSH1 0x0 ADD PUSH1 0x0 DUP4 DUP2 MSTORE PUSH1 0x20 ADD SWAP1 DUP2 MSTORE PUSH1 0x20 ADD PUSH1 0x0 KECCAK256 PUSH1 0x6 ADD PUSH1 0x4 ADD DUP2 SWAP1 SSTORE POP DUP2 PUSH1 0xC0 ADD MLOAD PUSH1 0x2 PUSH1 0x0 DUP12 DUP2 MSTORE PUSH1 0x20 ADD SWAP1 DUP2 MSTORE PUSH1 0x20 ADD PUSH1 0x0 KECCAK256 PUSH1 0x0 ADD PUSH1 0x0 DUP4 DUP2 MSTORE PUSH1 0x20 ADD SWAP1 DUP2 MSTORE PUSH1 0x20 ADD PUSH1 0x0 KECCAK256 PUSH1 0xE ADD DUP2 SWAP1 SSTORE POP DUP2 PUSH1 0xA0 ADD MLOAD PUSH1 0x2 PUSH1 0x0 DUP12 DUP2 MSTORE PUSH1 0x20 ADD SWAP1 DUP2 MSTORE PUSH1 0x20 ADD PUSH1 0x0 KECCAK256 PUSH1 0x0 ADD PUSH1 0x0 DUP4 DUP2 MSTORE PUSH1 0x20 ADD SWAP1 DUP2 MSTORE PUSH1 0x20 ADD PUSH1 0x0 KECCAK256 PUSH1 0xD ADD DUP2 SWAP1 SSTORE POP DUP2 PUSH1 0x60 ADD MLOAD PUSH1 0x2 PUSH1 0x0 DUP12 DUP2 MSTORE PUSH1 0x20 ADD SWAP1 DUP2 MSTORE PUSH1 0x20 ADD PUSH1 0x0 KECCAK256 PUSH1 0x0 ADD PUSH1 0x0 DUP4 DUP2 MSTORE PUSH1 0x20 ADD SWAP1 DUP2 MSTORE PUSH1 0x20 ADD PUSH1 0x0 KECCAK256 PUSH1 0xB ADD DUP2 SWAP1 SSTORE POP DUP2 PUSH1 0x80 ADD MLOAD PUSH1 0x2 PUSH1 0x0 DUP12 DUP2 MSTORE PUSH1 0x20 ADD SWAP1 DUP2 MSTORE PUSH1 0x20 ADD PUSH1 0x0 KECCAK256 PUSH1 0x0 ADD PUSH1 0x0 DUP4 DUP2 MSTORE PUSH1 0x20 ADD SWAP1 DUP2 MSTORE PUSH1 0x20 ADD PUSH1 0x0 KECCAK256 PUSH1 0xC ADD DUP2 SWAP1 SSTORE POP PUSH32 0x353F671708CD6413B2B74D3E106EF3692B2B8338E54D08716E7BFF60A869485A DUP10 DUP10 DUP10 DUP10 DUP10 PUSH1 0x40 MLOAD PUSH2 0x13F9 SWAP6 SWAP5 SWAP4 SWAP3 SWAP2 SWAP1 PUSH2 0x41A5 JUMP JUMPDEST PUSH1 0x40 MLOAD DUP1 SWAP2 SUB SWAP1 LOG1 DUP2 SWAP4 POP POP POP POP SWAP6 SWAP5 POP POP POP POP POP JUMP JUMPDEST PUSH1 0x60 PUSH1 0x0 PUSH1 0x1 PUSH1 0x0 DUP5 DUP2 MSTORE PUSH1 0x20 ADD SWAP1 DUP2 MSTORE PUSH1 0x20 ADD PUSH1 0x0 KECCAK256 PUSH1 0x1 ADD PUSH1 0x0 SWAP1 SLOAD SWAP1 PUSH2 0x100 EXP SWAP1 DIV PUSH2 0xFFFF AND PUSH2 0xFFFF AND GT PUSH2 0x147D JUMPI PUSH1 0x40 MLOAD PUSH32 0x8C379A000000000000000000000000000000000000000000000000000000000 DUP2 MSTORE PUSH1 0x4 ADD PUSH2 0x1474 SWAP1 PUSH2 0x3A9F JUMP JUMPDEST PUSH1 0x40 MLOAD DUP1 SWAP2 SUB SWAP1 REVERT JUMPDEST PUSH2 0x1486 DUP3 PUSH2 0x2650 JUMP JUMPDEST PUSH1 0x0 PUSH1 0x3 PUSH1 0x0 DUP5 DUP2 MSTORE PUSH1 0x20 ADD SWAP1 DUP2 MSTORE PUSH1 0x20 ADD PUSH1 0x0 KECCAK256 PUSH1 0x1 ADD SLOAD SWAP1 POP PUSH1 0x0 DUP2 PUSH8 0xFFFFFFFFFFFFFFFF DUP2 GT ISZERO PUSH2 0x14BD JUMPI PUSH2 0x14BC PUSH2 0x3EBC JUMP JUMPDEST JUMPDEST PUSH1 0x40 MLOAD SWAP1 DUP1 DUP3 MSTORE DUP1 PUSH1 0x20 MUL PUSH1 0x20 ADD DUP3 ADD PUSH1 0x40 MSTORE DUP1 ISZERO PUSH2 0x14F6 JUMPI DUP2 PUSH1 0x20 ADD JUMPDEST PUSH2 0x14E3 PUSH2 0x2E55 JUMP JUMPDEST DUP2 MSTORE PUSH1 0x20 ADD SWAP1 PUSH1 0x1 SWAP1 SUB SWAP1 DUP2 PUSH2 0x14DB JUMPI SWAP1 POP JUMPDEST POP SWAP1 POP PUSH1 0x0 JUMPDEST DUP3 DUP2 LT ISZERO PUSH2 0x168F JUMPI PUSH1 0x3 PUSH1 0x0 DUP7 DUP2 MSTORE PUSH1 0x20 ADD SWAP1 DUP2 MSTORE PUSH1 0x20 ADD PUSH1 0x0 KECCAK256 PUSH1 0x0 ADD PUSH1 0x0 DUP3 DUP2 MSTORE PUSH1 0x20 ADD SWAP1 DUP2 MSTORE PUSH1 0x20 ADD PUSH1 0x0 KECCAK256 PUSH1 0x40 MLOAD DUP1 PUSH1 0x60 ADD PUSH1 0x40 MSTORE SWAP1 DUP2 PUSH1 0x0 DUP3 ADD SLOAD DUP2 MSTORE PUSH1 0x20 ADD PUSH1 0x1 DUP3 ADD DUP1 SLOAD PUSH2 0x1550 SWAP1 PUSH2 0x3E1F JUMP JUMPDEST DUP1 PUSH1 0x1F ADD PUSH1 0x20 DUP1 SWAP2 DIV MUL PUSH1 0x20 ADD PUSH1 0x40 MLOAD SWAP1 DUP2 ADD PUSH1 0x40 MSTORE DUP1 SWAP3 SWAP2 SWAP1 DUP2 DUP2 MSTORE PUSH1 0x20 ADD DUP3 DUP1 SLOAD PUSH2 0x157C SWAP1 PUSH2 0x3E1F JUMP JUMPDEST DUP1 ISZERO PUSH2 0x15C9 JUMPI DUP1 PUSH1 0x1F LT PUSH2 0x159E JUMPI PUSH2 0x100 DUP1 DUP4 SLOAD DIV MUL DUP4 MSTORE SWAP2 PUSH1 0x20 ADD SWAP2 PUSH2 0x15C9 JUMP JUMPDEST DUP3 ADD SWAP2 SWAP1 PUSH1 0x0 MSTORE PUSH1 0x20 PUSH1 0x0 KECCAK256 SWAP1 JUMPDEST DUP2 SLOAD DUP2 MSTORE SWAP1 PUSH1 0x1 ADD SWAP1 PUSH1 0x20 ADD DUP1 DUP4 GT PUSH2 0x15AC JUMPI DUP3 SWAP1 SUB PUSH1 0x1F AND DUP3 ADD SWAP2 JUMPDEST POP POP POP POP POP DUP2 MSTORE PUSH1 0x20 ADD PUSH1 0x2 DUP3 ADD DUP1 SLOAD PUSH2 0x15E2 SWAP1 PUSH2 0x3E1F JUMP JUMPDEST DUP1 PUSH1 0x1F ADD PUSH1 0x20 DUP1 SWAP2 DIV MUL PUSH1 0x20 ADD PUSH1 0x40 MLOAD SWAP1 DUP2 ADD PUSH1 0x40 MSTORE DUP1 SWAP3 SWAP2 SWAP1 DUP2 DUP2 MSTORE PUSH1 0x20 ADD DUP3 DUP1 SLOAD PUSH2 0x160E SWAP1 PUSH2 0x3E1F JUMP JUMPDEST DUP1 ISZERO PUSH2 0x165B JUMPI DUP1 PUSH1 0x1F LT PUSH2 0x1630 JUMPI PUSH2 0x100 DUP1 DUP4 SLOAD DIV MUL DUP4 MSTORE SWAP2 PUSH1 0x20 ADD SWAP2 PUSH2 0x165B JUMP JUMPDEST DUP3 ADD SWAP2 SWAP1 PUSH1 0x0 MSTORE PUSH1 0x20 PUSH1 0x0 KECCAK256 SWAP1 JUMPDEST DUP2 SLOAD DUP2 MSTORE SWAP1 PUSH1 0x1 ADD SWAP1 PUSH1 0x20 ADD DUP1 DUP4 GT PUSH2 0x163E JUMPI DUP3 SWAP1 SUB PUSH1 0x1F AND DUP3 ADD SWAP2 JUMPDEST POP POP POP POP POP DUP2 MSTORE POP POP DUP3 DUP3 DUP2 MLOAD DUP2 LT PUSH2 0x1677 JUMPI PUSH2 0x1676 PUSH2 0x41EE JUMP JUMPDEST JUMPDEST PUSH1 0x20 MUL PUSH1 0x20 ADD ADD DUP2 SWAP1 MSTORE POP DUP1 DUP1 PUSH1 0x1 ADD SWAP2 POP POP PUSH2 0x14FC JUMP JUMPDEST POP DUP1 SWAP3 POP POP POP SWAP2 SWAP1 POP JUMP JUMPDEST PUSH1 0x60 PUSH1 0x0 PUSH1 0x1 PUSH1 0x0 DUP5 DUP2 MSTORE PUSH1 0x20 ADD SWAP1 DUP2 MSTORE PUSH1 0x20 ADD PUSH1 0x0 KECCAK256 PUSH1 0x1 ADD PUSH1 0x0 SWAP1 SLOAD SWAP1 PUSH2 0x100 EXP SWAP1 DIV PUSH2 0xFFFF AND PUSH2 0xFFFF AND GT PUSH2 0x1707 JUMPI PUSH1 0x40 MLOAD PUSH32 0x8C379A000000000000000000000000000000000000000000000000000000000 DUP2 MSTORE PUSH1 0x4 ADD PUSH2 0x16FE SWAP1 PUSH2 0x3A9F JUMP JUMPDEST PUSH1 0x40 MLOAD DUP1 SWAP2 SUB SWAP1 REVERT JUMPDEST PUSH1 0x0 PUSH1 0x2 PUSH1 0x0 DUP5 DUP2 MSTORE PUSH1 0x20 ADD SWAP1 DUP2 MSTORE PUSH1 0x20 ADD PUSH1 0x0 KECCAK256 PUSH1 0x1 ADD SLOAD SWAP1 POP PUSH1 0x0 DUP2 PUSH8 0xFFFFFFFFFFFFFFFF DUP2 GT ISZERO PUSH2 0x173E JUMPI PUSH2 0x173D PUSH2 0x3EBC JUMP JUMPDEST JUMPDEST PUSH1 0x40 MLOAD SWAP1 DUP1 DUP3 MSTORE DUP1 PUSH1 0x20 MUL PUSH1 0x20 ADD DUP3 ADD PUSH1 0x40 MSTORE DUP1 ISZERO PUSH2 0x1777 JUMPI DUP2 PUSH1 0x20 ADD JUMPDEST PUSH2 0x1764 PUSH2 0x2DD3 JUMP JUMPDEST DUP2 MSTORE PUSH1 0x20 ADD SWAP1 PUSH1 0x1 SWAP1 SUB SWAP1 DUP2 PUSH2 0x175C JUMPI SWAP1 POP JUMPDEST POP SWAP1 POP PUSH1 0x0 JUMPDEST DUP3 DUP2 LT ISZERO PUSH2 0x17BA JUMPI PUSH2 0x178F DUP6 DUP3 PUSH2 0x1F51 JUMP JUMPDEST DUP3 DUP3 DUP2 MLOAD DUP2 LT PUSH2 0x17A2 JUMPI PUSH2 0x17A1 PUSH2 0x41EE JUMP JUMPDEST JUMPDEST PUSH1 0x20 MUL PUSH1 0x20 ADD ADD DUP2 SWAP1 MSTORE POP DUP1 DUP1 PUSH1 0x1 ADD SWAP2 POP POP PUSH2 0x177D JUMP JUMPDEST POP DUP1 SWAP3 POP POP POP SWAP2 SWAP1 POP JUMP JUMPDEST PUSH2 0x17CD PUSH2 0x2E79 JUMP JUMPDEST PUSH1 0x0 DUP9 DUP9 SWAP1 POP GT PUSH2 0x1813 JUMPI PUSH1 0x40 MLOAD PUSH32 0x8C379A000000000000000000000000000000000000000000000000000000000 DUP2 MSTORE PUSH1 0x4 ADD PUSH2 0x180A SWAP1 PUSH2 0x4269 JUMP JUMPDEST PUSH1 0x40 MLOAD DUP1 SWAP2 SUB SWAP1 REVERT JUMPDEST PUSH1 0x0 DUP5 DUP5 SWAP1 POP GT PUSH2 0x1859 JUMPI PUSH1 0x40 MLOAD PUSH32 0x8C379A000000000000000000000000000000000000000000000000000000000 DUP2 MSTORE PUSH1 0x4 ADD PUSH2 0x1850 SWAP1 PUSH2 0x42D5 JUMP JUMPDEST PUSH1 0x40 MLOAD DUP1 SWAP2 SUB SWAP1 REVERT JUMPDEST PUSH1 0x0 DUP3 PUSH2 0xFFFF AND GT PUSH2 0x18A0 JUMPI PUSH1 0x40 MLOAD PUSH32 0x8C379A000000000000000000000000000000000000000000000000000000000 DUP2 MSTORE PUSH1 0x4 ADD PUSH2 0x1897 SWAP1 PUSH2 0x4341 JUMP JUMPDEST PUSH1 0x40 MLOAD DUP1 SWAP2 SUB SWAP1 REVERT JUMPDEST PUSH1 0x0 PUSH2 0x1935 DUP10 DUP10 DUP1 DUP1 PUSH1 0x1F ADD PUSH1 0x20 DUP1 SWAP2 DIV MUL PUSH1 0x20 ADD PUSH1 0x40 MLOAD SWAP1 DUP2 ADD PUSH1 0x40 MSTORE DUP1 SWAP4 SWAP3 SWAP2 SWAP1 DUP2 DUP2 MSTORE PUSH1 0x20 ADD DUP4 DUP4 DUP1 DUP3 DUP5 CALLDATACOPY PUSH1 0x0 DUP2 DUP5 ADD MSTORE PUSH1 0x1F NOT PUSH1 0x1F DUP3 ADD AND SWAP1 POP DUP1 DUP4 ADD SWAP3 POP POP POP POP POP POP POP DUP5 DUP8 DUP8 DUP1 DUP1 PUSH1 0x1F ADD PUSH1 0x20 DUP1 SWAP2 DIV MUL PUSH1 0x20 ADD PUSH1 0x40 MLOAD SWAP1 DUP2 ADD PUSH1 0x40 MSTORE DUP1 SWAP4 SWAP3 SWAP2 SWAP1 DUP2 DUP2 MSTORE PUSH1 0x20 ADD DUP4 DUP4 DUP1 DUP3 DUP5 CALLDATACOPY PUSH1 0x0 DUP2 DUP5 ADD MSTORE PUSH1 0x1F NOT PUSH1 0x1F DUP3 ADD AND SWAP1 POP DUP1 DUP4 ADD SWAP3 POP POP POP POP POP POP POP PUSH2 0x2CBF JUMP JUMPDEST SWAP1 POP PUSH2 0x1940 DUP2 PUSH2 0x2650 JUMP JUMPDEST PUSH1 0x0 PUSH1 0x40 MLOAD DUP1 PUSH2 0x100 ADD PUSH1 0x40 MSTORE DUP1 DUP12 DUP12 DUP1 DUP1 PUSH1 0x1F ADD PUSH1 0x20 DUP1 SWAP2 DIV MUL PUSH1 0x20 ADD PUSH1 0x40 MLOAD SWAP1 DUP2 ADD PUSH1 0x40 MSTORE DUP1 SWAP4 SWAP3 SWAP2 SWAP1 DUP2 DUP2 MSTORE PUSH1 0x20 ADD DUP4 DUP4 DUP1 DUP3 DUP5 CALLDATACOPY PUSH1 0x0 DUP2 DUP5 ADD MSTORE PUSH1 0x1F NOT PUSH1 0x1F DUP3 ADD AND SWAP1 POP DUP1 DUP4 ADD SWAP3 POP POP POP POP POP POP POP DUP2 MSTORE PUSH1 0x20 ADD DUP6 PUSH2 0xFFFF AND DUP2 MSTORE PUSH1 0x20 ADD DUP8 DUP8 DUP1 DUP1 PUSH1 0x1F ADD PUSH1 0x20 DUP1 SWAP2 DIV MUL PUSH1 0x20 ADD PUSH1 0x40 MLOAD SWAP1 DUP2 ADD PUSH1 0x40 MSTORE DUP1 SWAP4 SWAP3 SWAP2 SWAP1 DUP2 DUP2 MSTORE PUSH1 0x20 ADD DUP4 DUP4 DUP1 DUP3 DUP5 CALLDATACOPY PUSH1 0x0 DUP2 DUP5 ADD MSTORE PUSH1 0x1F NOT PUSH1 0x1F DUP3 ADD AND SWAP1 POP DUP1 DUP4 ADD SWAP3 POP POP POP POP POP POP POP DUP2 MSTORE PUSH1 0x20 ADD PUSH1 0x40 MLOAD DUP1 PUSH1 0x20 ADD PUSH1 0x40 MSTORE DUP1 PUSH1 0x0 DUP2 MSTORE POP DUP2 MSTORE PUSH1 0x20 ADD PUSH1 0x40 MLOAD DUP1 PUSH1 0x20 ADD PUSH1 0x40 MSTORE DUP1 PUSH1 0x0 DUP2 MSTORE POP DUP2 MSTORE PUSH1 0x20 ADD PUSH1 0x1 ISZERO ISZERO DUP2 MSTORE PUSH1 0x20 ADD DUP10 DUP10 DUP1 DUP1 PUSH1 0x1F ADD PUSH1 0x20 DUP1 SWAP2 DIV MUL PUSH1 0x20 ADD PUSH1 0x40 MLOAD SWAP1 DUP2 ADD PUSH1 0x40 MSTORE DUP1 SWAP4 SWAP3 SWAP2 SWAP1 DUP2 DUP2 MSTORE PUSH1 0x20 ADD DUP4 DUP4 DUP1 DUP3 DUP5 CALLDATACOPY PUSH1 0x0 DUP2 DUP5 ADD MSTORE PUSH1 0x1F NOT PUSH1 0x1F DUP3 ADD AND SWAP1 POP DUP1 DUP4 ADD SWAP3 POP POP POP POP POP POP POP DUP2 MSTORE PUSH1 0x20 ADD DUP4 DUP2 MSTORE POP SWAP1 POP PUSH1 0x0 PUSH1 0x1 PUSH1 0x0 DUP5 DUP2 MSTORE PUSH1 0x20 ADD SWAP1 DUP2 MSTORE PUSH1 0x20 ADD PUSH1 0x0 KECCAK256 PUSH1 0x1 ADD PUSH1 0x0 SWAP1 SLOAD SWAP1 PUSH2 0x100 EXP SWAP1 DIV PUSH2 0xFFFF AND PUSH2 0xFFFF AND SUB PUSH2 0x1BBB JUMPI DUP1 PUSH1 0x1 PUSH1 0x0 DUP5 DUP2 MSTORE PUSH1 0x20 ADD SWAP1 DUP2 MSTORE PUSH1 0x20 ADD PUSH1 0x0 KECCAK256 PUSH1 0x0 DUP3 ADD MLOAD DUP2 PUSH1 0x0 ADD SWAP1 DUP2 PUSH2 0x1AC8 SWAP2 SWAP1 PUSH2 0x4097 JUMP JUMPDEST POP PUSH1 0x20 DUP3 ADD MLOAD DUP2 PUSH1 0x1 ADD PUSH1 0x0 PUSH2 0x100 EXP DUP2 SLOAD DUP2 PUSH2 0xFFFF MUL NOT AND SWAP1 DUP4 PUSH2 0xFFFF AND MUL OR SWAP1 SSTORE POP PUSH1 0x40 DUP3 ADD MLOAD DUP2 PUSH1 0x2 ADD SWAP1 DUP2 PUSH2 0x1B01 SWAP2 SWAP1 PUSH2 0x4097 JUMP JUMPDEST POP PUSH1 0x60 DUP3 ADD MLOAD DUP2 PUSH1 0x3 ADD SWAP1 DUP2 PUSH2 0x1B17 SWAP2 SWAP1 PUSH2 0x4097 JUMP JUMPDEST POP PUSH1 0x80 DUP3 ADD MLOAD DUP2 PUSH1 0x4 ADD SWAP1 DUP2 PUSH2 0x1B2D SWAP2 SWAP1 PUSH2 0x4097 JUMP JUMPDEST POP PUSH1 0xA0 DUP3 ADD MLOAD DUP2 PUSH1 0x5 ADD PUSH1 0x0 PUSH2 0x100 EXP DUP2 SLOAD DUP2 PUSH1 0xFF MUL NOT AND SWAP1 DUP4 ISZERO ISZERO MUL OR SWAP1 SSTORE POP PUSH1 0xC0 DUP3 ADD MLOAD DUP2 PUSH1 0x6 ADD SWAP1 DUP2 PUSH2 0x1B63 SWAP2 SWAP1 PUSH2 0x4097 JUMP JUMPDEST POP PUSH1 0xE0 DUP3 ADD MLOAD DUP2 PUSH1 0x7 ADD SSTORE SWAP1 POP POP PUSH32 0xE221857CDF5C581B0F0FF25967667B13DA78F93170EE70EED41682CD2195AD46 DUP3 DUP3 PUSH1 0x0 ADD MLOAD DUP4 PUSH1 0x40 ADD MLOAD DUP5 PUSH1 0x20 ADD MLOAD PUSH1 0x40 MLOAD PUSH2 0x1BB2 SWAP5 SWAP4 SWAP3 SWAP2 SWAP1 PUSH2 0x4392 JUMP JUMPDEST PUSH1 0x40 MLOAD DUP1 SWAP2 SUB SWAP1 LOG1 JUMPDEST DUP1 SWAP3 POP POP POP SWAP8 SWAP7 POP POP POP POP POP POP POP JUMP JUMPDEST PUSH1 0x0 DUP1 PUSH1 0x2 PUSH1 0x0 DUP5 DUP2 MSTORE PUSH1 0x20 ADD SWAP1 DUP2 MSTORE PUSH1 0x20 ADD PUSH1 0x0 KECCAK256 PUSH1 0x1 ADD SLOAD SUB PUSH2 0x1BF3 JUMPI PUSH1 0x0 SWAP1 POP PUSH2 0x1C5C JUMP JUMPDEST PUSH1 0x0 PUSH1 0x2 PUSH1 0x0 DUP5 DUP2 MSTORE PUSH1 0x20 ADD SWAP1 DUP2 MSTORE PUSH1 0x20 ADD PUSH1 0x0 KECCAK256 PUSH1 0x0 ADD PUSH1 0x0 PUSH1 0x1 PUSH1 0x2 PUSH1 0x0 DUP8 DUP2 MSTORE PUSH1 0x20 ADD SWAP1 DUP2 MSTORE PUSH1 0x20 ADD PUSH1 0x0 KECCAK256 PUSH1 0x1 ADD SLOAD PUSH2 0x1C30 SWAP2 SWAP1 PUSH2 0x3D10 JUMP JUMPDEST DUP2 MSTORE PUSH1 0x20 ADD SWAP1 DUP2 MSTORE PUSH1 0x20 ADD PUSH1 0x0 KECCAK256 PUSH1 0xE ADD SLOAD SWAP1 POP TIMESTAMP DUP2 LT ISZERO PUSH2 0x1C56 JUMPI PUSH1 0x0 SWAP2 POP POP PUSH2 0x1C5C JUMP JUMPDEST PUSH1 0x1 SWAP2 POP POP JUMPDEST SWAP2 SWAP1 POP JUMP JUMPDEST PUSH1 0x0 DUP1 PUSH2 0x1C6D DUP4 PUSH2 0x1EE6 JUMP JUMPDEST PUSH4 0xFFFFFFFF AND GT SWAP1 POP SWAP2 SWAP1 POP JUMP JUMPDEST PUSH1 0x0 DUP1 PUSH1 0x2 PUSH1 0x0 DUP6 DUP2 MSTORE PUSH1 0x20 ADD SWAP1 DUP2 MSTORE PUSH1 0x20 ADD PUSH1 0x0 KECCAK256 PUSH1 0x0 ADD PUSH1 0x0 PUSH1 0x1 PUSH1 0x2 PUSH1 0x0 DUP9 DUP2 MSTORE PUSH1 0x20 ADD SWAP1 DUP2 MSTORE PUSH1 0x20 ADD PUSH1 0x0 KECCAK256 PUSH1 0x1 ADD SLOAD PUSH2 0x1CB9 SWAP2 SWAP1 PUSH2 0x3D10 JUMP JUMPDEST DUP2 MSTORE PUSH1 0x20 ADD SWAP1 DUP2 MSTORE PUSH1 0x20 ADD PUSH1 0x0 KECCAK256 PUSH1 0x6 ADD PUSH1 0x4 ADD SLOAD SWAP1 POP PUSH1 0x0 JUMPDEST DUP2 DUP2 LT ISZERO PUSH2 0x1DA9 JUMPI DUP4 PUSH20 0xFFFFFFFFFFFFFFFFFFFFFFFFFFFFFFFFFFFFFFFF AND PUSH1 0x2 PUSH1 0x0 DUP8 DUP2 MSTORE PUSH1 0x20 ADD SWAP1 DUP2 MSTORE PUSH1 0x20 ADD PUSH1 0x0 KECCAK256 PUSH1 0x0 ADD PUSH1 0x0 PUSH1 0x1 PUSH1 0x2 PUSH1 0x0 DUP11 DUP2 MSTORE PUSH1 0x20 ADD SWAP1 DUP2 MSTORE PUSH1 0x20 ADD PUSH1 0x0 KECCAK256 PUSH1 0x1 ADD SLOAD PUSH2 0x1D2D SWAP2 SWAP1 PUSH2 0x3D10 JUMP JUMPDEST DUP2 MSTORE PUSH1 0x20 ADD SWAP1 DUP2 MSTORE PUSH1 0x20 ADD PUSH1 0x0 KECCAK256 PUSH1 0x6 ADD PUSH1 0x3 ADD PUSH1 0x0 DUP4 DUP2 MSTORE PUSH1 0x20 ADD SWAP1 DUP2 MSTORE PUSH1 0x20 ADD PUSH1 0x0 KECCAK256 PUSH1 0x0 ADD PUSH1 0x4 SWAP1 SLOAD SWAP1 PUSH2 0x100 EXP SWAP1 DIV PUSH20 0xFFFFFFFFFFFFFFFFFFFFFFFFFFFFFFFFFFFFFFFF AND PUSH20 0xFFFFFFFFFFFFFFFFFFFFFFFFFFFFFFFFFFFFFFFF AND SUB PUSH2 0x1D9C JUMPI PUSH1 0x1 SWAP3 POP POP POP PUSH2 0x1EE0 JUMP JUMPDEST DUP1 DUP1 PUSH1 0x1 ADD SWAP2 POP POP PUSH2 0x1CD3 JUMP JUMPDEST POP PUSH1 0x0 PUSH1 0x2 PUSH1 0x0 DUP7 DUP2 MSTORE PUSH1 0x20 ADD SWAP1 DUP2 MSTORE PUSH1 0x20 ADD PUSH1 0x0 KECCAK256 PUSH1 0x0 ADD PUSH1 0x0 PUSH1 0x1 PUSH1 0x2 PUSH1 0x0 DUP10 DUP2 MSTORE PUSH1 0x20 ADD SWAP1 DUP2 MSTORE PUSH1 0x20 ADD PUSH1 0x0 KECCAK256 PUSH1 0x1 ADD SLOAD PUSH2 0x1DE7 SWAP2 SWAP1 PUSH2 0x3D10 JUMP JUMPDEST DUP2 MSTORE PUSH1 0x20 ADD SWAP1 DUP2 MSTORE PUSH1 0x20 ADD PUSH1 0x0 KECCAK256 PUSH1 0x1 ADD PUSH1 0x4 ADD SLOAD SWAP1 POP PUSH1 0x0 JUMPDEST DUP2 DUP2 LT ISZERO PUSH2 0x1ED8 JUMPI DUP5 PUSH20 0xFFFFFFFFFFFFFFFFFFFFFFFFFFFFFFFFFFFFFFFF AND PUSH1 0x2 PUSH1 0x0 DUP9 DUP2 MSTORE PUSH1 0x20 ADD SWAP1 DUP2 MSTORE PUSH1 0x20 ADD PUSH1 0x0 KECCAK256 PUSH1 0x0 ADD PUSH1 0x0 PUSH1 0x1 PUSH1 0x2 PUSH1 0x0 DUP12 DUP2 MSTORE PUSH1 0x20 ADD SWAP1 DUP2 MSTORE PUSH1 0x20 ADD PUSH1 0x0 KECCAK256 PUSH1 0x1 ADD SLOAD PUSH2 0x1E5B SWAP2 SWAP1 PUSH2 0x3D10 JUMP JUMPDEST DUP2 MSTORE PUSH1 0x20 ADD SWAP1 DUP2 MSTORE PUSH1 0x20 ADD PUSH1 0x0 KECCAK256 PUSH1 0x1 ADD PUSH1 0x3 ADD PUSH1 0x0 DUP4 DUP2 MSTORE PUSH1 0x20 ADD SWAP1 DUP2 MSTORE PUSH1 0x20 ADD PUSH1 0x0 KECCAK256 PUSH1 0x0 ADD PUSH1 0x4 SWAP1 SLOAD SWAP1 PUSH2 0x100 EXP SWAP1 DIV PUSH20 0xFFFFFFFFFFFFFFFFFFFFFFFFFFFFFFFFFFFFFFFF AND PUSH20 0xFFFFFFFFFFFFFFFFFFFFFFFFFFFFFFFFFFFFFFFF AND SUB PUSH2 0x1ECB JUMPI PUSH1 0x1 SWAP4 POP POP POP POP PUSH2 0x1EE0 JUMP JUMPDEST DUP1 DUP1 PUSH1 0x1 ADD SWAP2 POP POP PUSH2 0x1E01 JUMP JUMPDEST POP PUSH1 0x0 SWAP3 POP POP POP JUMPDEST SWAP3 SWAP2 POP POP JUMP JUMPDEST PUSH1 0x0 DUP1 PUSH1 0x1 SWAP1 POP JUMPDEST DUP3 PUSH4 0xFFFFFFFF AND DUP2 DUP3 PUSH2 0x1F01 SWAP2 SWAP1 PUSH2 0x43E5 JUMP JUMPDEST PUSH4 0xFFFFFFFF AND GT PUSH2 0x1F46 JUMPI DUP3 PUSH4 0xFFFFFFFF AND DUP2 DUP3 PUSH2 0x1F1F SWAP2 SWAP1 PUSH2 0x43E5 JUMP JUMPDEST PUSH4 0xFFFFFFFF AND SUB PUSH2 0x1F33 JUMPI DUP1 SWAP2 POP POP PUSH2 0x1F4C JUMP JUMPDEST DUP1 DUP1 PUSH2 0x1F3E SWAP1 PUSH2 0x4422 JUMP JUMPDEST SWAP2 POP POP PUSH2 0x1EEE JUMP JUMPDEST POP PUSH1 0x0 SWAP1 POP JUMPDEST SWAP2 SWAP1 POP JUMP JUMPDEST PUSH2 0x1F59 PUSH2 0x2DD3 JUMP JUMPDEST PUSH1 0x0 PUSH1 0x2 PUSH1 0x0 DUP6 DUP2 MSTORE PUSH1 0x20 ADD SWAP1 DUP2 MSTORE PUSH1 0x20 ADD PUSH1 0x0 KECCAK256 PUSH1 0x0 ADD PUSH1 0x0 DUP5 DUP2 MSTORE PUSH1 0x20 ADD SWAP1 DUP2 MSTORE PUSH1 0x20 ADD PUSH1 0x0 KECCAK256 PUSH1 0x1 ADD PUSH1 0x4 ADD SLOAD PUSH8 0xFFFFFFFFFFFFFFFF DUP2 GT ISZERO PUSH2 0x1FA2 JUMPI PUSH2 0x1FA1 PUSH2 0x3EBC JUMP JUMPDEST JUMPDEST PUSH1 0x40 MLOAD SWAP1 DUP1 DUP3 MSTORE DUP1 PUSH1 0x20 MUL PUSH1 0x20 ADD DUP3 ADD PUSH1 0x40 MSTORE DUP1 ISZERO PUSH2 0x1FDB JUMPI DUP2 PUSH1 0x20 ADD JUMPDEST PUSH2 0x1FC8 PUSH2 0x2E1F JUMP JUMPDEST DUP2 MSTORE PUSH1 0x20 ADD SWAP1 PUSH1 0x1 SWAP1 SUB SWAP1 DUP2 PUSH2 0x1FC0 JUMPI SWAP1 POP JUMPDEST POP SWAP1 POP PUSH1 0x0 JUMPDEST DUP2 MLOAD DUP2 LT ISZERO PUSH2 0x20DA JUMPI PUSH1 0x2 PUSH1 0x0 DUP7 DUP2 MSTORE PUSH1 0x20 ADD SWAP1 DUP2 MSTORE PUSH1 0x20 ADD PUSH1 0x0 KECCAK256 PUSH1 0x0 ADD PUSH1 0x0 DUP6 DUP2 MSTORE PUSH1 0x20 ADD SWAP1 DUP2 MSTORE PUSH1 0x20 ADD PUSH1 0x0 KECCAK256 PUSH1 0x1 ADD PUSH1 0x3 ADD PUSH1 0x0 DUP3 DUP2 MSTORE PUSH1 0x20 ADD SWAP1 DUP2 MSTORE PUSH1 0x20 ADD PUSH1 0x0 KECCAK256 PUSH1 0x40 MLOAD DUP1 PUSH1 0x40 ADD PUSH1 0x40 MSTORE SWAP1 DUP2 PUSH1 0x0 DUP3 ADD PUSH1 0x0 SWAP1 SLOAD SWAP1 PUSH2 0x100 EXP SWAP1 DIV PUSH4 0xFFFFFFFF AND PUSH4 0xFFFFFFFF AND PUSH4 0xFFFFFFFF AND DUP2 MSTORE PUSH1 0x20 ADD PUSH1 0x0 DUP3 ADD PUSH1 0x4 SWAP1 SLOAD SWAP1 PUSH2 0x100 EXP SWAP1 DIV PUSH20 0xFFFFFFFFFFFFFFFFFFFFFFFFFFFFFFFFFFFFFFFF AND PUSH20 0xFFFFFFFFFFFFFFFFFFFFFFFFFFFFFFFFFFFFFFFF AND PUSH20 0xFFFFFFFFFFFFFFFFFFFFFFFFFFFFFFFFFFFFFFFF AND DUP2 MSTORE POP POP DUP3 DUP3 DUP2 MLOAD DUP2 LT PUSH2 0x20C2 JUMPI PUSH2 0x20C1 PUSH2 0x41EE JUMP JUMPDEST JUMPDEST PUSH1 0x20 MUL PUSH1 0x20 ADD ADD DUP2 SWAP1 MSTORE POP DUP1 DUP1 PUSH1 0x1 ADD SWAP2 POP POP PUSH2 0x1FE1 JUMP JUMPDEST POP PUSH1 0x0 PUSH1 0x2 PUSH1 0x0 DUP7 DUP2 MSTORE PUSH1 0x20 ADD SWAP1 DUP2 MSTORE PUSH1 0x20 ADD PUSH1 0x0 KECCAK256 PUSH1 0x0 ADD PUSH1 0x0 DUP6 DUP2 MSTORE PUSH1 0x20 ADD SWAP1 DUP2 MSTORE PUSH1 0x20 ADD PUSH1 0x0 KECCAK256 PUSH1 0x6 ADD PUSH1 0x4 ADD SLOAD PUSH8 0xFFFFFFFFFFFFFFFF DUP2 GT ISZERO PUSH2 0x2124 JUMPI PUSH2 0x2123 PUSH2 0x3EBC JUMP JUMPDEST JUMPDEST PUSH1 0x40 MLOAD SWAP1 DUP1 DUP3 MSTORE DUP1 PUSH1 0x20 MUL PUSH1 0x20 ADD DUP3 ADD PUSH1 0x40 MSTORE DUP1 ISZERO PUSH2 0x215D JUMPI DUP2 PUSH1 0x20 ADD JUMPDEST PUSH2 0x214A PUSH2 0x2E1F JUMP JUMPDEST DUP2 MSTORE PUSH1 0x20 ADD SWAP1 PUSH1 0x1 SWAP1 SUB SWAP1 DUP2 PUSH2 0x2142 JUMPI SWAP1 POP JUMPDEST POP SWAP1 POP PUSH1 0x0 JUMPDEST DUP2 MLOAD DUP2 LT ISZERO PUSH2 0x225C JUMPI PUSH1 0x2 PUSH1 0x0 DUP8 DUP2 MSTORE PUSH1 0x20 ADD SWAP1 DUP2 MSTORE PUSH1 0x20 ADD PUSH1 0x0 KECCAK256 PUSH1 0x0 ADD PUSH1 0x0 DUP7 DUP2 MSTORE PUSH1 0x20 ADD SWAP1 DUP2 MSTORE PUSH1 0x20 ADD PUSH1 0x0 KECCAK256 PUSH1 0x6 ADD PUSH1 0x3 ADD PUSH1 0x0 DUP3 DUP2 MSTORE PUSH1 0x20 ADD SWAP1 DUP2 MSTORE PUSH1 0x20 ADD PUSH1 0x0 KECCAK256 PUSH1 0x40 MLOAD DUP1 PUSH1 0x40 ADD PUSH1 0x40 MSTORE SWAP1 DUP2 PUSH1 0x0 DUP3 ADD PUSH1 0x0 SWAP1 SLOAD SWAP1 PUSH2 0x100 EXP SWAP1 DIV PUSH4 0xFFFFFFFF AND PUSH4 0xFFFFFFFF AND PUSH4 0xFFFFFFFF AND DUP2 MSTORE PUSH1 0x20 ADD PUSH1 0x0 DUP3 ADD PUSH1 0x4 SWAP1 SLOAD SWAP1 PUSH2 0x100 EXP SWAP1 DIV PUSH20 0xFFFFFFFFFFFFFFFFFFFFFFFFFFFFFFFFFFFFFFFF AND PUSH20 0xFFFFFFFFFFFFFFFFFFFFFFFFFFFFFFFFFFFFFFFF AND PUSH20 0xFFFFFFFFFFFFFFFFFFFFFFFFFFFFFFFFFFFFFFFF AND DUP2 MSTORE POP POP DUP3 DUP3 DUP2 MLOAD DUP2 LT PUSH2 0x2244 JUMPI PUSH2 0x2243 PUSH2 0x41EE JUMP JUMPDEST JUMPDEST PUSH1 0x20 MUL PUSH1 0x20 ADD ADD DUP2 SWAP1 MSTORE POP DUP1 DUP1 PUSH1 0x1 ADD SWAP2 POP POP PUSH2 0x2163 JUMP JUMPDEST POP PUSH1 0x0 PUSH1 0x40 MLOAD DUP1 PUSH1 0xE0 ADD PUSH1 0x40 MSTORE DUP1 DUP8 DUP2 MSTORE PUSH1 0x20 ADD PUSH1 0x40 MLOAD DUP1 PUSH1 0x40 ADD PUSH1 0x40 MSTORE DUP1 PUSH1 0x40 MLOAD DUP1 PUSH1 0x60 ADD PUSH1 0x40 MSTORE DUP1 DUP12 DUP2 MSTORE PUSH1 0x20 ADD PUSH1 0x1 PUSH1 0x0 DUP14 DUP2 MSTORE PUSH1 0x20 ADD SWAP1 DUP2 MSTORE PUSH1 0x20 ADD PUSH1 0x0 KECCAK256 PUSH1 0x3 ADD DUP1 SLOAD PUSH2 0x22AD SWAP1 PUSH2 0x3E1F JUMP JUMPDEST DUP1 PUSH1 0x1F ADD PUSH1 0x20 DUP1 SWAP2 DIV MUL PUSH1 0x20 ADD PUSH1 0x40 MLOAD SWAP1 DUP2 ADD PUSH1 0x40 MSTORE DUP1 SWAP3 SWAP2 SWAP1 DUP2 DUP2 MSTORE PUSH1 0x20 ADD DUP3 DUP1 SLOAD PUSH2 0x22D9 SWAP1 PUSH2 0x3E1F JUMP JUMPDEST DUP1 ISZERO PUSH2 0x2326 JUMPI DUP1 PUSH1 0x1F LT PUSH2 0x22FB JUMPI PUSH2 0x100 DUP1 DUP4 SLOAD DIV MUL DUP4 MSTORE SWAP2 PUSH1 0x20 ADD SWAP2 PUSH2 0x2326 JUMP JUMPDEST DUP3 ADD SWAP2 SWAP1 PUSH1 0x0 MSTORE PUSH1 0x20 PUSH1 0x0 KECCAK256 SWAP1 JUMPDEST DUP2 SLOAD DUP2 MSTORE SWAP1 PUSH1 0x1 ADD SWAP1 PUSH1 0x20 ADD DUP1 DUP4 GT PUSH2 0x2309 JUMPI DUP3 SWAP1 SUB PUSH1 0x1F AND DUP3 ADD SWAP2 JUMPDEST POP POP POP POP POP DUP2 MSTORE PUSH1 0x20 ADD PUSH1 0x1 PUSH1 0x0 DUP14 DUP2 MSTORE PUSH1 0x20 ADD SWAP1 DUP2 MSTORE PUSH1 0x20 ADD PUSH1 0x0 KECCAK256 PUSH1 0x4 ADD DUP1 SLOAD PUSH2 0x2351 SWAP1 PUSH2 0x3E1F JUMP JUMPDEST DUP1 PUSH1 0x1F ADD PUSH1 0x20 DUP1 SWAP2 DIV MUL PUSH1 0x20 ADD PUSH1 0x40 MLOAD SWAP1 DUP2 ADD PUSH1 0x40 MSTORE DUP1 SWAP3 SWAP2 SWAP1 DUP2 DUP2 MSTORE PUSH1 0x20 ADD DUP3 DUP1 SLOAD PUSH2 0x237D SWAP1 PUSH2 0x3E1F JUMP JUMPDEST DUP1 ISZERO PUSH2 0x23CA JUMPI DUP1 PUSH1 0x1F LT PUSH2 0x239F JUMPI PUSH2 0x100 DUP1 DUP4 SLOAD DIV MUL DUP4 MSTORE SWAP2 PUSH1 0x20 ADD SWAP2 PUSH2 0x23CA JUMP JUMPDEST DUP3 ADD SWAP2 SWAP1 PUSH1 0x0 MSTORE PUSH1 0x20 PUSH1 0x0 KECCAK256 SWAP1 JUMPDEST DUP2 SLOAD DUP2 MSTORE SWAP1 PUSH1 0x1 ADD SWAP1 PUSH1 0x20 ADD DUP1 DUP4 GT PUSH2 0x23AD JUMPI DUP3 SWAP1 SUB PUSH1 0x1F AND DUP3 ADD SWAP2 JUMPDEST POP POP POP POP POP DUP2 MSTORE POP DUP2 MSTORE PUSH1 0x20 ADD DUP7 DUP2 MSTORE POP DUP2 MSTORE PUSH1 0x20 ADD PUSH1 0x40 MLOAD DUP1 PUSH1 0x40 ADD PUSH1 0x40 MSTORE DUP1 PUSH1 0x40 MLOAD DUP1 PUSH1 0x60 ADD PUSH1 0x40 MSTORE DUP1 DUP12 DUP2 MSTORE PUSH1 0x20 ADD PUSH1 0x2 PUSH1 0x0 DUP14 DUP2 MSTORE PUSH1 0x20 ADD SWAP1 DUP2 MSTORE PUSH1 0x20 ADD PUSH1 0x0 KECCAK256 PUSH1 0x0 ADD PUSH1 0x0 DUP13 DUP2 MSTORE PUSH1 0x20 ADD SWAP1 DUP2 MSTORE PUSH1 0x20 ADD PUSH1 0x0 KECCAK256 PUSH1 0x6 ADD PUSH1 0x0 ADD PUSH1 0x1 ADD DUP1 SLOAD PUSH2 0x2437 SWAP1 PUSH2 0x3E1F JUMP JUMPDEST DUP1 PUSH1 0x1F ADD PUSH1 0x20 DUP1 SWAP2 DIV MUL PUSH1 0x20 ADD PUSH1 0x40 MLOAD SWAP1 DUP2 ADD PUSH1 0x40 MSTORE DUP1 SWAP3 SWAP2 SWAP1 DUP2 DUP2 MSTORE PUSH1 0x20 ADD DUP3 DUP1 SLOAD PUSH2 0x2463 SWAP1 PUSH2 0x3E1F JUMP JUMPDEST DUP1 ISZERO PUSH2 0x24B0 JUMPI DUP1 PUSH1 0x1F LT PUSH2 0x2485 JUMPI PUSH2 0x100 DUP1 DUP4 SLOAD DIV MUL DUP4 MSTORE SWAP2 PUSH1 0x20 ADD SWAP2 PUSH2 0x24B0 JUMP JUMPDEST DUP3 ADD SWAP2 SWAP1 PUSH1 0x0 MSTORE PUSH1 0x20 PUSH1 0x0 KECCAK256 SWAP1 JUMPDEST DUP2 SLOAD DUP2 MSTORE SWAP1 PUSH1 0x1 ADD SWAP1 PUSH1 0x20 ADD DUP1 DUP4 GT PUSH2 0x2493 JUMPI DUP3 SWAP1 SUB PUSH1 0x1F AND DUP3 ADD SWAP2 JUMPDEST POP POP POP POP POP DUP2 MSTORE PUSH1 0x20 ADD PUSH1 0x2 PUSH1 0x0 DUP14 DUP2 MSTORE PUSH1 0x20 ADD SWAP1 DUP2 MSTORE PUSH1 0x20 ADD PUSH1 0x0 KECCAK256 PUSH1 0x0 ADD PUSH1 0x0 DUP13 DUP2 MSTORE PUSH1 0x20 ADD SWAP1 DUP2 MSTORE PUSH1 0x20 ADD PUSH1 0x0 KECCAK256 PUSH1 0x6 ADD PUSH1 0x0 ADD PUSH1 0x2 ADD DUP1 SLOAD PUSH2 0x24F5 SWAP1 PUSH2 0x3E1F JUMP JUMPDEST DUP1 PUSH1 0x1F ADD PUSH1 0x20 DUP1 SWAP2 DIV MUL PUSH1 0x20 ADD PUSH1 0x40 MLOAD SWAP1 DUP2 ADD PUSH1 0x40 MSTORE DUP1 SWAP3 SWAP2 SWAP1 DUP2 DUP2 MSTORE PUSH1 0x20 ADD DUP3 DUP1 SLOAD PUSH2 0x2521 SWAP1 PUSH2 0x3E1F JUMP JUMPDEST DUP1 ISZERO PUSH2 0x256E JUMPI DUP1 PUSH1 0x1F LT PUSH2 0x2543 JUMPI PUSH2 0x100 DUP1 DUP4 SLOAD DIV MUL DUP4 MSTORE SWAP2 PUSH1 0x20 ADD SWAP2 PUSH2 0x256E JUMP JUMPDEST DUP3 ADD SWAP2 SWAP1 PUSH1 0x0 MSTORE PUSH1 0x20 PUSH1 0x0 KECCAK256 SWAP1 JUMPDEST DUP2 SLOAD DUP2 MSTORE SWAP1 PUSH1 0x1 ADD SWAP1 PUSH1 0x20 ADD DUP1 DUP4 GT PUSH2 0x2551 JUMPI DUP3 SWAP1 SUB PUSH1 0x1F AND DUP3 ADD SWAP2 JUMPDEST POP POP POP POP POP DUP2 MSTORE POP DUP2 MSTORE PUSH1 0x20 ADD DUP6 DUP2 MSTORE POP DUP2 MSTORE PUSH1 0x20 ADD PUSH1 0x2 PUSH1 0x0 DUP10 DUP2 MSTORE PUSH1 0x20 ADD SWAP1 DUP2 MSTORE PUSH1 0x20 ADD PUSH1 0x0 KECCAK256 PUSH1 0x0 ADD PUSH1 0x0 DUP9 DUP2 MSTORE PUSH1 0x20 ADD SWAP1 DUP2 MSTORE PUSH1 0x20 ADD PUSH1 0x0 KECCAK256 PUSH1 0xB ADD SLOAD DUP2 MSTORE PUSH1 0x20 ADD PUSH1 0x2 PUSH1 0x0 DUP10 DUP2 MSTORE PUSH1 0x20 ADD SWAP1 DUP2 MSTORE PUSH1 0x20 ADD PUSH1 0x0 KECCAK256 PUSH1 0x0 ADD PUSH1 0x0 DUP9 DUP2 MSTORE PUSH1 0x20 ADD SWAP1 DUP2 MSTORE PUSH1 0x20 ADD PUSH1 0x0 KECCAK256 PUSH1 0xC ADD SLOAD DUP2 MSTORE PUSH1 0x20 ADD PUSH1 0x2 PUSH1 0x0 DUP10 DUP2 MSTORE PUSH1 0x20 ADD SWAP1 DUP2 MSTORE PUSH1 0x20 ADD PUSH1 0x0 KECCAK256 PUSH1 0x0 ADD PUSH1 0x0 DUP9 DUP2 MSTORE PUSH1 0x20 ADD SWAP1 DUP2 MSTORE PUSH1 0x20 ADD PUSH1 0x0 KECCAK256 PUSH1 0xD ADD SLOAD DUP2 MSTORE PUSH1 0x20 ADD PUSH1 0x2 PUSH1 0x0 DUP10 DUP2 MSTORE PUSH1 0x20 ADD SWAP1 DUP2 MSTORE PUSH1 0x20 ADD PUSH1 0x0 KECCAK256 PUSH1 0x0 ADD PUSH1 0x0 DUP9 DUP2 MSTORE PUSH1 0x20 ADD SWAP1 DUP2 MSTORE PUSH1 0x20 ADD PUSH1 0x0 KECCAK256 PUSH1 0xE ADD SLOAD DUP2 MSTORE POP SWAP1 POP DUP1 SWAP4 POP POP POP POP SWAP3 SWAP2 POP POP JUMP JUMPDEST PUSH1 0x0 DUP1 PUSH1 0x2 PUSH1 0x0 DUP5 DUP2 MSTORE PUSH1 0x20 ADD SWAP1 DUP2 MSTORE PUSH1 0x20 ADD PUSH1 0x0 KECCAK256 PUSH1 0x1 ADD SLOAD GT SWAP1 POP DUP1 PUSH2 0x2678 JUMPI POP PUSH2 0x2CBC JUMP JUMPDEST PUSH1 0x0 TIMESTAMP PUSH1 0x2 PUSH1 0x0 DUP6 DUP2 MSTORE PUSH1 0x20 ADD SWAP1 DUP2 MSTORE PUSH1 0x20 ADD PUSH1 0x0 KECCAK256 PUSH1 0x0 ADD PUSH1 0x0 PUSH1 0x1 PUSH1 0x2 PUSH1 0x0 DUP9 DUP2 MSTORE PUSH1 0x20 ADD SWAP1 DUP2 MSTORE PUSH1 0x20 ADD PUSH1 0x0 KECCAK256 PUSH1 0x1 ADD SLOAD PUSH2 0x26B6 SWAP2 SWAP1 PUSH2 0x3D10 JUMP JUMPDEST DUP2 MSTORE PUSH1 0x20 ADD SWAP1 DUP2 MSTORE PUSH1 0x20 ADD PUSH1 0x0 KECCAK256 PUSH1 0xE ADD SLOAD GT SWAP1 POP DUP1 ISZERO PUSH2 0x26D8 JUMPI POP POP PUSH2 0x2CBC JUMP JUMPDEST PUSH1 0x0 PUSH1 0x2 PUSH1 0x0 DUP6 DUP2 MSTORE PUSH1 0x20 ADD SWAP1 DUP2 MSTORE PUSH1 0x20 ADD PUSH1 0x0 KECCAK256 PUSH1 0x0 ADD PUSH1 0x0 PUSH1 0x1 PUSH1 0x2 PUSH1 0x0 DUP9 DUP2 MSTORE PUSH1 0x20 ADD SWAP1 DUP2 MSTORE PUSH1 0x20 ADD PUSH1 0x0 KECCAK256 PUSH1 0x1 ADD SLOAD PUSH2 0x2715 SWAP2 SWAP1 PUSH2 0x3D10 JUMP JUMPDEST DUP2 MSTORE PUSH1 0x20 ADD SWAP1 DUP2 MSTORE PUSH1 0x20 ADD PUSH1 0x0 KECCAK256 PUSH1 0xB ADD SLOAD PUSH1 0x2 PUSH1 0x0 DUP7 DUP2 MSTORE PUSH1 0x20 ADD SWAP1 DUP2 MSTORE PUSH1 0x20 ADD PUSH1 0x0 KECCAK256 PUSH1 0x0 ADD PUSH1 0x0 PUSH1 0x1 PUSH1 0x2 PUSH1 0x0 DUP10 DUP2 MSTORE PUSH1 0x20 ADD SWAP1 DUP2 MSTORE PUSH1 0x20 ADD PUSH1 0x0 KECCAK256 PUSH1 0x1 ADD SLOAD PUSH2 0x2762 SWAP2 SWAP1 PUSH2 0x3D10 JUMP JUMPDEST DUP2 MSTORE PUSH1 0x20 ADD SWAP1 DUP2 MSTORE PUSH1 0x20 ADD PUSH1 0x0 KECCAK256 PUSH1 0xC ADD SLOAD GT SWAP1 POP DUP1 PUSH2 0x2784 JUMPI POP POP POP PUSH2 0x2CBC JUMP JUMPDEST PUSH1 0x0 PUSH1 0x2 PUSH1 0x0 DUP7 DUP2 MSTORE PUSH1 0x20 ADD SWAP1 DUP2 MSTORE PUSH1 0x20 ADD PUSH1 0x0 KECCAK256 PUSH1 0x0 ADD PUSH1 0x0 PUSH1 0x1 PUSH1 0x2 PUSH1 0x0 DUP10 DUP2 MSTORE PUSH1 0x20 ADD SWAP1 DUP2 MSTORE PUSH1 0x20 ADD PUSH1 0x0 KECCAK256 PUSH1 0x1 ADD SLOAD PUSH2 0x27C1 SWAP2 SWAP1 PUSH2 0x3D10 JUMP JUMPDEST DUP2 MSTORE PUSH1 0x20 ADD SWAP1 DUP2 MSTORE PUSH1 0x20 ADD PUSH1 0x0 KECCAK256 PUSH1 0x6 ADD PUSH1 0x0 ADD PUSH1 0x1 ADD DUP1 SLOAD PUSH2 0x27E3 SWAP1 PUSH2 0x3E1F JUMP JUMPDEST DUP1 PUSH1 0x1F ADD PUSH1 0x20 DUP1 SWAP2 DIV MUL PUSH1 0x20 ADD PUSH1 0x40 MLOAD SWAP1 DUP2 ADD PUSH1 0x40 MSTORE DUP1 SWAP3 SWAP2 SWAP1 DUP2 DUP2 MSTORE PUSH1 0x20 ADD DUP3 DUP1 SLOAD PUSH2 0x280F SWAP1 PUSH2 0x3E1F JUMP JUMPDEST DUP1 ISZERO PUSH2 0x285C JUMPI DUP1 PUSH1 0x1F LT PUSH2 0x2831 JUMPI PUSH2 0x100 DUP1 DUP4 SLOAD DIV MUL DUP4 MSTORE SWAP2 PUSH1 0x20 ADD SWAP2 PUSH2 0x285C JUMP JUMPDEST DUP3 ADD SWAP2 SWAP1 PUSH1 0x0 MSTORE PUSH1 0x20 PUSH1 0x0 KECCAK256 SWAP1 JUMPDEST DUP2 SLOAD DUP2 MSTORE SWAP1 PUSH1 0x1 ADD SWAP1 PUSH1 0x20 ADD DUP1 DUP4 GT PUSH2 0x283F JUMPI DUP3 SWAP1 SUB PUSH1 0x1F AND DUP3 ADD SWAP2 JUMPDEST POP POP POP POP POP SWAP1 POP PUSH1 0x0 PUSH1 0x2 PUSH1 0x0 DUP8 DUP2 MSTORE PUSH1 0x20 ADD SWAP1 DUP2 MSTORE PUSH1 0x20 ADD PUSH1 0x0 KECCAK256 PUSH1 0x0 ADD PUSH1 0x0 PUSH1 0x1 PUSH1 0x2 PUSH1 0x0 DUP11 DUP2 MSTORE PUSH1 0x20 ADD SWAP1 DUP2 MSTORE PUSH1 0x20 ADD PUSH1 0x0 KECCAK256 PUSH1 0x1 ADD SLOAD PUSH2 0x28A0 SWAP2 SWAP1 PUSH2 0x3D10 JUMP JUMPDEST DUP2 MSTORE PUSH1 0x20 ADD SWAP1 DUP2 MSTORE PUSH1 0x20 ADD PUSH1 0x0 KECCAK256 PUSH1 0x6 ADD PUSH1 0x0 ADD PUSH1 0x2 ADD DUP1 SLOAD PUSH2 0x28C2 SWAP1 PUSH2 0x3E1F JUMP JUMPDEST DUP1 PUSH1 0x1F ADD PUSH1 0x20 DUP1 SWAP2 DIV MUL PUSH1 0x20 ADD PUSH1 0x40 MLOAD SWAP1 DUP2 ADD PUSH1 0x40 MSTORE DUP1 SWAP3 SWAP2 SWAP1 DUP2 DUP2 MSTORE PUSH1 0x20 ADD DUP3 DUP1 SLOAD PUSH2 0x28EE SWAP1 PUSH2 0x3E1F JUMP JUMPDEST DUP1 ISZERO PUSH2 0x293B JUMPI DUP1 PUSH1 0x1F LT PUSH2 0x2910 JUMPI PUSH2 0x100 DUP1 DUP4 SLOAD DIV MUL DUP4 MSTORE SWAP2 PUSH1 0x20 ADD SWAP2 PUSH2 0x293B JUMP JUMPDEST DUP3 ADD SWAP2 SWAP1 PUSH1 0x0 MSTORE PUSH1 0x20 PUSH1 0x0 KECCAK256 SWAP1 JUMPDEST DUP2 SLOAD DUP2 MSTORE SWAP1 PUSH1 0x1 ADD SWAP1 PUSH1 0x20 ADD DUP1 DUP4 GT PUSH2 0x291E JUMPI DUP3 SWAP1 SUB PUSH1 0x1F AND DUP3 ADD SWAP2 JUMPDEST POP POP POP POP POP SWAP1 POP PUSH1 0x0 DUP1 PUSH1 0x3 PUSH1 0x0 DUP10 DUP2 MSTORE PUSH1 0x20 ADD SWAP1 DUP2 MSTORE PUSH1 0x20 ADD PUSH1 0x0 KECCAK256 PUSH1 0x1 ADD SLOAD GT ISZERO PUSH2 0x2B29 JUMPI PUSH2 0x2A40 PUSH1 0x3 PUSH1 0x0 DUP10 DUP2 MSTORE PUSH1 0x20 ADD SWAP1 DUP2 MSTORE PUSH1 0x20 ADD PUSH1 0x0 KECCAK256 PUSH1 0x0 ADD PUSH1 0x0 PUSH1 0x1 PUSH1 0x3 PUSH1 0x0 DUP13 DUP2 MSTORE PUSH1 0x20 ADD SWAP1 DUP2 MSTORE PUSH1 0x20 ADD PUSH1 0x0 KECCAK256 PUSH1 0x1 ADD SLOAD PUSH2 0x29A0 SWAP2 SWAP1 PUSH2 0x3D10 JUMP JUMPDEST DUP2 MSTORE PUSH1 0x20 ADD SWAP1 DUP2 MSTORE PUSH1 0x20 ADD PUSH1 0x0 KECCAK256 PUSH1 0x1 ADD DUP1 SLOAD PUSH2 0x29BC SWAP1 PUSH2 0x3E1F JUMP JUMPDEST DUP1 PUSH1 0x1F ADD PUSH1 0x20 DUP1 SWAP2 DIV MUL PUSH1 0x20 ADD PUSH1 0x40 MLOAD SWAP1 DUP2 ADD PUSH1 0x40 MSTORE DUP1 SWAP3 SWAP2 SWAP1 DUP2 DUP2 MSTORE PUSH1 0x20 ADD DUP3 DUP1 SLOAD PUSH2 0x29E8 SWAP1 PUSH2 0x3E1F JUMP JUMPDEST DUP1 ISZERO PUSH2 0x2A35 JUMPI DUP1 PUSH1 0x1F LT PUSH2 0x2A0A JUMPI PUSH2 0x100 DUP1 DUP4 SLOAD DIV MUL DUP4 MSTORE SWAP2 PUSH1 0x20 ADD SWAP2 PUSH2 0x2A35 JUMP JUMPDEST DUP3 ADD SWAP2 SWAP1 PUSH1 0x0 MSTORE PUSH1 0x20 PUSH1 0x0 KECCAK256 SWAP1 JUMPDEST DUP2 SLOAD DUP2 MSTORE SWAP1 PUSH1 0x1 ADD SWAP1 PUSH1 0x20 ADD DUP1 DUP4 GT PUSH2 0x2A18 JUMPI DUP3 SWAP1 SUB PUSH1 0x1F AND DUP3 ADD SWAP2 JUMPDEST POP POP POP POP POP DUP5 PUSH2 0x2CF5 JUMP JUMPDEST DUP1 ISZERO PUSH2 0x2B26 JUMPI POP PUSH2 0x2B25 PUSH1 0x3 PUSH1 0x0 DUP10 DUP2 MSTORE PUSH1 0x20 ADD SWAP1 DUP2 MSTORE PUSH1 0x20 ADD PUSH1 0x0 KECCAK256 PUSH1 0x0 ADD PUSH1 0x0 PUSH1 0x1 PUSH1 0x3 PUSH1 0x0 DUP13 DUP2 MSTORE PUSH1 0x20 ADD SWAP1 DUP2 MSTORE PUSH1 0x20 ADD PUSH1 0x0 KECCAK256 PUSH1 0x1 ADD SLOAD PUSH2 0x2A85 SWAP2 SWAP1 PUSH2 0x3D10 JUMP JUMPDEST DUP2 MSTORE PUSH1 0x20 ADD SWAP1 DUP2 MSTORE PUSH1 0x20 ADD PUSH1 0x0 KECCAK256 PUSH1 0x2 ADD DUP1 SLOAD PUSH2 0x2AA1 SWAP1 PUSH2 0x3E1F JUMP JUMPDEST DUP1 PUSH1 0x1F ADD PUSH1 0x20 DUP1 SWAP2 DIV MUL PUSH1 0x20 ADD PUSH1 0x40 MLOAD SWAP1 DUP2 ADD PUSH1 0x40 MSTORE DUP1 SWAP3 SWAP2 SWAP1 DUP2 DUP2 MSTORE PUSH1 0x20 ADD DUP3 DUP1 SLOAD PUSH2 0x2ACD SWAP1 PUSH2 0x3E1F JUMP JUMPDEST DUP1 ISZERO PUSH2 0x2B1A JUMPI DUP1 PUSH1 0x1F LT PUSH2 0x2AEF JUMPI PUSH2 0x100 DUP1 DUP4 SLOAD DIV MUL DUP4 MSTORE SWAP2 PUSH1 0x20 ADD SWAP2 PUSH2 0x2B1A JUMP JUMPDEST DUP3 ADD SWAP2 SWAP1 PUSH1 0x0 MSTORE PUSH1 0x20 PUSH1 0x0 KECCAK256 SWAP1 JUMPDEST DUP2 SLOAD DUP2 MSTORE SWAP1 PUSH1 0x1 ADD SWAP1 PUSH1 0x20 ADD DUP1 DUP4 GT PUSH2 0x2AFD JUMPI DUP3 SWAP1 SUB PUSH1 0x1F AND DUP3 ADD SWAP2 JUMPDEST POP POP POP POP POP DUP4 PUSH2 0x2CF5 JUMP JUMPDEST JUMPDEST SWAP1 POP JUMPDEST DUP1 ISZERO PUSH2 0x2B3A JUMPI POP POP POP POP POP POP PUSH2 0x2CBC JUMP JUMPDEST PUSH1 0x3 PUSH1 0x0 DUP9 DUP2 MSTORE PUSH1 0x20 ADD SWAP1 DUP2 MSTORE PUSH1 0x20 ADD PUSH1 0x0 KECCAK256 PUSH1 0x1 ADD PUSH1 0x0 DUP2 SLOAD DUP1 SWAP3 SWAP2 SWAP1 PUSH2 0x2B61 SWAP1 PUSH2 0x3D44 JUMP JUMPDEST SWAP2 SWAP1 POP SSTORE POP PUSH1 0x40 MLOAD DUP1 PUSH1 0x60 ADD PUSH1 0x40 MSTORE DUP1 DUP9 DUP2 MSTORE PUSH1 0x20 ADD DUP5 DUP2 MSTORE PUSH1 0x20 ADD DUP4 DUP2 MSTORE POP PUSH1 0x3 PUSH1 0x0 DUP10 DUP2 MSTORE PUSH1 0x20 ADD SWAP1 DUP2 MSTORE PUSH1 0x20 ADD PUSH1 0x0 KECCAK256 PUSH1 0x0 ADD PUSH1 0x0 PUSH1 0x1 PUSH1 0x3 PUSH1 0x0 DUP13 DUP2 MSTORE PUSH1 0x20 ADD SWAP1 DUP2 MSTORE PUSH1 0x20 ADD PUSH1 0x0 KECCAK256 PUSH1 0x1 ADD SLOAD PUSH2 0x2BBC SWAP2 SWAP1 PUSH2 0x3D10 JUMP JUMPDEST DUP2 MSTORE PUSH1 0x20 ADD SWAP1 DUP2 MSTORE PUSH1 0x20 ADD PUSH1 0x0 KECCAK256 PUSH1 0x0 DUP3 ADD MLOAD DUP2 PUSH1 0x0 ADD SSTORE PUSH1 0x20 DUP3 ADD MLOAD DUP2 PUSH1 0x1 ADD SWAP1 DUP2 PUSH2 0x2BE9 SWAP2 SWAP1 PUSH2 0x4097 JUMP JUMPDEST POP PUSH1 0x40 DUP3 ADD MLOAD DUP2 PUSH1 0x2 ADD SWAP1 DUP2 PUSH2 0x2BFF SWAP2 SWAP1 PUSH2 0x4097 JUMP JUMPDEST POP SWAP1 POP POP DUP3 PUSH1 0x1 PUSH1 0x0 DUP10 DUP2 MSTORE PUSH1 0x20 ADD SWAP1 DUP2 MSTORE PUSH1 0x20 ADD PUSH1 0x0 KECCAK256 PUSH1 0x3 ADD SWAP1 DUP2 PUSH2 0x2C26 SWAP2 SWAP1 PUSH2 0x4097 JUMP JUMPDEST POP DUP2 PUSH1 0x1 PUSH1 0x0 DUP10 DUP2 MSTORE PUSH1 0x20 ADD SWAP1 DUP2 MSTORE PUSH1 0x20 ADD PUSH1 0x0 KECCAK256 PUSH1 0x4 ADD SWAP1 DUP2 PUSH2 0x2C4A SWAP2 SWAP1 PUSH2 0x4097 JUMP JUMPDEST POP PUSH1 0x0 PUSH2 0x2C79 DUP9 PUSH1 0x1 PUSH1 0x2 PUSH1 0x0 DUP13 DUP2 MSTORE PUSH1 0x20 ADD SWAP1 DUP2 MSTORE PUSH1 0x20 ADD PUSH1 0x0 KECCAK256 PUSH1 0x1 ADD SLOAD PUSH2 0x2C74 SWAP2 SWAP1 PUSH2 0x3D10 JUMP JUMPDEST PUSH2 0x1F51 JUMP JUMPDEST SWAP1 POP PUSH32 0x24AE00925EED453F35C045D978CCFF15182AFE2E0714DBEB51846C560020D472 DUP9 DUP3 PUSH1 0x40 MLOAD PUSH2 0x2CAC SWAP3 SWAP2 SWAP1 PUSH2 0x3DC0 JUMP JUMPDEST PUSH1 0x40 MLOAD DUP1 SWAP2 SUB SWAP1 LOG1 POP POP POP POP POP POP POP JUMPDEST POP JUMP JUMPDEST PUSH1 0x0 DUP4 DUP4 DUP4 PUSH1 0x40 MLOAD PUSH1 0x20 ADD PUSH2 0x2CD6 SWAP4 SWAP3 SWAP2 SWAP1 PUSH2 0x44C0 JUMP JUMPDEST PUSH1 0x40 MLOAD PUSH1 0x20 DUP2 DUP4 SUB SUB DUP2 MSTORE SWAP1 PUSH1 0x40 MSTORE DUP1 MLOAD SWAP1 PUSH1 0x20 ADD KECCAK256 SWAP1 POP SWAP4 SWAP3 POP POP POP JUMP JUMPDEST PUSH1 0x0 DUP1 DUP4 SWAP1 POP PUSH1 0x0 DUP4 SWAP1 POP PUSH1 0x0 DUP3 MLOAD SWAP1 POP DUP2 MLOAD DUP2 EQ PUSH2 0x2D1A JUMPI PUSH1 0x0 SWAP4 POP POP POP POP PUSH2 0x2DCD JUMP JUMPDEST PUSH1 0x0 JUMPDEST DUP2 DUP2 LT ISZERO PUSH2 0x2DC4 JUMPI DUP3 DUP2 DUP2 MLOAD DUP2 LT PUSH2 0x2D38 JUMPI PUSH2 0x2D37 PUSH2 0x41EE JUMP JUMPDEST JUMPDEST PUSH1 0x20 ADD ADD MLOAD PUSH1 0xF8 SHR PUSH1 0xF8 SHL PUSH31 0xFFFFFFFFFFFFFFFFFFFFFFFFFFFFFFFFFFFFFFFFFFFFFFFFFFFFFFFFFFFFFF NOT AND DUP5 DUP3 DUP2 MLOAD DUP2 LT PUSH2 0x2D78 JUMPI PUSH2 0x2D77 PUSH2 0x41EE JUMP JUMPDEST JUMPDEST PUSH1 0x20 ADD ADD MLOAD PUSH1 0xF8 SHR PUSH1 0xF8 SHL PUSH31 0xFFFFFFFFFFFFFFFFFFFFFFFFFFFFFFFFFFFFFFFFFFFFFFFFFFFFFFFFFFFFFF NOT AND EQ PUSH2 0x2DB7 JUMPI PUSH1 0x0 SWAP5 POP POP POP POP POP PUSH2 0x2DCD JUMP JUMPDEST DUP1 DUP1 PUSH1 0x1 ADD SWAP2 POP POP PUSH2 0x2D1D JUMP JUMPDEST POP PUSH1 0x1 SWAP4 POP POP POP POP JUMPDEST SWAP3 SWAP2 POP POP JUMP JUMPDEST PUSH1 0x40 MLOAD DUP1 PUSH1 0xE0 ADD PUSH1 0x40 MSTORE DUP1 PUSH1 0x0 DUP1 NOT AND DUP2 MSTORE PUSH1 0x20 ADD PUSH2 0x2DF0 PUSH2 0x2EC7 JUMP JUMPDEST DUP2 MSTORE PUSH1 0x20 ADD PUSH2 0x2DFD PUSH2 0x2EC7 JUMP JUMPDEST DUP2 MSTORE PUSH1 0x20 ADD PUSH1 0x0 DUP2 MSTORE PUSH1 0x20 ADD PUSH1 0x0 DUP2 MSTORE PUSH1 0x20 ADD PUSH1 0x0 DUP2 MSTORE PUSH1 0x20 ADD PUSH1 0x0 DUP2 MSTORE POP SWAP1 JUMP JUMPDEST PUSH1 0x40 MLOAD DUP1 PUSH1 0x40 ADD PUSH1 0x40 MSTORE DUP1 PUSH1 0x0 PUSH4 0xFFFFFFFF AND DUP2 MSTORE PUSH1 0x20 ADD PUSH1 0x0 PUSH20 0xFFFFFFFFFFFFFFFFFFFFFFFFFFFFFFFFFFFFFFFF AND DUP2 MSTORE POP SWAP1 JUMP JUMPDEST PUSH1 0x40 MLOAD DUP1 PUSH1 0x60 ADD PUSH1 0x40 MSTORE DUP1 PUSH1 0x0 DUP1 NOT AND DUP2 MSTORE PUSH1 0x20 ADD PUSH1 0x60 DUP2 MSTORE PUSH1 0x20 ADD PUSH1 0x60 DUP2 MSTORE POP SWAP1 JUMP JUMPDEST PUSH1 0x40 MLOAD DUP1 PUSH2 0x100 ADD PUSH1 0x40 MSTORE DUP1 PUSH1 0x60 DUP2 MSTORE PUSH1 0x20 ADD PUSH1 0x0 PUSH2 0xFFFF AND DUP2 MSTORE PUSH1 0x20 ADD PUSH1 0x60 DUP2 MSTORE PUSH1 0x20 ADD PUSH1 0x60 DUP2 MSTORE PUSH1 0x20 ADD PUSH1 0x60 DUP2 MSTORE PUSH1 0x20 ADD PUSH1 0x0 ISZERO ISZERO DUP2 MSTORE PUSH1 0x20 ADD PUSH1 0x60 DUP2 MSTORE PUSH1 0x20 ADD PUSH1 0x0 DUP1 NOT AND DUP2 MSTORE POP SWAP1 JUMP JUMPDEST PUSH1 0x40 MLOAD DUP1 PUSH1 0x40 ADD PUSH1 0x40 MSTORE DUP1 PUSH2 0x2EDA PUSH2 0x2E55 JUMP JUMPDEST DUP2 MSTORE PUSH1 0x20 ADD PUSH1 0x60 DUP2 MSTORE POP SWAP1 JUMP JUMPDEST PUSH1 0x0 DUP1 REVERT JUMPDEST PUSH1 0x0 DUP1 REVERT JUMPDEST PUSH1 0x0 DUP2 SWAP1 POP SWAP2 SWAP1 POP JUMP JUMPDEST PUSH2 0x2F04 DUP2 PUSH2 0x2EF1 JUMP JUMPDEST DUP2 EQ PUSH2 0x2F0F JUMPI PUSH1 0x0 DUP1 REVERT JUMPDEST POP JUMP JUMPDEST PUSH1 0x0 DUP2 CALLDATALOAD SWAP1 POP PUSH2 0x2F21 DUP2 PUSH2 0x2EFB JUMP JUMPDEST SWAP3 SWAP2 POP POP JUMP JUMPDEST PUSH1 0x0 PUSH1 0x20 DUP3 DUP5 SUB SLT ISZERO PUSH2 0x2F3D JUMPI PUSH2 0x2F3C PUSH2 0x2EE7 JUMP JUMPDEST JUMPDEST PUSH1 0x0 PUSH2 0x2F4B DUP5 DUP3 DUP6 ADD PUSH2 0x2F12 JUMP JUMPDEST SWAP2 POP POP SWAP3 SWAP2 POP POP JUMP JUMPDEST PUSH1 0x0 DUP2 SWAP1 POP SWAP2 SWAP1 POP JUMP JUMPDEST PUSH2 0x2F67 DUP2 PUSH2 0x2F54 JUMP JUMPDEST DUP3 MSTORE POP POP JUMP JUMPDEST PUSH1 0x0 PUSH1 0x20 DUP3 ADD SWAP1 POP PUSH2 0x2F82 PUSH1 0x0 DUP4 ADD DUP5 PUSH2 0x2F5E JUMP JUMPDEST SWAP3 SWAP2 POP POP JUMP JUMPDEST PUSH1 0x0 DUP2 ISZERO ISZERO SWAP1 POP SWAP2 SWAP1 POP JUMP JUMPDEST PUSH2 0x2F9D DUP2 PUSH2 0x2F88 JUMP JUMPDEST DUP2 EQ PUSH2 0x2FA8 JUMPI PUSH1 0x0 DUP1 REVERT JUMPDEST POP JUMP JUMPDEST PUSH1 0x0 DUP2 CALLDATALOAD SWAP1 POP PUSH2 0x2FBA DUP2 PUSH2 0x2F94 JUMP JUMPDEST SWAP3 SWAP2 POP POP JUMP JUMPDEST PUSH1 0x0 PUSH4 0xFFFFFFFF DUP3 AND SWAP1 POP SWAP2 SWAP1 POP JUMP JUMPDEST PUSH2 0x2FD9 DUP2 PUSH2 0x2FC0 JUMP JUMPDEST DUP2 EQ PUSH2 0x2FE4 JUMPI PUSH1 0x0 DUP1 REVERT JUMPDEST POP JUMP JUMPDEST PUSH1 0x0 DUP2 CALLDATALOAD SWAP1 POP PUSH2 0x2FF6 DUP2 PUSH2 0x2FD0 JUMP JUMPDEST SWAP3 SWAP2 POP POP JUMP JUMPDEST PUSH1 0x0 DUP1 PUSH1 0x0 PUSH1 0x60 DUP5 DUP7 SUB SLT ISZERO PUSH2 0x3015 JUMPI PUSH2 0x3014 PUSH2 0x2EE7 JUMP JUMPDEST JUMPDEST PUSH1 0x0 PUSH2 0x3023 DUP7 DUP3 DUP8 ADD PUSH2 0x2F12 JUMP JUMPDEST SWAP4 POP POP PUSH1 0x20 PUSH2 0x3034 DUP7 DUP3 DUP8 ADD PUSH2 0x2FAB JUMP JUMPDEST SWAP3 POP POP PUSH1 0x40 PUSH2 0x3045 DUP7 DUP3 DUP8 ADD PUSH2 0x2FE7 JUMP JUMPDEST SWAP2 POP POP SWAP3 POP SWAP3 POP SWAP3 JUMP JUMPDEST PUSH2 0x3058 DUP2 PUSH2 0x2EF1 JUMP JUMPDEST DUP3 MSTORE POP POP JUMP JUMPDEST PUSH1 0x0 DUP2 MLOAD SWAP1 POP SWAP2 SWAP1 POP JUMP JUMPDEST PUSH1 0x0 DUP3 DUP3 MSTORE PUSH1 0x20 DUP3 ADD SWAP1 POP SWAP3 SWAP2 POP POP JUMP JUMPDEST PUSH1 0x0 JUMPDEST DUP4 DUP2 LT ISZERO PUSH2 0x3098 JUMPI DUP1 DUP3 ADD MLOAD DUP2 DUP5 ADD MSTORE PUSH1 0x20 DUP2 ADD SWAP1 POP PUSH2 0x307D JUMP JUMPDEST PUSH1 0x0 DUP5 DUP5 ADD MSTORE POP POP POP POP JUMP JUMPDEST PUSH1 0x0 PUSH1 0x1F NOT PUSH1 0x1F DUP4 ADD AND SWAP1 POP SWAP2 SWAP1 POP JUMP JUMPDEST PUSH1 0x0 PUSH2 0x30C0 DUP3 PUSH2 0x305E JUMP JUMPDEST PUSH2 0x30CA DUP2 DUP6 PUSH2 0x3069 JUMP JUMPDEST SWAP4 POP PUSH2 0x30DA DUP2 DUP6 PUSH1 0x20 DUP7 ADD PUSH2 0x307A JUMP JUMPDEST PUSH2 0x30E3 DUP2 PUSH2 0x30A4 JUMP JUMPDEST DUP5 ADD SWAP2 POP POP SWAP3 SWAP2 POP POP JUMP JUMPDEST PUSH1 0x0 PUSH1 0x60 DUP4 ADD PUSH1 0x0 DUP4 ADD MLOAD PUSH2 0x3106 PUSH1 0x0 DUP7 ADD DUP3 PUSH2 0x304F JUMP JUMPDEST POP PUSH1 0x20 DUP4 ADD MLOAD DUP5 DUP3 SUB PUSH1 0x20 DUP7 ADD MSTORE PUSH2 0x311E DUP3 DUP3 PUSH2 0x30B5 JUMP JUMPDEST SWAP2 POP POP PUSH1 0x40 DUP4 ADD MLOAD DUP5 DUP3 SUB PUSH1 0x40 DUP7 ADD MSTORE PUSH2 0x3138 DUP3 DUP3 PUSH2 0x30B5 JUMP JUMPDEST SWAP2 POP POP DUP1 SWAP2 POP POP SWAP3 SWAP2 POP POP JUMP JUMPDEST PUSH1 0x0 DUP2 MLOAD SWAP1 POP SWAP2 SWAP1 POP JUMP JUMPDEST PUSH1 0x0 DUP3 DUP3 MSTORE PUSH1 0x20 DUP3 ADD SWAP1 POP SWAP3 SWAP2 POP POP JUMP JUMPDEST PUSH1 0x0 DUP2 SWAP1 POP PUSH1 0x20 DUP3 ADD SWAP1 POP SWAP2 SWAP1 POP JUMP JUMPDEST PUSH2 0x317A DUP2 PUSH2 0x2FC0 JUMP JUMPDEST DUP3 MSTORE POP POP JUMP JUMPDEST PUSH1 0x0 PUSH20 0xFFFFFFFFFFFFFFFFFFFFFFFFFFFFFFFFFFFFFFFF DUP3 AND SWAP1 POP SWAP2 SWAP1 POP JUMP JUMPDEST PUSH1 0x0 PUSH2 0x31AB DUP3 PUSH2 0x3180 JUMP JUMPDEST SWAP1 POP SWAP2 SWAP1 POP JUMP JUMPDEST PUSH2 0x31BB DUP2 PUSH2 0x31A0 JUMP JUMPDEST DUP3 MSTORE POP POP JUMP JUMPDEST PUSH1 0x40 DUP3 ADD PUSH1 0x0 DUP3 ADD MLOAD PUSH2 0x31D7 PUSH1 0x0 DUP6 ADD DUP3 PUSH2 0x3171 JUMP JUMPDEST POP PUSH1 0x20 DUP3 ADD MLOAD PUSH2 0x31EA PUSH1 0x20 DUP6 ADD DUP3 PUSH2 0x31B2 JUMP JUMPDEST POP POP POP POP JUMP JUMPDEST PUSH1 0x0 PUSH2 0x31FC DUP4 DUP4 PUSH2 0x31C1 JUMP JUMPDEST PUSH1 0x40 DUP4 ADD SWAP1 POP SWAP3 SWAP2 POP POP JUMP JUMPDEST PUSH1 0x0 PUSH1 0x20 DUP3 ADD SWAP1 POP SWAP2 SWAP1 POP JUMP JUMPDEST PUSH1 0x0 PUSH2 0x3220 DUP3 PUSH2 0x3145 JUMP JUMPDEST PUSH2 0x322A DUP2 DUP6 PUSH2 0x3150 JUMP JUMPDEST SWAP4 POP PUSH2 0x3235 DUP4 PUSH2 0x3161 JUMP JUMPDEST DUP1 PUSH1 0x0 JUMPDEST DUP4 DUP2 LT ISZERO PUSH2 0x3266 JUMPI DUP2 MLOAD PUSH2 0x324D DUP9 DUP3 PUSH2 0x31F0 JUMP JUMPDEST SWAP8 POP PUSH2 0x3258 DUP4 PUSH2 0x3208 JUMP JUMPDEST SWAP3 POP POP PUSH1 0x1 DUP2 ADD SWAP1 POP PUSH2 0x3239 JUMP JUMPDEST POP DUP6 SWAP4 POP POP POP POP SWAP3 SWAP2 POP POP JUMP JUMPDEST PUSH1 0x0 PUSH1 0x40 DUP4 ADD PUSH1 0x0 DUP4 ADD MLOAD DUP5 DUP3 SUB PUSH1 0x0 DUP7 ADD MSTORE PUSH2 0x3290 DUP3 DUP3 PUSH2 0x30EE JUMP JUMPDEST SWAP2 POP POP PUSH1 0x20 DUP4 ADD MLOAD DUP5 DUP3 SUB PUSH1 0x20 DUP7 ADD MSTORE PUSH2 0x32AA DUP3 DUP3 PUSH2 0x3215 JUMP JUMPDEST SWAP2 POP POP DUP1 SWAP2 POP POP SWAP3 SWAP2 POP POP JUMP JUMPDEST PUSH2 0x32C0 DUP2 PUSH2 0x2F54 JUMP JUMPDEST DUP3 MSTORE POP POP JUMP JUMPDEST PUSH1 0x0 PUSH1 0xE0 DUP4 ADD PUSH1 0x0 DUP4 ADD MLOAD PUSH2 0x32DE PUSH1 0x0 DUP7 ADD DUP3 PUSH2 0x304F JUMP JUMPDEST POP PUSH1 0x20 DUP4 ADD MLOAD DUP5 DUP3 SUB PUSH1 0x20 DUP7 ADD MSTORE PUSH2 0x32F6 DUP3 DUP3 PUSH2 0x3273 JUMP JUMPDEST SWAP2 POP POP PUSH1 0x40 DUP4 ADD MLOAD DUP5 DUP3 SUB PUSH1 0x40 DUP7 ADD MSTORE PUSH2 0x3310 DUP3 DUP3 PUSH2 0x3273 JUMP JUMPDEST SWAP2 POP POP PUSH1 0x60 DUP4 ADD MLOAD PUSH2 0x3325 PUSH1 0x60 DUP7 ADD DUP3 PUSH2 0x32B7 JUMP JUMPDEST POP PUSH1 0x80 DUP4 ADD MLOAD PUSH2 0x3338 PUSH1 0x80 DUP7 ADD DUP3 PUSH2 0x32B7 JUMP JUMPDEST POP PUSH1 0xA0 DUP4 ADD MLOAD PUSH2 0x334B PUSH1 0xA0 DUP7 ADD DUP3 PUSH2 0x32B7 JUMP JUMPDEST POP PUSH1 0xC0 DUP4 ADD MLOAD PUSH2 0x335E PUSH1 0xC0 DUP7 ADD DUP3 PUSH2 0x32B7 JUMP JUMPDEST POP DUP1 SWAP2 POP POP SWAP3 SWAP2 POP POP JUMP JUMPDEST PUSH1 0x0 PUSH1 0x20 DUP3 ADD SWAP1 POP DUP2 DUP2 SUB PUSH1 0x0 DUP4 ADD MSTORE PUSH2 0x3383 DUP2 DUP5 PUSH2 0x32C6 JUMP JUMPDEST SWAP1 POP SWAP3 SWAP2 POP POP JUMP JUMPDEST PUSH1 0x0 DUP3 DUP3 MSTORE PUSH1 0x20 DUP3 ADD SWAP1 POP SWAP3 SWAP2 POP POP JUMP JUMPDEST PUSH1 0x0 PUSH2 0x33A7 DUP3 PUSH2 0x305E JUMP JUMPDEST PUSH2 0x33B1 DUP2 DUP6 PUSH2 0x338B JUMP JUMPDEST SWAP4 POP PUSH2 0x33C1 DUP2 DUP6 PUSH1 0x20 DUP7 ADD PUSH2 0x307A JUMP JUMPDEST PUSH2 0x33CA DUP2 PUSH2 0x30A4 JUMP JUMPDEST DUP5 ADD SWAP2 POP POP SWAP3 SWAP2 POP POP JUMP JUMPDEST PUSH1 0x0 PUSH2 0xFFFF DUP3 AND SWAP1 POP SWAP2 SWAP1 POP JUMP JUMPDEST PUSH2 0x33EC DUP2 PUSH2 0x33D5 JUMP JUMPDEST DUP3 MSTORE POP POP JUMP JUMPDEST PUSH2 0x33FB DUP2 PUSH2 0x2F88 JUMP JUMPDEST DUP3 MSTORE POP POP JUMP JUMPDEST PUSH2 0x340A DUP2 PUSH2 0x2EF1 JUMP JUMPDEST DUP3 MSTORE POP POP JUMP JUMPDEST PUSH1 0x0 PUSH2 0x100 DUP3 ADD SWAP1 POP DUP2 DUP2 SUB PUSH1 0x0 DUP4 ADD MSTORE PUSH2 0x342B DUP2 DUP12 PUSH2 0x339C JUMP JUMPDEST SWAP1 POP PUSH2 0x343A PUSH1 0x20 DUP4 ADD DUP11 PUSH2 0x33E3 JUMP JUMPDEST DUP2 DUP2 SUB PUSH1 0x40 DUP4 ADD MSTORE PUSH2 0x344C DUP2 DUP10 PUSH2 0x339C JUMP JUMPDEST SWAP1 POP DUP2 DUP2 SUB PUSH1 0x60 DUP4 ADD MSTORE PUSH2 0x3460 DUP2 DUP9 PUSH2 0x339C JUMP JUMPDEST SWAP1 POP DUP2 DUP2 SUB PUSH1 0x80 DUP4 ADD MSTORE PUSH2 0x3474 DUP2 DUP8 PUSH2 0x339C JUMP JUMPDEST SWAP1 POP PUSH2 0x3483 PUSH1 0xA0 DUP4 ADD DUP7 PUSH2 0x33F2 JUMP JUMPDEST DUP2 DUP2 SUB PUSH1 0xC0 DUP4 ADD MSTORE PUSH2 0x3495 DUP2 DUP6 PUSH2 0x339C JUMP JUMPDEST SWAP1 POP PUSH2 0x34A4 PUSH1 0xE0 DUP4 ADD DUP5 PUSH2 0x3401 JUMP JUMPDEST SWAP10 SWAP9 POP POP POP POP POP POP POP POP POP JUMP JUMPDEST PUSH1 0x0 PUSH2 0x34BC DUP3 PUSH2 0x3180 JUMP JUMPDEST SWAP1 POP SWAP2 SWAP1 POP JUMP JUMPDEST PUSH2 0x34CC DUP2 PUSH2 0x34B1 JUMP JUMPDEST DUP3 MSTORE POP POP JUMP JUMPDEST PUSH1 0x0 PUSH1 0x20 DUP3 ADD SWAP1 POP PUSH2 0x34E7 PUSH1 0x0 DUP4 ADD DUP5 PUSH2 0x34C3 JUMP JUMPDEST SWAP3 SWAP2 POP POP JUMP JUMPDEST PUSH1 0x0 DUP1 REVERT JUMPDEST PUSH1 0x0 DUP1 REVERT JUMPDEST PUSH1 0x0 DUP1 REVERT JUMPDEST PUSH1 0x0 DUP1 DUP4 PUSH1 0x1F DUP5 ADD SLT PUSH2 0x3512 JUMPI PUSH2 0x3511 PUSH2 0x34ED JUMP JUMPDEST JUMPDEST DUP3 CALLDATALOAD SWAP1 POP PUSH8 0xFFFFFFFFFFFFFFFF DUP2 GT ISZERO PUSH2 0x352F JUMPI PUSH2 0x352E PUSH2 0x34F2 JUMP JUMPDEST JUMPDEST PUSH1 0x20 DUP4 ADD SWAP2 POP DUP4 PUSH1 0x1 DUP3 MUL DUP4 ADD GT ISZERO PUSH2 0x354B JUMPI PUSH2 0x354A PUSH2 0x34F7 JUMP JUMPDEST JUMPDEST SWAP3 POP SWAP3 SWAP1 POP JUMP JUMPDEST PUSH1 0x0 DUP1 PUSH1 0x0 DUP1 PUSH1 0x0 PUSH1 0x60 DUP7 DUP9 SUB SLT ISZERO PUSH2 0x356E JUMPI PUSH2 0x356D PUSH2 0x2EE7 JUMP JUMPDEST JUMPDEST PUSH1 0x0 PUSH2 0x357C DUP9 DUP3 DUP10 ADD PUSH2 0x2F12 JUMP JUMPDEST SWAP6 POP POP PUSH1 0x20 DUP7 ADD CALLDATALOAD PUSH8 0xFFFFFFFFFFFFFFFF DUP2 GT ISZERO PUSH2 0x359D JUMPI PUSH2 0x359C PUSH2 0x2EEC JUMP JUMPDEST JUMPDEST PUSH2 0x35A9 DUP9 DUP3 DUP10 ADD PUSH2 0x34FC JUMP JUMPDEST SWAP5 POP SWAP5 POP POP PUSH1 0x40 DUP7 ADD CALLDATALOAD PUSH8 0xFFFFFFFFFFFFFFFF DUP2 GT ISZERO PUSH2 0x35CC JUMPI PUSH2 0x35CB PUSH2 0x2EEC JUMP JUMPDEST JUMPDEST PUSH2 0x35D8 DUP9 DUP3 DUP10 ADD PUSH2 0x34FC JUMP JUMPDEST SWAP3 POP SWAP3 POP POP SWAP3 SWAP6 POP SWAP3 SWAP6 SWAP1 SWAP4 POP JUMP JUMPDEST PUSH1 0x0 DUP2 MLOAD SWAP1 POP SWAP2 SWAP1 POP JUMP JUMPDEST PUSH1 0x0 DUP3 DUP3 MSTORE PUSH1 0x20 DUP3 ADD SWAP1 POP SWAP3 SWAP2 POP POP JUMP JUMPDEST PUSH1 0x0 DUP2 SWAP1 POP PUSH1 0x20 DUP3 ADD SWAP1 POP SWAP2 SWAP1 POP JUMP JUMPDEST PUSH1 0x0 PUSH2 0x361F DUP4 DUP4 PUSH2 0x30EE JUMP JUMPDEST SWAP1 POP SWAP3 SWAP2 POP POP JUMP JUMPDEST PUSH1 0x0 PUSH1 0x20 DUP3 ADD SWAP1 POP SWAP2 SWAP1 POP JUMP JUMPDEST PUSH1 0x0 PUSH2 0x363F DUP3 PUSH2 0x35E7 JUMP JUMPDEST PUSH2 0x3649 DUP2 DUP6 PUSH2 0x35F2 JUMP JUMPDEST SWAP4 POP DUP4 PUSH1 0x20 DUP3 MUL DUP6 ADD PUSH2 0x365B DUP6 PUSH2 0x3603 JUMP JUMPDEST DUP1 PUSH1 0x0 JUMPDEST DUP6 DUP2 LT ISZERO PUSH2 0x3697 JUMPI DUP5 DUP5 SUB DUP10 MSTORE DUP2 MLOAD PUSH2 0x3678 DUP6 DUP3 PUSH2 0x3613 JUMP JUMPDEST SWAP5 POP PUSH2 0x3683 DUP4 PUSH2 0x3627 JUMP JUMPDEST SWAP3 POP PUSH1 0x20 DUP11 ADD SWAP10 POP POP PUSH1 0x1 DUP2 ADD SWAP1 POP PUSH2 0x365F JUMP JUMPDEST POP DUP3 SWAP8 POP DUP8 SWAP6 POP POP POP POP POP POP SWAP3 SWAP2 POP POP JUMP JUMPDEST PUSH1 0x0 PUSH1 0x20 DUP3 ADD SWAP1 POP DUP2 DUP2 SUB PUSH1 0x0 DUP4 ADD MSTORE PUSH2 0x36C3 DUP2 DUP5 PUSH2 0x3634 JUMP JUMPDEST SWAP1 POP SWAP3 SWAP2 POP POP JUMP JUMPDEST PUSH1 0x0 DUP2 MLOAD SWAP1 POP SWAP2 SWAP1 POP JUMP JUMPDEST PUSH1 0x0 DUP3 DUP3 MSTORE PUSH1 0x20 DUP3 ADD SWAP1 POP SWAP3 SWAP2 POP POP JUMP JUMPDEST PUSH1 0x0 DUP2 SWAP1 POP PUSH1 0x20 DUP3 ADD SWAP1 POP SWAP2 SWAP1 POP JUMP JUMPDEST PUSH1 0x0 PUSH1 0xE0 DUP4 ADD PUSH1 0x0 DUP4 ADD MLOAD PUSH2 0x370F PUSH1 0x0 DUP7 ADD DUP3 PUSH2 0x304F JUMP JUMPDEST POP PUSH1 0x20 DUP4 ADD MLOAD DUP5 DUP3 SUB PUSH1 0x20 DUP7 ADD MSTORE PUSH2 0x3727 DUP3 DUP3 PUSH2 0x3273 JUMP JUMPDEST SWAP2 POP POP PUSH1 0x40 DUP4 ADD MLOAD DUP5 DUP3 SUB PUSH1 0x40 DUP7 ADD MSTORE PUSH2 0x3741 DUP3 DUP3 PUSH2 0x3273 JUMP JUMPDEST SWAP2 POP POP PUSH1 0x60 DUP4 ADD MLOAD PUSH2 0x3756 PUSH1 0x60 DUP7 ADD DUP3 PUSH2 0x32B7 JUMP JUMPDEST POP PUSH1 0x80 DUP4 ADD MLOAD PUSH2 0x3769 PUSH1 0x80 DUP7 ADD DUP3 PUSH2 0x32B7 JUMP JUMPDEST POP PUSH1 0xA0 DUP4 ADD MLOAD PUSH2 0x377C PUSH1 0xA0 DUP7 ADD DUP3 PUSH2 0x32B7 JUMP JUMPDEST POP PUSH1 0xC0 DUP4 ADD MLOAD PUSH2 0x378F PUSH1 0xC0 DUP7 ADD DUP3 PUSH2 0x32B7 JUMP JUMPDEST POP DUP1 SWAP2 POP POP SWAP3 SWAP2 POP POP JUMP JUMPDEST PUSH1 0x0 PUSH2 0x37A6 DUP4 DUP4 PUSH2 0x36F7 JUMP JUMPDEST SWAP1 POP SWAP3 SWAP2 POP POP JUMP JUMPDEST PUSH1 0x0 PUSH1 0x20 DUP3 ADD SWAP1 POP SWAP2 SWAP1 POP JUMP JUMPDEST PUSH1 0x0 PUSH2 0x37C6 DUP3 PUSH2 0x36CB JUMP JUMPDEST PUSH2 0x37D0 DUP2 DUP6 PUSH2 0x36D6 JUMP JUMPDEST SWAP4 POP DUP4 PUSH1 0x20 DUP3 MUL DUP6 ADD PUSH2 0x37E2 DUP6 PUSH2 0x36E7 JUMP JUMPDEST DUP1 PUSH1 0x0 JUMPDEST DUP6 DUP2 LT ISZERO PUSH2 0x381E JUMPI DUP5 DUP5 SUB DUP10 MSTORE DUP2 MLOAD PUSH2 0x37FF DUP6 DUP3 PUSH2 0x379A JUMP JUMPDEST SWAP5 POP PUSH2 0x380A DUP4 PUSH2 0x37AE JUMP JUMPDEST SWAP3 POP PUSH1 0x20 DUP11 ADD SWAP10 POP POP PUSH1 0x1 DUP2 ADD SWAP1 POP PUSH2 0x37E6 JUMP JUMPDEST POP DUP3 SWAP8 POP DUP8 SWAP6 POP POP POP POP POP POP SWAP3 SWAP2 POP POP JUMP JUMPDEST PUSH1 0x0 PUSH1 0x20 DUP3 ADD SWAP1 POP DUP2 DUP2 SUB PUSH1 0x0 DUP4 ADD MSTORE PUSH2 0x384A DUP2 DUP5 PUSH2 0x37BB JUMP JUMPDEST SWAP1 POP SWAP3 SWAP2 POP POP JUMP JUMPDEST PUSH2 0x385B DUP2 PUSH2 0x33D5 JUMP JUMPDEST DUP2 EQ PUSH2 0x3866 JUMPI PUSH1 0x0 DUP1 REVERT JUMPDEST POP JUMP JUMPDEST PUSH1 0x0 DUP2 CALLDATALOAD SWAP1 POP PUSH2 0x3878 DUP2 PUSH2 0x3852 JUMP JUMPDEST SWAP3 SWAP2 POP POP JUMP JUMPDEST PUSH1 0x0 DUP1 PUSH1 0x0 DUP1 PUSH1 0x0 DUP1 PUSH1 0x0 PUSH1 0x80 DUP9 DUP11 SUB SLT ISZERO PUSH2 0x389D JUMPI PUSH2 0x389C PUSH2 0x2EE7 JUMP JUMPDEST JUMPDEST PUSH1 0x0 DUP9 ADD CALLDATALOAD PUSH8 0xFFFFFFFFFFFFFFFF DUP2 GT ISZERO PUSH2 0x38BB JUMPI PUSH2 0x38BA PUSH2 0x2EEC JUMP JUMPDEST JUMPDEST PUSH2 0x38C7 DUP11 DUP3 DUP12 ADD PUSH2 0x34FC JUMP JUMPDEST SWAP8 POP SWAP8 POP POP PUSH1 0x20 DUP9 ADD CALLDATALOAD PUSH8 0xFFFFFFFFFFFFFFFF DUP2 GT ISZERO PUSH2 0x38EA JUMPI PUSH2 0x38E9 PUSH2 0x2EEC JUMP JUMPDEST JUMPDEST PUSH2 0x38F6 DUP11 DUP3 DUP12 ADD PUSH2 0x34FC JUMP JUMPDEST SWAP6 POP SWAP6 POP POP PUSH1 0x40 DUP9 ADD CALLDATALOAD PUSH8 0xFFFFFFFFFFFFFFFF DUP2 GT ISZERO PUSH2 0x3919 JUMPI PUSH2 0x3918 PUSH2 0x2EEC JUMP JUMPDEST JUMPDEST PUSH2 0x3925 DUP11 DUP3 DUP12 ADD PUSH2 0x34FC JUMP JUMPDEST SWAP4 POP SWAP4 POP POP PUSH1 0x60 PUSH2 0x3938 DUP11 DUP3 DUP12 ADD PUSH2 0x3869 JUMP JUMPDEST SWAP2 POP POP SWAP3 SWAP6 SWAP9 SWAP2 SWAP5 SWAP8 POP SWAP3 SWAP6 POP JUMP JUMPDEST PUSH2 0x3950 DUP2 PUSH2 0x33D5 JUMP JUMPDEST DUP3 MSTORE POP POP JUMP JUMPDEST PUSH2 0x395F DUP2 PUSH2 0x2F88 JUMP JUMPDEST DUP3 MSTORE POP POP JUMP JUMPDEST PUSH1 0x0 PUSH2 0x100 DUP4 ADD PUSH1 0x0 DUP4 ADD MLOAD DUP5 DUP3 SUB PUSH1 0x0 DUP7 ADD MSTORE PUSH2 0x3983 DUP3 DUP3 PUSH2 0x30B5 JUMP JUMPDEST SWAP2 POP POP PUSH1 0x20 DUP4 ADD MLOAD PUSH2 0x3998 PUSH1 0x20 DUP7 ADD DUP3 PUSH2 0x3947 JUMP JUMPDEST POP PUSH1 0x40 DUP4 ADD MLOAD DUP5 DUP3 SUB PUSH1 0x40 DUP7 ADD MSTORE PUSH2 0x39B0 DUP3 DUP3 PUSH2 0x30B5 JUMP JUMPDEST SWAP2 POP POP PUSH1 0x60 DUP4 ADD MLOAD DUP5 DUP3 SUB PUSH1 0x60 DUP7 ADD MSTORE PUSH2 0x39CA DUP3 DUP3 PUSH2 0x30B5 JUMP JUMPDEST SWAP2 POP POP PUSH1 0x80 DUP4 ADD MLOAD DUP5 DUP3 SUB PUSH1 0x80 DUP7 ADD MSTORE PUSH2 0x39E4 DUP3 DUP3 PUSH2 0x30B5 JUMP JUMPDEST SWAP2 POP POP PUSH1 0xA0 DUP4 ADD MLOAD PUSH2 0x39F9 PUSH1 0xA0 DUP7 ADD DUP3 PUSH2 0x3956 JUMP JUMPDEST POP PUSH1 0xC0 DUP4 ADD MLOAD DUP5 DUP3 SUB PUSH1 0xC0 DUP7 ADD MSTORE PUSH2 0x3A11 DUP3 DUP3 PUSH2 0x30B5 JUMP JUMPDEST SWAP2 POP POP PUSH1 0xE0 DUP4 ADD MLOAD PUSH2 0x3A26 PUSH1 0xE0 DUP7 ADD DUP3 PUSH2 0x304F JUMP JUMPDEST POP DUP1 SWAP2 POP POP SWAP3 SWAP2 POP POP JUMP JUMPDEST PUSH1 0x0 PUSH1 0x20 DUP3 ADD SWAP1 POP DUP2 DUP2 SUB PUSH1 0x0 DUP4 ADD MSTORE PUSH2 0x3A4B DUP2 DUP5 PUSH2 0x3965 JUMP JUMPDEST SWAP1 POP SWAP3 SWAP2 POP POP JUMP JUMPDEST PUSH32 0x47616D65206E6F7420666F756E64000000000000000000000000000000000000 PUSH1 0x0 DUP3 ADD MSTORE POP JUMP JUMPDEST PUSH1 0x0 PUSH2 0x3A89 PUSH1 0xE DUP4 PUSH2 0x338B JUMP JUMPDEST SWAP2 POP PUSH2 0x3A94 DUP3 PUSH2 0x3A53 JUMP JUMPDEST PUSH1 0x20 DUP3 ADD SWAP1 POP SWAP2 SWAP1 POP JUMP JUMPDEST PUSH1 0x0 PUSH1 0x20 DUP3 ADD SWAP1 POP DUP2 DUP2 SUB PUSH1 0x0 DUP4 ADD MSTORE PUSH2 0x3AB8 DUP2 PUSH2 0x3A7C JUMP JUMPDEST SWAP1 POP SWAP2 SWAP1 POP JUMP JUMPDEST PUSH32 0x4368616C6C656E6765206E6F7420666F756E6400000000000000000000000000 PUSH1 0x0 DUP3 ADD MSTORE POP JUMP JUMPDEST PUSH1 0x0 PUSH2 0x3AF5 PUSH1 0x13 DUP4 PUSH2 0x338B JUMP JUMPDEST SWAP2 POP PUSH2 0x3B00 DUP3 PUSH2 0x3ABF JUMP JUMPDEST PUSH1 0x20 DUP3 ADD SWAP1 POP SWAP2 SWAP1 POP JUMP JUMPDEST PUSH1 0x0 PUSH1 0x20 DUP3 ADD SWAP1 POP DUP2 DUP2 SUB PUSH1 0x0 DUP4 ADD MSTORE PUSH2 0x3B24 DUP2 PUSH2 0x3AE8 JUMP JUMPDEST SWAP1 POP SWAP2 SWAP1 POP JUMP JUMPDEST PUSH32 0x596F752063616E20757365206265747765656E203120616E6420313030303020 PUSH1 0x0 DUP3 ADD MSTORE PUSH32 0x746F6B656E730000000000000000000000000000000000000000000000000000 PUSH1 0x20 DUP3 ADD MSTORE POP JUMP JUMPDEST PUSH1 0x0 PUSH2 0x3B87 PUSH1 0x26 DUP4 PUSH2 0x338B JUMP JUMPDEST SWAP2 POP PUSH2 0x3B92 DUP3 PUSH2 0x3B2B JUMP JUMPDEST PUSH1 0x40 DUP3 ADD SWAP1 POP SWAP2 SWAP1 POP JUMP JUMPDEST PUSH1 0x0 PUSH1 0x20 DUP3 ADD SWAP1 POP DUP2 DUP2 SUB PUSH1 0x0 DUP4 ADD MSTORE PUSH2 0x3BB6 DUP2 PUSH2 0x3B7A JUMP JUMPDEST SWAP1 POP SWAP2 SWAP1 POP JUMP JUMPDEST PUSH32 0x596F75206D75737420766F74652077697468206120737175617265206E756D62 PUSH1 0x0 DUP3 ADD MSTORE PUSH32 0x6572206F6620746F6B656E730000000000000000000000000000000000000000 PUSH1 0x20 DUP3 ADD MSTORE POP JUMP JUMPDEST PUSH1 0x0 PUSH2 0x3C19 PUSH1 0x2C DUP4 PUSH2 0x338B JUMP JUMPDEST SWAP2 POP PUSH2 0x3C24 DUP3 PUSH2 0x3BBD JUMP JUMPDEST PUSH1 0x40 DUP3 ADD SWAP1 POP SWAP2 SWAP1 POP JUMP JUMPDEST PUSH1 0x0 PUSH1 0x20 DUP3 ADD SWAP1 POP DUP2 DUP2 SUB PUSH1 0x0 DUP4 ADD MSTORE PUSH2 0x3C48 DUP2 PUSH2 0x3C0C JUMP JUMPDEST SWAP1 POP SWAP2 SWAP1 POP JUMP JUMPDEST PUSH32 0x557365722068617320616C726561647920766F74656420696E20746869732063 PUSH1 0x0 DUP3 ADD MSTORE PUSH32 0x68616C6C656E6765000000000000000000000000000000000000000000000000 PUSH1 0x20 DUP3 ADD MSTORE POP JUMP JUMPDEST PUSH1 0x0 PUSH2 0x3CAB PUSH1 0x28 DUP4 PUSH2 0x338B JUMP JUMPDEST SWAP2 POP PUSH2 0x3CB6 DUP3 PUSH2 0x3C4F JUMP JUMPDEST PUSH1 0x40 DUP3 ADD SWAP1 POP SWAP2 SWAP1 POP JUMP JUMPDEST PUSH1 0x0 PUSH1 0x20 DUP3 ADD SWAP1 POP DUP2 DUP2 SUB PUSH1 0x0 DUP4 ADD MSTORE PUSH2 0x3CDA DUP2 PUSH2 0x3C9E JUMP JUMPDEST SWAP1 POP SWAP2 SWAP1 POP JUMP JUMPDEST PUSH32 0x4E487B7100000000000000000000000000000000000000000000000000000000 PUSH1 0x0 MSTORE PUSH1 0x11 PUSH1 0x4 MSTORE PUSH1 0x24 PUSH1 0x0 REVERT JUMPDEST PUSH1 0x0 PUSH2 0x3D1B DUP3 PUSH2 0x2F54 JUMP JUMPDEST SWAP2 POP PUSH2 0x3D26 DUP4 PUSH2 0x2F54 JUMP JUMPDEST SWAP3 POP DUP3 DUP3 SUB SWAP1 POP DUP2 DUP2 GT ISZERO PUSH2 0x3D3E JUMPI PUSH2 0x3D3D PUSH2 0x3CE1 JUMP JUMPDEST JUMPDEST SWAP3 SWAP2 POP POP JUMP JUMPDEST PUSH1 0x0 PUSH2 0x3D4F DUP3 PUSH2 0x2F54 JUMP JUMPDEST SWAP2 POP PUSH32 0xFFFFFFFFFFFFFFFFFFFFFFFFFFFFFFFFFFFFFFFFFFFFFFFFFFFFFFFFFFFFFFFF DUP3 SUB PUSH2 0x3D81 JUMPI PUSH2 0x3D80 PUSH2 0x3CE1 JUMP JUMPDEST JUMPDEST PUSH1 0x1 DUP3 ADD SWAP1 POP SWAP2 SWAP1 POP JUMP JUMPDEST PUSH1 0x0 PUSH2 0x3D97 DUP3 PUSH2 0x2F54 JUMP JUMPDEST SWAP2 POP PUSH2 0x3DA2 DUP4 PUSH2 0x2F54 JUMP JUMPDEST SWAP3 POP DUP3 DUP3 ADD SWAP1 POP DUP1 DUP3 GT ISZERO PUSH2 0x3DBA JUMPI PUSH2 0x3DB9 PUSH2 0x3CE1 JUMP JUMPDEST JUMPDEST SWAP3 SWAP2 POP POP JUMP JUMPDEST PUSH1 0x0 PUSH1 0x40 DUP3 ADD SWAP1 POP PUSH2 0x3DD5 PUSH1 0x0 DUP4 ADD DUP6 PUSH2 0x3401 JUMP JUMPDEST DUP2 DUP2 SUB PUSH1 0x20 DUP4 ADD MSTORE PUSH2 0x3DE7 DUP2 DUP5 PUSH2 0x32C6 JUMP JUMPDEST SWAP1 POP SWAP4 SWAP3 POP POP POP JUMP JUMPDEST PUSH32 0x4E487B7100000000000000000000000000000000000000000000000000000000 PUSH1 0x0 MSTORE PUSH1 0x22 PUSH1 0x4 MSTORE PUSH1 0x24 PUSH1 0x0 REVERT JUMPDEST PUSH1 0x0 PUSH1 0x2 DUP3 DIV SWAP1 POP PUSH1 0x1 DUP3 AND DUP1 PUSH2 0x3E37 JUMPI PUSH1 0x7F DUP3 AND SWAP2 POP JUMPDEST PUSH1 0x20 DUP3 LT DUP2 SUB PUSH2 0x3E4A JUMPI PUSH2 0x3E49 PUSH2 0x3DF0 JUMP JUMPDEST JUMPDEST POP SWAP2 SWAP1 POP JUMP JUMPDEST PUSH32 0x4368616C6C656E676520616C7265616479206578697374656400000000000000 PUSH1 0x0 DUP3 ADD MSTORE POP JUMP JUMPDEST PUSH1 0x0 PUSH2 0x3E86 PUSH1 0x19 DUP4 PUSH2 0x338B JUMP JUMPDEST SWAP2 POP PUSH2 0x3E91 DUP3 PUSH2 0x3E50 JUMP JUMPDEST PUSH1 0x20 DUP3 ADD SWAP1 POP SWAP2 SWAP1 POP JUMP JUMPDEST PUSH1 0x0 PUSH1 0x20 DUP3 ADD SWAP1 POP DUP2 DUP2 SUB PUSH1 0x0 DUP4 ADD MSTORE PUSH2 0x3EB5 DUP2 PUSH2 0x3E79 JUMP JUMPDEST SWAP1 POP SWAP2 SWAP1 POP JUMP JUMPDEST PUSH32 0x4E487B7100000000000000000000000000000000000000000000000000000000 PUSH1 0x0 MSTORE PUSH1 0x41 PUSH1 0x4 MSTORE PUSH1 0x24 PUSH1 0x0 REVERT JUMPDEST PUSH1 0x0 DUP2 SWAP1 POP DUP2 PUSH1 0x0 MSTORE PUSH1 0x20 PUSH1 0x0 KECCAK256 SWAP1 POP SWAP2 SWAP1 POP JUMP JUMPDEST PUSH1 0x0 PUSH1 0x20 PUSH1 0x1F DUP4 ADD DIV SWAP1 POP SWAP2 SWAP1 POP JUMP JUMPDEST PUSH1 0x0 DUP3 DUP3 SHL SWAP1 POP SWAP3 SWAP2 POP POP JUMP JUMPDEST PUSH1 0x0 PUSH1 0x8 DUP4 MUL PUSH2 0x3F4D PUSH32 0xFFFFFFFFFFFFFFFFFFFFFFFFFFFFFFFFFFFFFFFFFFFFFFFFFFFFFFFFFFFFFFFF DUP3 PUSH2 0x3F10 JUMP JUMPDEST PUSH2 0x3F57 DUP7 DUP4 PUSH2 0x3F10 JUMP JUMPDEST SWAP6 POP DUP1 NOT DUP5 AND SWAP4 POP DUP1 DUP7 AND DUP5 OR SWAP3 POP POP POP SWAP4 SWAP3 POP POP POP JUMP JUMPDEST PUSH1 0x0 DUP2 SWAP1 POP SWAP2 SWAP1 POP JUMP JUMPDEST PUSH1 0x0 PUSH2 0x3F94 PUSH2 0x3F8F PUSH2 0x3F8A DUP5 PUSH2 0x2F54 JUMP JUMPDEST PUSH2 0x3F6F JUMP JUMPDEST PUSH2 0x2F54 JUMP JUMPDEST SWAP1 POP SWAP2 SWAP1 POP JUMP JUMPDEST PUSH1 0x0 DUP2 SWAP1 POP SWAP2 SWAP1 POP JUMP JUMPDEST PUSH2 0x3FAE DUP4 PUSH2 0x3F79 JUMP JUMPDEST PUSH2 0x3FC2 PUSH2 0x3FBA DUP3 PUSH2 0x3F9B JUMP JUMPDEST DUP5 DUP5 SLOAD PUSH2 0x3F1D JUMP JUMPDEST DUP3 SSTORE POP POP POP POP JUMP JUMPDEST PUSH1 0x0 SWAP1 JUMP JUMPDEST PUSH2 0x3FD7 PUSH2 0x3FCA JUMP JUMPDEST PUSH2 0x3FE2 DUP2 DUP5 DUP5 PUSH2 0x3FA5 JUMP JUMPDEST POP POP POP JUMP JUMPDEST JUMPDEST DUP2 DUP2 LT ISZERO PUSH2 0x4006 JUMPI PUSH2 0x3FFB PUSH1 0x0 DUP3 PUSH2 0x3FCF JUMP JUMPDEST PUSH1 0x1 DUP2 ADD SWAP1 POP PUSH2 0x3FE8 JUMP JUMPDEST POP POP JUMP JUMPDEST PUSH1 0x1F DUP3 GT ISZERO PUSH2 0x404B JUMPI PUSH2 0x401C DUP2 PUSH2 0x3EEB JUMP JUMPDEST PUSH2 0x4025 DUP5 PUSH2 0x3F00 JUMP JUMPDEST DUP2 ADD PUSH1 0x20 DUP6 LT ISZERO PUSH2 0x4034 JUMPI DUP2 SWAP1 POP JUMPDEST PUSH2 0x4048 PUSH2 0x4040 DUP6 PUSH2 0x3F00 JUMP JUMPDEST DUP4 ADD DUP3 PUSH2 0x3FE7 JUMP JUMPDEST POP POP JUMPDEST POP POP POP JUMP JUMPDEST PUSH1 0x0 DUP3 DUP3 SHR SWAP1 POP SWAP3 SWAP2 POP POP JUMP JUMPDEST PUSH1 0x0 PUSH2 0x406E PUSH1 0x0 NOT DUP5 PUSH1 0x8 MUL PUSH2 0x4050 JUMP JUMPDEST NOT DUP1 DUP4 AND SWAP2 POP POP SWAP3 SWAP2 POP POP JUMP JUMPDEST PUSH1 0x0 PUSH2 0x4087 DUP4 DUP4 PUSH2 0x405D JUMP JUMPDEST SWAP2 POP DUP3 PUSH1 0x2 MUL DUP3 OR SWAP1 POP SWAP3 SWAP2 POP POP JUMP JUMPDEST PUSH2 0x40A0 DUP3 PUSH2 0x305E JUMP JUMPDEST PUSH8 0xFFFFFFFFFFFFFFFF DUP2 GT ISZERO PUSH2 0x40B9 JUMPI PUSH2 0x40B8 PUSH2 0x3EBC JUMP JUMPDEST JUMPDEST PUSH2 0x40C3 DUP3 SLOAD PUSH2 0x3E1F JUMP JUMPDEST PUSH2 0x40CE DUP3 DUP3 DUP6 PUSH2 0x400A JUMP JUMPDEST PUSH1 0x0 PUSH1 0x20 SWAP1 POP PUSH1 0x1F DUP4 GT PUSH1 0x1 DUP2 EQ PUSH2 0x4101 JUMPI PUSH1 0x0 DUP5 ISZERO PUSH2 0x40EF JUMPI DUP3 DUP8 ADD MLOAD SWAP1 POP JUMPDEST PUSH2 0x40F9 DUP6 DUP3 PUSH2 0x407B JUMP JUMPDEST DUP7 SSTORE POP PUSH2 0x4161 JUMP JUMPDEST PUSH1 0x1F NOT DUP5 AND PUSH2 0x410F DUP7 PUSH2 0x3EEB JUMP JUMPDEST PUSH1 0x0 JUMPDEST DUP3 DUP2 LT ISZERO PUSH2 0x4137 JUMPI DUP5 DUP10 ADD MLOAD DUP3 SSTORE PUSH1 0x1 DUP3 ADD SWAP2 POP PUSH1 0x20 DUP6 ADD SWAP5 POP PUSH1 0x20 DUP2 ADD SWAP1 POP PUSH2 0x4112 JUMP JUMPDEST DUP7 DUP4 LT ISZERO PUSH2 0x4154 JUMPI DUP5 DUP10 ADD MLOAD PUSH2 0x4150 PUSH1 0x1F DUP10 AND DUP3 PUSH2 0x405D JUMP JUMPDEST DUP4 SSTORE POP JUMPDEST PUSH1 0x1 PUSH1 0x2 DUP9 MUL ADD DUP9 SSTORE POP POP POP JUMPDEST POP POP POP POP POP POP JUMP JUMPDEST DUP3 DUP2 DUP4 CALLDATACOPY PUSH1 0x0 DUP4 DUP4 ADD MSTORE POP POP POP JUMP JUMPDEST PUSH1 0x0 PUSH2 0x4184 DUP4 DUP6 PUSH2 0x338B JUMP JUMPDEST SWAP4 POP PUSH2 0x4191 DUP4 DUP6 DUP5 PUSH2 0x4169 JUMP JUMPDEST PUSH2 0x419A DUP4 PUSH2 0x30A4 JUMP JUMPDEST DUP5 ADD SWAP1 POP SWAP4 SWAP3 POP POP POP JUMP JUMPDEST PUSH1 0x0 PUSH1 0x60 DUP3 ADD SWAP1 POP PUSH2 0x41BA PUSH1 0x0 DUP4 ADD DUP9 PUSH2 0x3401 JUMP JUMPDEST DUP2 DUP2 SUB PUSH1 0x20 DUP4 ADD MSTORE PUSH2 0x41CD DUP2 DUP7 DUP9 PUSH2 0x4178 JUMP JUMPDEST SWAP1 POP DUP2 DUP2 SUB PUSH1 0x40 DUP4 ADD MSTORE PUSH2 0x41E2 DUP2 DUP5 DUP7 PUSH2 0x4178 JUMP JUMPDEST SWAP1 POP SWAP7 SWAP6 POP POP POP POP POP POP JUMP JUMPDEST PUSH32 0x4E487B7100000000000000000000000000000000000000000000000000000000 PUSH1 0x0 MSTORE PUSH1 0x32 PUSH1 0x4 MSTORE PUSH1 0x24 PUSH1 0x0 REVERT JUMPDEST PUSH32 0x496E76616C6964206E616D650000000000000000000000000000000000000000 PUSH1 0x0 DUP3 ADD MSTORE POP JUMP JUMPDEST PUSH1 0x0 PUSH2 0x4253 PUSH1 0xC DUP4 PUSH2 0x338B JUMP JUMPDEST SWAP2 POP PUSH2 0x425E DUP3 PUSH2 0x421D JUMP JUMPDEST PUSH1 0x20 DUP3 ADD SWAP1 POP SWAP2 SWAP1 POP JUMP JUMPDEST PUSH1 0x0 PUSH1 0x20 DUP3 ADD SWAP1 POP DUP2 DUP2 SUB PUSH1 0x0 DUP4 ADD MSTORE PUSH2 0x4282 DUP2 PUSH2 0x4246 JUMP JUMPDEST SWAP1 POP SWAP2 SWAP1 POP JUMP JUMPDEST PUSH32 0x496E76616C6964207075626C6973686572000000000000000000000000000000 PUSH1 0x0 DUP3 ADD MSTORE POP JUMP JUMPDEST PUSH1 0x0 PUSH2 0x42BF PUSH1 0x11 DUP4 PUSH2 0x338B JUMP JUMPDEST SWAP2 POP PUSH2 0x42CA DUP3 PUSH2 0x4289 JUMP JUMPDEST PUSH1 0x20 DUP3 ADD SWAP1 POP SWAP2 SWAP1 POP JUMP JUMPDEST PUSH1 0x0 PUSH1 0x20 DUP3 ADD SWAP1 POP DUP2 DUP2 SUB PUSH1 0x0 DUP4 ADD MSTORE PUSH2 0x42EE DUP2 PUSH2 0x42B2 JUMP JUMPDEST SWAP1 POP SWAP2 SWAP1 POP JUMP JUMPDEST PUSH32 0x496E76616C696420796561720000000000000000000000000000000000000000 PUSH1 0x0 DUP3 ADD MSTORE POP JUMP JUMPDEST PUSH1 0x0 PUSH2 0x432B PUSH1 0xC DUP4 PUSH2 0x338B JUMP JUMPDEST SWAP2 POP PUSH2 0x4336 DUP3 PUSH2 0x42F5 JUMP JUMPDEST PUSH1 0x20 DUP3 ADD SWAP1 POP SWAP2 SWAP1 POP JUMP JUMPDEST PUSH1 0x0 PUSH1 0x20 DUP3 ADD SWAP1 POP DUP2 DUP2 SUB PUSH1 0x0 DUP4 ADD MSTORE PUSH2 0x435A DUP2 PUSH2 0x431E JUMP JUMPDEST SWAP1 POP SWAP2 SWAP1 POP JUMP JUMPDEST PUSH1 0x0 PUSH2 0x437C PUSH2 0x4377 PUSH2 0x4372 DUP5 PUSH2 0x33D5 JUMP JUMPDEST PUSH2 0x3F6F JUMP JUMPDEST PUSH2 0x2F54 JUMP JUMPDEST SWAP1 POP SWAP2 SWAP1 POP JUMP JUMPDEST PUSH2 0x438C DUP2 PUSH2 0x4361 JUMP JUMPDEST DUP3 MSTORE POP POP JUMP JUMPDEST PUSH1 0x0 PUSH1 0x80 DUP3 ADD SWAP1 POP PUSH2 0x43A7 PUSH1 0x0 DUP4 ADD DUP8 PUSH2 0x3401 JUMP JUMPDEST DUP2 DUP2 SUB PUSH1 0x20 DUP4 ADD MSTORE PUSH2 0x43B9 DUP2 DUP7 PUSH2 0x339C JUMP JUMPDEST SWAP1 POP DUP2 DUP2 SUB PUSH1 0x40 DUP4 ADD MSTORE PUSH2 0x43CD DUP2 DUP6 PUSH2 0x339C JUMP JUMPDEST SWAP1 POP PUSH2 0x43DC PUSH1 0x60 DUP4 ADD DUP5 PUSH2 0x4383 JUMP JUMPDEST SWAP6 SWAP5 POP POP POP POP POP JUMP JUMPDEST PUSH1 0x0 PUSH2 0x43F0 DUP3 PUSH2 0x2FC0 JUMP JUMPDEST SWAP2 POP PUSH2 0x43FB DUP4 PUSH2 0x2FC0 JUMP JUMPDEST SWAP3 POP DUP3 DUP3 MUL PUSH2 0x4409 DUP2 PUSH2 0x2FC0 JUMP JUMPDEST SWAP2 POP DUP1 DUP3 EQ PUSH2 0x441B JUMPI PUSH2 0x441A PUSH2 0x3CE1 JUMP JUMPDEST JUMPDEST POP SWAP3 SWAP2 POP POP JUMP JUMPDEST PUSH1 0x0 PUSH2 0x442D DUP3 PUSH2 0x2FC0 JUMP JUMPDEST SWAP2 POP PUSH4 0xFFFFFFFF DUP3 SUB PUSH2 0x4443 JUMPI PUSH2 0x4442 PUSH2 0x3CE1 JUMP JUMPDEST JUMPDEST PUSH1 0x1 DUP3 ADD SWAP1 POP SWAP2 SWAP1 POP JUMP JUMPDEST PUSH1 0x0 DUP2 SWAP1 POP SWAP3 SWAP2 POP POP JUMP JUMPDEST PUSH1 0x0 PUSH2 0x4464 DUP3 PUSH2 0x305E JUMP JUMPDEST PUSH2 0x446E DUP2 DUP6 PUSH2 0x444E JUMP JUMPDEST SWAP4 POP PUSH2 0x447E DUP2 DUP6 PUSH1 0x20 DUP7 ADD PUSH2 0x307A JUMP JUMPDEST DUP1 DUP5 ADD SWAP2 POP POP SWAP3 SWAP2 POP POP JUMP JUMPDEST PUSH1 0x0 DUP2 PUSH1 0xF0 SHL SWAP1 POP SWAP2 SWAP1 POP JUMP JUMPDEST PUSH1 0x0 PUSH2 0x44A2 DUP3 PUSH2 0x448A JUMP JUMPDEST SWAP1 POP SWAP2 SWAP1 POP JUMP JUMPDEST PUSH2 0x44BA PUSH2 0x44B5 DUP3 PUSH2 0x33D5 JUMP JUMPDEST PUSH2 0x4497 JUMP JUMPDEST DUP3 MSTORE POP POP JUMP JUMPDEST PUSH1 0x0 PUSH2 0x44CC DUP3 DUP7 PUSH2 0x4459 JUMP JUMPDEST SWAP2 POP PUSH2 0x44D8 DUP3 DUP6 PUSH2 0x44A9 JUMP JUMPDEST PUSH1 0x2 DUP3 ADD SWAP2 POP PUSH2 0x44E8 DUP3 DUP5 PUSH2 0x4459 JUMP JUMPDEST SWAP2 POP DUP2 SWAP1 POP SWAP5 SWAP4 POP POP POP POP JUMP INVALID LOG2 PUSH5 0x6970667358 0x22 SLT KECCAK256 0xD8 SELFBALANCE PUSH29 0x67CE9846F9A5A75232F20C40DBC806DAB1372E8A50A5DB68B1FABD2F18 PUSH5 0x736F6C6343 STOP ADDMOD NOT STOP CALLER "
        },
        "methodIdentifiers": {
          "challengeAbandonwareVersion(bytes32,string,string)": "c61d0576",
          "game(bytes32)": "8c1cdb4a",
          "gameChallengeHistory(bytes32)": "6d25d153",
          "gameVersionHistory(bytes32)": "2388f2cf",
          "getGameChallengeHistory(bytes32)": "de53e35e",
          "getGameVersionHistory(bytes32)": "cd64c942",
          "owner()": "8da5cb5b",
          "searchAbandonware(string,string,string,uint16)": "fd399702",
          "voteChallenge(bytes32,bool,uint32)": "6af6f24e"
        }
      }
    }
  }
}